:020000040800F2
:1000000000500020D53F00081940000819400008A2
:1000100019400008194000081940000800000000BD
:10002000000000000000000000000000194000086F
:10003000194000080000000019400008194000089D
:10004000194000081940000819400008194000082C
:10005000194000081940000819400008194000081C
:10006000194000081940000819400008194000080C
:1000700019400008194000081940000819400008FC
:1000800019400008194000081940000819400008EC
:1000900019400008194000081940000819400008DC
:1000A00019400008194000081940000819400008CC
:1000B00019400008194000081940000819400008BC
:1000C00019400008194000081940000819400008AC
:1000D000194000081940000819400008194000089C
:1000E00019400008194000081940000800000000ED
:1000F0000000000000000000000000000000000000
:1001000000000000000000005FF808F1044B054803
:100110001B1A062B02D9044B03B11847704700BFC6
:10012000E3060020E0060020000000000549064824
:10013000091A891001EBD171491002D0034B03B1A8
:1001400018477047E0060020E0060020000000008D
:1001500010B5064C237843B9FFF7D8FF044B13B111
:100160000448AFF300800123237010BDE006002097
:1001700000000000946D000808B5084B1BB1084949
:100180000848AFF300800848036813B9BDE8084089
:10019000CCE7064B002BF9D09847F7E700000000AA
:1001A000E4060020946D0008DC060020000000003A
:1001B00080B582B000AF78607B682F4A934208D147
:1001C0000121042000F0F2FD0021042000F0EEFDEA
:1001D0004EE07B68294A934208D10121082000F0B3
:1001E000E5FD0021082000F0E1FD41E07B68244AA4
:1001F000934208D10121102000F0D8FD00211020E9
:1002000000F0D4FD34E07B681E4A934208D10121FE
:10021000202000F0CBFD0021202000F0C7FD27E0CA
:100220007B68194A934208D10121402000F0BEFDAD
:100230000021402000F0BAFD1AE07B68134A934287
:1002400008D10121802000F0B1FD0021802000F0C4
:10025000ADFD0DE07B680E4A934209D101214FF4B8
:10026000807000F0A3FD00214FF4807000F09EFD2F
:1002700000BF0837BD4680BD00080140000C0140AA
:10028000001001400014014000180140001C014012
:100290000020014080B500AF0121012000F086FD63
:1002A0000021012000F082FD00BF80BD80B489B034
:1002B00000AF786039600023FB6100233B610023BD
:1002C000BB610023FB6000237B610023BB603B68B4
:1002D000DB7803F00F03FB613B68DB7803F010036E
:1002E000002B05D03B689B781A46FB691343FB61E2
:1002F0003B681B88DBB2002B44D07B681B687B61AA
:100300000023BB6138E00122BB6902FA03F3FB6002
:100310003B681B881A46FB6813403B613A69FB68DF
:100320009A4226D1BB699B00FB600F22FB6802FA50
:1003300003F3BB60BB68DB437A6913407B61FA69F6
:10034000FB6802FA03F37A6913437B613B68DB784D
:10035000282B05D10122BB699A407B685A6108E0CD
:100360003B68DB78482B04D10122BB699A407B684B
:100370001A61BB690133BB61BB69072BC3D97B68B9
:100380007A691A603B681B88FF2B46D97B685B68DB
:100390007B610023BB613AE0BB690833012202FAAA
:1003A00003F3FB603B681B881A46FB6813403B6104
:1003B0003A69FB689A4227D1BB699B00FB600F2218
:1003C000FB6802FA03F3BB60BB68DB437A69134046
:1003D0007B61FA69FB6802FA03F37A6913437B6174
:1003E0003B68DB78282B05D1BB69083301229A4092
:1003F0007B685A613B68DB78482B05D1BB690833C1
:1004000001229A407B681A61BB690133BB61BB69F9
:10041000072BC1D97B687A695A6000BF2437BD4673
:1004200080BC704780B483B000AF78607B684FF6C3
:10043000FF721A807B6802229A707B680422DA704D
:1004400000BF0C37BD4680BC704700BF80B485B08C
:1004500000AF78600B467B800023FB737B689A6853
:100460007B881340002B02D00123FB7301E00023A3
:10047000FB73FB7B18461437BD4680BC704700BF3A
:1004800080B483B000AF78607B689B689BB21846ED
:100490000C37BD4680BC704780B485B000AF786033
:1004A0000B467B800023FB737B68DA687B881340F4
:1004B000002B02D00123FB7301E00023FB73FB7BC5
:1004C00018461437BD4680BC704700BF80B483B067
:1004D00000AF78607B68DB689BB218460C37BD467E
:1004E00080BC704780B483B000AF78600B467B80DF
:1004F0007A887B681A6100BF0C37BD4680BC7047A4
:1005000080B483B000AF78600B467B807A887B68CC
:100510005A6100BF0C37BD4680BC704780B483B0C1
:1005200000AF78600B467B8013467B707B78002B96
:1005300003D07A887B681A6102E07A887B685A6106
:1005400000BF0C37BD4680BC704700BF80B483B08D
:1005500000AF78600B467B807A887B68DA6000BFEA
:100560000C37BD4680BC704780B485B000AF786062
:100570000B467B804FF48033FB607B88FA68134323
:10058000FB607B68FA689A617A887B689A617B680D
:10059000FA689A617B689B69FB607B689B69FB607A
:1005A00000BF1437BD4680BC704700BF80B485B023
:1005B00000AF03460A46FB711346BB710023FB6084
:1005C0000C4B1B68FB60FA684FF680731340FB60AE
:1005D000FB791B01FA681343FB60BB79FA6813438C
:1005E000FB60044AFB68136000BF1437BD4680BC43
:1005F000704700BF0000014080B483B000AF0346E5
:10060000FB71044AFB79136000BF0C37BD4680BC08
:10061000704700BF1C00204280B487B000AF7860F4
:100620000B46FB7000233B610023FB6000237B61D2
:100630000023BB607B68002B03DA2E4BDB697B61F8
:1006400002E02C4B5B687B617B681B0C03F00F03A3
:10065000BB607B689BB23B617B6803F44013B3F5DE
:10066000401F0AD17B6923F070637B61214A214BD3
:100670005B6823F07063536021E07B6803F48013B0
:10068000002B0ED00322BB6802FA03F3FB60FB6869
:10069000DB437A6913407B617B6943F070637B6164
:1006A0000DE07B685B0D1B013A6902FA03F3DB4343
:1006B0007A6913407B617B6943F070637B61FB78EF
:1006C000002B08D07B685B0D1B013A6902FA03F32B
:1006D0007A6913437B617B68002B03DA054A7B69E7
:1006E000D36102E0034A7B69536000BF1C37BD46FB
:1006F00080BC70470000014090B484B000AF034656
:100700000A46FB711346BB710023FB60BB7903F003
:1007100003039B000F2202FA03F3FB601649BB7927
:100720009B08DBB21846144ABB799B08DBB2023344
:1007300052F82320FB68DB431A40831C41F8232036
:100740000D48BB799B08DBB21C460B4ABB799B0862
:10075000DBB2023352F82320F979BB7903F00303AB
:100760009B0001FA03F31A43A31C40F8232000BFA7
:100770001037BD4690BC70470000014080B483B084
:1007800000AF7860034A7B68136000BF0C37BD463A
:1007900080BC7047DC00204280B400AF134A134B8A
:1007A0001B6843F0010313601049104B5A68104B4B
:1007B00013404B600D4A0D4B1B6823F0847323F4E8
:1007C00080331360094A094B1B6823F480231360AC
:1007D000064A064B5B6823F4FE035360034B4FF459
:1007E0001F029A6000BFBD4680BC704700100240E7
:1007F0000000FFF880B483B000AF7860134A134B59
:100800001B6823F480331360104A104B1B6823F4D9
:10081000802313607B68B3F5803F03D0B3F5802F4E
:1008200007D00DE0094A094B1B6843F4803313607D
:1008300006E0064A054B1B6843F4A023136000BF83
:1008400000BF0C37BD4680BC704700BF001002409F
:1008500080B582B000AF00233B600023FB71002312
:10086000BB71312000F00EFB0346BB713B680133C6
:100870003B603B68B3F5A06F02D0BB79002BF0D092
:10088000312000F0FFFA0346002B02D00123FB7158
:1008900001E00023FB71FB7918460837BD4680BD97
:1008A00080B485B000AF0346FB710023FB600A4BA8
:1008B0001B68FB60FB6823F0F803FB60FB79DB003F
:1008C000FA681343FB60044AFB68136000BF1437E7
:1008D000BD4680BC704700BF0010024080B483B0AA
:1008E00000AF0346FB71044AFB79136000BF0C376D
:1008F000BD4680BC704700BF0000424280B485B056
:1009000000AF786039600023FB600A4B5B68FB60D6
:10091000FB6823F47C13FB607A683B681343FA6836
:100920001343FB60034AFB68536000BF1437BD46A6
:1009300080BC70470010024080B483B000AF034613
:10094000FB71044AFB79136000BF0C37BD4680BCC5
:10095000704700BF6000424280B485B000AF78604D
:100960000023FB60094B5B68FB60FB6823F003031B
:10097000FB60FA687B681343FB60044AFB685360C2
:1009800000BF1437BD4680BC704700BF0010024056
:1009900080B400AF044B5B68DBB203F00C03DBB246
:1009A0001846BD4680BC70470010024080B485B038
:1009B00000AF78600023FB60094B5B68FB60FB685D
:1009C00023F0F003FB60FA687B681343FB60044A82
:1009D000FB68536000BF1437BD4680BC704700BF42
:1009E0000010024080B485B000AF78600023FB6047
:1009F000094B5B68FB60FB6823F4E063FB60FA680B
:100A00007B681343FB60044AFB68536000BF1437E4
:100A1000BD4680BC704700BF0010024080B485B066
:100A200000AF78600023FB60094B5B68FB60FB68EC
:100A300023F46053FB607B68DB00FA681343FB60C0
:100A4000034AFB68536000BF1437BD4680BC704743
:100A50000010024080B483B000AF03460A46FB7129
:100A60001346BB71BB79002B08D00C490B4B1B788C
:100A7000DAB2FB791343DBB20B7009E00749074B8D
:100A80001B78DAB2FB79DB43DBB21340DBB20B70CD
:100A900000BF0C37BD4680BC704700BF0910024044
:100AA00080B483B000AF7860034A7B68136000BFF6
:100AB0000C37BD4680BC7047D800424280B485B038
:100AC00000AF78600023FB60094B5B68FB60FB684C
:100AD00023F44043FB60FA687B681343FB60044ADD
:100AE000FB68536000BF1437BD4680BC704700BF31
:100AF0000010024080B483B000AF0346FB710C4B82
:100B000000221A700A4B00221A70FB79012B02D0C6
:100B1000042B04D007E0064B01221A7003E0044BBB
:100B200005221A7000BF00BF0C37BD4680BC70475D
:100B30002010024080B483B000AF0346FB71044A2A
:100B4000FB79136000BF0C37BD4680BC704700BF07
:100B50008004424280B483B000AF78600549054B01
:100B60001A6A7B6813430B6200BF0C37BD4680BC1A
:100B7000704700BF0010024080B483B000AF03464E
:100B8000FB71044AFB79136000BF0C37BD4680BC83
:100B9000704700BF3C04424280B487B000AF786029
:100BA00000237B6100233B610023FB600023BB60CB
:100BB0004C4B5B6803F00C037B617B69042B07D013
:100BC000082B09D0002B33D17B68474A1A6033E0E9
:100BD0007B68454A1A602FE0424B5B6803F4701350
:100BE0003B61404B5B6803F48033FB603B699B0CCB
:100BF00002333B61FB68002B06D13B693B4A02FB99
:100C000003F27B681A6017E0364B5B6803F400332D
:100C1000002B06D03B69354A02FB03F27B681A6061
:100C20000AE03B69304A02FB03F27B681A6003E08A
:100C30007B682D4A1A6000BF2A4B5B6803F0F00303
:100C40007B617B691B097B61294A7B6913441B78A3
:100C5000DBB2BB607B681A68BB68DA407B685A60AD
:100C6000204B5B6803F4E0637B617B691B0A7B615B
:100C70001F4A7B6913441B78DBB2BB607B685A68F0
:100C8000BB68DA407B689A60164B5B6803F460537C
:100C90007B617B69DB0A7B61154A7B6913441B78A6
:100CA000DBB2BB607B685A68BB68DA407B68DA609D
:100CB0000C4B5B6803F440437B617B699B0B7B615E
:100CC0000C4A7B6913441B78DBB2BB607B68DA6833
:100CD000BB68B2FBF3F27B681A6100BF1C37BD46EC
:100CE00080BC70470010024000127A0000093D00ED
:100CF000000000201000002080B483B000AF7860B6
:100D00000B46FB70FB78002B06D00949084B5A694B
:100D10007B6813434B6106E00549054B5A697B68C4
:100D2000DB4313404B6100BF0C37BD4680BC7047AE
:100D30000010024080B483B000AF78600B46FB70B7
:100D4000FB78002B06D00949084B9A697B6813434E
:100D50008B6106E00549054B9A697B68DB431340CC
:100D60008B6100BF0C37BD4680BC7047001002404D
:100D700080B483B000AF78600B46FB70FB78002B2B
:100D800006D00949084BDA697B681343CB6106E05A
:100D90000549054BDA697B68DB431340CB6100BF33
:100DA0000C37BD4680BC70470010024080B483B051
:100DB00000AF78600B46FB70FB78002B06D009492A
:100DC000084BDA687B681343CB6006E00549054BA6
:100DD000DA687B68DB431340CB6000BF0C37BD464D
:100DE00080BC70470010024080B483B000AF7860D0
:100DF0000B46FB70FB78002B06D00949084B1A699B
:100E00007B6813430B6106E00549054B1A697B6853
:100E1000DB4313400B6100BF0C37BD4680BC7047FD
:100E20000010024080B483B000AF0346FB71044A57
:100E3000FB79136000BF0C37BD4680BC704700BF14
:100E40004004424280B483B000AF0346FB71044AC1
:100E5000FB79136000BF0C37BD4680BC704700BFF4
:100E60004C00424280B483B000AF0346FB71044A99
:100E7000FB79137000BF0C37BD4680BC704700BFC4
:100E80000710024080B487B000AF0346FB71002317
:100E9000FB6000237B610023FB74FB795B09DBB201
:100EA000FB60FB68012B03D1124B1B687B6109E0DF
:100EB000FB68022B03D10F4B1B6A7B6102E00D4BD9
:100EC0005B6A7B61FB7903F01F03FB607A69FB6857
:100ED00022FA03F303F00103002B02D00123FB7479
:100EE00001E00023FB74FB7C18461C37BD4680BC28
:100EF000704700BF0010024080B400AF044A044BAA
:100F00005B6A43F08073536200BFBD4680BC70478C
:100F10000010024080B485B000AF0346FB7100238F
:100F2000FB73084B9A68FB791340002B02D0012316
:100F3000FB7301E00023FB73FB7B18461437BD46AF
:100F400080BC70470010024080B483B000AF0346FD
:100F5000FB71044AFB79137000BF0C37BD4680BC9F
:100F6000704700BF0A10024080B487B000AFF8603D
:100F7000B9607A60FB687B61BB683B6107E07B69B5
:100F80005A1C7A613A69511C396112781A707B686F
:100F90005A1E7A60002BF2D100BF1C37BD4680BCC0
:100FA000704700BF80B487B000AFF860B9607A6066
:100FB000FB687B6105E07B695A1C7A61BA68D2B232
:100FC0001A707B685A1E7A60002BF4D100BF1C3760
:100FD000BD4680BC704700BF80B489B000AFF860E8
:100FE000B9607A60FB68FB61BB68BB6100237B6111
:100FF00000BF7B685A1E7A60002B0DD0FB695A1C1B
:10100000FA611B781946BB695A1CBA611B78CB1A66
:101010007B617B69002BECD07B6918462437BD4689
:1010200080BC704780B483B000AF7860396002E064
:101030007B6801337B607B681B78002B05D07B6865
:101040001B781A463B689A42F2D17B681B78184697
:101050000C37BD4680BC704780B584B000AF786067
:101060007B681B79002B33D07B68DB6AFB607B6875
:1010700058787B6803F130010123FA6805F0A4F980
:101080000346002B01D0012323E07B6800221A7164
:101090007B681B6AFA68D21A7B689B699A4217D2EE
:1010A0007B68DB78BB6010E07B689B69FA6813445F
:1010B000FB607B6858787B6803F130010123FA6894
:1010C00005F082F9BB68013BBB60BB68012BEBD824
:1010D000002318461037BD4680BD00BF80B582B0E2
:1010E00000AF786039607B68DA6A3B689A4218D052
:1010F0007868FFF7B1FF0346002B01D0012311E010
:101100007B6858787B6803F1300101233A6805F069
:101110002FF90346002B01D0012303E07B683A68D6
:10112000DA62002318460837BD4680BD80B584B01A
:1011300000AF78607868FFF78FFF0346FB73FB7B97
:10114000002B40F08C807B681B78032B7BD17B6865
:101150005B79012B77D17B6830334FF4007200212B
:101160001846FFF71FFF7B68552283F82E227B6805
:10117000AA2283F82F227B68522283F830207B68D2
:10118000522283F831207B68612283F832207B6809
:10119000412283F833207B68722283F814227B6813
:1011A000722283F815227B68412283F816227B681D
:1011B000612283F817227B681B69DAB27B6883F8A7
:1011C00018227B681B691B12DAB27B6883F819222C
:1011D0007B681B691B0CDAB27B6883F81A227B6878
:1011E0001B691B0EDAB27B6883F81B227B68DB6805
:1011F000DAB27B6883F81C227B68DB681B12DAB2E8
:101200007B6883F81D227B68DB681B0CDAB27B6885
:1012100083F81E227B68DB681B0EDAB27B6883F8DA
:101220001F227B68DB695A1C7B68DA627B6858780E
:101230007B6803F130017B68DA6A012305F0C4F8AA
:101240007B6800225A717B685B7800220021184677
:1012500005F0E6F80346002B01D00123FB73FB7B6E
:1012600018461037BD4680BD80B483B000AF7860AB
:1012700039603B68023B3B607B685B699A1E3B6858
:101280009A4201D8002308E07B689B781A463B68A5
:1012900003FB02F27B689B6A134418460C37BD4679
:1012A00080BC704780B586B000AF786039603B681D
:1012B000012B04D97B685A693B689A4201D8012303
:1012C0009BE07B681B78022B46D0032B64D0012B5C
:1012D00040F091803B687B617B695B087A691344CD
:1012E0007B617B681A6A7B695B0A134419467868DC
:1012F000FFF7F4FE0346002B76D17B69C3F30803A6
:101300007A68134493F830303B617B6901337B6129
:101310007B681A6A7B695B0A134419467868FFF791
:10132000DDFE0346002B61D17B69C3F308037A68B5
:10133000134493F830301B021A463B6913433B6158
:101340003B6803F00103002B02D03B691B0954E00A
:101350003B69C3F30B0350E07B681A6A3B681B0AC6
:10136000134419467868FFF7B9FE0346002B3FD1B6
:101370003B685B0003F4FF7330337A681344FB600F
:10138000FB6801331B781B029AB2FB681B789BB287
:1013900013439BB29BB230E07B681A6A3B68DB095F
:1013A000134419467868FFF799FE0346002B21D1B4
:1013B0003B689B0003F4FE7330337A681344FB6090
:1013C000FB6803331B781A06FB6802331B781B0487
:1013D0001343FA680132127812021343FA68127842
:1013E000134323F0704308E000BF04E000BF02E0B5
:1013F00000BF00E000BF4FF0FF3318461837BD466E
:1014000080BD00BF80B588B000AFF860B9607A6079
:10141000BB68012B04D9FB685A69BB689A4202D8A1
:101420000223FB77E7E0FB681B78022B72D0032BCB
:1014300000F09180012B40F0D180BB68BB61BB699B
:101440005B08BA691344BB61FB681A6ABB695B0A33
:1014500013441946F868FFF741FE0346FB77FB7F0C
:10146000002B40F0BE80BB69C3F308033033FA6839
:1014700013447B61BB6803F00103002B0FD07B6931
:101480001B78DBB203F00F03DAB27B681B01DBB21F
:1014900023F00F03DBB21343DBB2DBB201E07B6866
:1014A000DBB27A691370BB690133BB61FB6801224F
:1014B0001A71FB681A6ABB695B0A13441946F8681B
:1014C000FFF70CFE0346FB77FB7F002B40F08B8081
:1014D000BB69C3F308033033FA6813447B61BB680C
:1014E00003F00103002B03D07B681B09DBB20EE085
:1014F0007B691B78DBB223F00F03DAB27B681B0A2F
:10150000DBB203F00F03DBB21343DBB2DBB27A6969
:1015100013706DE0FB681A6ABB681B0A1344194616
:10152000F868FFF7DBFD0346FB77FB7F002B5CD100
:10153000BB685B0003F4FF733033FA6813447B61CC
:101540007B68DAB27B691A707B6901337A681212A0
:10155000D2B21A704CE0FB681A6ABB68DB0913440C
:101560001946F868FFF7BAFD0346FB77FB7F002BAF
:101570003DD1BB689B0003F4FE733033FA6813441B
:101580007B617B6903331B781A067B6902331B7806
:101590001B0413437A6901321278120213437A69E9
:1015A0001278134303F070437A6813437B607B68BF
:1015B000DAB27B691A707B6901337A681212D2B28F
:1015C0001A707B6902337A68120CD2B21A707B6986
:1015D00003337A68120ED2B21A7009E00223FB7745
:1015E00006E000BF04E000BF02E000BF00E000BF73
:1015F000FB6801221A71FB7F18462037BD4680BD6B
:1016000080B584B000AF786039603B68012B04D9A5
:101610007B685A693B689A4202D80223FB733DE01B
:101620000023FB7331E039687868FFF73BFEB86050
:10163000BB68002B2FD0BB68012B02D10223FB73A8
:101640002CE0BB68B3F1FF3F02D10123FB7325E01F
:10165000002239687868FFF7D5FE0346FB73FB7BF1
:10166000002B1AD17B681B69B3F1FF3F0BD07B685D
:101670001B695A1C7B681A617B685B7943F0010324
:10168000DAB27B685A71BB683B607B685A693B6819
:101690009A42C8D802E000BF00E000BFFB7B1846BA
:1016A0001037BD4680BD00BF80B586B000AF786002
:1016B00039603B68002B0DD17B68DB683B613B697F
:1016C000002B04D07B685A693B699A4215D80123E4
:1016D0003B6112E039687868FFF7E4FDB860BB68E9
:1016E000012B01D8012368E07B685A69BB689A42E4
:1016F00001D9BB6861E03B683B613B697B617B6909
:1017000001337B617B685A697B699A4207D802235F
:101710007B617A693B699A4201D900234DE079697E
:101720007868FFF7BFFDB860BB68002B0ED0BB68C0
:10173000B3F1FF3F02D0BB68012B01D1BB683CE095
:101740007A693B699A42DAD1002336E000BF6FF034
:10175000704279697868FFF755FE0346FB73FB7B9F
:10176000002B09D13B68002B06D07A69396878686C
:10177000FFF748FE0346FB73FB7B002B14D17B680D
:101780007A69DA607B681B69B3F1FF3F14D07B682C
:101790001B695A1E7B681A617B685B7943F0010301
:1017A000DAB27B685A7107E0FB7B012B02D14FF064
:1017B000FF3300E001237B617B6918461837BD4683
:1017C00080BD00BF80B584B000AF78600B467B80E1
:1017D0007B687A88DA807B689B68FB60FB68012BFA
:1017E00005D07B681B685A69FB689A4201D80223BE
:1017F00066E0FB68002B08D17B681B681B78032B15
:1018000003D17B681B685B6AFB60FB68002B14D10B
:101810007B68FA68DA607B681B681B897A889A4261
:1018200001D302234CE07B681B685B6A7A8812094B
:1018300092B21A447B681A6136E07B681B689B7819
:101840009BB21B017B811BE07B681B68F968184613
:10185000FFF728FDF860FB68B3F1FF3F01D10123DA
:101860002EE0FB68012B05D97B681B685A69FB6871
:101870009A4201D8022323E07A887B89D31A7B809D
:101880007A887B899A42DFD27B68FA68DA607B6863
:101890001B68F9681846FFF7E7FC02467B881B09BE
:1018A0009BB21A447B681A617B681B6803F13002A3
:1018B0007B8803F00F035B011A447B685A610023A5
:1018C00018461037BD4680BD90B585B000AF786032
:1018D00039607B68DB8801333B813B89002B03D077
:1018E0007B681B69002B01D10423BBE03B8903F01B
:1018F0000F039BB2002B40F0A6807B681B695A1C2B
:101900007B681A617B68DB68002B08D17B681B68E9
:101910001B893A899A42C0F096800423A2E03B8951
:101920001B099BB21A467B681B689B78013B1340DE
:10193000002B40F088807B681A687B68DB6819465A
:101940001046FFF7AFFCF860FB68012B01D80223BB
:1019500088E0FB68B3F1FF3F01D1012382E07B689F
:101960001B685A69FB689A4261D83B68002B01D119
:10197000042377E07B681A687B68DB6819461046A9
:10198000FFF792FEF860FB68002B01D1072369E0A6
:10199000FB68012B01D1022364E0FB68B3F1FF3F38
:1019A00001D101235EE07B681B681846FFF754FBFA
:1019B0000346002B01D0012354E07B681B683033C1
:1019C0004FF4007200211846FFF7ECFA7B681C68A0
:1019D0007B681B68F9681846FFF746FC0346E3621C
:1019E0000023FB7215E07B681B6801221A717B687B
:1019F0001B681846FFF730FB0346002B01D001237C
:101A000030E07B681B68DA6A0132DA62FB7A013304
:101A1000FB727B681B689B78FA7A9A42E3D37B68F7
:101A20001B687A681268D16AFA7A8A1ADA627B6865
:101A3000FA68DA607B681B68F9681846FFF714FCDF
:101A400002467B681A617B683A89DA807B681B688A
:101A500003F130023B8903F00F035B011A447B68FA
:101A60005A61002318461437BD4690BD80B584B036
:101A700000AF7860396000217868FFF7A3FE034665
:101A8000FB73FB7B002B2DD10023BB607B681A68A6
:101A90007B681B6919461046FFF720FB0346FB7362
:101AA000FB7B002B1DD17B685B691B78E52B04D089
:101AB0007B685B691B78002B07D1BB680133BB6077
:101AC000BA683B689A4202D10CE00023BB60012156
:101AD0007868FFF7F9FE0346FB73FB7B002BD5D03C
:101AE00000E000BFFB7B042B01D10723FB73FB7BD2
:101AF00018461037BD4680BD80B485B000AF786011
:101B000039603B681B331B781B029AB23B681A335F
:101B10001B789BB213439BB29BB2FB607B681B7824
:101B2000032B0FD13B6815331B781B029AB23B681D
:101B300014331B789BB213439BB29BB21B04FA680D
:101B40001343FB60FB6818461437BD4680BC7047E2
:101B500080B483B000AF786039607B681A333A682C
:101B6000D2B21A707B681B333A681212D2B21A7062
:101B70007B6814333A68120CD2B21A707B68153342
:101B80003A68120C1212D2B21A7000BF0C37BD465E
:101B900080BC704780B586B000AF7860002178685F
:101BA000FFF710FE0346FB75FB7D002B01D0FB7D8C
:101BB00037E07B681A687B681B6919461046FFF797
:101BC0008DFA0346FB75FB7D002B26D17B685B6994
:101BD0003B613B691B78FB73FB7B002B02D1042329
:101BE000FB751DE03B690B331B7803F00803002BEA
:101BF00009D17B689B690B2219463869FFF7ECF91C
:101C00000346002B0BD000217868FFF75DFE0346EA
:101C1000FB75FB7D002BCCD002E000BF00E000BFD5
:101C2000FB7D18461837BD4680BD00BF80B586B025
:101C300000AF786039600423FB753AE07B681A686E
:101C40007B681B6919461046FFF748FA0346FB7587
:101C5000FB7D002B32D17B685B693B613B691B7864
:101C6000FB73FB7B002B02D10423FB752BE03B694C
:101C70000B331B7803F03F03BB73FB7BE52B0FD0CB
:101C8000FB7B2E2B0CD0BB7B0F2B09D0BB7B082BF7
:101C90000CBF01230023DBB21A463B689A420FD0E7
:101CA00000217868FFF710FE0346FB75FB7D002BD3
:101CB00008D17B681B69002BC0D104E000BF02E0A3
:101CC00000BF00E000BFFB7D002B02D07B6800223C
:101CD0001A61FB7D18461837BD4680BD80B584B0BB
:101CE00000AF786001217868FFF7C0FE0346FB7300
:101CF000FB7B002B1FD17B681A687B681B69194628
:101D00001046FFF7EBF90346FB73FB7B002B12D168
:101D10007B685B69202200211846FFF743F97B6846
:101D200058697B689B690B221946FFF71DF97B6890
:101D30001B6801221A71FB7B18461037BD4680BD17
:101D400080B584B000AF78607B68DB88194678681E
:101D5000FFF738FD0346FB73FB7B002B14D17B6838
:101D60001A687B681B6919461046FFF7B7F90346E6
:101D7000FB73FB7B002B07D17B685B69E5221A7044
:101D80007B681B6801221A71FB7B18461037BD4621
:101D900080BD00BF80B58AB000AF786039603B6815
:101DA0001B687B6102E07B6901337B617B691B7887
:101DB0002F2BF8D07B691B785C2BF4D07B689B6958
:101DC0003B610B2220213869FFF7ECF8002387F8EC
:101DD00027300023BB61BB69FB6108233B62FB69C1
:101DE0005A1CFA617A6913441B7887F8263097F8F1
:101DF0002630202B40F2A18097F826302F2B00F0C0
:101E00009C8097F826305C2B00F0978097F826305E
:101E10002E2B03D0BA693B6A9A4212D33B6A082B35
:101E200003D197F826302E2B01D00623C5E00823D6
:101E3000BB610B233B6297F827309B0087F8273064
:101E40007AE097F826305BB2002B05DA97F8273056
:101E500043F0030387F8273097F82630802B03D907
:101E600097F826309F2B07D997F82630DF2B2ED9ED
:101E700097F82630FC2B2AD8FB695A1CFA617A693C
:101E800013441B78FB73FB7B3F2B02D9FB7B7E2B20
:101E900006D9FB7B5BB2002B07DAFB7BFC2B04D85B
:101EA0003B6A5A1EBB699A4201D8062385E0BB698A
:101EB0005A1CBA613A69134497F826201A70BB6914
:101EC0005A1CBA613A691344FA7B1A7034E097F8E5
:101ED000263019463B48FFF7A5F80346002B01D0F2
:101EE00006236AE097F82630402B0AD997F8263067
:101EF0005A2B06D897F8273043F0020387F827308B
:101F000012E097F82630602B0ED997F826307A2BFE
:101F10000AD897F8273043F0010387F8273097F85D
:101F20002630203B87F82630BB695A1CBA613A69D3
:101F3000134497F826201A7051E77A69FB691A440E
:101F40003B681A6097F82630202B01D8042300E064
:101F5000002387F82630BB69002B01D106232CE033
:101F60003B691B78E52B02D13B6905221A703B6A5D
:101F7000082B04D197F827309B0087F8273097F873
:101F8000273003F00303012B05D197F8263043F0E7
:101F9000100387F8263097F8273003F00C03042B42
:101FA00005D197F8263043F0080387F826303B69BF
:101FB0000B3397F826201A70002318462837BD46A1
:101FC00080BD00BF0866000880B487B000AF7860AD
:101FD00039603B6809333B617B681B69002B59D032
:101FE0007B685B69BB6000237B611CE07B695A1CDA
:101FF0007A61BA6813441B78FB73FB7B202B00D1FA
:1020000011E0FB7B052B01D1E523FB737B69092BD9
:1020100004D13B695A1C3A612E221A703B695A1C42
:102020003A61FA7B1A707B690A2BDFD9BB68DA7ACE
:102030003B681A72BB681F331B781A06BB681E33D5
:102040001B781B041343BA681D3212781202134323
:10205000BA681C3212781A433B681A60BB6819339D
:102060001B781B029AB2BB6818331B789BB21343D0
:102070009BB29AB23B689A80BB6817331B781B02ED
:102080009AB2BB6816331B789BB213439BB29AB2C9
:102090003B68DA803B6900221A7000BF1C37BD46DE
:1020A00080BC704780B485B000AF78604FF0FF33DC
:1020B000FB607B681B68002B1BD07B681B681B7850
:1020C000303BFB60FB68082B11D87B681B68013331
:1020D0001B783A2B0BD17B681B689A1C7B681A60B3
:1020E000FB68002B05DD4FF0FF33FB6001E00023B0
:1020F000FB60FB6818461437BD4680BC704700BFC4
:1021000080B584B000AF786039603B681B782F2BB6
:1021100003D03B681B785C2B02D13B6801333B60EA
:102120007B6800229A603B681B781F2B09D800212E
:102130007868FFF747FB0346FB737B6800225A6110
:1021400041E03B4619467868FFF724FE0346FB73DF
:10215000FB7B002B32D17868FFF71CFD0346FB7335
:102160007B689B69DB7ABB73FB7B002B0AD0FB7B14
:10217000042B25D1BB7B03F00403002B20D10523C6
:10218000FB731DE0BB7B03F00403002B1AD17B68BB
:102190005B69BB60BB680B331B7803F01003002B3B
:1021A00002D10523FB730EE07B681B68B9681846F3
:1021B000FFF7A2FC02467B689A60C2E700BF02E01C
:1021C00000BF00E000BFFB7B18461037BD4680BD56
:1021D00080B582B000AF786039607B6800221A71E8
:1021E0007B684FF0FF32DA6239687868FEF776FF75
:1021F0000346002B01D003234BE07B6803F22E2320
:1022000001331B781B029AB27B6893F82E329BB283
:1022100013439BB21BB2214A934201D0022338E000
:102220007B68663303331B781A067B686633023398
:102230001B781B0413437A6866320132127812024B
:1022400013437A6892F86620134323F07F43144ABD
:10225000934201D100231CE07B68823303331B7857
:102260001A067B68823302331B781B0413437A6897
:10227000823201321278120213437A6892F8822075
:10228000134323F07F43064A934201D1002300E029
:10229000012318460837BD4680BD00BF55AAFFFF81
:1022A0004641540080B596B000AFF860B96013465F
:1022B000FB71FB6800221A60B868FFF7F3FEF86351
:1022C000FB6B002B01DA0B2392E29B4AFB6B52F86B
:1022D0002330BB63BB6B002B01D10C2388E2FB686E
:1022E000BA6B1A60BB6B1B78002B1AD0BB6B5B7888
:1022F000184604F029F8034687F8373097F8373046
:1023000003F00103002B0CD1FB79002B07D097F8C9
:10231000373003F00403002B01D00A2368E20023C6
:1023200066E2BB6B00221A70FB6BDAB2BB6B5A70B1
:10233000BB6B5B78184603F0F3FF034687F8373032
:1023400097F8373003F00103002B01D003234FE24D
:10235000FB79002B07D097F8373003F00403002BEC
:1023600001D00A2344E200233B65396DB86BFFF7C7
:102370002FFF034687F8573097F85730012B57D176
:1023800000233B642BE0BB6B03F130023B6C1B0171
:1023900003F5DF7313443B633B6B04331B78002B63
:1023A00012D03B6B0B331B781A063B6B0A331B783E
:1023B0001B0413433A6B09321278120213433A6B2F
:1023C000083212781A4300E000223B6C9B0007F1B0
:1023D00058010B4443F8442C3B6C01333B643B6C89
:1023E000032BD0D900233B643B6C002B02D03B6C09
:1023F000013B3B643B6C9B0007F15802134453F8CC
:10240000443C3B653B6D002B05D0396DB86BFFF745
:10241000DFFE034600E0022387F8573097F8573075
:10242000002B05D03B6C01333B643B6C032BE1D9A3
:1024300097F85730032B01D10123D9E197F8573092
:10244000002B01D00D23D3E1BB6B93F83C301B0272
:102450009AB2BB6B93F83B309BB213439BB21BB257
:10246000B3F5007F01D00D23C2E1BB6B93F8473079
:102470001B029AB2BB6B93F846309BB213439BB2DC
:102480009BB2FB64FB6C002B12D1BB6B93F85730F3
:102490001A06BB6B93F856301B041343BA6B92F8C1
:1024A000552012021343BA6B92F854201343FB6475
:1024B000BB6BFA6C9A61BB6B93F84020BB6BDA7014
:1024C000BB6BDB78012B05D0BB6BDB78022B01D01B
:1024D0000D238DE1BB6BDB781A46FB6C02FB03F32B
:1024E000FB64BB6B93F83D20BB6B9A70BB6B9B7816
:1024F000002B08D0BB6B9B781A46BB6B9B78013BCB
:102500001340002B01D00D2372E1BB6B93F84230D6
:102510001B029AB2BB6B93F841309BB213439BB240
:102520009AB2BB6B1A81BB6B1B8903F00F039BB282
:10253000002B03D00D235BE1FC060020BB6B93F85E
:1025400044301B029AB2BB6B93F843309BB21343E7
:102550009BB29BB2BB64BB6C002B12D1BB6B93F8DC
:1025600053301A06BB6B93F852301B041343BA6BFB
:1025700092F8512012021343BA6B92F85020134381
:10258000BB64BB6B93F83F301B029AB2BB6B93F8F2
:102590003E309BB213439BB2FB85FB8D002B01D1D8
:1025A0000D2325E1FA8DFB6C1344BA6B12891209D5
:1025B00092B21344BB62BA6CBB6A9A4201D20D2339
:1025C00016E1BA6CBB6AD31ABA6B9278B3FBF2F31A
:1025D0007B627B6A002B01D10D2309E1012387F87F
:1025E00057307B6A40F6F572934202D9022387F88E
:1025F00057307B6A4FF6F572934202D9032387F86E
:1026000057307B6A9A1CBB6B5A61BB6B3A6DDA61BF
:10261000FA8D3B6D1A44BB6B1A623A6DBB6A1A4461
:10262000BB6B9A6297F85730032B1ED1BB6B1B898B
:10263000002B01D00D23DBE0BB6B93F85F301A0653
:10264000BB6B93F85E301B041343BA6B92F85D20AA
:1026500012021343BA6B92F85C201A43BB6B5A62A6
:10266000BB6B5B699B007B641FE0BB6B1B89002B12
:1026700001D10D23BCE0BB6B1A6AFB6C1A44BB6B27
:102680005A6297F85730022B03D1BB6B5B695B0032
:102690000AE0BB6B5A6913465B0013445A08BB6BD4
:1026A0005B6903F0010313447B64BB6B9A697B6C29
:1026B00003F2FF135B0A9A4201D20D2398E0BB6B31
:1026C0004FF0FF321A61BB6B1A69BB6BDA60BB6BF0
:1026D00080225A7197F85730032B7AD1BB6B93F84D
:1026E00061301B029AB2BB6B93F860309BB213430C
:1026F0009BB21BB2012B6CD13B6D01331946B86BF9
:10270000FEF7ECFC0346002B63D1BB6B00225A7131
:10271000BB6B93F82F321B029AB2BB6B93F82E322D
:102720009BB213439BB21BB2334A934251D1BB6B52
:1027300093F833301A06BB6B93F832301B04134303
:10274000BA6B92F8312012021343BA6B92F8302020
:1027500013432A4A93423CD1BB6B93F817321A06B3
:10276000BB6B93F816321B041343BA6B92F8152215
:1027700012021343BA6B92F814221343204A934275
:1027800027D1BB6B93F81B321A06BB6B93F81A3236
:102790001B041343BA6B92F8192212021343BA6B4B
:1027A00092F818221A43BB6B1A61BB6B93F81F3265
:1027B0001A06BB6B93F81E321B041343BA6B92F8D4
:1027C0001D2212021343BA6B92F81C221A43BB6BF0
:1027D000DA60BB6B97F857201A700A4B1B880133DD
:1027E0009AB2084B1A80074B1A88BB6BDA80002319
:1027F00018465837BD4680BD55AAFFFF5252614169
:10280000727241610007002080B584B000AF78602B
:102810007B68FB60FB68002B0FD0FB681B68002BFC
:102820000BD0FB681B681B78002B06D0FB681B686D
:10283000DA88FB689B889A4201D009230DE0FB6887
:102840001B685B78184603F07FFD034603F0010325
:10285000002B01D0032300E0002318461037BD46AB
:1028600080BD00BF80B588B000AFF860B960134686
:10287000FB7107F108031846FFF714FCF861FB69C8
:10288000002B01DA0B2328E0164AFB6952F82330AB
:10289000BB61BB69002B02D0BB6900221A70FB68C8
:1028A000002B02D0FB6800221A70FA680D49FB6900
:1028B00041F82320FB68002B02D0FB79012B01D0CB
:1028C00000230AE007F1080107F10C030022184673
:1028D000FFF7E8FC0346FB75FB7D18462037BD4635
:1028E00080BD00BFFC06002080B592B000AFF8604C
:1028F000B9601346FB71FB68002B01D109232DE160
:10290000FB6800221A60FB7903F01F03FB71FB795F
:1029100023F00103DAB207F1080107F11C0318469E
:10292000FFF7C0FC034687F8473097F84730002B85
:1029300040F0128107F110037B63BA6807F11C03B2
:1029400011461846FFF7DCFB034687F847303B6B20
:102950003B6497F84730002B05D13B6C002B02D12C
:10296000062387F84730FB7903F01C03002B00F0A7
:102970008D8097F84730002B12D097F84730042B02
:1029800007D107F11C031846FFF7A8F9034687F89B
:102990004730FB7943F00803FB713B6B3B6412E06B
:1029A0003B6C0B331B7803F01103002B03D0072380
:1029B00087F8473007E0FB7903F00403002B02D0CF
:1029C000082387F8473097F84730002B7CD1FB79F4
:1029D00003F00803002B77D003F056FDF8633B6C3F
:1029E0000E33FA6BD2B21A703B6C0F33FA6B1212C1
:1029F000D2B21A703B6C1033FA6B120CD2B21A704E
:102A00003B6C1133FA6B120ED2B21A703B6C0B3363
:102A100000221A703B6C1C3300221A703B6C1D3371
:102A200000221A703B6C1E3300221A703B6C1F335D
:102A300000221A70FB69396C1846FFF75DF8B8631D
:102A40000021386CFFF784F8FB6901221A71BB6B17
:102A5000002B39D0FB69DB6AFB63FB69B96B184655
:102A6000FEF7CEFD034687F8473097F84730002B36
:102A70002AD1FB69BA6B013ADA60FB69F96B184637
:102A8000FEF72CFB034687F847301DE097F84730E8
:102A9000002B19D13B6C0B331B7803F01003002B78
:102AA00003D0042387F847300EE0FB7903F00203DC
:102AB000002B09D03B6C0B331B7803F00103002B78
:102AC00002D0072387F8473097F84730002B0FD103
:102AD000FB7903F00803002B03D0FB7943F02003BC
:102AE000FB71FB69DA6AFB68DA61FB683A6C1A62AF
:102AF00097F84730002B2FD1FB68FA799A71FB6861
:102B00000022DA71FB69396C1846FEF7F5FF0246C0
:102B1000FB681A613B6C1F331B781A063B6C1E3333
:102B20001B781B0413433A6C1D32127812021343B4
:102B30003A6C1C3212781A43FB68DA60FB68002298
:102B40009A60FB6800229A61FA69FB681A60FB6868
:102B50001B68DA88FB689A8097F847301846483730
:102B6000BD4680BD80B58CB000AFF860B9607A60BA
:102B70003B60BB683B623B6800221A60F868FFF765
:102B800043FE0346FB77FB7F002B01D0FB7F1DE15B
:102B9000FB68DB79002B02D0FB68DB7916E1FB6870
:102BA0009B7903F00103002B01D107230EE1FB68A1
:102BB000DA68FB689B68D31ABB617A68BB699A4282
:102BC00040F2FF80BB697B60FBE0FB689B68C3F35E
:102BD0000803002B40F0C780FB689B685B0ADAB2F1
:102BE000FB681B689B78013BDBB21340FB75FB7DE8
:102BF000002B24D1FB689B68002B03D1FB681B6969
:102C0000FB6208E0FB681A68FB685B6919461046BE
:102C1000FEF748FBF862FB6A012B04D8FB6802222E
:102C2000DA710223D2E0FB6AB3F1FF3F04D1FB6803
:102C30000122DA710123C9E0FB68FA6A5A61FB6874
:102C40001A68FB685B6919461046FEF70DFB386190
:102C50003B69002B04D1FB680222DA710223B5E044
:102C6000FB7D3A6913443B617B685B0A7B627B6A4C
:102C7000002B3ED0FA7D7B6A1344FA681268927882
:102C8000934206D9FB681B689B781A46FB7DD31AD2
:102C90007B62FB681B6858787B6ADBB23A69396AE9
:102CA00003F066FB0346002B04D0FB680122DA71B7
:102CB00001238BE0FB689B7903F04003002B14D0C9
:102CC000FB689A693B69D21A7B6A9A420DD2FB680B
:102CD0009A693B69D31A5B023A6AD018FB682433BD
:102CE0004FF400721946FEF73FF97B6A5B02BB6244
:102CF00053E0FB689A693B699A4231D0FB689B7943
:102D000003F04003002B19D0FB681B685878FB6860
:102D100003F12401FB689A69012303F055FB034684
:102D2000002B04D0FB680122DA7101234EE0FB681E
:102D30009B7923F04003DAB2FB689A71FB681B6849
:102D40005878FB6803F1240101233A6903F010FB72
:102D50000346002B04D0FB680122DA71012335E021
:102D6000FB683A699A61FB689B68C3F30803C3F583
:102D70000073BB62BA6A7B689A4201D97B68BB6206
:102D8000FB689B68C3F308032033FA6813440433D9
:102D9000BA6A1946386AFEF7E7F83A6ABB6A13441A
:102DA0003B62FB689A68BB6A1A44FB689A603B689E
:102DB0001A68BB6A1A443B681A607A68BB6AD31AFD
:102DC0007B607B68002B7FF400AF00231846303710
:102DD000BD4680BD80B58AB000AFF860B9607A604A
:102DE0003B60BB68BB613B6800221A60F868FFF774
:102DF0000BFD0346FB75FB7D002B01D0FB7D4EE1F7
:102E0000FB68DB79002B02D0FB68DB7947E1FB68CC
:102E10009B7903F00203002B01D107233FE1FB68FC
:102E20009A687B681A44FB689B689A4280F01F810D
:102E300000237B601BE1FB689B68C3F30803002B46
:102E400040F0E080FB689B685B0ADAB2FB681B68B5
:102E50009B78013BDBB21340BB75BB7D002B35D1AA
:102E6000FB689B68002B10D1FB681B697B627B6A47
:102E7000002B13D1FB681B6800211846FEF714FCD9
:102E80007862FB687A6A1A6108E0FB681A68FB6876
:102E90005B6919461046FEF707FC78627B6A002BD7
:102EA00000F0EA807B6A012B04D1FB680222DA7110
:102EB0000223F4E07B6AB3F1FF3F04D1FB680122F7
:102EC000DA710123EBE0FB687A6A5A61FB689B794F
:102ED00003F04003002B19D0FB681B685878FB688F
:102EE00003F12401FB689A69012303F06DFA03469C
:102EF000002B04D0FB680122DA710123CFE0FB68CC
:102F00009B7923F04003DAB2FB689A71FB681A6878
:102F1000FB685B6919461046FEF7A6F938613B6904
:102F2000002B04D1FB680222DA710223B7E0BB7DDB
:102F30003A6913443B617B685B0AFB61FB69002BC8
:102F400040D0BA7DFB691344FA68126892789342C4
:102F500006D9FB681B689B781A46BB7DD31AFB61B8
:102F6000FB681B685878FB69DBB23A69B96903F002
:102F70002BFA0346002B04D0FB680122DA710123EF
:102F80008DE0FB689A693B69D21AFB699A4215D2B7
:102F9000FB6803F12400FB689A693B69D31A5B0262
:102FA000BA6913444FF400721946FDF7DDFFFB6860
:102FB0009B7923F04003DAB2FB689A71FB695B02EC
:102FC0003B6240E0FB689A693B699A4217D0FB6814
:102FD0009A68FB68DB689A4211D2FB681B685878D4
:102FE000FB6803F1240101233A6903F0C1F90346A8
:102FF000002B04D0FB680122DA7101234FE0FB684B
:103000003A699A61FB689B68C3F30803C3F50073D0
:103010003B623A6A7B689A4201D97B683B62FB68F3
:103020009B68C3F308032033FA68134404333A6AF5
:10303000B9691846FDF798FFFB689B7943F0400398
:10304000DAB2FB689A71BA693B6A1344BB61FB68E8
:103050009A683B6A1A44FB689A603B681A683B6A44
:103060001A443B681A607A683B6AD31A7B607B68B3
:10307000002B7FF4E0AE00E000BFFB689A68FB68BD
:10308000DB689A4203D9FB689A68FB68DA60FB68E0
:103090009B7943F02003DAB2FB689A71002318464B
:1030A0002837BD4680BD00BF80B586B000AF7860D0
:1030B0007868FFF7A9FB0346FB75FB7D002B40F00A
:1030C00092807B689B7903F02003002B00F08B80BB
:1030D0007B689B7903F04003002B16D07B681B684C
:1030E00058787B6803F124017B689A69012303F017
:1030F0006BF90346002B01D0012375E07B689B79B7
:1031000023F04003DAB27B689A717B681A687B68A7
:10311000DB6919461046FDF7E1FF0346FB75FB7DB1
:10312000002B60D17B681B6A3B613B690B333A69BA
:103130000B32127842F02002D2B21A703B691C3373
:103140007A68D268D2B21A703B691D337A68D26845
:103150001212D2B21A703B691E337A68D268120C0E
:10316000D2B21A703B691F337A68D268120ED2B29B
:103170001A707B681B6919463869FEF7E9FC03F091
:1031800083F9F8603B691633FA68D2B21A703B696A
:103190001733FA681212D2B21A703B691833FA6800
:1031A000120CD2B21A703B691933FA68120ED2B2FD
:1031B0001A703B69123300221A703B6913330022E4
:1031C0001A707B689B7923F02003DAB27B689A71CE
:1031D0007B681B6801221A717B681B681846FDF723
:1031E000A5FF0346FB75FB7D18461837BD4680BD1D
:1031F00080B584B000AF78607868FFF755FF03466C
:10320000FB73FB7B002B02D17B6800221A60FB7BE7
:1032100018461037BD4680BD80B588B000AF7860D5
:1032200039607868FFF7F0FA0346FB75FB7D002BE9
:1032300001D0FB7D1FE17B68DB79002B02D07B682E
:10324000DB7918E17B68DA683B689A4208D27B68D0
:103250009B7903F00203002B02D17B68DB683B60A3
:103260007B689B683B610023BB617B68BA699A609D
:103270003B68002B00F0AD807B681B689B785B028D
:10328000FB603B69002B1BD03B685A1EFB68B2FBFE
:10329000F3F23B69591EFB68B1FBF3F39A420FD37B
:1032A0003B695A1EFB685B421A407B689A607B68E8
:1032B0009B683A68D31A3B607B685B69FB6123E0DB
:1032C0007B681B69FB61FB69002B1AD17B681B685B
:1032D00000211846FEF7E8F9F861FB69012B04D1DB
:1032E0007B680222DA710223C5E0FB69B3F1FF3F7C
:1032F00004D17B680122DA710123BCE07B68FA69A2
:103300001A617B68FA695A61FB69002B61D03DE064
:103310007B689B7903F00203002B0CD07B681B6851
:10332000F9691846FEF7C0F9F861FB69002B09D16D
:10333000FB683B602EE07B681B68F9691846FDF767
:10334000B1FFF861FB69B3F1FF3F04D17B68012253
:10335000DA7101238FE0FB69012B05D97B681B68BB
:103360005A69FB699A4204D87B680222DA71022307
:1033700081E07B68FA695A617B689A68FB681A4445
:103380007B689A603A68FB68D31A3B603A68FB68CE
:103390009A42BDD87B689A683B681A447B689A60F9
:1033A0003B68C3F30803002B13D07B681B68F969E3
:1033B0001846FDF759FFB861BB69002B04D17B6843
:1033C0000222DA71022356E03B685B0ABA691344B1
:1033D000BB617B689B68C3F30803002B39D07B6813
:1033E0009A69BB699A4234D07B689B7903F04003A9
:1033F000002B19D07B681B6858787B6803F1240187
:103400007B689A69012302F0DFFF0346002B04D09A
:103410007B680122DA7101232DE07B689B7923F020
:103420004003DAB27B689A717B681B6858787B68C6
:1034300003F124010123BA6902F09AFF0346002B2D
:1034400004D07B680122DA71012314E07B68BA6939
:103450009A617B689A687B68DB689A420AD97B68C4
:103460009A687B68DA607B689B7943F02003DAB264
:103470007B689A71FB7D18462037BD4680BD00BF32
:1034800080B588B000AF786039607B68002B01D1CF
:1034900009234EE0394607F1180300221846FEF7CB
:1034A00001FF0346FB77FB7F002B3BD1BA697B68AA
:1034B0001A607B6807F10C029A613B6819467868CC
:1034C000FEF71EFE0346FB77FB7F002B25D17B68B2
:1034D0005B69002B14D07B685B690B331B7803F0AE
:1034E0001003002B0AD0BA697B685B691946104645
:1034F000FEF702FB02467B689A6001E00523FB773A
:10350000FB7F002B09D1BB69DA887B689A80002198
:103510007868FEF757F90346FB77FB7F042B01D150
:103520000523FB77FB7F002B02D07B6800221A600B
:10353000FB7F18462037BD4680BD00BF80B584B0F4
:1035400000AF78607868FFF75FF90346FB73FB7B99
:10355000002B02D17B6800221A60FB7B18461037D3
:10356000BD4680BD80B586B000AF786039607868B0
:10357000FFF74AF90346FB75FB7D002B30D13B6812
:10358000002B06D100217868FEF71CF90346FB7575
:1035900026E07B6807F108029A6100217868FEF74F
:1035A00045FB0346FB75FB7D042B04D17B680022A1
:1035B0001A610023FB75FB7D002B11D139687868F7
:1035C000FEF702FD00217868FEF77EF90346FB75E1
:1035D000FB7D042B04D17B6800221A610023FB755C
:1035E000FB7D18461837BD4680BD00BF80B58EB044
:1035F00000AF78603960391D07F1180300221846C2
:10360000FEF750FE034687F8373097F83730002B27
:1036100020D107F10C033B637A6807F118031146C8
:103620001846FEF76DFD034687F8373097F83730B8
:10363000002B0FD1FB6A002B09D03B68002B09D06F
:1036400007F1180339681846FEF7BEFC02E00623AE
:1036500087F8373097F8373018463837BD4680BD81
:1036600080B58EB000AFF860B9607A6007F10C03E6
:10367000002219467868FEF715FE034687F83730B2
:103680007B681B68FB6197F83730002B40F0A68001
:10369000FB691A69FB695B69023B9A4204D8FB69C2
:1036A0001A69BB681A6099E0FB691B78FB760023F6
:1036B0003B63FB7E012B24D10223FB62F96AF8698C
:1036C000FDF7F0FD78617B69B3F1FF3F03D1012382
:1036D00087F8373075E07B69012B03D1022387F827
:1036E00037306EE07B69002B02D13B6B01333B63CB
:1036F000FB6A0133FB62FB695B69FA6A9A42DDD3BC
:103700005FE0FB695B69FB62FB691B6ABB620023CC
:103710007B6200233B627B6A002B13D1BB6A5A1C7D
:10372000BA621946F869FDF7D9FC034687F83730C5
:1037300097F83730002B43D1FB6930333B624FF4AD
:1037400000737B62FB7E022B15D13B6A01331B7831
:103750001B029AB23B6A1B789BB213439BB2002BAD
:1037600002D13B6B01333B633B6A02333B627B6AB2
:10377000023B7B621DE03B6A03331B781A063B6AFF
:1037800002331B781B0413433A6A01321278120287
:1037900013433A6A1278134323F07043002B02D18B
:1037A0003B6B01333B633B6A04333B627B6A043B04
:1037B0007B62FB6A013BFB62FB6A002BABD100E042
:1037C00000BFFB693A6B1A61FB695B7943F0010347
:1037D000DAB2FB695A71BB683A6B1A6097F83730F6
:1037E00018463837BD4680BD80B584B000AF7860DC
:1037F0007868FFF709F80346FB73FB7B002B0FD1BA
:103800007B68DB79002B03D07B68DB79FB7307E0F7
:103810007B689B7903F00203002B01D10723FB7324
:10382000FB7B002B7ED17B68DA687B689B689A42C1
:1038300072D97B689A687B68DA607B689B7943F011
:103840002003DAB27B689A717B689B68002B0DD1EC
:103850007B681A687B681B6919461046FDF7D0FE25
:103860000346FB737B6800221A6134E07B681A68A8
:103870007B685B6919461046FDF714FDB8600023AC
:10388000FB73BB68B3F1FF3F01D10123FB73BB683E
:10389000012B01D10223FB73FB7B002B1BD17B6827
:1038A0001B685A69BB689A4215D97B6818687B689F
:1038B0005B696FF070421946FDF7A4FD0346FB7388
:1038C000FB7B002B07D17B681B68B9681846FDF7A6
:1038D00097FE0346FB73FB7B002B1DD17B689B7916
:1038E00003F04003002B17D07B681B6858787B6877
:1038F00003F124017B689A69012302F065FD034608
:10390000002B02D00123FB7306E07B689B7923F038
:103910004003DAB27B689A71FB7B002B02D07B6894
:10392000FA7BDA71FB7B18461037BD4680BD00BFBD
:1039300080B596B000AF7860391D07F130030122E1
:103940001846FEF7AFFC034687F8573097F8573014
:10395000002B40F0908007F10803BB647A6807F100
:10396000300311461846FEF7CBFB034687F8573065
:1039700097F85730002B7ED17B6C3B653B6D002B5D
:1039800003D1062387F8573009E03B6D0B331B78D2
:1039900003F00103002B02D0072387F857303B6B5D
:1039A000396D1846FEF7A8F8F86497F85730002BE1
:1039B0003BD13B6D0B331B7803F01003002B34D04D
:1039C000FB6C012B03D8022387F857302DE007F159
:1039D000300107F114031C221846FDF7C5FAFB6CF1
:1039E000FB6107F1140302211846FDF7EBFE0346C5
:1039F00087F8573097F85730002B16D107F114038A
:103A000000211846FEF712F9034687F8573097F859
:103A10005730002B02D1072387F8573097F85730DB
:103A2000042B02D1002387F8573097F85730002B2A
:103A300021D107F130031846FEF782F9034687F8D3
:103A4000573097F85730002B15D1FB6C002B07D05F
:103A50003B6BF96C1846FDF7D3FD034687F85730EA
:103A600097F85730002B06D13B6B1846FDF75EFBED
:103A7000034687F8573097F8573018465837BD46F1
:103A800080BD00BF80B592B000AF786002F0FCFC52
:103A9000B863391D07F1140301221846FEF702FC32
:103AA000034687F8473097F84730002B40F00281F3
:103AB00007F10803FB627A6807F114031146184600
:103AC000FEF71EFB034687F8473097F84730002B78
:103AD00002D1082387F8473097F84730042B40F08D
:103AE000E9807B6900211846FDF7DEFD786300233D
:103AF00087F847307B6B002B02D1072387F84730CC
:103B00007B6B012B02D1022387F847307B6BB3F12B
:103B1000FF3F02D1012387F8473097F84730002B49
:103B200006D17B691846FDF797FA034687F84730B8
:103B300097F84730002B7CD17B69796B1846FDF7ED
:103B400093FB38647B6930333B634FF40072002190
:103B5000386BFDF727FA0B222021386BFDF722FA8C
:103B60003B6B2E221A703B6B0B3310221A703B6B8F
:103B70001633BA6BD2B21A703B6B1733BA6B121290
:103B8000D2B21A703B6B1833BA6B120CD2B21A70E5
:103B90003B6B1933BA6B120ED2B21A70796B386B59
:103BA000FDF7D6FF3B6B20332022396B1846FDF71B
:103BB000DBF93B6B21332E221A70FB69FB637B69B7
:103BC0001B78032B06D17B695A6AFB6B9A4201D1A1
:103BD0000023FB633B6B2033F96B1846FDF7B8FFFE
:103BE0007B699B7887F846301DE07A693B6C591CED
:103BF0003964D3627B6901221A717B691846FDF72B
:103C00002BFA034687F8473097F84730002B0FD13F
:103C10004FF400720021386BFDF7C4F997F8463075
:103C2000013B87F8463097F84630002BDDD100E0A5
:103C300000BF97F84730002B07D107F1140318464F
:103C4000FEF74CF8034687F8473097F84730002BCB
:103C500005D07B69796B1846FDF7D2FC2AE0BB6A78
:103C60003B633B6B0B3310221A703B6B1633BA6B02
:103C7000D2B21A703B6B1733BA6B1212D2B21A70EF
:103C80003B6B1833BA6B120CD2B21A703B6B193300
:103C9000BA6B120ED2B21A70796B386BFDF758FFFF
:103CA0007B6901221A717B691846FDF73FFA0346CA
:103CB00087F8473097F8473018464837BD4680BDEB
:103CC00080B58EB000AF78600B46FB701346BB70BA
:103CD000391D07F1140301221846FEF7E3FA0346E3
:103CE00087F8373097F83730002B38D107F10803C1
:103CF000FB627A6807F1140311461846FEF700FAD2
:103D0000034687F8373097F83730002B27D1BB6A46
:103D10003B633B6B002B03D1062387F837301EE053
:103D2000BB7803F02703BB703B6B0B333A6B0B3252
:103D30001178FA784A40D1B2BA780A40D1B23A6BD7
:103D40000B3212784A40D2B21A707B6901221A7182
:103D50007B691846FDF7EAF9034687F8373097F88C
:103D6000373018463837BD4680BD00BF80B58EB0AD
:103D700000AF78603960391D07F11403012218463D
:103D8000FEF790FA034687F8373097F83730002B64
:103D90003FD107F10803FB627A6807F1140311466B
:103DA0001846FEF7ADF9034687F8373097F83730F5
:103DB000002B2ED1BB6A3B633B6B002B03D1062348
:103DC00087F8373025E03B6B16333A68D288D2B299
:103DD0001A703B6B17333A68D288120A92B2D2B289
:103DE0001A703B6B18333A689288D2B21A703B6BE8
:103DF00019333A689288120A92B2D2B21A707B6969
:103E000001221A717B691846FDF790F9034687F87D
:103E1000373097F8373018463837BD4680BD00BF79
:103E200090B59DB000AF78603960391D07F1480347
:103E300001221846FEF736FA034687F86F3097F8E6
:103E40006F30002B40F0C080BB6CFB6207F10803B1
:103E50003B667A6807F1480311461846FEF750F9A9
:103E6000034687F86F3097F86F30002B40F0AC8036
:103E7000FB6D002B03D1042387F86F30A4E0FB6DAA
:103E800003F10B0107F1140315221846FDF76CF836
:103E900007F1480107F12C031C221846FDF764F8CE
:103EA00007F12C0339681846FEF72AF9034687F80C
:103EB0006F3097F86F30002B02D1082387F86F30EE
:103EC00097F86F30042B7FD107F12C031846FDF7CC
:103ED00005FF034687F86F3097F86F30002B73D1DA
:103EE0003B6CBB66BB6E03F10D0007F1140302339C
:103EF00013221946FDF738F8BB6E0B333A7D42F0BA
:103F00002002D2B21A70BB6C01221A713A6D7B6B1F
:103F10009A4242D0BB6E0B331B7803F01003002B88
:103F20003BD0BC6CBB6CB96E1846FDF7E5FD034693
:103F300019462046FDF798F978667B6E002B03D171
:103F4000022387F86F3028E0BB6C796E1846FDF7C6
:103F5000C5F8034687F86F30BB6C30332033BB663F
:103F600097F86F30002B18D1BB6E01331B782E2BC6
:103F700013D1BB6C1B78032B04D17A6BBB6C5B6ACF
:103F80009A4201D07B6B00E000237B66796EB86EAD
:103F9000FDF7DEFDBB6C01221A7197F86F30002B24
:103FA00012D107F148031846FDF7CAFE034687F809
:103FB0006F3097F86F30002B06D1BB6C1846FDF7B9
:103FC000B5F8034687F86F3097F86F3018467437A6
:103FD000BD4690BD002103E00A4B5B5843500431BD
:103FE00009480A4B42189A42F6D3094A02E00023D4
:103FF00042F8043B074B9A42F9D300F00FF800F067
:1040000025FE7047946D000800000020E0060020A7
:10401000E0060020140B0020FEE7000080B500AF92
:10402000154A154B1B6843F0010313601249124BEC
:104030005A68124B13404B600F4A0F4B1B6823F01A
:10404000847323F4803313600B4A0B4B1B6823F4F7
:1040500080231360084A084B5B6823F4FE03536017
:10406000054B4FF41F029A6000F078F8044B4FF0B4
:1040700000629A6000BF80BD001002400000FFF89F
:1040800000ED00E080B485B000AF0023FB600023AA
:10409000BB6000237B602C4B5B6803F00C03FB6070
:1040A000FB68042B07D0082B09D0002B33D1274BFA
:1040B000274A1A6033E0254B254A1A602FE0224B2D
:1040C0005B6803F47013BB601F4B5B6803F48033C1
:1040D0007B60BB689B0C0233BB607B68002B06D106
:1040E000BB681C4A02FB03F3184A136017E0164B27
:1040F0005B6803F40033002B06D0BB68154A02FB53
:1041000003F3124A13600AE0BB68114A02FB03F38F
:104110000E4A136003E00D4B0D4A1A6000BF0A4BB4
:104120005B6803F0F0031B090B4AD35CDBB2FB6056
:10413000064B1A68FB6822FA03F3044A136000BFB7
:104140001437BD4680BC70470010024014000020A8
:1041500000127A0000093D001800002080B500AF71
:1041600000F002F800BF80BD80B483B000AF002330
:104170007B6000233B603A4A394B1B6843F4803331
:104180001360374B1B6803F400333B607B680133DB
:104190007B603B68002B03D17B68B3F5A06FF0D147
:1041A0002F4B1B6803F40033002B02D001233B602C
:1041B00001E000233B603B68012B4BD1294A294B8E
:1041C0001B6843F010031360264A264B1B6823F03C
:1041D00003031360234A234B1B6843F0020313605D
:1041E0001F4A1F4B5B6853601D4A1D4B5B68536041
:1041F0001B4A1B4B5B6843F480635360184A184B9F
:104200005B6823F47C135360154A154B5B6843F4D9
:10421000E8135360124A124B1B6843F0807313601B
:1042200000BF0F4B1B6803F00073002BF9D00C4A42
:104230000B4B5B6823F003035360094A084B5B6830
:1042400043F00203536000BF054B5B6803F00C03AF
:10425000082BF9D100BF0C37BD4680BC704700BFAA
:10426000001002400020024080B582B000AF7860AC
:104270007B68174A93420AD101214FF48050FCF722
:1042800095FD00214FF48050FCF790FD1CE07B6809
:10429000104A93420AD101214FF48040FCF7A4FD5B
:1042A00000214FF48040FCF79FFD0DE07B680A4A37
:1042B000934209D101214FF40040FCF795FD002104
:1042C0004FF40040FCF790FD00BF0837BD4680BDAD
:1042D0000030014000380040003C004080B485B010
:1042E00000AF786039600023FB817B681B88FB810D
:1042F000FB8903F44153FB813B681A883B685B8868
:1043000013439AB23B689B8813439AB23B68DB889D
:1043100013439AB23B681B8913439AB23B685B898B
:1043200013439AB23B689B8913439AB23B68DB897B
:1043300013439AB2FB891343FB817B68FA891A8085
:104340007B689B8B9BB223F400639AB27B689A8351
:104350003B681A8A7B681A8200BF1437BD4680BC4E
:10436000704700BF80B58CB000AF78603960002323
:104370007B840223FB850023BB8501237B850023EF
:104380007B620023FB617B689B8B9BB223F47B6386
:1043900023F00F039AB27B689A837B6802221A8407
:1043A0007B689B8B7B843B689B68022B04D100233A
:1043B000BB850223FB8555E03B689B88002B02D11F
:1043C00001237B8501E002237B857B683D4A934284
:1043D00003D14FF400337B6202E04FF480237B6211
:1043E00007F108031846FCF7D7FBBB68FB613B6885
:1043F000DB88B3F5007F0FD1FB691A0A13469B00D7
:1044000013445B001A463B689B68B2FBF3F39BB214
:1044100005339BB27B6212E07B8D5B011A46FB6920
:10442000B3FBF2F213469B0013445B001A463B6851
:104430009B68B2FBF3F39BB205339BB27B627B6A52
:10444000214AA2FB0323DB087B627B6A9BB203F059
:104450000103BB85BB8D7A6AD31A5B08FB85BB8DD4
:104460001B02BB85FB8D012B02D9FB8DFF2B03D9D2
:104470000223FB850023BB853B68DA88BB8D134391
:104480009AB2FB8D13439AB27B681A843B681A88F0
:104490003B6859883B6898883B689B8903439BB27B
:1044A0000B439BB213439AB27B8C13439BB243F4EE
:1044B00000637B847B687A8C9A8300BF3037BD466B
:1044C00080BD00BF00380040CDCCCCCC80B483B0E0
:1044D00000AF78607B6800221A807B6800225A80D7
:1044E0007B6800229A807B680022DA807B68002249
:1044F0001A817B6800225A817B6800229A817B683E
:104500000022DA817B6807221A8200BF0C37BD4681
:1045100080BC704780B483B000AF78607B680022B5
:104520001A807B6800225A807B6800229A807B6810
:104530000022DA807B6802229A607B6800229A81DE
:1045400000BF0C37BD4680BC704700BF80B483B04D
:1045500000AF78600B46FB70FB78002B08D07B68BF
:104560001B889BB243F040039AB27B681A8007E035
:104570007B681B889BB223F040039AB27B681A8049
:1045800000BF0C37BD4680BC704700BF80B483B00D
:1045900000AF78600B46FB70FB78002B08D07B687F
:1045A0009B8B9BB243F480639AB27B689A8307E04B
:1045B0007B689B8B9BB223F480639AB27B689A835F
:1045C00000BF0C37BD4680BC704700BF80B485B0CB
:1045D00000AF78600B46FB701346BB700023FB8175
:1045E0000023BB81FB781B09DBB2FB81FB89012225
:1045F00002FA03F3BB81BB78002B08D07B689B8851
:104600009AB2BB8913439AB27B689A8009E07B68AF
:104610009B889AB2BB89DB439BB213409AB27B68FA
:104620009A8000BF1437BD4680BC704780B483B009
:1046300000AF78600B467B8013467B707B78002B45
:1046400008D07B689B889AB27B8813439AB27B68B8
:104650009A8009E07B689B889AB27B88DB439BB297
:1046600013409AB27B689A8000BF0C37BD4680BC6D
:10467000704700BF80B483B000AF78600B467B808A
:104680007B687A889A8100BF0C37BD4680BC704732
:1046900080B483B000AF78607B689B899BB218467A
:1046A0000C37BD4680BC704780B483B000AF7860E3
:1046B0000B467B807B884FF6FF62934208D07B6875
:1046C0001B889BB243F480739AB27B681A8007E020
:1046D0007B681B889BB223F480739AB27B681A8034
:1046E00000BF0C37BD4680BC704700BF80B483B0AC
:1046F00000AF78600B46FB70FB78002B08D07B681E
:104700009B889BB243F004039AB27B689A8007E0CF
:104710007B689B889BB223F004039AB27B689A80E3
:1047200000BF0C37BD4680BC704700BF80B483B06B
:1047300000AF78600B467B807B681B889BB223F4BC
:1047400000639AB27B681A807B681B889AB27B8868
:1047500013439AB27B681A8000BF0C37BD4680BCF9
:10476000704700BF80B483B000AF78607B681B885F
:104770009BB243F480539AB27B681A8000BF0C3717
:10478000BD4680BC704700BF80B483B000AF786086
:104790000B46FB70FB78002B08D07B681B889BB214
:1047A00043F400539AB27B681A8007E07B681B8849
:1047B0009BB223F400539AB27B681A8000BF0C3777
:1047C000BD4680BC704700BF80B485B000AF786044
:1047D0000B46FB700023FB81FB78012B03D07B6829
:1047E0001B8BFB8102E07B689B8AFB81FB8918465F
:1047F0001437BD4680BC704780B483B000AF78608A
:104800007B681B8A9BB218460C37BD4680BC70473C
:1048100080B483B000AF78600B467B807B88B3F5B3
:10482000804F08D17B681B889BB243F480439AB2C7
:104830007B681A8007E07B681B889BB223F4804367
:104840009AB27B681A8000BF0C37BD4680BC7047A7
:1048500080B485B000AF78600B467B800023FB738B
:104860007B681B899AB27B8813409BB2002B02D0D5
:104870000123FB7301E00023FB73FB7B1846143715
:10488000BD4680BC704700BF80B483B000AF786085
:104890000B467B807B88DB439AB27B681A8100BF22
:1048A0000C37BD4680BC704780B485B000AF7860DF
:1048B0000B46FB700023FB730023BB8100237B812D
:1048C00000233B81FB7803F00F03012202FA03F37C
:1048D000BB81FB781B09DBB27B817B89012202FA59
:1048E00003F37B817B689B889AB27B8913403B8171
:1048F0007B681B899AB2BB8913409BB2002B05D001
:104900003B89002B02D00123FB7301E00023FB73E2
:10491000FB7B18461437BD4680BC704780B485B019
:1049200000AF78600B46FB700023FB81FB7803F03F
:104930000F03012202FA03F3FB81FB89DB439AB2E6
:104940007B681A8100BF1437BD4680BC704700BF2A
:1049500080B582B000AF03460A46FB8013467B71E8
:104960007B79002B05D0FB8819460648FBF7BAFD7A
:1049700004E0FB8819460348FBF7C2FD00BF083777
:10498000BD4680BD0008014080B586B000AF012162
:104990000420FCF7CFF90723BB820323BB75102348
:1049A000FB7507F1140319461A48FBF77FFCA02397
:1049B000BB820323BB751823FB7507F1140319464B
:1049C0001448FBF773FC01214FF48050FCF7B2F957
:1049D0004FF440433B800023BB802023BB81002356
:1049E000FB814FF482737B8000233B810023FB809B
:1049F0004FF400737B8100233B823B4619460648F7
:104A0000FFF76CFC01210448FFF7A0FD00BF183739
:104A1000BD4680BD000801400030014080B582B035
:104A200000AF03460A46FB711346BB71002102200A
:104A3000FFF78EFFBB7919460420FFF789FFFB794A
:104A40009BB219460948FFF715FE00BF80210748B1
:104A5000FFF7FEFE0346012BF8D001210220FFF7ED
:104A600077FF00BF0837BD4680BD00BF0030014062
:104A700080B582B000AF786039603B68DBB243F04C
:104A80004003DBB2DBB200211846FFF7C7FF7B68AB
:104A9000DBB21A46520013445B00DBB2DBB263F0B8
:104AA0007F03DBB2DBB200211846FFF7B7FF00BF80
:104AB0000837BD4680BD00BF80B582B000AF00237F
:104AC0007B6006E001210020FFF7A8FF7B6801332F
:104AD0007B607B68B3F5FC7FF4DB00210020FFF7EF
:104AE000C7FF00BF0837BD4680BD00BF80B582B09C
:104AF00000AFFFF749FF00210120FFF729FF49F62A
:104B000040437B6000BF7B685A1E7A60002BFAD15D
:104B100001210120FFF71CFF00212120FFF77EFF6C
:104B20000021C620FFF77AFF00210620FFF776FF5D
:104B300000211320FFF772FF00212020FFF76EFFF6
:104B4000FFF7BAFF00210C20FFF768FF00BF08370E
:104B5000BD4680BD80B584B000AF0346FB71002325
:104B6000FB6012E0FB79A3F120020B4913465B00C6
:104B700013445B00CA18FB6813441B7801211846D4
:104B8000FFF74CFFFB680133FB60FB68052BE9DD99
:104B900000BF1037BD4680BD2800002080B582B020
:104BA00000AF786006E07B685A1C7A601B78184674
:104BB000FFF7D0FF7B681B78002BF4D100BF0837CC
:104BC000BD4680BD80B483B000AF786002E07B68F2
:104BD000013B7B607B68002BF9DC00BF0C37BD46D6
:104BE00080BC704780B582B000AF01211020FCF777
:104BF000A1F84FF40053BB800123BB711023FB715C
:104C00003B1D19460348FBF751FB00BF0837BD4663
:104C100080BD00BF0010014080B582B000AF0346E8
:104C2000FB71FB79002B05D04FF400510648FBF7D0
:104C300067FC04E04FF400510348FBF753FC00BF4E
:104C40000837BD4680BD00BF0010014080B5ADF5FE
:104C50008C6D00AFFFF7C6FFFFF748FF2048FFF756
:104C60009DFF07F50B7301221E491846FDF7FAFD5B
:104C7000034687F85F3497F85F34002B02D01A4858
:104C8000FFF78CFF07F10803012218491846FDF7CA
:104C90002BFE034687F85F3497F85F34002B12D160
:104CA0001348FFF77BFF3B1D07F108004FF48062BC
:104CB0001049FDF757FF07F108031846FEF798FA69
:104CC0000C48FFF76BFF0120FFF7A6FF0A48FFF72C
:104CD00079FF0020FFF7A0FF0748FFF773FFF2E717
:104CE000186600082C660008306600084066000858
:104CF000486600080407002000093D0080B586B022
:104D000000AF01210820FCF715F801214FF4804085
:104D1000FCF72EF84FF48053BB821023FB7503235E
:104D2000BB7507F1140319462548FBF7BFFA4FF48A
:104D30002043BB820323BB751823FB7507F11403C3
:104D400019461F48FBF7B2FA4FF48043BB82482351
:104D5000FB7507F1140319461948FBF7A7FA00235E
:104D60003B804FF482737B800023BB800023FB8059
:104D700000233B814FF400737B813823BB810023E8
:104D8000FB8107233B823B4619460E48FFF7A6FAF4
:104D900000210C48FFF7F8FC01210A48FFF7D6FB79
:104DA00000BF02210748FFF753FD0346002BF8D050
:104DB0000448FFF76DFC00BF1837BD4680BD00BF3B
:104DC000000C01400038004080B483B000AF0346BF
:104DD000FB7100BF0C37BD4680BC704780B483B008
:104DE00000AF0346FB710A4BFA7992B29A8100BF79
:104DF000074B1B899BB203F00103002BF8D0044B37
:104E00009B899BB2DBB218460C37BD4680BC70470D
:104E10000038004080B485B000AF03460A46FB71FD
:104E20001346BB718923FB72FA79BB795340FB713E
:104E30000023FB600DE0FB795BB2002B03DAFA790B
:104E4000FB7A5340FB71FB795B00FB71FB6801331C
:104E5000FB60FB68072BEEDDFB7918461437BD4677
:104E600080BC704780B584B000AF786039600023A3
:104E7000FB720023FB600DE0FB687A6813441A782C
:104E8000FB7A11461846FFF7C5FF0346FB72FB6825
:104E90000133FB60FA683B689A42EDDBFB7A5B0802
:104EA000DBB218461037BD4680BD00BF80B483B06A
:104EB00000AF03460A46FB8013467B71FB881B0A42
:104EC0009BB29AB2FB881B029BB213439BB2FB803E
:104ED0007B799AB2FB885340FB80FB88DBB21B09CD
:104EE000DBB29AB2FB885340FB80FB881B039AB26B
:104EF000FB8853409BB2FB80FB885B019BB203F4B1
:104F0000FF539AB2FB8853409BB2FB80FB88184644
:104F10000C37BD4680BC704780B584B000AF786068
:104F2000396000237B810023FB600DE0FB687A6819
:104F300013441A787B8911461846FFF7B7FF0346DA
:104F40007B81FB680133FB60FA683B689A42EDDBCA
:104F50007B8918461037BD4680BD00BF80B400AFC6
:104F600000BFBD4680BC704780B584B000AF03462B
:104F70003960FB710023FB73FB7943F04003DBB224
:104F80001846FFF72BFFFB7943F04003DAB2FB7BB7
:104F900011461846FFF73EFF0346FB733B681B0EA6
:104FA000DBB21846FFF71AFF3B681B0EDAB2FB7B39
:104FB00011461846FFF72EFF0346FB733B681B0C98
:104FC000DBB21846FFF70AFF3B681B0CDAB2FB7B2B
:104FD00011461846FFF71EFF0346FB733B681B0A8A
:104FE000DBB21846FFF7FAFE3B681B0ADAB2FB7B1E
:104FF00011461846FFF70EFF0346FB733B68DBB212
:105000001846FFF7EBFE3B68DAB2FB7B1146184609
:10501000FFF700FF0346FB73FB7B43F00103DBB2AA
:105020001846FFF7DBFE00BF1037BD4680BD00BF4E
:1050300080B582B000AF4FF47A737B600AE0FF2046
:10504000FFF7CCFE0346FB70FB785BB2002B01DB65
:10505000FB7805E07B685A1E7A60002BEFD1FF23B6
:1050600018460837BD4680BD90B583B000AF4FF4F9
:105070007A737B6009E0FF20FFF7B0FE03467B8078
:105080007B8803F08003002B05D07B685A1E7A6072
:10509000002BF0D100E000BF7B68002B01DAFF237A
:1050A0000CE07B881B029CB2FF20FFF797FE0346B3
:1050B0009BB2224613439BB27B807B8818460C37F9
:1050C000BD4690BD80B584B000AF7860FFF7B0FFFB
:1050D0000346FB60FB68012B02D0FB68DBB223E0D8
:1050E000FF20FFF77BFE03461B06FB60FF20FFF758
:1050F00075FE03461B041A46FB681343FB60FF2042
:10510000FFF76CFE03461B021A46FB681343FB6065
:10511000FF20FFF763FE03461A46FB681343FB605C
:105120007B68FA681A60012318461037BD4680BDB7
:1051300080B584B000AF0346FB71FB791946104877
:10514000FFF70CFF0023FB6012E0FA79FB6842FADC
:1051500003F303F00103002B07D00A4AFB6852F85F
:10516000233019460848FFF7F9FEFB680133FB605E
:10517000FB68062BE9DD00BF1037BD4680BD00BFD0
:10518000CC66000850020020D866000880B584B0C4
:1051900000AF0346FB80FB8819461048FFF7DEFE90
:1051A0000023FB6012E0FA88FB6842FA03F303F085
:1051B0000103002B07D00A4AFB6852F82330194636
:1051C0000848FFF7CBFEFB680133FB60FB680E2B42
:1051D000E9DD00BF1037BD4680BD00BF98670008FD
:1051E0006C020020D866000880B582B000AF0023B2
:1051F0007B6005E0FF20FFF7F1FD7B6801337B60FA
:105200007B68072BF6DD00BF0837BD4680BD00BFB9
:1052100080B58CB002AF78607B680022DA60012034
:10522000FFF7D2FDB648FFF799FEB64B4FF4805218
:105230001A6100237B6205E0FF20FFF7CFFD7B6A48
:1052400001337B627B6A092BF6DDAE4B4FF4805253
:105250005A6100210020FFF787FEFFF7E9FE0346B1
:105260003B61FFF7C1FFA74B4FF480521A613B69C6
:10527000FF2B00F076823B69012B08D0A248FFF794
:105280006DFE3B69DBB21846FFF752FF7EE29F4896
:10529000FFF764FE9E48FFF761FE9A4B4FF4805281
:1052A0005A614FF4D5710820FFF75EFE07F10C0339
:1052B0001846FFF707FF03463B61FFF795FF914B49
:1052C0004FF480521A617B68DB6843F001027B680F
:1052D000DA603B69FF2B00F046823B69012B03D16A
:1052E0008C48FFF73BFE19E03B6903F00403002BF9
:1052F00009D07B68DB6823F001027B68DA608648AE
:10530000FFF72CFE0AE08048FFF728FE3B69DBB27E
:105310001846FFF70DFF6FF0010339E27F48FFF7F2
:105320001DFE784B4FF480525A6100213A20FFF75E
:105330001BFE07F108031846FFF7C4FE03463B6156
:10534000FFF752FF6F4B4FF480521A613B69FF2BFE
:1053500000F00B823B69012B0FD03B6903F0040383
:10536000002B0AD16848FFF7F9FD3B69DBB218460C
:10537000FFF7DEFE6FF001030AE20423FB610BE09E
:105380000122FB6902FA03F31A46BB681340002BA3
:1053900006D1FB690133FB61FB69172BF0DD00E0EF
:1053A00000BFFB690C335E4A82FB03129210DB17CD
:1053B000D01AFB6903F10C02594B83FB02139910BD
:1053C000D317C91A0B469B000B445B00D11A0A463F
:1053D00001465448FFF7C2FD1723FB610BE0012291
:1053E000FB6902FA03F31A46BB681340002B06D18F
:1053F000FB69013BFB61FB69032BF0DC00E000BFB4
:10540000FB690D33464A82FB03129210DB17D01A58
:10541000FB6903F10D02424B83FB02139910D31772
:10542000C91A0B469B000B445B00D11ABB689B0F4B
:1054300003F00102BB68DB0F009313460A460146E6
:105440003948FFF78BFD3148FFF788FD3748FFF7F4
:1054500085FD4FF47A733B620023BB617B68DB6898
:1054600003F00103002B02D04FF08043BB61254BBA
:105470004FF480525A6100213720FFF775FDFFF786
:10548000D7FD03463B61FFF7AFFE1E4B4FF4805242
:105490001A613B69FF2B00F06A813B6903F0FE0350
:1054A000002B08D01848FFF759FD3B69DBB21846BE
:1054B000FFF73EFE6AE1134B4FF480525A61B9691F
:1054C0002920FFF751FDFFF7B3FD03463B61FFF7CE
:1054D0008BFE0C4B4FF480521A613B69FF2B00F09E
:1054E00048813B6903F0FE03002B21D00648FFF7FB
:1054F00035FD3B69DBB21846FFF71AFE46E100BFF7
:10550000A4670008000C0140B4670008BC670008ED
:10551000C8670008DC670008F06700080C6800082E
:10552000676666661C6800083868000860680008DE
:105530003B69002B04D03B6A5A1E3A62002B96D17D
:105540003B6AB3F1FF3F03D19348FFF707FD1DE12D
:105550009248FFF703FD7B68DB6803F00103002B33
:1055600000F0A1808E48FFF7F9FC8E4B4FF480527B
:105570005A6100213A20FFF7F7FC07F108031846AB
:10558000FFF7A0FD03463B61FFF72EFE854B4FF46E
:1055900080521A613B69FF2B00F0ED803B6903F0FC
:1055A000FE03002B0AD08048FFF7D8FC3B69DBB232
:1055B0001846FFF7BDFD6FF00103E9E004237B61AE
:1055C0000BE001227B6902FA03F31A46BB68134021
:1055D000002B06D17B6901337B617B69172BF0DDE2
:1055E00000E000BF7B690C33704A82FB031292100B
:1055F000DB17D01A7B6903F10C026C4B83FB02139F
:105600009910D317C91A0B469B000B445B00D11AA3
:105610000A4601466648FFF7A1FC17237B610BE0B1
:1056200001227B6902FA03F31A46BB681340002B80
:1056300006D17B69013B7B617B69032BF0DC00E0D9
:1056400000BF7B690D33594A82FB03129210DB17AE
:10565000D01A7B6903F10D02544B83FB021399109E
:10566000D317C91A0B469B000B445B00D11ABB68C9
:105670009B0F03F00102BB68DB0F009313460A4641
:1056800001464C48FFF76AFCBB689B0F03F001031F
:10569000002B05D07B68DB6843F002027B68DA6090
:1056A0003E48FFF75BFC7B68DB6803F00203002BDE
:1056B00029D14148FFF752FC3A4B4FF480525A61CE
:1056C0004FF400711020FFF74FFCFFF7B1FC0346C9
:1056D0003B61FFF789FD334B4FF480521A613B6900
:1056E000FF2B4AD03B6903F0FE03002B08D02E4865
:1056F000FFF734FC3B69DBB21846FFF719FD45E0C4
:105700002648FFF72BFC2D48FFF728FC254B4FF4CC
:1057100080525A6100213B20FFF726FCFFF788FCEE
:1057200003463B61FFF760FD1E4B4FF480521A6148
:105730003B69FF2B23D03B6903F0FE03002B08D00D
:105740001948FFF70BFC3B69DBB21846FFF7F0FC8A
:105750001CE01248FFF702FC0220FFF735FB002394
:1057600016E000BF0CE000BF0AE000BF08E000BF89
:1057700006E000BF04E000BF02E000BF00E000BFA1
:105780000F48FFF7EBFB4FF0FF3301E06FF0010331
:1057900018462837BD4680BD70680008BC67000801
:1057A0007C680008000C0140B46700086766666604
:1057B0001C6800083868000898680008B06800088D
:1057C000C868000880B584B000AF7860124B4FF411
:1057D00080525A6100210D20FFF7C6FBFFF744FC01
:1057E0000346FB81FFF700FD0B4B4FF480521A611B
:1057F000FB891BB2002B02DA4FF0FF3307E0FB8975
:10580000002B03D0FB891846FFF7C0FC0023184685
:105810001037BD4680BD00BF000C014090B58BB075
:1058200002AFF860B9607A6044F62063FB6107E07C
:10583000FF20FFF7D3FA0346FB75FB7DFE2B05D057
:10584000FB695A1EFA61002BF2D100E000BFFB6930
:10585000002B02DA4FF0FF3337E00023BB610AE090
:10586000BB69BA68D418FF20FFF7B8FA0346237063
:10587000BB690133BB61BA697B689A42F0DBFF20E8
:10588000FFF7ACFA03469BB21B02BB82FF20FFF777
:10589000A5FA03469AB2BB8A1343BB827968B868FB
:1058A000FFF73AFB03467B82BA8A7B8A9A420BD087
:1058B000BA8A798A7B6800930B4606490648FFF747
:1058C0004DFB4FF0FF3300E0002318462437BD4660
:1058D00090BD00BF346D0008D468000880B588B062
:1058E00000AFF860B9607A600A23BB61FE20FFF761
:1058F00075FA06E0BB685A1CBA601B781846FFF7B9
:105900006DFA7B685A1E7A60002BF3D17968B8680B
:10591000FFF702FB0346FB82FB8A1B0A9BB2DBB24A
:105920001846FFF75BFAFB8ADBB21846FFF756FA18
:1059300007E0FF20FFF752FA0346FB77FB7FFF2BC0
:1059400005D1BB695A1EBA61002BF2D100E000BF3D
:10595000BB69002B02DA4FF0FF331DE0104BBB6137
:1059600005E0FF20FFF73AFA0346FF2B05D0BB699D
:105970005A1EBA61002BF4D100E000BFBB69002BB6
:1059800002DA6FF0010307E0FB7F03F01F03052B32
:1059900001D1002300E0FB7F18462037BD4680BDC3
:1059A000A08601002DE9F043B5B01AAFF864B64BFC
:1059B0004FF480525A6100210920FFF7D5FAFFF712
:1059C00037FB03463B663B6EFF2B06D1AE4B4FF4D5
:1059D00080521A614FF0FF3360E23B6E03F0FE032A
:1059E000002B0FD0A84B4FF480521A61A749A8484A
:1059F000FFF7B4FA3B6EDBB21846FFF799FB6FF086
:105A000001034BE207F1500310221946F86CFFF72F
:105A100005FF3866FFF7E8FB9B4B4FF480521A6195
:105A20003B6EB3F1FF3F05D19A48FFF797FA6FF04D
:105A3000020333E297F850309B09DBB2002B40F0B1
:105A40002D8197F850309B09DBB203F1010E97F8D6
:105A500051309C4697F85230984697F85330BB64C3
:105A600097F854307B6497F855301B09DBB23B64E0
:105A700097F8553003F00F03012202FA03F10A46AA
:105A8000FA6397F85630DB09DBB2BB6397F8563000
:105A90009B09DBB203F00101796397F856305B098B
:105AA000DBB203F00100386397F856301B09DBB214
:105AB00003F00104FC6297F856309B0203F4406245
:105AC00097F857309B00134397F858209209D2B2A9
:105AD00043EA0205BD6297F85830DB1003F0070671
