:020000040800F2
:1000000000500020A5110008E9110008E9110008BE
:10001000E9110008E9110008E911000800000000DA
:10002000000000000000000000000000E9110008CE
:10003000E911000800000000E9110008E9110008BA
:10004000E9110008E9110008E9110008E9110008A8
:10005000E9110008E9110008E9110008E911000898
:10006000E9110008E9110008E9110008E911000888
:10007000E9110008E9110008E9110008E911000878
:10008000E9110008E9110008E9110008E911000868
:10009000E9110008E9110008E9110008E911000858
:1000A000E9110008E9110008E9110008E911000848
:1000B000E9110008E9110008E9110008E911000838
:1000C000E9110008E9110008E9110008E911000828
:1000D000E9110008E9110008E9110008E911000818
:1000E000E9110008E9110008E9110008000000000A
:1000F0000000000000000000000000000000000000
:1001000000000000000000005FF808F1044B054803
:100110001B1A062B02D9044B03B11847704700BFC6
:100120008B060020880600200000000005490648D4
:10013000091A891001EBD171491002D0034B03B1A8
:10014000184770478806002088060020000000003D
:1001500010B5064C237843B9FFF7D8FF044B13B111
:100160000448AFF300800123237010BD88060020EF
:10017000000000005816000808B5084B1BB10849DC
:100180000848AFF300800848036813B9BDE8084089
:10019000CCE7064B002BF9D09847F7E700000000AA
:1001A0008C0600205816000884060020000000007D
:1001B00080B582B000AF78607B682F4A934208D147
:1001C0000121042000F010FF0021042000F00CFFAA
:1001D0004EE07B68294A934208D10121082000F0B3
:1001E00003FF0021082000F0FFFE41E07B68244A65
:1001F000934208D10121102000F0F6FE00211020CA
:1002000000F0F2FE34E07B681E4A934208D10121DF
:10021000202000F0E9FE0021202000F0E5FE27E08C
:100220007B68194A934208D10121402000F0DCFE8E
:100230000021402000F0D8FE1AE07B68134A934268
:1002400008D10121802000F0CFFE0021802000F0A5
:10025000CBFE0DE07B680E4A934209D101214FF499
:10026000807000F0C1FE00214FF4807000F0BCFEF1
:1002700000BF0837BD4680BD00080140000C0140AA
:10028000001001400014014000180140001C014012
:100290000020014080B500AF0121012000F0A4FE44
:1002A0000021012000F0A0FE00BF80BD80B489B015
:1002B00000AF786039600023FB6100233B610023BD
:1002C000BB610023FB6000237B610023BB603B68B4
:1002D000DB7803F00F03FB613B68DB7803F010036E
:1002E000002B05D03B689B781A46FB691343FB61E2
:1002F0003B681B88DBB2002B44D07B681B687B61AA
:100300000023BB6138E00122BB6902FA03F3FB6002
:100310003B681B881A46FB6813403B613A69FB68DF
:100320009A4226D1BB699B00FB600F22FB6802FA50
:1003300003F3BB60BB68DB437A6913407B61FA69F6
:10034000FB6802FA03F37A6913437B613B68DB784D
:10035000282B05D10122BB699A407B685A6108E0CD
:100360003B68DB78482B04D10122BB699A407B684B
:100370001A61BB690133BB61BB69072BC3D97B68B9
:100380007A691A603B681B88FF2B46D97B685B68DB
:100390007B610023BB613AE0BB690833012202FAAA
:1003A00003F3FB603B681B881A46FB6813403B6104
:1003B0003A69FB689A4227D1BB699B00FB600F2218
:1003C000FB6802FA03F3BB60BB68DB437A69134046
:1003D0007B61FA69FB6802FA03F37A6913437B6174
:1003E0003B68DB78282B05D1BB69083301229A4092
:1003F0007B685A613B68DB78482B05D1BB690833C1
:1004000001229A407B681A61BB690133BB61BB69F9
:10041000072BC1D97B687A695A6000BF2437BD4673
:1004200080BC704780B483B000AF78607B684FF6C3
:10043000FF721A807B6802229A707B680422DA704D
:1004400000BF0C37BD4680BC704700BF80B485B08C
:1004500000AF78600B467B800023FB737B689A6853
:100460007B881340002B02D00123FB7301E00023A3
:10047000FB73FB7B18461437BD4680BC704700BF3A
:1004800080B483B000AF78607B689B689BB21846ED
:100490000C37BD4680BC704780B485B000AF786033
:1004A0000B467B800023FB737B68DA687B881340F4
:1004B000002B02D00123FB7301E00023FB73FB7BC5
:1004C00018461437BD4680BC704700BF80B483B067
:1004D00000AF78607B68DB689BB218460C37BD467E
:1004E00080BC704780B483B000AF78600B467B80DF
:1004F0007A887B681A6100BF0C37BD4680BC7047A4
:1005000080B483B000AF78600B467B807A887B68CC
:100510005A6100BF0C37BD4680BC704780B483B0C1
:1005200000AF78600B467B8013467B707B78002B96
:1005300003D07A887B681A6102E07A887B685A6106
:1005400000BF0C37BD4680BC704700BF80B483B08D
:1005500000AF78600B467B807A887B68DA6000BFEA
:100560000C37BD4680BC704780B485B000AF786062
:100570000B467B804FF48033FB607B88FA68134323
:10058000FB607B68FA689A617A887B689A617B680D
:10059000FA689A617B689B69FB607B689B69FB607A
:1005A00000BF1437BD4680BC704700BF80B485B023
:1005B00000AF03460A46FB711346BB710023FB6084
:1005C0000C4B1B68FB60FA684FF680731340FB60AE
:1005D000FB791B01FA681343FB60BB79FA6813438C
:1005E000FB60044AFB68136000BF1437BD4680BC43
:1005F000704700BF0000014080B483B000AF0346E5
:10060000FB71044AFB79136000BF0C37BD4680BC08
:10061000704700BF1C00204280B487B000AF7860F4
:100620000B46FB7000233B610023FB6000237B61D2
:100630000023BB607B68002B03DA2E4BDB697B61F8
:1006400002E02C4B5B687B617B681B0C03F00F03A3
:10065000BB607B689BB23B617B6803F44013B3F5DE
:10066000401F0AD17B6923F070637B61214A214BD3
:100670005B6823F07063536021E07B6803F48013B0
:10068000002B0ED00322BB6802FA03F3FB60FB6869
:10069000DB437A6913407B617B6943F070637B6164
:1006A0000DE07B685B0D1B013A6902FA03F3DB4343
:1006B0007A6913407B617B6943F070637B61FB78EF
:1006C000002B08D07B685B0D1B013A6902FA03F32B
:1006D0007A6913437B617B68002B03DA054A7B69E7
:1006E000D36102E0034A7B69536000BF1C37BD46FB
:1006F00080BC70470000014090B484B000AF034656
:100700000A46FB711346BB710023FB60BB7903F003
:1007100003039B000F2202FA03F3FB601649BB7927
:100720009B08DBB21846144ABB799B08DBB2023344
:1007300052F82320FB68DB431A40831C41F8232036
:100740000D48BB799B08DBB21C460B4ABB799B0862
:10075000DBB2023352F82320F979BB7903F00303AB
:100760009B0001FA03F31A43A31C40F8232000BFA7
:100770001037BD4690BC70470000014080B483B084
:1007800000AF7860034A7B68136000BF0C37BD463A
:1007900080BC7047DC00204280B582B000AF0346C9
:1007A0000A46FB8013467B717B79002B05D0FB88C2
:1007B00019460648FFF796FE04E0FB8819460348F1
:1007C000FFF79EFE00BF0837BD4680BD0008014010
:1007D00080B582B000AF0121042000F0C9FB1F23C7
:1007E000BB800123BB711023FB713B1D19460348DD
:1007F000FFF75CFD00BF0837BD4680BD0008014023
:1008000080B584B000AF03460A46FB711346BB7146
:1008100000210220FFF7C0FFBB7919460420FFF733
:10082000BBFF0023FB7315E0FB7923F07F03DBB2F2
:1008300019460820FFF7B0FFFB795B00FB71002130
:100840001020FFF7A9FF01211020FFF7A5FFFB7B78
:100850000133FB73FB7B072BE6D901210220FFF755
:100860009BFF00BF1037BD4680BD00BF80B582B082
:1008700000AF786039603B68DBB243F04003DBB225
:10088000DBB200211846FFF7BBFF7B68DBB21A46DC
:10089000520013445B00DBB2DBB263F07F03DBB2D8
:1008A000DBB200211846FFF7ABFF00BF0837BD469B
:1008B00080BD00BF80B582B000AF00237B6006E042
:1008C00001210020FFF79CFF7B6801337B607B6880
:1008D000B3F5FC7FF4DB00210020FFF7C7FF00BF6A
:1008E0000837BD4680BD00BF80B582B000AFFFF7BE
:1008F0006FFF00210120FFF74FFF49F640437B6067
:1009000000BF7B685A1E7A60002BFAD101210120BA
:10091000FFF742FF00212120FFF772FF0021C620D0
:10092000FFF76EFF00210620FFF76AFF002113206A
:10093000FFF766FF00212020FFF762FFFFF7BAFFF5
:1009400000210C20FFF75CFF00BF0837BD4680BDCB
:1009500080B584B000AF0346FB710023FB6012E05A
:10096000FB79A3F120020B4913465B0013445B00A3
:10097000CA18FB6813441B7801211846FFF740FF93
:10098000FB680133FB60FB68052BE9DD00BF103716
:10099000BD4680BD0000002080B582B000AF786009
:1009A00006E07B685A1C7A601B781846FFF7D0FF78
:1009B0007B681B78002BF4D100BF0837BD4680BD93
:1009C00080B500AF0248FFF7E7FF00BF80BD00BF62
:1009D000F815000880B400AF134A134B1B6843F0AE
:1009E000010313601049104B5A68104B13404B60C1
:1009F0000D4A0D4B1B6823F0847323F4803313607E
:100A0000094A094B1B6823F480231360064A064BEE
:100A10005B6823F4FE035360034B4FF41F029A609C
:100A200000BFBD4680BC7047001002400000FFF8C8
:100A300080B483B000AF7860134A134B1B6823F473
:100A400080331360104A104B1B6823F4802313601B
:100A50007B68B3F5803F03D0B3F5802F07D00DE05E
:100A6000094A094B1B6843F48033136006E0064AC9
:100A7000054B1B6843F4A023136000BF00BF0C3775
:100A8000BD4680BC704700BF0010024080B582B0F8
:100A900000AF00233B600023FB710023BB713120BA
:100AA00000F00EFB0346BB713B6801333B603B68C3
:100AB000B3F5A06F02D0BB79002BF0D0312000F04D
:100AC000FFFA0346002B02D00123FB7101E0002353
:100AD000FB71FB7918460837BD4680BD80B485B0F0
:100AE00000AF0346FB710023FB600A4B1B68FB60F1
:100AF000FB6823F0F803FB60FB79DB00FA68134323
:100B0000FB60044AFB68136000BF1437BD4680BC1D
:100B1000704700BF0010024080B483B000AF0346AE
:100B2000FB71044AFB79136000BF0C37BD4680BCE3
:100B3000704700BF0000424280B485B000AF7860CB
:100B400039600023FB600A4B5B68FB60FB6823F4A1
:100B50007C13FB607A683B681343FA681343FB60BD
:100B6000034AFB68536000BF1437BD4680BC704722
:100B70000010024080B483B000AF0346FB71044A0A
:100B8000FB79136000BF0C37BD4680BC704700BFC7
:100B90006000424280B485B000AF78600023FB6003
:100BA000094B5B68FB60FB6823F00303FB60FA689A
:100BB0007B681343FB60044AFB68536000BF143733
:100BC000BD4680BC704700BF0010024080B400AF3B
:100BD000044B5B68DBB203F00C03DBB21846BD4686
:100BE00080BC70470010024080B485B000AF7860D0
:100BF0000023FB60094B5B68FB60FB6823F0F0039C
:100C0000FB60FA687B681343FB60044AFB6853602F
:100C100000BF1437BD4680BC704700BF00100240C3
:100C200080B485B000AF78600023FB60094B5B683F
:100C3000FB60FB6823F4E063FB60FA687B681343A6
:100C4000FB60044AFB68536000BF1437BD4680BC9C
:100C5000704700BF0010024080B485B000AF7860DC
:100C60000023FB60094B5B68FB60FB6823F4605367
:100C7000FB607B68DB00FA681343FB60034AFB6898
:100C8000536000BF1437BD4680BC7047001002405F
:100C900080B483B000AF03460A46FB711346BB71B4
:100CA000BB79002B08D00C490B4B1B78DAB2FB79CF
:100CB0001343DBB20B7009E00749074B1B78DAB22C
:100CC000FB79DB43DBB21340DBB20B7000BF0C37A8
:100CD000BD4680BC704700BF0910024080B483B09D
:100CE00000AF7860034A7B68136000BF0C37BD46D5
:100CF00080BC7047D800424280B485B000AF7860B5
:100D00000023FB60094B5B68FB60FB6823F44043F6
:100D1000FB60FA687B681343FB60044AFB6853601E
:100D200000BF1437BD4680BC704700BF00100240B2
:100D300080B483B000AF0346FB710C4B00221A70E5
:100D40000A4B00221A70FB79012B02D0042B04D02D
:100D500007E0064B01221A7003E0044B05221A70CB
:100D600000BF00BF0C37BD4680BC7047201002405A
:100D700080B483B000AF0346FB71044AFB79136073
:100D800000BF0C37BD4680BC704700BF80044242A4
:100D900080B483B000AF78600549054B1A6A7B6860
:100DA00013430B6200BF0C37BD4680BC704700BFC9
:100DB0000010024080B483B000AF0346FB71044AC8
:100DC000FB79136000BF0C37BD4680BC704700BF85
:100DD0003C04424280B487B000AF786000237B615E
:100DE00000233B610023FB600023BB604C4B5B682E
:100DF00003F00C037B617B69042B07D0082B09D01F
:100E0000002B33D17B68474A1A6033E07B68454A40
:100E10001A602FE0424B5B6803F470133B61404B58
:100E20005B6803F48033FB603B699B0C02333B61DE
:100E3000FB68002B06D13B693B4A02FB03F27B684F
:100E40001A6017E0364B5B6803F40033002B06D0C2
:100E50003B69354A02FB03F27B681A600AE03B6992
:100E6000304A02FB03F27B681A6003E07B682D4A7C
:100E70001A6000BF2A4B5B6803F0F0037B617B695B
:100E80001B097B61294A7B6913441B78DBB2BB6079
:100E90007B681A68BB68DA407B685A60204B5B68E5
:100EA00003F4E0637B617B691B0A7B611F4A7B69FA
:100EB00013441B78DBB2BB607B685A68BB68DA40BE
:100EC0007B689A60164B5B6803F460537B617B69B7
:100ED000DB0A7B61154A7B6913441B78DBB2BB607C
:100EE0007B685A68BB68DA407B68DA600C4B5B68E9
:100EF00003F440437B617B699B0B7B610C4A7B69FC
:100F000013441B78DBB2BB607B68DA68BB68B2FB5A
:100F1000F3F27B681A6100BF1C37BD4680BC704786
:100F20000010024000127A0000093D002802002053
:100F30003802002080B483B000AF78600B46FB70AD
:100F4000FB78002B06D00949084B5A697B6813438C
:100F50004B6106E00549054B5A697B68DB4313404A
:100F60004B6100BF0C37BD4680BC7047001002408B
:100F700080B483B000AF78600B46FB70FB78002B29
:100F800006D00949084B9A697B6813438B6106E0D8
:100F90000549054B9A697B68DB4313408B6100BFB1
:100FA0000C37BD4680BC70470010024080B483B04F
:100FB00000AF78600B46FB70FB78002B06D0094928
:100FC000084BDA697B681343CB6106E00549054BA2
:100FD000DA697B68DB431340CB6100BF0C37BD4649
:100FE00080BC70470010024080B483B000AF7860CE
:100FF0000B46FB70FB78002B06D00949084BDA68DA
:101000007B681343CB6006E00549054BDA687B68D3
:10101000DB431340CB6000BF0C37BD4680BC70473C
:101020000010024080B483B000AF78600B46FB70C4
:10103000FB78002B06D00949084B1A697B681343DB
:101040000B6106E00549054B1A697B68DB431340D9
:101050000B6100BF0C37BD4680BC704700100240DA
:1010600080B483B000AF0346FB71044AFB79136080
:1010700000BF0C37BD4680BC704700BF40044242F1
:1010800080B483B000AF0346FB71044AFB79136060
:1010900000BF0C37BD4680BC704700BF4C004242C9
:1010A00080B483B000AF0346FB71044AFB79137030
:1010B00000BF0C37BD4680BC704700BF0710024020
:1010C00080B487B000AF0346FB710023FB600023B0
:1010D0007B610023FB74FB795B09DBB2FB60FB687F
:1010E000012B03D1124B1B687B6109E0FB68022BCB
:1010F00003D10F4B1B6A7B6102E00D4B5B6A7B6186
:10110000FB7903F01F03FB607A69FB6822FA03F3A3
:1011100003F00103002B02D00123FB7401E0002344
:10112000FB74FB7C18461C37BD4680BC704700BF73
:101130000010024080B400AF044A044B5B6A43F0E5
:101140008073536200BFBD4680BC704700100240F0
:1011500080B485B000AF0346FB710023FB73084BDE
:101160009A68FB791340002B02D00123FB7301E046
:101170000023FB73FB7B18461437BD4680BC7047C9
:101180000010024080B483B000AF0346FB71044AF4
:10119000FB79137000BF0C37BD4680BC704700BFA1
:1011A0000A100240002103E00A4B5B58435004310F
:1011B00009480A4B42189A42F6D3094A02E0002332
:1011C00042F8043B074B9A42F9D300F00FF800F0C5
:1011D00077F97047581600080000002088060020A4
:1011E00088060020A4060020FEE7000080B500AFBE
:1011F000154A154B1B6843F0010313601249124B4B
:101200005A68124B13404B600F4A0F4B1B6823F078
:10121000847323F4803313600B4A0B4B1B6823F455
:1012200080231360084A084B5B6823F4FE03536075
:10123000054B4FF41F029A6000F078F8044B4FF012
:1012400000629A6000BF80BD001002400000FFF8FD
:1012500000ED00E080B485B000AF0023FB60002308
:10126000BB6000237B602C4B5B6803F00C03FB60CE
:10127000FB68042B07D0082B09D0002B33D1274B58
:10128000274A1A6033E0254B254A1A602FE0224B8B
:101290005B6803F47013BB601F4B5B6803F480331F
:1012A0007B60BB689B0C0233BB607B68002B06D164
:1012B000BB681C4A02FB03F3184A136017E0164B85
:1012C0005B6803F40033002B06D0BB68154A02FBB1
:1012D00003F3124A13600AE0BB68114A02FB03F3EE
:1012E0000E4A136003E00D4B0D4A1A6000BF0A4B13
:1012F0005B6803F0F0031B090B4AD35CDBB2FB60B5
:10130000064B1A68FB6822FA03F3044A136000BF15
:101310001437BD4680BC7047001002403C020020DC
:1013200000127A0000093D004002002080B500AFA5
:1013300000F002F800BF80BD80B483B000AF00238E
:101340007B6000233B603A4A394B1B6843F480338F
:101350001360374B1B6803F400333B607B68013339
:101360007B603B68002B03D17B68B3F5A06FF0D1A5
:101370002F4B1B6803F40033002B02D001233B608A
:1013800001E000233B603B68012B4BD1294A294BEC
:101390001B6843F010031360264A264B1B6823F09A
:1013A00003031360234A234B1B6843F002031360BB
:1013B0001F4A1F4B5B6853601D4A1D4B5B6853609F
:1013C0001B4A1B4B5B6843F480635360184A184BFD
:1013D0005B6823F47C135360154A154B5B6843F438
:1013E000E8135360124A124B1B6843F0807313607A
:1013F00000BF0F4B1B6803F00073002BF9D00C4AA1
:101400000B4B5B6823F003035360094A084B5B688E
:1014100043F00203536000BF054B5B6803F00C030D
:10142000082BF9D100BF0C37BD4680BC704700BF08
:10143000001002400020024080B483B000AF78600A
:1014400002E07B68013B7B607B68002BF9DC00BF1E
:101450000C37BD4680BC704780B582B000AF01211B
:101460001020FFF785FD4FF40053BB800123BB71B3
:101470001023FB713B1D19460348FEF717FF00BF01
:101480000837BD4680BD00BF0010014080B582B066
:1014900000AF0346FB71FB79002B05D04FF40051E0
:1014A0000648FFF72DF804E04FF400510348FFF71A
:1014B00019F800BF0837BD4680BD00BF00100140CD
:1014C00080B500AFFFF710FAFFF77AFAFFF7C4FF15
:1014D0000120FFF7DBFF0548FFF7AEFF0020FFF715
:1014E000D5FF0348FFF7A8FFF2E700BF80841E0086
:1014F00040420F00024B13B1024800F005B870479C
:101500000000000015150008002301461A46184681
:1015100000F014B838B5074D074C2C1BA41005D0AB
:10152000013C55F8043D9847002CF9D1BDE83840FE
:1015300000F05CB884060020800600202DE9F0470A
:10154000254C064625688846D5F848419246994676
:10155000C4B360681F2817DC411C76B104EB80031C
:10156000C3F888A0D4F88851012282401543022E86
:10157000C4F88851C3F808911ED0831C6160002014
:1015800044F82380BDE8F087144B03B34FF4C870D0
:10159000AFF300800446D0B1D5F84831002784E885
:1015A00088003846C5F848410121C4F88871C4F85C
:1015B0008C71002EE1D0D1E7D4F88C311A43C4F8F5
:1015C0008C21DAE705F5A674C5F84841C1E74FF06C
:1015D000FF30BDE8F08700BF54160008000000008F
:1015E000F8B500BFF8BC08BC9E467047F8B500BF10
:1015F000F8BC08BC9E46704752756279206973201A
:10160000612064796E616D69632C207265666C651A
:1016100063746976652C206F626A6563742D6F72DE
:1016200069656E7465642C2067656E6572616C2DEA
:10163000707572706F73652070726F6772616D6D17
:10164000696E67206C616E677561676500000000F8
:081650004300000050020020DD
:101658000000000000000000002F0000000007004C
:10166800070000147F147F1400242A7F2A120062C6
:101678006408132300364955225000000503000072
:1016880000001C224100000041221C000014083EFA
:1016980008140008083E0808000000A060000008C0
:1016A8000808080800006060000000201008040214
:1016B800003E5149453E0000427F400000426151D2
:1016C8004946002141454B31001814127F1000276C
:1016D80045454539003C4A4949300001710905032F
:1016E80000364949493600064949291E0000363660
:1016F80000000000563600000008142241000014C3
:10170800141414140000412214080002015109069F
:1017180000324959513E007C1211127C007F494920
:101728004936003E41414122007F4141221C007F51
:1017380049494941007F09090901003E4149497A5F
:10174800007F0808087F0000417F410000204041D9
:101758003F01007F08142241007F40404040007F45
:10176800020C027F007F0408107F003E4141413E89
:10177800007F09090906003E4151215E007F0919D1
:1017880029460046494949310001017F0101003FCE
:101798004040403F001F2040201F003F4038403F4E
:1017A80000631408146300070870080700615149B2
:1017B800454300007F41410000552A552A55000045
:1017C80041417F00000402010204004040404040C3
:1017D800000001020400002054545478007F48445B
:1017E800443800384444442000384444487F003892
:1017F8005454541800087E0901020018A4A4A47CBB
:10180800007F080404780000447D40000040808484
:101818007D00007F102844000000417F4000007CCC
:1018280004180478007C08040478003844444438D8
:1018380000FC242424180018242418FC007C080424
:10184800040800485454542000043F444020003CFD
:101858004040207C001C2040201C003C4030403C84
:10186800004428102844001CA0A0A07C0044645414
:101878004C440000060909060000000001020304A8
:1018880001020304060708090204060800A24A0424
:101898000000000000000000010203040607080918
:1018A800000000003C050020A40500200C060020D4
:1018B8000000000000000000000000000000000020
:1018C8000000000000000000000000000000000010
:1018D8000000000050160008000000000000000092
:1018E80000000000000000000000000000000000F0
:1018F80000000000000000000000000000000000E0
:1019080000000000000000000000000000000000CF
:1019180000000000000000000000000000000000BF
:1019280000000000000000000000000000000000AF
:10193800000000000000000000000000000000009F
:10194800000000000000000001000000000000008E
:101958000E33CDAB34126DE6ECDE05000B00000053
:10196800000000000000000000000000000000006F
:10197800000000000000000000000000000000005F
:10198800000000000000000000000000000000004F
:10199800000000000000000000000000000000003F
:101CC8000000000000000000F51400087901000879
:081CD8005101000800000000AA
:0400000508000000EF
:00000001FF
