:020000040800F2
:10000000088A012089010008F5010008F5010008AF
:10001000F5010008F5010008F501000800000000E6
:10002000000000000000000000000000E11A0008CD
:10003000F501000800000000C11B0008291C000891
:10004000F5010008F5010008F5010008F5010008B8
:10005000F5010008F5010008F5010008F5010008A8
:10006000F5010008F5010008F5010008F501000898
:10007000F5010008F5010008F5010008F501000888
:10008000F5010008F5010008F5010008F501000878
:10009000F5010008F5010008F5010008F501000868
:1000A000F5010008F5010008F5010008F501000858
:1000B00095020008F5010008F5010008F5010008A7
:1000C000F5010008F5010008F5010008F501000838
:1000D000F5010008F5010008F5010008F501000828
:1000E000F5010008F5010008F5010008F501000818
:1000F000F5010008F5010008F5010008F501000808
:10010000F5010008F5010008F50100083D030008AD
:10011000F5010008F5010008F5010008F5010008E7
:10012000F5010008F5010008F5010008F5010008D7
:10013000F5010008F5010008F5010008F5010008C7
:10014000F5010008F5010008F5010008F5010008B7
:10015000F5010008F5010008F5010008F5010008A7
:10016000F5010008F5010008F5010008F501000897
:10017000F5010008F5010008F5010008F501000887
:10018000F5010008F501000880B582B000AF134BFF
:100190007B60134B3B6007E03B681A1D3A607A684E
:1001A000111D796012681A603B680E4A9342F3D3BE
:1001B0000D480E494FF000028842B8BF40F8042BAA
:1001C000FADBDFF82C00016841F47001016000F0F7
:1001D00009F900BF0837BD4680BD00BF0D640008A7
:1001E00000000020980200209802002004820120D4
:1001F00088ED00E080B400AFFEE700BF80B584B0BA
:1002000000AF1C233B7300237B730123BB730123CB
:10021000FB7307F10C03184603F040FF0121012096
:1002200000F028FA15237B6059233B8000233B8193
:1002300000237B803B4619464FF0804004F088F84D
:10024000012201214FF0804004F00EF901214FF00E
:10025000804004F0E9F800BF1037BD4680BD00BF04
:1002600080B582B000AF33233B7100237B71002344
:10027000BB710123FB713B1D184603F00FFF0122E8
:100280007121034803F04AFC00BF0837BD4680BD1A
:10029000003C004080B500AF01214FF0804004F0E9
:1002A00007F90346002B3DD001214FF0804004F0B8
:1002B00029F91D4B1B68B3F5205F0FDB1A4B002299
:1002C0001A601A4B1B68002B0CBF01230023DBB202
:1002D0001A46164B1A60164B00221A60134B196807
:1002E000114B1A68531C1048036012480B469B00C0
:1002F0000B44DB02034413441B781A460E4B1A606E
:100300000A4B1968084B1A68531C074803600948D0
:100310000B469B000B44DB02034413441B781A4634
:10032000054B5A6000BF80BDA40200209C02002043
:10033000A0020020D02F0120C82F012080B500AFDF
:100340007121104803F038FC0346002B17D07121AF
:100350000C4803F06DFC0C4B1B680C4A52F8233020
:100360009BB21946074803F0C9FB074B1B68002BDB
:100370000CBF01230023DBB21A46034B1A6000BFF7
:1003800080BD00BF003C004098020020C82F012023
:1003900080B584B000AF78600E4B1B68002BFBD19A
:1003A0000D4B1B68002B0CBF01230023DBB21A4648
:1003B00013469B001344DB02084A991807F10C030B
:1003C0004FF42052064803F0C9F8024B01221A608C
:1003D000E2E700BFA00200209C020020D02F0120F5
:1003E000D07F012080B5ADF5107D02AF01F074FA29
:1003F00000F0EEFC1F4800F043FD00F0BBF900F0F8
:1004000075FAFFF7FBFEFFF72BFF3B1D01221A4990
:10041000184602F023FF034687F8373297F8373241
:10042000002B03D1154800F02BFD02E0144800F02A
:1004300027FD01221349144802F052FF034687F8B2
:10044000373297F83732002B03D1104800F018FDEF
:1004500002E00F4800F014FD0023019302230093F3
:100460000023E6220B490C4800F01EFD0020FFF798
:100470008FFFFEE7B85C00086C5C0008705C000849
:10048000805C0008905C0008D07F0120985C000828
:10049000A85C0008C45C00089103000880B400AFA9
:1004A000FEE700BF80B483B000AF78603960FEE73C
:1004B00080B400AF00BFBD465DF8047B704700BF4D
:1004C00080B483B000AF0346FB71044AFB7913602C
:1004D00000BF0C37BD465DF8047B7047680047429B
:1004E00080B489B000AF78600023BB6100237B61DA
:1004F0000023FB6102233B610023FB600223BB60FE
:10050000484B9B6803F00C03BB61BB69042B07D00D
:10051000082B09D0002B3FD17B68434A1A603FE08B
:100520007B68424A1A603BE03E4B5B6803F4800301
:100530009B0DFB603B4B5B6803F03F03BB60FB68BC
:10054000002B0DD0394ABB68B2FBF3F2354B59682A
:1005500047F6C0730B409B0903FB02F3FB610CE001
:10056000314ABB68B2FBF3F22E4B596847F6C073B1
:100570000B409B0903FB02F3FB612A4B5B6803F40E
:1005800040331B0C01335B003B61FA693B69B2FBF2
:10059000F3F27B681A6003E07B68234A1A6000BFAD
:1005A000204B9B6803F0F003BB61BB691B09BB6177
:1005B0001F4ABB6913441B78DBB27B617B681A68F6
:1005C0007B69DA407B685A60164B9B6803F4E05302
:1005D000BB61BB699B0ABB61154ABB6913441B78AD
:1005E000DBB27B617B685A687B69DA407B689A6022
:1005F0000C4B9B6803F46043BB61BB695B0BBB6145
:100600000B4ABB6913441B78DBB27B617B685A6879
:100610007B69DA407B68DA6000BF2437BD465DF84D
:10062000047B7047003802400024F40000127A0076
:100630000000002080B483B000AF78600B46FB70F0
:10064000FB78002B06D00A49094B1A6B7B681343D1
:100650000B6306E00649064B1A6B7B68DB431340CD
:100660000B6300BF0C37BD465DF8047B704700BFCD
:100670000038024080B483B000AF78600B46FB7056
:10068000FB78002B06D00A49094B1A6C7B68134390
:100690000B6406E00649064B1A6C7B68DB4313408B
:1006A0000B6400BF0C37BD465DF8047B704700BF8C
:1006B0000038024080B483B000AF78600B46FB7016
:1006C000FB78002B06D00A49094B5A6C7B68134310
:1006D0004B6406E00649064B5A6C7B68DB431340CB
:1006E0004B6400BF0C37BD465DF8047B704700BF0C
:1006F0000038024080B483B000AF78600B46FB70D6
:10070000FB78002B06D00A49094B1A6A7B68134311
:100710000B6206E00649064B1A6A7B68DB4313400E
:100720000B6200BF0C37BD465DF8047B704700BF0D
:100730000038024080B483B000AF78600B46FB7095
:10074000FB78002B06D00A49094B5A6A7B68134391
:100750004B6206E00649064B5A6A7B68DB4313404E
:100760004B6200BF0C37BD465DF8047B704700BF8D
:100770000038024080B58AB000AF07F12003184668
:1007800000F0AAFF10233B62012387F824300223E4
:1007900087F82730002387F82630022387F8253092
:1007A00001210F20FFF746FF07F1200319464848B3
:1007B00000F004FF022387F82430012387F8263055
:1007C0004FF410733B62002387F82730022387F829
:1007D000253007F1200319463E4800F0EFFE0422C1
:1007E00006213C4800F0B2FF04220921394800F0FC
:1007F000ADFF01214FF40210FFF73CFF0120FFF78E
:100800005FFE002387F826304FF4A4533B6207F1C4
:1008100020031946304800F0D1FE10233B6207F157
:10082000200319462D4800F0C9FE062204212B485A
:1008300000F08CFF06220721274800F087FF0622E0
:100840000A21254800F082FF06220C21224800F0F0
:100850007DFF10211E4800F069FF214802F0B6FF1D
:100860004AF64443BB614FF40073FB820023BB8212
:100870004FF400733B8200237B820023BB8307F18C
:1008800010031946164803F01FF80121144803F01D
:1008900015F9144803F0E6F9134B3B600023BB80C5
:1008A00033233B814FF480637B814FF48043BB81D2
:1008B0004BF6FF73FB8001210A4803F0CFFA3B4659
:1008C0001946084803F008FA00BF2837BD4680BD26
:1008D000000C0240000402400008024000000240F8
:1008E000003C004000540040A086010080B584B068
:1008F00000AFFF23FB721021544800F007FF544B58
:10090000FB6002E0FB68013BFB60FB68002BF9D158
:100910000D233B7101237B713B1D0221184600F022
:1009200099F800233B7199237B713B1D02211846E6
:1009300000F090F847233B7180237B713B1D02211F
:10094000184600F087F8322000F0E0F80346FB720A
:1009500032233B71FB7A63F07F03DBB27B713B1D7B
:100960000221184600F076F8322000F0CFF8034656
:10097000FB7232233B71FB7A03F07F03DBB27B71A6
:100980003B1D0221184600F065F800233B7100234F
:100990007B713B1D0221184600F05CF804233B717B
:1009A000AF237B713B1D0221184600F053F80D2345
:1009B0003B7170237B713B1D0221184600F04AF801
:1009C00005233B7181237B713B1D0221184600F0FA
:1009D00041F806233B7107237B713B1D022118461A
:1009E00000F038F80A233B7100237B713B1D022184
:1009F000184600F02FF827233B7100237B713B1D25
:100A00000221184600F026F89A233B710A237B71D5
:100A10000A23BB713B1D0321184600F01BF81F235E
:100A20003B710F237B713B1D0221184600F012F829
:100A300002233B719E237B713B1D0221184600F06F
:100A400009F800BF1037BD4680BD00BF000C024052
:100A500040420F0080B584B000AF78600B46FB7059
:100A60000023FB7300BF4FF40031234803F0E2FA88
:100A70000346002BF7D101211F4803F00FFA00BFF6
:100A80001E491D4803F0D6FA0346002BF8D0002279
:100A90009421194803F042FA00BF1949164803F09F
:100AA00099FA0346002BF8D012E0FB7B7A681344D6
:100AB0001B781946104803F06FFAFB7B0133FB7378
:100AC00000BF10490C4803F085FA0346002BF8D00C
:100AD000FA7BFB789A42E8D300BF0B49064803F043
:100AE000A9FA0346002BF8D00121034803F0F6F9D8
:100AF00000BF1037BD4680BD00540040010000100B
:100B000082000700800007000400001080B584B058
:100B100000AF0346FB710023FB7300BF4FF40031AD
:100B2000354803F087FA0346002BF7D101213248FC
:100B300003F0B4F900BF31492F4803F07BFA0346B4
:100B4000002BF8D0002294212B4803F0E7F900BFD6
:100B50002B49294803F03EFA0346002BF8D0FB79D5
:100B60001946254803F018FA00BF2649224803F029
:100B700031FA0346002BF8D001211F4803F0AEF9EB
:100B800000BF4FF400311C4803F054FA0346002B19
:100B9000F7D10021184803F0DFF90121164803F0CE
:100BA0007DF900BF1549144803F044FA0346002BB1
:100BB000F8D001229421104803F0B0F900BF124987
:100BC0000D4803F007FA0346002BF8D000BF0F4989
:100BD000094803F0FFF90346002BF8D0064803F05C
:100BE000EBF90346FB730121034803F077F9FB7B24
:100BF00018461037BD4680BD00540040010000106B
:100C0000820007008000070002000300400003008C
:100C100080B582B000AF03460A46FB8013467B7165
:100C20007B79002B05D0FB881946064800F06EFD45
:100C300004E0FB881946034800F078FD00BF083740
:100C4000BD4680BD0000024080B588B000AF0121E4
:100C50000120FFF7EFFC0723BB6103237B77012310
:100C60003B770023BB770023FB7707F11803194676
:100C7000214800F0A3FCA023BB6103237B77022360
:100C80003B770023BB770223FB7707F11803194654
:100C9000194800F093FC05220721174800F056FD83
:100CA00005220521144800F051FD01214FF4805028
:100CB000FFF700FD4FF44043BB8000233B8130230E
:100CC0003B8200237B824FF48273FB800023BB8135
:100CD00000237B814FF40073FB810023BB823B1D0B
:100CE0001946064802F0ACFD0121044802F0C6FE98
:100CF00000BF2037BD4680BD0000024000300140EB
:100D000080B582B000AF03460A46FB711346BB7143
:100D100000210220FFF77CFFBB7919460420FFF772
:100D200077FFFB799BB21946094802F0E7FE00BF46
:100D30008021074802F024FF0346012BF8D001214F
:100D40000220FFF765FF00BF0837BD4680BD00BF2A
:100D50000030014080B582B000AF786039603B68F8
:100D6000DBB243F04003DBB2DBB200211846FFF7F1
:100D7000C7FF7B68DBB21A46520013445B00DBB24C
:100D8000DBB263F07F03DBB2DBB200211846FFF772
:100D9000B7FF00BF0837BD4680BD00BF80B582B039
:100DA00000AF00237B6006E001210020FFF7A8FFD1
:100DB0007B6801337B607B68B3F5FC7FF4DB00214B
:100DC0000020FFF7C7FF00BF0837BD4680BD00BF4A
:100DD00080B582B000AFFFF737FF00210120FFF799
:100DE00017FF49F640437B6000BF7B685A1E7A605C
:100DF000002BFAD101210120FFF70AFF0021212059
:100E0000FFF77EFF0021C620FFF77AFF00210620B2
:100E1000FFF776FF00211320FFF772FF002120204B
:100E2000FFF76EFFFFF7BAFF00210C20FFF768FF06
:100E300000BF0837BD4680BD80B584B000AF034613
:100E4000FB710023FB6012E0FB79A3F120020B4948
:100E500013465B0013445B00CA18FB6813441B78FD
:100E600001211846FFF74CFFFB680133FB60FB686C
:100E7000052BE9DD00BF1037BD4680BD1000002006
:100E800080B582B000AF786006E07B685A1C7A605B
:100E90001B781846FFF7D0FF7B681B78002BF4D136
:100EA00000BF0837BD4680BD80B58CB004AFF86088
:100EB000B9603B601346FB80FB889B00184603F03B
:100EC0004FF978617B69002B0ED0582003F048F968
:100ED000F861FB69002B03D0FB697A691A6305E0AE
:100EE000786903F0D1F901E00023FB61FB69002B75
:100EF00011D0FA88FB690293FB6A0193BB6A0093E5
:100F00003B68B968F86800F00FF8F86900F094F8E9
:100F10000123BB6102E04FF0FF33BB61BB691846A0
:100F20002037BD4680BD00BF80B588B000AFF860F7
:100F3000B9603B601346FB803B6B186BFB889B00E2
:100F40001A46A52104F044FE3B6B1A6BFB8803F1A3
:100F50008043013B9B001344BB61BB6923F0070343
:100F6000BB61BB6903F00703002B09D04FF05003AE
:100F700083F31188BFF36F8FBFF34F8F7B61FEE761
:100F80000023FB6112E0BA68FB69134419783A6BDD
:100F9000FB69134434330A461A70BA68FB69134478
:100FA0001B78002B06D0FB690133FB61FB69092B21
:100FB000E9D900E000BF3B6B002283F83D20BB6A0B
:100FC000042B01D90423BB623B6BBA6ADA623B6B28
:100FD000BA6A9A643B6B0022DA643B6B04331846AE
:100FE00000F01EFC3B6B1833184600F019FC3B6BFD
:100FF0003A6B1A61BB6AC3F105023B6B9A613B6BAA
:101000003A6B5A623B6B00221A653B6B002283F8F5
:1010100054203A68F968B86900F010FD02463B6B4D
:101020001A60FB6A002B02D0FB6A3A6B1A6000BFA1
:101030002037BD4680BD00BF80B582B000AF78606C
:1010400000F062FD2C4B1B6801332B4A13602B4BC5
:101050001B68002B09D1294A7B681360264B1B684B
:10106000012B10D100F044FA0DE0254B1B68002B3A
:1010700009D1224B1B68DA6A7B68DB6A9A4202D884
:101080001E4A7B6813601F4B1B6801331D4A1360A7
:101090001C4B1A687B681A647B68DB6A01229A40E1
:1010A000194B1B681343184A13607B68DA6A1346AE
:1010B0009B0013449B00154A1A447B68043319466D
:1010C000104600F0BBFB00F04DFD0D4B1B68002BE4
:1010D0000ED00A4B1B68DA6A7B68DB6A9A4207D239
:1010E0000B4B4FF080521A60BFF34F8FBFF36F8FDF
:1010F00000BF0837BD4680BD80030020A802002045
:101100008C0300209C03002088030020AC020020F8
:1011100004ED00E080B400AF044B1B680133034AC8
:10112000136000BFBD465DF8047B7047A803002034
:1011300080B584B000AF0023FB600023BB60414B4F
:101140001B68002B09D14FF0500383F31188BFF3C4
:101150006F8FBFF34F8F3B60FEE700F0D5FC394B3C
:101160001B68013B374A1360364B1B68002B61D16B
:10117000354B1B68002B5DD02EE0344BDB68DB6801
:10118000FB60FB681833184600F07CFBFB680433F7
:10119000184600F077FBFB68DB6A01229A402C4B73
:1011A0001B6813432A4A1360FB68DA6A13469B00E4
:1011B00013449B00274A1A44FB680433194610461F
:1011C00000F03CFBFB68DA6A234B1B68DB6A9A423F
:1011D00002D3224B01221A601C4B1B68002BCCD17E
:1011E000FB68002B01D000F0C3F91D4B1B687B602E
:1011F0007B68002B10D000F037F80346002B02D09C
:10120000164B01221A607B68013B7B607B68002BD8
:10121000F1D1134B00221A60104B1B68002B09D030
:101220000123BB600F4B4FF080521A60BFF34F8F0A
:10123000BFF36F8F00F096FCBB6818461037BD46B1
:1012400080BD00BFA80300208003002040030020D1
:1012500088030020AC020020A80200209403002094
:101260009003002004ED00E080B586B000AF0023BD
:101270007B61544B1B68002B40F09280524B1B68E3
:1012800001333B61504A3B6913603B69002B1FD11E
:101290004E4B1B681B68002B09D04FF0500383F3A3
:1012A0001188BFF36F8FBFF34F8F3B60FEE7474B53
:1012B0001B68FB60464B1B68444A1360444AFB684A
:1012C0001360444B1B680133424A136000F050F92D
:1012D000414B1B683A699A424DD33C4B1B681B68D3
:1012E000002B01D1012300E00023002B04D03A4B56
:1012F0004FF0FF321A603EE0344B1B68DB68DB685E
:10130000BB60BB685B687B603A697B689A4203D2CA
:10131000314A7B6813602EE0BB680433184600F046
:10132000B1FABB689B6A002B04D0BB68183318461F
:1013300000F0A8FABB68DB6A01229A40274B1B68C1
:101340001343264A1360BB68DA6A13469B001344B2
:101350009B00234A1A44BB6804331946104600F028
:101360006DFABB68DA6A1F4B1B68DB6A9A42B4D31A
:1013700001237B61B1E71B4B1B68DA6A18491346EE
:101380009B0013449B000B441B68012B01D90123D4
:101390007B61154B1B68002B09D1FFF789F806E02C
:1013A000114B1B680133104A1360FFF781F80F4B94
:1013B0001B68002B01D001237B617B69184618371D
:1013C000BD4680BDA8030020840300203803002010
:1013D0003C03002098030020A00300208803002085
:1013E000AC020020A80200209003002094030020FB
:1013F00080B588B000AF394B1B68002B03D0384B49
:1014000001221A6065E0364B00221A60354B1B68DA
:101410001B6BFB614FF0A533BB61FB691A68BB69AD
:101420009A4211D1FB6904331A68BB699A420BD105
:10143000FB6908331A68BB699A4205D1FB690C3312
:101440001A68BB699A4208D0264B1A68254B1B685C
:10145000343319461046FFF725F8234B1B68BB6051
:10146000BB68B3FA83F3FB71FB79C3F11F033B61E4
:101470001E493A6913469B0013449B000B441B68AA
:10148000002B09D14FF0500383F31188BFF36F8F06
:10149000BFF34F8F7B61FEE73A6913469B0013440D
:1014A0009B00124A1344FB60FB685B685A68FB6848
:1014B0005A60FB685A68FB6808339A4204D1FB689B
:1014C0005B685A68FB685A60FB685B68DB68054AC2
:1014D000136000BF2037BD4680BD00BFA8030020B9
:1014E00094030020A802002088030020AC02002002
:1014F00080B582B000AF00237B600CE07A681346B1
:101500009B0013449B00124A1344184600F068F9EC
:101510007B6801337B607B68042BEFD90D4800F0BA
:101520005FF90D4800F05CF90C4800F059F90C48DF
:1015300000F056F90B4800F053F90B4B054A1A60BE
:101540000A4B054A1A6000BF0837BD4680BD00BF80
:10155000AC020020100300202403002040030020E0
:10156000540300206C030020380300203C030020BB
:1015700080B483B000AF0F4B1B681B68002B01D1F8
:10158000012300E00023002B04D00B4B4FF0FF326F
:101590001A6008E0074B1B68DB68DB687B607B68D0
:1015A0005B68054A136000BF0C37BD465DF8047BDD
:1015B000704700BF38030020A003002080B487B02C
:1015C00000AF7860396000237B6100233B6100231A
:1015D000FB6000237B6176E001227B6902FA03F362
:1015E0003B613B681A683B691340FB60FA683B69E2
:1015F0009A4265D17B681A687B695B00032101FA16
:1016000003F3DB431A407B681A607B681A683B6807
:101610001B7919467B695B0001FA03F31A437B6867
:101620001A603B681B79012B03D03B681B79022BA6
:101630002ED17B689A687B695B00032101FA03F372
:10164000DB431A407B689A607B689A683B685B79E9
:1016500019467B695B0001FA03F31A437B689A60C1
:101660007B685A687B699BB2012101FA03F3DB4373
:101670001A407B685A607B685A683B689B791946B8
:101680007B699BB201FA03F39BB21A437B685A60F1
:101690007B68DA687B699BB25B00032101FA03F384
:1016A000DB431A407B68DA607B68DA683B68DB7989
:1016B00019467B695B0001FA03F31A437B68DA6021
:1016C0007B6901337B617B690F2B85D900BF1C3798
:1016D000BD465DF8047B704780B483B000AF78608E
:1016E0007B684FF6FF721A607B6800221A717B6874
:1016F00000225A717B6800229A717B680022DA719D
:1017000000BF0C37BD465DF8047B704780B483B0E2
:1017100000AF78600B467B807B687A881A8300BFB5
:101720000C37BD465DF8047B704700BF80B483B0C2
:1017300000AF78600B467B807B687A885A8300BF55
:101740000C37BD465DF8047B704700BF80B485B0A0
:1017500000AF78600B467B8013467B700023FB60F4
:101760000023BB607A787B8803F007039B0002FAB2
:1017700003F3FB607B88DB089BB218467B88DB08A1
:101780009BB21A467B68083253F822207B8803F00C
:1017900007039B000F2101FA03F3DB4302EA030175
:1017A0007B6800F1080243F822107B88DB089BB2BB
:1017B0001A467B68083253F82220FB681343BB604B
:1017C0007B88DB089BB21A467B680832B96843F80D
:1017D000221000BF1437BD465DF8047B704700BF80
:1017E00080B483B000AF78607B6803F108027B6847
:1017F0005A607B684FF0FF329A607B6803F1080201
:101800007B68DA607B6803F108027B681A617B6899
:1018100000221A6000BF0C37BD465DF8047B70479C
:1018200080B483B000AF78607B6800221A6100BF8B
:101830000C37BD465DF8047B704700BF80B485B0AF
:1018400000AF786039607B685B68FB603B68FA6872
:101850005A60FB689A683B689A60FB689B683A68C4
:101860005A60FB683A689A603B687A681A617B68DC
:101870001B685A1C7B681A6000BF1437BD465DF8B0
:10188000047B704780B485B000AF78607B681B69CB
:10189000FB607B685B687A6892689A607B689B688B
:1018A0007A6852685A60FB685A687B689A4203D12A
:1018B0007B689A68FB685A607B6800221A61FB6843
:1018C0001B685A1EFB681A60FB681B6818461437B1
:1018D000BD465DF8047B704780B500AF164A164BD5
:1018E000D3F8883043F47003C2F88830134A134B9E
:1018F0001B6843F001031360104B00229A600F4AEB
:101900000E4B1B6823F0847323F4803313600B4B5E
:101910000B4A5A60094A094B1B6823F48023136061
:10192000064B0022DA6000F00DF8034B4FF0006226
:101930009A6000BF80BD00BF00ED00E000380240AB
:101940001030002480B483B000AF00237B600023FC
:101950003B60364A354B1B6843F480331360334B8E
:101960001B6803F400333B607B6801337B603B689A
:10197000002B03D17B68B3F5A06FF0D12B4B1B6814
:1019800003F40033002B02D001233B6001E000236D
:101990003B603B68012B42D1244A244B1B6C43F033
:1019A00080531364224A224B1B6843F48043136024
:1019B0001E4A1E4B9B6893601C4A1C4B9B6843F459
:1019C00000439360194A194B9B6843F4A0539360FA
:1019D000164B184A5A60154A144B1B6843F0807323
:1019E000136000BF114B1B6803F00073002BF9D08C
:1019F000114B40F205621A600C4A0C4B9B6823F0B5
:101A000003039360094A094B9B6843F00203936008
:101A100000BF064B9B6803F00C03082BF9D100BFF5
:101A20000C37BD465DF8047B704700BF00380240AC
:101A300000700040085A4007003C024080B485B066
:101A400000AFF860B9607A60FB68043BFB60FB683C
:101A50004FF080721A60FB68043BFB60BA68FB6859
:101A60001A60FB68043BFB600C4AFB681A60FB6869
:101A7000143BFB607A68FB681A60FB68043BFB6000
:101A8000FB686FF002021A60FB68203BFB60FB689A
:101A900018461437BD465DF8047B7047A11A00084C
:101AA00080B483B000AF0C4B1B68B3F1FF3F09D08B
:101AB0004FF0500383F31188BFF36F8FBFF34F8F45
:101AC0003B60FEE74FF0500383F31188BFF36F8F45
:101AD000BFF34F8F7B60FEE738020020000000005C
:101AE000074B19680868B0E8F04F80F30988BFF326
:101AF0006F8F4FF0000080F311887047AFF30080C4
:101B0000A802002000BF00BF80B483B000AF4FF038
:101B1000500383F31188BFF36F8FBFF34F8F3B6088
:101B20000E4B1B6801330D4A13600C4B1B68012BD5
:101B30000ED10B4B1B68DBB2002B09D04FF05003CA
:101B400083F31188BFF36F8FBFF34F8F7B60FEE786
:101B500000BF0C37BD465DF8047B7047380200209B
:101B600004ED00E080B483B000AF114B1B68002B84
:101B700009D14FF0500383F31188BFF36F8FBFF388
:101B80004F8F3B60FEE70A4B1B68013B084A13601E
:101B9000074B1B68002B04D100237B607B6883F319
:101BA000118800BF0C37BD465DF8047B704700BF4D
:101BB00038020020000000000000000000000000CB
:101BC000EFF30980BFF36F8F154B1A681EF0100FEB
:101BD00008BF20ED108A20E9F04F10604DF8043D59
:101BE0004FF0500080F31188BFF34F8FBFF36F8F1A
:101BF000FFF7FEFB4FF0000080F3118808BC196866
:101C00000868B0E8F04F1EF0100F08BFB0EC108A63
:101C100080F30988BFF36F8F704700BFAFF3008078
:101C2000A802002000BF00BF80B582B000AF4FF017
:101C3000500383F31188BFF36F8FBFF34F8F3B6067
:101C4000FFF712FB0346002B03D0064B4FF08052E8
:101C50001A6000237B607B6883F3118800BF08371C
:101C6000BD4680BD04ED00E080B487B000AFF860F1
:101C7000B9607A60FB687B61BB683B6107E07B69A8
:101C80005A1C7A613A69511C396112781A707B6862
:101C90005A1E7A60002BF2D100BF1C37BD465DF89A
:101CA000047B704780B487B000AFF860B9607A6099
:101CB000FB687B6105E07B695A1C7A61BA68D2B225
:101CC0001A707B685A1E7A60002BF4D100BF1C3753
:101CD000BD465DF8047B704780B489B000AFF86002
:101CE000B9607A60FB68FB61BB68BB6100237B6104
:101CF00000BF7B685A1E7A60002B0DD0FB695A1C0E
:101D0000FA611B781946BB695A1CBA611B78CB1A59
:101D10007B617B69002BECD07B6918462437BD467C
:101D20005DF8047B704700BF80B483B000AF78607B
:101D3000396002E07B6801337B607B681B78002B95
:101D400005D07B681B781A463B689A42F2D17B68C3
:101D50001B7818460C37BD465DF8047B704700BF02
:101D600080B584B000AF78607B681B79002B33D0DE
:101D70007B68DB6AFB607B6858787B6803F1300125
:101D80000123FA6803F0D2FE0346002B01D00123A1
:101D900023E07B6800221A717B681B6AFA68D21AFA
:101DA0007B689B699A4217D27B68DB78BB6010E046
:101DB0007B689B69FA681344FB607B6858787B6892
:101DC00003F130010123FA6803F0B0FEBB68013B68
:101DD000BB60BB68012BEBD8002318461037BD460B
:101DE00080BD00BF80B582B000AF786039607B688D
:101DF000DA6A3B689A4218D07868FFF7B1FF034669
:101E0000002B01D0012311E07B6858787B6803F137
:101E1000300101233A6803F05DFE0346002B01D038
:101E2000012303E07B683A68DA620023184608372A
:101E3000BD4680BD80B483B000AF786039603B6838
:101E4000023B3B607B685B699A1E3B689A4201D803
:101E5000002308E07B689B781A463B6803FB02F28C
:101E60007B689B6A134418460C37BD465DF8047BBB
:101E7000704700BF80B586B000AF786039603B68BE
:101E8000012B04D97B685A693B689A4201D8012327
:101E90009BE07B681B78022B46D0032B64D0012B80
:101EA00040F091803B687B617B695B087A691344F1
:101EB0007B617B681A6A7B695B0A13441946786800
:101EC000FFF790FF0346002B76D17B69C3F308032D
:101ED0007A68134493F830303B617B6901337B614E
:101EE0007B681A6A7B695B0A134419467868FFF7B6
:101EF00079FF0346002B61D17B69C3F308037A683D
:101F0000134493F830301B021A463B6913433B617C
:101F10003B6803F00103002B02D03B691B0954E02E
:101F20003B69C3F30B0350E07B681A6A3B681B0AEA
:101F3000134419467868FFF755FF0346002B3FD13D
:101F40003B685B0003F4FF7330337A681344FB6033
:101F5000FB6801331B781B029AB2FB681B789BB2AB
:101F600013439BB29BB230E07B681A6A3B68DB0983
:101F7000134419467868FFF735FF0346002B21D13B
:101F80003B689B0003F4FE7330337A681344FB60B4
:101F9000FB6803331B781A06FB6802331B781B04AB
:101FA0001343FA680132127812021343FA68127866
:101FB000134323F0704308E000BF04E000BF02E0D9
:101FC00000BF00E000BF4FF0FF3318461837BD4692
:101FD00080BD00BF80B588B000AFF860B9607A609E
:101FE000BB68012B04D9FB685A69BB689A4202D8C6
:101FF0000223FB77E7E0FB681B78022B72D0032BF0
:1020000000F09180012B40F0D180BB68BB61BB69BF
:102010005B08BA691344BB61FB681A6ABB695B0A57
:1020200013441946F868FFF7DDFE0346FB77FB7F94
:10203000002B40F0BE80BB69C3F308033033FA685D
:1020400013447B61BB6803F00103002B0FD07B6955
:102050001B78DBB203F00F03DAB27B681B01DBB243
:1020600023F00F03DBB21343DBB2DBB201E07B688A
:10207000DBB27A691370BB690133BB61FB68012273
:102080001A71FB681A6ABB695B0A13441946F8683F
:10209000FFF7A8FE0346FB77FB7F002B40F08B8009
:1020A000BB69C3F308033033FA6813447B61BB6830
:1020B00003F00103002B03D07B681B09DBB20EE0A9
:1020C0007B691B78DBB223F00F03DAB27B681B0A53
:1020D000DBB203F00F03DBB21343DBB2DBB27A698E
:1020E00013706DE0FB681A6ABB681B0A134419463B
:1020F000F868FFF777FE0346FB77FB7F002B5CD188
:10210000BB685B0003F4FF733033FA6813447B61F0
:102110007B68DAB27B691A707B6901337A681212C4
:10212000D2B21A704CE0FB681A6ABB68DB09134430
:102130001946F868FFF756FE0346FB77FB7F002B36
:102140003DD1BB689B0003F4FE733033FA6813443F
:102150007B617B6903331B781A067B6902331B782A
:102160001B0413437A6901321278120213437A690D
:102170001278134303F070437A6813437B607B68E3
:10218000DAB27B691A707B6901337A681212D2B2B3
:102190001A707B6902337A68120CD2B21A707B69AA
:1021A00003337A68120ED2B21A7009E00223FB7769
:1021B00006E000BF04E000BF02E000BF00E000BF97
:1021C000FB6801221A71FB7F18462037BD4680BD8F
:1021D00080B584B000AF786039603B68012B04D9CA
:1021E0007B685A693B689A4202D80223FB733DE040
:1021F0000023FB7331E039687868FFF73BFEB86075
:10220000BB68002B2FD0BB68012B02D10223FB73CC
:102210002CE0BB68B3F1FF3F02D10123FB7325E043
:10222000002239687868FFF7D5FE0346FB73FB7B15
:10223000002B1AD17B681B69B3F1FF3F0BD07B6881
:102240001B695A1C7B681A617B685B7943F0010348
:10225000DAB27B685A71BB683B607B685A693B683D
:102260009A42C8D802E000BF00E000BFFB7B1846DE
:102270001037BD4680BD00BF80B586B000AF786026
:1022800039603B68002B0DD17B68DB683B613B69A3
:10229000002B04D07B685A693B699A4215D8012308
:1022A0003B6112E039687868FFF7E4FDB860BB680D
:1022B000012B01D8012368E07B685A69BB689A4208
:1022C00001D9BB6861E03B683B613B697B617B692D
:1022D00001337B617B685A697B699A4207D8022384
:1022E0007B617A693B699A4201D900234DE07969A3
:1022F0007868FFF7BFFDB860BB68002B0ED0BB68E5
:10230000B3F1FF3F02D0BB68012B01D1BB683CE0B9
:102310007A693B699A42DAD1002336E000BF6FF058
:10232000704279697868FFF755FE0346FB73FB7BC3
:10233000002B09D13B68002B06D07A693968786890
:10234000FFF748FE0346FB73FB7B002B14D17B6831
:102350007A69DA607B681B69B3F1FF3F14D07B6850
:102360001B695A1E7B681A617B685B7943F0010325
:10237000DAB27B685A7107E0FB7B012B02D14FF088
:10238000FF3300E001237B617B6918461837BD46A7
:1023900080BD00BF80B584B000AF78600B467B8005
:1023A0007B687A88DA807B689B68FB60FB68012B1E
:1023B00005D07B681B685A69FB689A4201D80223E2
:1023C00066E0FB68002B08D17B681B681B78032B39
:1023D00003D17B681B685B6AFB60FB68002B14D130
:1023E0007B68FA68DA607B681B681B897A889A4286
:1023F00001D302234CE07B681B685B6A7A88120970
:1024000092B21A447B681A6136E07B681B689B783D
:102410009BB21B017B811BE07B681B68F968184637
:10242000FFF728FDF860FB68B3F1FF3F01D10123FE
:102430002EE0FB68012B05D97B681B685A69FB6895
:102440009A4201D8022323E07A887B89D31A7B80C1
:102450007A887B899A42DFD27B68FA68DA607B6887
:102460001B68F9681846FFF7E5FC02467B881B09E4
:102470009BB21A447B681A617B681B6803F13002C7
:102480007B8803F00F035B011A447B685A610023C9
:1024900018461037BD4680BD90B585B000AF786056
:1024A00039607B68DB8801333B813B89002B03D09B
:1024B0007B681B69002B01D10423BBE03B8903F03F
:1024C0000F039BB2002B40F0A6807B681B695A1C4F
:1024D0007B681A617B68DB68002B08D17B681B680E
:1024E0001B893A899A42C0F096800423A2E03B8976
:1024F0001B099BB21A467B681B689B78013B134003
:10250000002B40F088807B681A687B68DB6819467E
:102510001046FFF7AFFCF860FB68012B01D80223DF
:1025200088E0FB68B3F1FF3F01D1012382E07B68C3
:102530001B685A69FB689A4261D83B68002B01D13D
:10254000042377E07B681A687B68DB6819461046CD
:10255000FFF792FEF860FB68002B01D1072369E0CA
:10256000FB68012B01D1022364E0FB68B3F1FF3F5C
:1025700001D101235EE07B681B681846FFF7F0FB82
:102580000346002B01D0012354E07B681B683033E5
:102590004FF4007200211846FFF784FB7B681C682B
:1025A0007B681B68F9681846FFF744FC0346E36242
:1025B0000023FB7215E07B681B6801221A717B689F
:1025C0001B681846FFF7CCFB0346002B01D0012304
:1025D00030E07B681B68DA6A0132DA62FB7A013329
:1025E000FB727B681B689B78FA7A9A42E3D37B681C
:1025F0001B687A681268D16AFA7A8A1ADA627B688A
:10260000FA68DA607B681B68F9681846FFF712FC05
:1026100002467B681A617B683A89DA807B681B68AE
:1026200003F130023B8903F00F035B011A447B681E
:102630005A61002318461437BD4690BD80B584B05A
:1026400000AF7860396000217868FFF7A3FE034689
:10265000FB73FB7B002B2DD10023BB607B681A68CA
:102660007B681B6919461046FFF7BCFB0346FB73EA
:10267000FB7B002B1DD17B685B691B78E52B04D0AD
:102680007B685B691B78002B07D1BB680133BB609B
:10269000BA683B689A4202D10CE00023BB6001217A
:1026A0007868FFF7F9FE0346FB73FB7B002BD5D060
:1026B00000E000BFFB7B042B01D10723FB73FB7BF6
:1026C00018461037BD4680BD80B485B000AF786035
:1026D00039603B681B331B781B029AB23B681A3384
:1026E0001B789BB213439BB29BB2FB607B681B7849
:1026F000032B0FD13B6815331B781B029AB23B6842
:1027000014331B789BB213439BB29BB21B04FA6831
:102710001343FB60FB6818461437BD465DF8047B25
:10272000704700BF80B483B000AF786039607B68C9
:102730001A333A68D2B21A707B681B333A681212A5
:10274000D2B21A707B6814333A68120CD2B21A7083
:102750007B6815333A68120C1212D2B21A7000BF9D
:102760000C37BD465DF8047B704700BF80B586B06E
:1027700000AF786000217868FFF70CFE0346FB7518
:10278000FB7D002B01D0FB7D37E07B681A687B68FE
:102790001B6919461046FFF725FB0346FB75FB7DB9
:1027A000002B26D17B685B693B613B691B78FB731F
:1027B000FB7B002B02D10423FB751DE03B690B332F
:1027C0001B7803F00803002B09D17B689B690B225F
:1027D00019463869FFF780FA0346002B0BD0002119
:1027E0007868FFF759FE0346FB75FB7D002BCCD0C4
:1027F00002E000BF00E000BFFB7D18461837BD4671
:1028000080BD00BF80B584B000AF786001217868DA
:10281000FFF714FF0346FB73FB7B002B1FD17B6884
:102820001A687B681B6919461046FFF7DBFA0346F6
:10283000FB73FB7B002B12D17B685B69202200219C
:102840001846FFF72FFA7B6858697B689B690B2253
:102850001946FFF709FA7B681B6801221A71FB7B96
:1028600018461037BD4680BD80B58AB000AF78608D
:1028700039603B681B687B6102E07B6901337B61E7
:102880007B691B782F2BF8D07B691B785C2BF4D0ED
:102890007B689B693B610B2220213869FFF702FAB4
:1028A000002387F827300023BB61BB69FB61082345
:1028B0003B62FB695A1CFA617A6913441B7887F8FA
:1028C000263097F82630202B40F2A18097F826304A
:1028D0002F2B00F09C8097F826305C2B00F097801F
:1028E00097F826302E2B03D0BA693B6A9A4212D34E
:1028F0003B6A082B03D197F826302E2B01D00623F4
:10290000C5E00823BB610B233B6297F827309B008F
:1029100087F827307AE097F826305BB2002B05DA8B
:1029200097F8273043F0030387F8273097F82630CD
:10293000802B03D997F826309F2B07D997F826309C
:10294000DF2B2ED997F82630FC2B2AD8FB695A1C8E
:10295000FA617A6913441B78FB73FB7B3F2B02D926
:10296000FB7B7E2B06D9FB7B5BB2002B07DAFB7B64
:10297000FC2B04D83B6A5A1EBB699A4201D8062335
:1029800085E0BB695A1CBA613A69134497F826205E
:102990001A70BB695A1CBA613A691344FA7B1A70FF
:1029A00034E097F8263019463B48FFF7BDF9034657
:1029B000002B01D006236AE097F82630402B0AD975
:1029C00097F826305A2B06D897F8273043F00203A1
:1029D00087F8273012E097F82630602B0ED997F849
:1029E00026307A2B0AD897F8273043F0010387F86E
:1029F000273097F82630203B87F82630BB695A1CD1
:102A0000BA613A69134497F826201A7051E77A6937
:102A1000FB691A443B681A6097F82630202B01D8CE
:102A2000042300E0002387F82630BB69002B01D186
:102A300006232CE03B691B78E52B02D13B6905227C
:102A40001A703B6A082B04D197F827309B0087F84F
:102A5000273097F8273003F00303012B05D197F8AF
:102A6000263043F0100387F8263097F8273003F01C
:102A70000C03042B05D197F8263043F0080387F8A0
:102A800026303B690B3397F826201A70002318462E
:102A90002837BD4680BD00BFCC5C000880B485B03F
:102AA00000AF78604FF0FF33FB607B681B68002B42
:102AB0001BD07B681B681B78303BFB60FB68082BD6
:102AC00011D87B681B6801331B783A2B0BD17B68CC
:102AD0001B689A1C7B681A60FB68002B05DD4FF0B1
:102AE000FF33FB6001E00023FB60FB6818461437EE
:102AF000BD465DF8047B704780B584B000AF786058
:102B000039603B681B782F2B03D03B681B785C2B0C
:102B100002D13B6801333B607B6800229A603B68CE
:102B20001B781F2B09D800217868FFF733FC034678
:102B3000FB737B6800225A6141E03B461946786886
:102B4000FFF792FE0346FB73FB7B002B32D17868C4
:102B5000FFF70CFE0346FB737B689B69DB7ABB7354
:102B6000FB7B002B0AD0FB7B042B25D1BB7B03F026
:102B70000403002B20D10523FB731DE0BB7B03F076
:102B80000403002B1AD17B685B69BB60BB680B3305
:102B90001B7803F01003002B02D10523FB730EE01A
:102BA0007B681B68B9681846FFF78EFD02467B6894
:102BB0009A60C2E700BF02E000BF00E000BFFB7BFD
:102BC00018461037BD4680BD80B582B000AF786032
:102BD00039607B6800221A717B684FF0FF32DA623D
:102BE00039687868FFF7FEF80346002B01D003230D
:102BF0004BE07B6803F22E2301331B781B029AB251
:102C00007B6893F82E329BB213439BB21BB2214ACE
:102C1000934201D0022338E07B68663303331B788C
:102C20001A067B68663302331B781B0413437A68E9
:102C3000663201321278120213437A6892F86620E3
:102C4000134323F07F43144A934201D100231CE035
:102C50007B68823303331B781A067B688233023326
:102C60001B781B0413437A688232013212781202F5
:102C700013437A6892F88220134323F07F43064A75
:102C8000934201D1002300E0012318460837BD46D6
:102C900080BD00BF55AAFFFF4641540080B596B0E5
:102CA00000AFF860B9601346FB71FB6800221A6040
:102CB000B868FFF7F3FEF863FB6B002B01DA0B2318
:102CC00092E29B4AFB6B52F82330BB63BB6B002B39
:102CD00001D10C2388E2FB68BA6B1A60BB6B1B78CE
:102CE000002B1AD0BB6B5B78184602F0DFFE034660
:102CF00087F8373097F8373003F00103002B0CD1F9
:102D0000FB79002B07D097F8373003F00403002B32
:102D100001D00A2368E2002366E2BB6B00221A702E
:102D2000FB6BDAB2BB6B5A70BB6B5B78184602F078
:102D3000A9FE034687F8373097F8373003F00103D0
:102D4000002B01D003234FE2FB79002B07D097F82B
:102D5000373003F00403002B01D00A2344E20023A0
:102D60003B65396DB86BFFF72FFF034687F8573087
:102D700097F85730012B57D100233B642BE0BB6BF6
:102D800003F130023B6C1B0103F5DF7313443B631B
:102D90003B6B04331B78002B12D03B6B0B331B783F
:102DA0001A063B6B0A331B781B0413433A6B093238
:102DB0001278120213433A6B083212781A4300E079
:102DC00000223B6C9B0007F158010B4443F8442C54
:102DD0003B6C01333B643B6C032BD0D900233B6439
:102DE0003B6C002B02D03B6C013B3B643B6C9B007B
:102DF00007F15802134453F8443C3B653B6D002BEC
:102E000005D0396DB86BFFF7DFFE034600E0022303
:102E100087F8573097F85730002B05D03B6C0133BB
:102E20003B643B6C032BE1D997F85730032B01D15E
:102E30000123D9E197F85730002B01D00D23D3E1BE
:102E4000BB6B93F83C301B029AB2BB6B93F83B30E0
:102E50009BB213439BB21BB2B3F5007F01D00D238D
:102E6000C2E1BB6B93F847301B029AB2BB6B93F87D
:102E700046309BB213439BB29BB2FB64FB6C002BAE
:102E800012D1BB6B93F857301A06BB6B93F85630D0
:102E90001B041343BA6B92F8552012021343BA6B0A
:102EA00092F854201343FB64BB6BFA6C9A61BB6BC2
:102EB00093F84020BB6BDA70BB6BDB78012B05D03D
:102EC000BB6BDB78022B01D00D238DE1BB6BDB7874
:102ED0001A46FB6C02FB03F3FB64BB6B93F83D20CB
:102EE000BB6B9A70BB6B9B78002B08D0BB6B9B783D
:102EF0001A46BB6B9B78013B1340002B01D00D237E
:102F000072E1BB6B93F842301B029AB2BB6B93F831
:102F100041309BB213439BB29AB2BB6B1A81BB6B1D
:102F20001B8903F00F039BB2002B03D00D235BE141
:102F3000AC030020BB6B93F844301B029AB2BB6B0E
:102F400093F843309BB213439BB29BB2BB64BB6C00
:102F5000002B12D1BB6B93F853301A06BB6B93F85E
:102F600052301B041343BA6B92F8512012021343E0
:102F7000BA6B92F850201343BB64BB6B93F83F309D
:102F80001B029AB2BB6B93F83E309BB213439BB2C9
:102F9000FB85FB8D002B01D10D2325E1FA8DFB6C08
:102FA0001344BA6B1289120992B21344BB62BA6C11
:102FB000BB6A9A4201D20D2316E1BA6CBB6AD31ADE
:102FC000BA6B9278B3FBF2F37B627B6A002B01D180
:102FD0000D2309E1012387F857307B6A40F6F5722B
:102FE000934202D9022387F857307B6A4FF6F57275
:102FF000934202D9032387F857307B6A9A1CBB6B34
:103000005A61BB6B3A6DDA61FA8D3B6D1A44BB6B4A
:103010001A623A6DBB6A1A44BB6B9A6297F85730D2
:10302000032B1ED1BB6B1B89002B01D00D23DBE0D2
:10303000BB6B93F85F301A06BB6B93F85E301B04D2
:103040001343BA6B92F85D2012021343BA6B92F8E5
:103050005C201A43BB6B5A62BB6B5B699B007B6451
:103060001FE0BB6B1B89002B01D10D23BCE0BB6BA8
:103070001A6AFB6C1A44BB6B5A6297F85730022BE2
:1030800003D1BB6B5B695B000AE0BB6B5A691346FB
:103090005B0013445A08BB6B5B6903F001031344E4
:1030A0007B64BB6B9A697B6C03F2FF135B0A9A42E9
:1030B00001D20D2398E0BB6B4FF0FF321A61BB6B5E
:1030C0001A69BB6BDA60BB6B80225A7197F8573074
:1030D000032B7AD1BB6B93F861301B029AB2BB6BA6
:1030E00093F860309BB213439BB21BB2012B6CD19F
:1030F0003B6D01331946B86BFEF774FE0346002B97
:1031000063D1BB6B00225A71BB6B93F82F321B0249
:103110009AB2BB6B93F82E329BB213439BB21BB295
:10312000334A934251D1BB6B93F833301A06BB6BD1
:1031300093F832301B041343BA6B92F83120120219
:103140001343BA6B92F8302013432A4A93423CD17E
:10315000BB6B93F817321A06BB6B93F816321B043D
:103160001343BA6B92F8152212021343BA6B92F80A
:1031700014221343204A934227D1BB6B93F81B328E
:103180001A06BB6B93F81A321B041343BA6B92F8FE
:10319000192212021343BA6B92F818221A43BB6B1E
:1031A0001A61BB6B93F81F321A06BB6B93F81E3281
:1031B0001B041343BA6B92F81D2212021343BA6B1D
:1031C00092F81C221A43BB6BDA60BB6B97F857204E
:1031D0001A700A4B1B8801339AB2084B1A80074BAE
:1031E0001A88BB6BDA80002318465837BD4680BD6D
:1031F00055AAFFFF5252614172724161B003002033
:1032000080B584B000AF78607B68FB60FB68002B02
:103210000FD0FB681B68002B0BD0FB681B681B786A
:10322000002B06D0FB681B68DA88FB689B889A42F3
:1032300001D009230DE0FB681B685B78184602F09B
:1032400035FC034603F00103002B01D0032300E00B
:10325000002318461037BD4680BD00BF80B588B03A
:1032600000AFF860B9601346FB7107F10803184618
:10327000FFF714FCF861FB69002B01DA0B2328E04F
:10328000164AFB6952F82330BB61BB69002B02D0A0
:10329000BB6900221A70FB68002B02D0FB68002279
:1032A0001A70FA680D49FB6941F82320FB68002B6E
:1032B00002D0FB79012B01D000230AE007F10801BD
:1032C00007F10C0300221846FFF7E8FC0346FB75E4
:1032D000FB7D18462037BD4680BD00BFAC030020F3
:1032E00080B592B000AFF860B9601346FB71FB681F
:1032F000002B01D109232DE1FB6800221A60FB7924
:1033000003F01F03FB71FB7923F00103DAB207F12D
:10331000080107F11C031846FFF7C0FC034687F8B5
:10332000473097F84730002B40F0128107F1100327
:103330007B63BA6807F11C0311461846FFF7DCFBF4
:10334000034687F847303B6B3B6497F84730002BC8
:1033500005D13B6C002B02D1062387F84730FB795F
:1033600003F01C03002B00F08D8097F84730002BF2
:1033700012D097F84730042B07D107F11C031846E9
:10338000FFF740FA034687F84730FB7943F008031C
:10339000FB713B6B3B6412E03B6C0B331B7803F01F
:1033A0001103002B03D0072387F8473007E0FB7990
:1033B00003F00403002B02D0082387F8473097F866
:1033C0004730002B7CD1FB7903F00803002B77D02A
:1033D00002F0D8FBF8633B6C0E33FA6BD2B21A7072
:1033E0003B6C0F33FA6B1212D2B21A703B6C103373
:1033F000FA6B120CD2B21A703B6C1133FA6B120ECC
:10340000D2B21A703B6C0B3300221A703B6C1C3327
:1034100000221A703B6C1D3300221A703B6C1E3365
:1034200000221A703B6C1F3300221A70FB69396C42
:103430001846FFF749F9B8630021386CFFF772F9B5
:10344000FB6901221A71BB6B002B39D0FB69DB6A67
:10345000FB63FB69B96B1846FEF7BAFE034687F8B3
:10346000473097F84730002B2AD1FB69BA6B013AF5
:10347000DA60FB69F96B1846FEF7B4FC034687F87F
:1034800047301DE097F84730002B19D13B6C0B33C8
:103490001B7803F01003002B03D0042387F8473078
:1034A0000EE0FB7903F00203002B09D03B6C0B33D9
:1034B0001B7803F00103002B02D0072387F8473065
:1034C00097F84730002B0FD1FB7903F00803002B4E
:1034D00003D0FB7943F02003FB71FB69DA6AFB68D8
:1034E000DA61FB683A6C1A6297F84730002B2FD1EB
:1034F000FB68FA799A71FB680022DA71FB69396C12
:103500001846FFF7E1F80246FB681A613B6C1F336F
:103510001B781A063B6C1E331B781B0413433A6C52
:103520001D321278120213433A6C1C3212781A437D
:10353000FB68DA60FB6800229A60FB6800229A61EF
:10354000FA69FB681A60FB681B68DA88FB689A8076
:1035500097F8473018464837BD4680BD80B58CB0D7
:1035600000AFF860B9607A603B60BB683B623B6863
:1035700000221A60F868FFF743FE0346FB77FB7FE3
:10358000002B01D0FB7F1DE1FB68DB79002B02D013
:10359000FB68DB7916E1FB689B7903F00103002BE4
:1035A00001D107230EE1FB68DA68FB689B68D31A38
:1035B000BB617A68BB699A4240F2FF80BB697B605D
:1035C000FBE0FB689B68C3F30803002B40F0C78057
:1035D000FB689B685B0ADAB2FB681B689B78013B5F
:1035E000DBB21340FB75FB7D002B24D1FB689B688D
:1035F000002B03D1FB681B69FB6208E0FB681A68BB
:10360000FB685B6919461046FEF734FCF862FB6AFA
:10361000012B04D8FB680222DA710223D2E0FB6A94
:10362000B3F1FF3F04D1FB680122DA710123C9E045
:10363000FB68FA6A5A61FB681A68FB685B6919469D
:103640001046FEF7F7FB38613B69002B04D1FB689D
:103650000222DA710223B5E0FB7D3A6913443B6133
:103660007B685B0A7B627B6A002B3ED0FA7D7B6ABB
:103670001344FA6812689278934206D9FB681B6873
:103680009B781A46FB7DD31A7B62FB681B685878CF
:103690007B6ADBB23A69396A02F01CFA0346002BF6
:1036A00004D0FB680122DA7101238BE0FB689B796F
:1036B00003F04003002B14D0FB689A693B69D21ACF
:1036C0007B6A9A420DD2FB689A693B69D31A5B0206
:1036D0003A6AD018FB6824334FF400721946FEF79B
:1036E000C3FA7B6A5B02BB6253E0FB689A693B6981
:1036F0009A4231D0FB689B7903F04003002B19D02C
:10370000FB681B685878FB6803F12401FB689A6921
:10371000012302F00BFA0346002B04D0FB680122C0
:10372000DA7101234EE0FB689B7923F04003DAB2A3
:10373000FB689A71FB681B685878FB6803F12401E9
:1037400001233A6902F0C6F90346002B04D0FB6856
:103750000122DA71012335E0FB683A699A61FB685E
:103760009B68C3F30803C3F50073BB62BA6A7B6846
:103770009A4201D97B68BB62FB689B68C3F308036C
:103780002033FA6813440433BA6A1946386AFEF7DC
:103790006BFA3A6ABB6A13443B62FB689A68BB6A7D
:1037A0001A44FB689A603B681A68BB6A1A443B6813
:1037B0001A607A68BB6AD31A7B607B68002B7FF43F
:1037C00000AF002318463037BD4680BD80B582B0BB
:1037D00000AF78607B68174A93420AD101214FF409
:1037E0008050FCF7A7FF00214FF48050FCF7A2FFA8
:1037F0001CE07B68104A93420AD101214FF48040BB
:10380000FCF778FF00214FF48040FCF773FF0DE0D8
:103810007B680A4A934209D101214FF40040FCF72A
:1038200069FF00214FF40040FCF764FF00BF083738
:10383000BD4680BD0030014000380040003C0040E3
:1038400080B485B000AF786039600023FB817B686D
:103850001B88FB81FB8903F44153FB813B681A8879
:103860003B685B8813439AB23B689B8813439AB2C8
:103870003B68DB8813439AB23B681B8913439AB2B7
:103880003B685B8913439AB23B689B8913439AB2A6
:103890003B68DB8913439AB2FB891343FB817B6846
:1038A000FA891A807B689B8B9BB223F400639AB2DF
:1038B0007B689A833B681A8A7B681A8200BF143738
:1038C000BD465DF8047B704780B48BB000AF786074
:1038D000396000237B830223FB840023BB84012304
:1038E0007B840023FB6100237B6100233B61002379
:1038F000FB600023BB607B689B8B9BB223F47B63E4
:1039000023F00F039AB27B689A837B6802221A84A1
:103910007B689B8B7B833B689B68022B04D10023D5
:10392000BB840223FB8472E03B689B88002B02D19E
:1039300001237B8401E002237B844D4B9B6803F4CD
:103940000003002B05D04A4A494B9B6823F400032F
:103950009360474BD3F8842047F6C07313409B090C
:10396000C3F30803FB60424BD3F8843003F0E04319
:103970001B0F03F00703BB603D4B5B6803F03F0385
:103980003B613C4A3B69B2FBF3F3FA6802FB03F28A
:10399000BB68B2FBF3F37B613B68DB88B3F5007F68
:1039A0000FD17B691A0A13469B0013445B001A4629
:1039B0003B689B68B2FBF3F39BB205339BB2FB61A0
:1039C00012E07B8C5B011A467B69B3FBF2F2134673
:1039D0009B0013445B001A463B689B68B2FBF3F301
:1039E0009BB205339BB2FB61FB69234AA2FB032315
:1039F000DB08FB61FB699BB203F00103BB84BB8C5A
:103A0000FA69D31A5B08FB84BB8C1B02BB84FB8C5A
:103A1000012B02D9FB8CFF2B03D90223FB8400234B
:103A2000BB843B68DA88BB8C13439AB2FB8C13438C
:103A30009AB27B681A843B681A883B6859883B684D
:103A400098883B689B8903439BB20B439BB213430B
:103A50009AB27B8B13439BB243F400637B837B68F6
:103A60007A8B9A8300BF2C37BD465DF8047B704784
:103A70000038024000127A00CDCCCCCC80B483B0A8
:103A800000AF78600B46FB70FB78002B08D07B689A
:103A90001B889BB243F040039AB27B681A8007E010
:103AA0007B681B889BB223F040039AB27B681A8024
:103AB00000BF0C37BD465DF8047B704780B483B00F
:103AC00000AF78600B46FB70FB78002B08D07B685A
:103AD0009B8B9BB243F480639AB27B689A8307E026
:103AE0007B689B8B9BB223F480639AB27B689A833A
:103AF00000BF0C37BD465DF8047B704780B483B0CF
:103B000000AF78600B467B807B687A889A8100BF23
:103B10000C37BD465DF8047B704700BF80B485B0AC
:103B200000AF78600B46FB701346BB700023FB812F
:103B30000023BB81FB781B09DBB2FB81FB890122DF
:103B400002FA03F3BB81BB78002B08D07B689B880B
:103B50009AB2BB8913439AB27B689A8009E07B686A
:103B60009B889AB2BB89DB439BB213409AB27B68B5
:103B70009A8000BF1437BD465DF8047B704700BFD4
:103B800080B485B000AF78600B467B800023FB7368
:103B90007B681B899AB27B8813409BB2002B02D0B2
:103BA0000123FB7301E00023FB73FB7B18461437F2
:103BB000BD465DF8047B704780B485B000AF786087
:103BC0000B46FB700023FB730023BB8100237B812A
:103BD00000233B81FB7803F00F03012202FA03F379
:103BE000BB81FB781B09DBB27B817B89012202FA56
:103BF00003F37B817B689B889AB27B8913403B816E
:103C00007B681B899AB2BB8913409BB2002B05D0FD
:103C10003B89002B02D00123FB7301E00023FB73DF
:103C2000FB7B18461437BD465DF8047B704700BF28
:103C300080B485B000AF78600B46FB700023FB8139
:103C4000FB7803F00F03012202FA03F3FB81FB89E7
:103C5000DB439AB27B681A8100BF1437BD465DF81A
:103C6000047B704780B582B000AF78607B68174AEC
:103C700093420AD101214FF40010FCF73BFD0021D3
:103C80004FF40010FCF736FD1CE07B68104A9342AD
:103C90000AD101214FF48000FCF72CFD00214FF4E4
:103CA0008000FCF727FD0DE07B680A4A934209D1AA
:103CB00001214FF40000FCF71DFD00214FF400002E
:103CC000FCF718FD00BF0837BD4680BD005400401A
:103CD00000580040005C004080B58AB000AF7860BA
:103CE00039600023FB8400237B840423BB84574B6F
:103CF000FB617B689B88FB84FB8C23F03F03FB8488
:103D000007F10C031846FCF7EBFB7B69FB61FB69D1
:103D10004F4AA2FB03239B0C7B84FA8C7B8C1343BE
:103D2000FB847B68FA8C9A807B681B889BB223F0AB
:103D300001039AB27B681A800023FB843B681B68EE
:103D4000444A934215D83B681B685B00FA69B2FB92
:103D5000F3F3BB84BB8C032B01D80423BB84FA8C04
:103D6000BB8C1343FB847B8C01339AB27B681A842F
:103D700040E03B68DB884BF6FF72934209D13B6819
:103D80001A6813465B001344FA69B2FBF3F3BB8471
:103D90000EE03B681A6813469B0013449A001344D4
:103DA000FA69B2FBF3F3BB84BB8C43F48043BB845E
:103DB000BB8CC3F30B03002B03D1BB8C43F001037B
:103DC000BB84BA8CFB8C13439BB26FEA43436FEA0C
:103DD0005343FB847B8C4FF4967202FB03F31E4A21
:103DE00082FB03129211DB17D31A9BB201339AB2F2
:103DF0007B681A847B68FA8C9A837B681B889BB2E9
:103E000043F001039AB27B681A807B681B88FB84AD
:103E1000FB8C23F4816323F00203FB843B689A88C4
:103E20003B685B8913439AB2FB8C1343FB847B682A
:103E3000FA8C1A803B689A893B681B8913439AB2B3
:103E40007B681A8100BF2837BD4680BD00127A000A
:103E500083DE1B43A0860100D34D621080B483B083
:103E600000AF78600B46FB70FB78002B08D07B68B6
:103E70001B889BB243F001039AB27B681A8007E06B
:103E80007B681B889BB223F001039AB27B681A807F
:103E900000BF0C37BD465DF8047B704780B483B02B
:103EA00000AF78600B46FB70FB78002B08D07B6876
:103EB0001B889BB243F480739AB27B681A8007E038
:103EC0007B681B889BB223F480739AB27B681A804C
:103ED00000BF0C37BD465DF8047B704780B483B0EB
:103EE00000AF78600B46FB70FB78002B08D07B6836
:103EF0001B889BB243F400739AB27B681A8007E078
:103F00007B681B889BB223F400739AB27B681A808B
:103F100000BF0C37BD465DF8047B704780B483B0AA
:103F200000AF78600B46FB701346BB70BB78002B6C
:103F300004D0FB7843F00103FB7003E0FB7823F02F
:103F40000103FB70FB789AB27B681A8200BF0C37C2
:103F5000BD465DF8047B704780B483B000AF7860E5
:103F60000B46FB70FB78002B08D07B681B889BB24C
:103F700043F480639AB27B681A8007E07B681B88F1
:103F80009BB223F480639AB27B681A8000BF0C371F
:103F9000BD465DF8047B704780B483B000AF7860A5
:103FA0000B46FB70FB789AB27B681A8200BF0C3715
:103FB000BD465DF8047B704780B483B000AF786085
:103FC0007B681B8A9BB2DBB218460C37BD465DF896
:103FD000047B704780B487B000AF786039600023FD
:103FE0003B610023FB600023BB600023FB757B6803
:103FF0009B8A9BB2FB607B681B8B9BB2BB60BB68E0
:104000001B04BB60FA68BB68134323F07F433B612A
:104010003A693B681A403B689A4202D10123FB751A
:1040200001E00023FB75FB7D18461C37BD465DF89B
:10403000047B704780B487B000AF7860396000239C
:10404000FB7500233B610023FB607B68FB603B68E2
:104050001B0F3B613B6823F07F433B603B69002BB8
:1040600003D0FB681433FB6005E03B681B0C3B602E
:10407000FB681833FB60FB681A683B681340002B31
:1040800002D00123FB7501E00023FB75FB7D184680
:104090001C37BD465DF8047B704700BF80B485B017
:1040A00000AF78600023FB730023BB730F237B7387
:1040B0007B68DB78002B38D0274BDB68DB4303F4CD
:1040C000E0631B0AFB73FB7BC3F10403BB737A7BC6
:1040D000FB7B42FA03F37B737B685B781A46BB7BFE
:1040E00002FA03F3FB737B689A787B7B1340DAB2A6
:1040F000FB7B1343FB73FB7B1B01FB73174A7B6842
:104100001B781344FA7B83F80023144A7B681B78DE
:104110005B09DBB218467B681B7803F01F030121A3
:1041200001FA03F342F820300FE00C497B681B785A
:104130005B09DBB218467B681B7803F01F03012282
:104140009A4000F1200341F8232000BF1437BD46F8
:104150005DF8047B704700BF00ED00E000E100E087
:1041600080B588B000AF786000237B61FCF7D2FF98
:10417000404B1B68002B04D100F0C0F83D4B0122DE
:104180001A607B68002B0ED008231A467B68134404
:104190007B607B6803F00703002B04D07B6823F06F
:1041A000070308337B607B68002B56D07B68324A5C
:1041B000934252D8314BBB61304B1B68FB6104E02A
:1041C000FB69BB61FB691B68FB61FB695A687B6823
:1041D0009A4203D2FB691B68002BF1D1FB69284A84
:1041E00093423AD0BB691B68082213447B61FB6988
:1041F0001A68BB691A60FB695A687B68D31A08227F
:104200005200934222D9FA697B681344FB60FB6930
:104210005A687B68D21AFB685A60FB697A685A60F0
:10422000FB685B68BB60154B3B6102E03B691B6848
:104230003B613B691B685A68BB689A42F6D33B698D
:104240001A68FB681A603B69FA681A600D4B1A68B5
:10425000FB695B68D31A0B4A1360FCF769FF7B6943
:10426000002B01D1FCF71AF97B6918462037BD46AF
:1042700080BD00BFC42F0120F72B0100B42F012007
:10428000BC2F01203C02002080B586B000AF7860D2
:104290007B683B617B68002B27D008235B423A692F
:1042A00013443B613B69FB60FCF734FFFB685B68D0
:1042B000BB60104B7B6102E07B691B687B617B69A3
:1042C0001B685A68BB689A42F6D37B691A68FB6818
:1042D0001A607B69FA681A60FB685A68064B1B68AB
:1042E0001344054A1360FCF723FF00BF1837BD468F
:1042F00080BD00BFB42F01203C02002080B483B0F9
:1043000000AF0F4B23F007037B600E4A7B681360FE
:104310000C4B00225A600C4B0C4A5A600A4B00228C
:104320001A607B683B603B68084A5A603B68064AF3
:104330001A6000BF0C37BD465DF8047B704700BFB4
:10434000BC030020B42F0120BC2F0120F82B01005A
:1043500080B485B000AF786039600023FB817B6852
:104360001B88FB817B68294A934213D07B68284ACB
:1043700093420FD07B68B3F1804F0BD07B68254A06
:10438000934207D07B68244A934203D07B68234A38
:10439000934208D1FB8923F07003FB813B685A8864
:1043A000FB891343FB817B681D4A93420CD07B68D9
:1043B0001C4A934208D0FB8923F44073FB813B687D
:1043C0001A89FB891343FB817B68FA891A803B6851
:1043D0005A687B68DA623B681A887B681A857B6852
:1043E0000A4A934203D07B68094A934204D13B684E
:1043F0009B7A9AB27B681A867B6801229A8200BFF8
:104400001437BD465DF8047B704700BF00000140D3
:10441000000401400004004000080040000C00407F
:10442000001000400014004080B483B000AF7860FA
:104430000B46FB70FB78002B08D07B681B889BB277
:1044400043F001039AB27B681A8007E07B681B88FF
:104450009BB223F001039AB27B681A8000BF0C372D
:10446000BD465DF8047B704780B483B000AF7860D0
:104470000B467B8013467B707B78002B08D07B68D3
:104480009B899AB27B8813439AB27B689A8109E030
:104490007B689B899AB27B88DB439BB213409AB2BC
:1044A0007B689A8100BF0C37BD465DF8047B70477E
:1044B00080B485B000AF78600B467B800023FB732F
:1044C0000023BB8100237B817B681B8A9AB27B8897
:1044D0001340BB817B689B899AB27B8813407B81A8
:1044E000BB89002B05D07B89002B02D00123FB73F5
:1044F00001E00023FB73FB7B18461437BD465DF8D3
:10450000047B704780B483B000AF78600B467B803B
:104510007B88DB439AB27B681A8200BF0C37BD46AA
:104520005DF8047B704700BF80B588B000AF012103
:104530004FF48040FCF79EF801210220FCF77AF846
:104540004FF48053BB6101233B770023BB770323E8
:104550007B770023FB7707F1180319462548FDF701
:104560002DF84FF480512348FDF7D0F805220D2196
:104570002048FDF7EBF805220E211E48FDF7E6F86E
:1045800005220F211B48FDF7E1F802233B770323A7
:104590007B770023BB770223FB774FF46043BB613B
:1045A00007F1180319461348FDF708F81248FFF7FA
:1045B0000DF90023BB8000233B8100237B81002376
:1045C000BB814FF40073FB8100233B8200237B827D
:1045D0000723BB824FF48273FB803B1D19460648BC
:1045E000FFF72EF901210448FFF748FA00BF2037F2
:1045F000BD4680BD000402400038004080B500AFD9
:104600004FF480510248FDF791F800BF80BD00BF14
:104610000004024080B500AF4FF480510248FDF71E
:1046200075F800BF80BD00BF0004024080B483B0B5
:1046300000AF0346FB710B4BFA7992B29A8100BF2F
:10464000084B1B899BB203F00103002BF8D0054BEC
:104650009B899BB2DBB218460C37BD465DF8047BE4
:10466000704700BF0038004080B485B000AF0346FB
:104670000A46FB711346BB718923FB72FA79BB7939
:104680005340FB710023FB600DE0FB795BB2002B14
:1046900003DAFA79FB7A5340FB71FB795B00FB711B
:1046A000FB680133FB60FB68072BEEDDFB791846E6
:1046B0001437BD465DF8047B704700BF80B483B0FB
:1046C00000AF03460A46FB8013467B71FB881B0A3A
:1046D0009BB29AB2FB881B029BB213439BB2FB8036
:1046E0007B799AB2FB885340FB80FB88DBB21B09C5
:1046F000DBB29AB2FB885340FB80FB881B039AB263
:10470000FB8853409BB2FB80FB885B019BB203F4A8
:10471000FF539AB2FB8853409BB2FB80FB8818463C
:104720000C37BD465DF8047B704700BF80B584B090
:1047300000AF7860396000237B810023FB600DE0CF
:10474000FB687A6813441A787B8911461846FFF78C
:10475000B5FF03467B81FB680133FB60FA683B6869
:104760009A42EDDB7B8918461037BD4680BD00BFFD
:1047700080B400AF00BFBD465DF8047B704700BF4A
:1047800080B584B000AF03463960FB710023FB7332
:10479000FB7943F04003DBB21846FFF747FFFB7994
:1047A00043F04003DAB2FB7B11461846FFF75CFF8B
:1047B0000346FB733B681B0EDBB21846FFF736FF60
:1047C0003B681B0EDAB2FB7B11461846FFF74CFF25
:1047D0000346FB733B681B0CDBB21846FFF726FF52
:1047E0003B681B0CDAB2FB7B11461846FFF73CFF17
:1047F0000346FB733B681B0ADBB21846FFF716FF44
:104800003B681B0ADAB2FB7B11461846FFF72CFF08
:104810000346FB733B68DBB21846FFF707FF3B68B4
:10482000DAB2FB7B11461846FFF71EFF0346FB7307
:10483000FB7B43F00103DBB21846FFF7F7FE00BF36
:104840001037BD4680BD00BF80B582B000AF4FF4C9
:104850007A737B600AE0FF20FFF7E8FE0346FB70F7
:10486000FB785BB2002B01DBFB7805E07B685A1E0E
:104870007A60002BEFD1FF2318460837BD4680BD74
:1048800090B583B000AF4FF47A737B6009E0FF20EE
:10489000FFF7CCFE03467B807B8803F08003002B70
:1048A00005D07B685A1E7A60002BF0D100E000BF73
:1048B0007B68002B01DAFF230CE07B881B029CB293
:1048C000FF20FFF7B3FE03469BB2224613439BB281
:1048D0007B807B8818460C37BD4690BD80B584B080
:1048E00000AF7860FFF7B0FF0346FB60FB68012B69
:1048F00002D0FB68DBB223E0FF20FFF797FE034600
:104900001B06FB60FF20FFF791FE03461B041A46BF
:10491000FB681343FB60FF20FFF788FE03461B0282
:104920001A46FB681343FB60FF20FFF77FFE034638
:104930001A46FB681343FB607B68FA681A60012320
:1049400018461037BD4680BD80B584B000AF034621
:10495000FB71FB7919461048FFF70AFF0023FB6043
:1049600012E0FA79FB6842FA03F303F00103002B2B
:1049700007D00A4AFB6852F8233019460848FFF767
:10498000F7FEFB680133FB60FB68062BE9DD00BF27
:104990001037BD4680BD00BF505D000840020020BA
:1049A0005C5D000880B584B000AF0346FB80FB88E7
:1049B00019461048FFF7DCFE0023FB6012E0FA887E
:1049C000FB6842FA03F303F00103002B07D00A4A05
:1049D000FB6852F8233019460848FFF7C9FEFB6808
:1049E0000133FB60FB680E2BE9DD00BF1037BD46CD
:1049F00080BD00BF1C5E00085C0200205C5D0008FA
:104A000080B582B000AF00237B6005E0FF20FFF798
:104A10000DFE7B6801337B607B68072BF6DD00BFF2
:104A20000837BD4680BD00BF80B58CB002AF78604E
:104A30007B680022DA60B348FFF79AFEFFF7EAFDD1
:104A400000237B6205E0FF20FFF7F0FD7B6A013366
:104A50007B627B6A092BF6DDFFF7D0FD0021002089
:104A6000FFF78EFEFFF7F0FE03463B61FFF7C8FF3E
:104A7000FFF7D0FD3B69FF2B00F056823B69012B0D
:104A800008D0A148FFF774FE3B69DBB21846FFF778
:104A90005BFF5EE29D48FFF76BFE9D48FFF768FEF7
:104AA000FFF7ACFD4FF4D5710820FFF769FE07F161
:104AB0000C031846FFF712FF03463B61FFF7A0FF08
:104AC000FFF7A8FD7B68DB6843F001027B68DA60D2
:104AD0003B69FF2B00F02A823B69012B03D18D48F3
:104AE000FFF746FE19E03B6903F00403002B09D0F1
:104AF0007B68DB6823F001027B68DA608648FFF799
:104B000037FE0AE08048FFF733FE3B69DBB2184608
:104B1000FFF71AFF6FF001031DE28048FFF728FE40
:104B2000FFF76CFD00213A20FFF72AFE07F108038A
:104B30001846FFF7D3FE03463B61FFF761FFFFF71F
:104B400069FD3B69FF2B00F0F3813B69012B0FD01E
:104B50003B6903F00403002B0AD16B48FFF708FE02
:104B60003B69DBB21846FFF7EFFE6FF00103F2E19D
:104B70000423FB610BE00122FB6902FA03F31A46EE
:104B8000BB681340002B06D1FB690133FB61FB6955
:104B9000172BF0DD00E000BFFB690C33604A82FB9D
:104BA00003129210DB17D01AFB6903F10C025C4B65
:104BB00083FB02139910D317C91A0B469B000B44B1
:104BC0005B00D11A0A4601465648FFF7D1FD17236C
:104BD000FB610BE00122FB6902FA03F31A46BB6892
:104BE0001340002B06D1FB69013BFB61FB69032BE2
:104BF000F0DC00E000BFFB690D33494A82FB031281
:104C00009210DB17D01AFB6903F10D02444B83FBB2
:104C100002139910D317C91A0B469B000B445B0073
:104C2000D11ABB689B0F03F00102BB68DB0F009336
:104C300013460A4601463C48FFF79AFD3348FFF702
:104C400097FD3A48FFF794FD4FF47A733B620023D7
:104C5000BB617B68DB6803F00103002B02D04FF0DF
:104C60008043BB61FFF7CAFC00213720FFF788FDB6
:104C7000FFF7EAFD03463B61FFF7C2FEFFF7CAFC00
:104C80003B69FF2B00F056813B6903F0FE03002BCC
:104C900008D01D48FFF76CFD3B69DBB21846FFF7F3
:104CA00053FE56E1FFF7AAFCB9692920FFF768FD1A
:104CB000FFF7CAFD03463B61FFF7A2FEFFF7AAFC20
:104CC0003B69FF2B00F038813B6903F0FE03002BAA
:104CD00008D00D48FFF74CFD3B69DBB21846FFF7E3
:104CE00033FE36E13B69002B04D03B6A5A1E3A6220
:104CF000002BB7D13B6AB3F1FF3F1BD10C48FFF744
:104D000037FD26E1285E0008385E0008405E000896
:104D10004C5E0008605E0008745E0008905E00084B
:104D200067666666A05E0008BC5E0008E45E000878
:104D3000F45E00088A48FFF71BFD7B68DB6803F020
:104D40000103002B00F09D808648FFF711FDFFF75F
:104D500055FC00213A20FFF713FD07F10803184620
:104D6000FFF7BCFD03463B61FFF74AFEFFF752FC2D
:104D70003B69FF2B00F0E2803B6903F0FE03002B50
:104D80000AD07948FFF7F4FC3B69DBB21846FFF71D
:104D9000DBFD6FF00103DEE004237B610BE0012209
:104DA0007B6902FA03F31A46BB681340002B06D155
:104DB0007B6901337B617B69172BF0DD00E000BF6D
:104DC0007B690C33694A82FB03129210DB17D01AFD
:104DD0007B6903F10C02654B83FB02139910D31717
:104DE000C91A0B469B000B445B00D11A0A460146C8
:104DF0005F48FFF7BDFC17237B610BE001227B6955
:104E000002FA03F31A46BB681340002B06D17B69F4
:104E1000013B7B617B69032BF0DC00E000BF7B6919
:104E20000D33524A82FB03129210DB17D01A7B69B2
:104E300003F10D024D4B83FB02139910D317C91ACE
:104E40000B469B000B445B00D11ABB689B0F03F021
:104E50000102BB68DB0F009313460A460146454832
:104E6000FFF786FCBB689B0F03F00103002B05D006
:104E70007B68DB6843F002027B68DA603848FFF742
:104E800077FC7B68DB6803F00203002B25D13A48EE
:104E9000FFF76EFCFFF7B2FB4FF400711020FFF735
:104EA0006FFCFFF7D1FC03463B61FFF7A9FDFFF75D
:104EB000B1FB3B69FF2B43D03B6903F0FE03002BA2
:104EC00008D02948FFF754FC3B69DBB21846FFF7CE
:104ED0003BFD3EE02248FFF74BFC2848FFF748FC2B
:104EE000FFF78CFB00213B20FFF74AFCFFF7ACFCEF
:104EF00003463B61FFF784FDFFF78CFB3B69FF2B0B
:104F000020D03B6903F0FE03002B08D01648FFF7C2
:104F10002FFC3B69DBB21846FFF716FD19E010487D
:104F2000FFF726FC002316E000BF0CE000BF0AE0FC
:104F300000BF08E000BF06E000BF04E000BF02E0E1
:104F400000BF00E000BF0E48FFF712FC4FF0FF3338
:104F500001E06FF0010318462837BD4680BD00BF51
:104F6000405E0008005F0008385E000867666666FD
:104F7000A05E0008BC5E00081C5F0008345F0008EB
:104F80004C5F000880B584B000AF7860FFF736FB57
:104F900000210D20FFF7F4FBFFF772FC0346FB81B5
:104FA000FFF72EFDFFF736FBFB891BB2002B02DA61
:104FB0004FF0FF3307E0FB89002B03D0FB89184635
:104FC000FFF7F0FC002318461037BD4680BD00BF38
:104FD00090B58BB002AFF860B9607A6044F6206398
:104FE000FB6107E0FF20FFF721FB0346FB75FB7D1C
:104FF000FE2B05D0FB695A1EFA61002BF2D100E0AE
:1050000000BFFB69002B02DA4FF0FF3337E00023CB
:10501000BB610AE0BB69BA68D418FF20FFF706FB42
:1050200003462370BB690133BB61BA697B689A424E
:10503000F0DBFF20FFF7FAFA03469BB21B02BB82AC
:10504000FF20FFF7F3FA03469AB2BB8A1343BB82F1
:105050007968B868FFF76AFB03467B82BA8A7B8A65
:105060009A420BD0BA8A798A7B6800930B4606492C
:105070000648FFF77DFB4FF0FF3300E000231846A2
:105080002437BD4690BD00BFB8630008585F0008D4
:1050900080B588B000AFF860B9607A600A23BB6160
:1050A000FE20FFF7C3FA06E0BB685A1CBA601B7803
:1050B0001846FFF7BBFA7B685A1E7A60002BF3D1C3
:1050C0007968B868FFF732FB0346FB82FB8A1B0A4C
:1050D0009BB2DBB21846FFF7A9FAFB8ADBB218468F
:1050E000FFF7A4FA07E0FF20FFF7A0FA0346FB77DB
:1050F000FB7FFF2B05D1BB695A1EBA61002BF2D191
:1051000000E000BFBB69002B02DA4FF0FF331DE067
:10511000104BBB6105E0FF20FFF788FA0346FF2B29
:1051200005D0BB695A1EBA61002BF4D100E000BF64
:10513000BB69002B02DA6FF0010307E0FB7F03F08D
:105140001F03052B01D1002300E0FB7F1846203709
:10515000BD4680BDA08601002DE9F043B5B01AAF71
:10516000F864FFF74BFA00210920FFF709FBFFF76E
:105170006BFB03463B663B6EFF2B04D1FFF74AFAFD
:105180004FF0FF335AE23B6E03F0FE03002B0DD0CD
:10519000FFF740FAA549A648FFF7EAFA3B6EDBB2F3
:1051A0001846FFF7D1FB6FF0010347E207F1500308
:1051B00010221946F86CFFF70BFF3866FFF720FC4A
:1051C000FFF728FA3B6EB3F1FF3F05D19948FFF78F
:1051D000CFFA6FF0020331E297F850309B09DBB24F
:1051E000002B40F02B8197F850309B09DBB203F184
:1051F000010E97F851309C4697F85230984697F830
:105200005330BB6497F854307B6497F855301B09D2
:10521000DBB23B6497F8553003F00F03012202FA2A
:1052200003F10A46FA6397F85630DB09DBB2BB6339
:1052300097F856309B09DBB203F00101796397F8C8
:1052400056305B09DBB203F00100386397F8563043
:105250001B09DBB203F00104FC6297F856309B0295
:1052600003F4406297F857309B00134397F8582097
:105270009209D2B243EA0205BD6297F85830DB10BA
:1052800003F007067E6297F8583003F007000246E5
:105290003A6297F859305B09DBB2FB6197F85930F5
:1052A0009B08DBB203F007000146B96197F859305B
:1052B0005B0003F0060297F85A30DB09DBB21343B8
:1052C0009A1C012303FA02F0786197F85A309B097F
:1052D000DBB203F001043C6197F85A305B0003F045
:1052E0007E0297F85B30DB09DBB213435D1CFD6087
:1052F00097F85B3003F07F035E1CBE6097F85C306C
:10530000DB09DBB27B6097F85C309B08DBB203F013
:105310000702012303FA02F94A463A6097F85C3023
:105320009B0003F00C0297F85D309B09DBB21A4337
:10533000012303FA02F597F85D305B09DBB203F055
:10534000010497F85E30DB09DBB21E4697F85E3049
:105350009B09DBB203F0010097F85E305B09DBB21A
:1053600003F0010197F85E301B09DBB203F0010284
:1053700097F85E309B08DBB203F003031993189291
:10538000179116901596149413953A6812927A68AC
:105390001192BE681096FD680F953C690E9478696D
:1053A0000D90B9690C91F9690B913A6A0A927E6A7B
:1053B0000996BD6A0895FC6A0794386B0690796B6C
:1053C0000591B96B0491FA6B03923A6C02927A6C74
:1053D0000192BB6C00934346624671461648FFF744
:1053E000C7F997F856309B0203F4406297F857309C
:1053F0009B00134397F858209209D2B213435A1CCA
:1054000097F859305B0003F0060397F85A10C90962
:10541000C9B20B4302339A4097F8553003F00F039B
:10542000093B02FA03F37B66E4E000BFC4630008B3
:10543000805F0008845F0008985F0008FB6CDB68F1
:1054400043F00202FB6CDA6097F850309B09DBB244
:1054500003F1010E97F851309C4697F85230984668
:1054600097F85330BB6497F854307B6497F8553005
:105470001B09DBB23B6497F8553003F00F030122A0
:1054800002FA03F10A46FA6397F85630DB09DBB2F9
:10549000BB6397F856309B09DBB203F001017963D7
:1054A00097F856305B09DBB203F00100386397F8D8
:1054B00056301B09DBB203F00104FC6297F8573049
:1054C0001A0497F858301B02134397F8592043EAFF
:1054D0000205BD6297F85A309B09DBB203F0010662
:1054E0007E6297F85A305B0003F07E0297F85B30DB
:1054F000DB09DBB213435A1C3A6297F85B3003F0C6
:105500007F03591CF96197F85C30DB09DBB2BB61A2
:1055100097F85C309B08DBB203F00702012303FA23
:1055200002F94846786197F85C309B0003F00C0262
:1055300097F85D309B09DBB21A43012303FA02F5A9
:1055400097F85D305B09DBB203F0010497F85E3039
:10555000DB09DBB21E4697F85E309B09DBB203F035
:10556000010097F85E305B09DBB203F0010197F8A8
:105570005E301B09DBB203F0010297F85E309B0836
:10558000DBB203F00303149313921291119010965F
:105590000F940E9578690D90B8690C90F9690B918C
:1055A0003A6A0A927E6A0996BD6A0895FC6A07946F
:1055B000386B0690796B0591B96B0491FA6B039285
:1055C0003A6C02927A6C0192BB6C0093434662463D
:1055D00071461D48FFF7CCF897F857301A0497F832
:1055E00058301B02134397F8592013437B667B6E98
:1055F0009B027B667B6EDA0F13445B1019461348DF
:10560000FFF7B6F8FB6C7A6E5A60FB6C01229A6069
:1056100097F85A309B09DBB203F00103002B0CD141
:1056200097F85A305B0003F07E0397F85B20D209AD
:10563000D2B213435A1CFB6C9A60002318466C3795
:10564000BD46BDE8F08300BF3861000894620008E1
:105650002DE9F0419CB00EAFF861FEF7CFFF0021BD
:105660000A20FFF78DF8FFF7EFF803467B637B6BAB
:10567000FF2B04D1FEF7CEFF4FF0FF337EE07B6BB4
:1056800003F0FE03002B0DD0FEF7C4FF3E493F4858
:10569000FFF76EF87B6BDBB21846FFF755F96FF03A
:1056A00001036BE007F1240310221946F869FFF7A4
:1056B0008FFC7863FFF7A4F9FEF7ACFF7B6BB3F1C7
:1056C000FF3F05D13248FFF753F86FF0020355E072
:1056D00097F824309E4697F825309C4697F8263058
:1056E000984697F827301C4697F828301D4697F8BB
:1056F00029301E4697F82A30BB6197F82B307B6122
:1057000097F82C301B09DBB23B6197F82C3003F083
:105710000F0197F82D30FB6097F82E30BB6097F89B
:105720002F307B6097F83030184697F831301A01E7
:1057300097F832301B09DBB2134303F5FA6297F88E
:10574000323003F00F0301330C930B920A907A6806
:105750000992BA680892FA68079206913A69059226
:105760007A690492BB6903930296019500944346BB
:10577000624671460748FEF7FBFF0023184638379C
:10578000BD46BDE8F08100BFD0630008805F00081F
:10579000A8620008BC62000880B586B000AFF8605F
:1057A000B9607A60FEF72AFFFB68DB6803F002034A
:1057B000002B04D0B9681120FEF7E2FF05E0BB68BA
:1057C0005B0219461120FEF7DBFFFFF73DF80346A9
:1057D0007B617B69FF2B05D1FEF71CFF4FF0FF3388
:1057E0007B6128E07B6903F0FE03002B0ED0FEF7FF
:1057F00011FF16491648FEF7BBFF7B69DBB218465E
:10580000FFF7A2F86FF001037B6114E04FF4007220
:105810007968F868FFF7DCFB7861FFF7F1F8FEF7CD
:10582000F9FE7B69B3F1FF3F03D16FF002037B61A7
:1058300001E0002305E07A69B9680648FEF798FFA1
:105840007B6918461837BD4680BD00BFDC63000881
:10585000106300081463000880B586B000AFF860DC
:10586000B9607A60FEF7CAFEFB68DB6803F00203EA
:10587000002B04D0B9681820FEF782FF05E0BB6852
:105880005B0219461820FEF77BFFFEF7DDFF03469B
:105890007B617B69FF2B05D1FEF7BCFE4FF0FF3328
:1058A0007B612EE07B6903F0FE03002B0ED0FEF738
:1058B000B1FE19491948FEF75BFF7B69DBB2184658
:1058C000FFF742F86FF001037B611AE0FF20FEF75B
:1058D000ADFE4FF400727968F868FFF7D9FB786184
:1058E000FFF78EF8FEF796FE7B69002B07D07969EB
:1058F0000B48FEF73DFF6FF002037B6101E00023E0
:1059000005E07A69B9680748FEF732FF7B691846F7
:105910001837BD4680BD00BFEC6300081063000867
:10592000386300085463000880B584B000AF786025
:105930000A23FB607B681B68002B01D0002329E051
:10594000FEF7F2FD05E07868FFF76EF80346002BDE
:1059500005D0FB685A1EFA60002BF4D100E000BFAE
:10596000FB68B3F1FF3F02D14FF0FF3312E07868DC
:10597000FFF708FB7868FFF76BFE7868FFF7ECFB32
:105980000346002B02D04FF0FF3303E07B68012277
:105990001A60002318461037BD4680BD80B586B01A
:1059A00000AFF860B9607A600A233B617A68B96831
:1059B000F868FFF7F1FE78610FE0F868FFF734F858
:1059C0000346002B00D008E0F868FFF7DBFA7A689E
:1059D000B968F868FFF7E0FE78617B69002B04DAAC
:1059E0003B695A1E3A61002BE7D13B69B3F1FF3F97
:1059F00004D1BA6804490548FEF7BAFE7B69184627
:105A00001837BD4680BD00BFFC63000878630008FE
:105A100080B586B000AFF860B9607A600A233B6158
:105A20007A68B968F868FFF717FF78610FE0F868DF
:105A3000FEF7FAFF0346002B00D008E0F868FFF7F6
:105A4000A1FA7A68B968F868FFF706FF78617B69A0
:105A5000002B04DA3B695A1E3A61002BE7D13B69FF
:105A6000B3F1FF3F04D1BA6804490548FEF780FE50
:105A70007B6918461837BD4680BD00BF0464000826
:105A80009863000880B582B000AF0346FB710648FA
:105A9000FFF74AFF0346002B01D1002300E001235A
:105AA00018460837BD4680BDF481012080B483B01C
:105AB00000AF0346FB71064B1B68002B01D000238F
:105AC00000E0012318460C37BD465DF8047B7047A3
:105AD000F481012080B586B000AFB9607A601A46C3
