:020000040800F2
:10000000B035012089010008F5010008F50100085C
:10001000F5010008F5010008F501000800000000E6
:10002000000000000000000000000000E1260008C1
:10003000F501000800000000F12800085929000817
:10004000F5010008F5010008F5010008F5010008B8
:10005000F5010008F5010008F5010008F5010008A8
:10006000F5010008F5010008F5010008F501000898
:10007000F5010008F5010008F5010008F501000888
:10008000F5010008F5010008F5010008F501000878
:10009000F5010008F5010008F5010008F501000868
:1000A000F5010008F5010008F5010008F501000858
:1000B00055020008F5010008F5010008F5010008E7
:1000C000F5010008F5010008F5010008F501000838
:1000D000F5010008F5010008F5010008F501000828
:1000E000F5010008F5010008F5010008F501000818
:1000F000F5010008F5010008F5010008F501000808
:10010000F5010008F5010008F5010008F5010008F7
:10011000F5010008F5010008F5010008F5010008E7
:10012000F5010008F5010008F5010008F5010008D7
:10013000F5010008F5010008F5010008F5010008C7
:10014000F5010008F5010008F5010008F5010008B7
:10015000F5010008F5010008F5010008F5010008A7
:10016000F5010008F5010008F5010008F501000897
:10017000F5010008F5010008F5010008F501000887
:10018000F5010008F501000880B582B000AF134BFF
:100190007B60134B3B6007E03B681A1D3A607A684E
:1001A000111D796012681A603B680E4A9342F3D3BE
:1001B0000D480E494FF000028842B8BF40F8042BAA
:1001C000FADBDFF82C00016841F47001016000F0F7
:1001D0008DF800BF0837BD4680BD00BFC93000089C
:1001E000000000201000002010000020AC2D012095
:1001F00088ED00E080B400AFFEE700BF80B582B0BC
:1002000000AF0121082000F0D7F80B4B1A680B4B08
:100210001B6813433B6001233B710023BB71002328
:10022000FB7103237B713B461946054801F028FB0F
:1002300000BF0837BD4680BD00000020040000203C
:10024000000C024080B485B000AF78606423FB608E
:10025000FEE700BF80B500AF01214FF0804002F003
:1002600001FE0346002B09D001214FF0804002F02F
:1002700023FE4FF48041024801F090FB00BF80BD97
:10028000000C024080B584B000AF1C233B730023F8
:100290007B730123BB730123FB7307F10C03184627
:1002A00002F0D6FB0121012000F0A6F80E4B7B6086
:1002B000A7233B8000233B8100237B803B461946DC
:1002C0004FF0804002F01EFD012201214FF08040DE
:1002D00002F0A4FD01214FF0804002F07FFD00BF3D
:1002E0001037BD4680BD00BF3F420F0080B582B0D1
:1002F00002AF01F01BFC00BF00F036F80346002BF4
:10030000FAD0FFF77BFFFFF7BDFF00230193012326
:100310000093002382220549054800F095FB00F078
:10032000C9FC00231846BD4680BD00BFAC300008A4
:100330004502000880B400AF00BFBD465DF8047BF5
:10034000704700BF80B400AFFEE700BF80B483B049
:1003500000AF78603960FEE780B400AF00BFBD46F3
:100360005DF8047B704700BF80B582B000AF00230A
:100370003B600023FB710023BB71312000F05CF86F
:100380000346BB713B6801333B603B68B3F5A06F2C
:1003900002D0BB79002BF0D0312000F04DF803469D
:1003A000002B02D00123FB7101E00023FB71FB79DC
:1003B00018460837BD4680BD80B483B000AF786072
:1003C0000B46FB70FB78002B06D00A49094B1A6BD1
:1003D0007B6813430B6306E00649064B1A6B7B6888
:1003E000DB4313400B6300BF0C37BD465DF8047B55
:1003F000704700BF0038024080B483B000AF78601F
:100400000B46FB70FB78002B06D00A49094B1A6C8F
:100410007B6813430B6406E00649064B1A6C7B6845
:10042000DB4313400B6400BF0C37BD465DF8047B13
:10043000704700BF0038024080B487B000AF034669
:10044000FB710023FB6000237B610023FB74FB79BD
:100450005B09DBB2FB60FB68012B03D1124B1B680D
:100460007B6109E0FB68022B03D10F4B1B6F7B61A3
:1004700002E00D4B5B6F7B61FB7903F01F03FB60B8
:100480007A69FB6822FA03F303F00103002B02D020
:100490000123FB7401E00023FB74FB7C18461C372E
:1004A000BD465DF8047B70470038024080B586B0D9
:1004B00002AF0023FB604FF482737B8100F08EFA61
:1004C000104B1B68002B0AD07A890F4B0193022333
:1004D000009300230D490E4800F0B6FAF860FB685F
:1004E000002B09D14FF0500383F31188BFF36F8FB6
:1004F000BFF34F8F7B60FEE7FB6818461037BD46A1
:1005000080BD00BF4000002044000020B43000083F
:100510002D06000880B58AB000AFF860B9607A6037
:100520003B6000237B62FB68002B09D14FF0500336
:1005300083F31188BFF36F8FBFF34F8F3B62FEE7EA
:10054000194B1B68002B2AD0BB687B617B68BB61A1
:10055000FB68FB61BB68052B18DC00F0FFFF03465E
:10056000022B09D1104B186807F1140100233A6BD4
:1005700001F054FC786212E00B4B186807F114018B
:100580000023002201F04AFC786208E0064B18685C
:1005900007F1140100233A6801F03CFD78627B6AA0
:1005A00018462837BD4680BD4000002080B588B081
:1005B00002AF786039601C4B1B68DB68DB687B61CD
:1005C0007B690433184601F087FA7B69DB69012BEC
:1005D00021D17B699A697B68D1187B683A68786910
:1005E00000F0C8F80346002B15D000230093002329
:1005F0007A6800217869FFF78DFF38613B69002B2D
:1006000009D14FF0500383F31188BFF36F8FBFF30D
:100610004F8FFB60FEE77B695B6A7869984700BF94
:100620001837BD4680BD00BF3800002080B584B0BB
:1006300000AF786007F10803184600F057F8F8603B
:10064000BB681946F86800F003F800F0D5F8F1E748
:1006500080B584B000AF7860396000F077FB07F1B7
:100660000803184600F066F8F860BB68002B30D12C
:100670003B68002B0AD17A68FB689A4206D800F0E2
:1006800073FBF9687868FFF791FF24E03B68002B63
:1006900008D0134B1B681B68002B0CBF01230023E1
:1006A000DBB23B600F4B18687A68FB68D31A3A6874
:1006B000194601F08FFF00F057FB0346002B0AD1CB
:1006C000094B4FF080521A60BFF34F8FBFF36F8F0B
:1006D00001E000F049FB00BF1037BD4680BD00BF00
:1006E0003C0000204000002004ED00E080B485B014
:1006F00000AF78600E4B1B681B68002B0CBF0123FA
:100700000023DBB21A467B681A607B681B68002BEB
:1007100005D1074B1B68DB681B68FB6001E0002309
:10072000FB60FB6818461437BD465DF8047B7047D4
:100730003800002080B584B000AF786000F0B0FBD6
:10074000F8600B4B1B68FA689A4205D200F0E6F895
:100750007B6801221A6002E07B6800221A60044A6A
:10076000FB681360FB6818461037BD4680BD00BFAC
:100770004800002080B586B000AFF860B9607A60AC
:100780003B6000237B61FB68BA685A60FB68FA68CB
:100790001A61BA687B689A4212D87A683B68D21AA2
:1007A000FB689B699A4202D301237B611BE0104BDB
:1007B0001A68FB6804331946104601F053F912E039
:1007C0007A683B689A4206D2BA683B689A4202D37A
:1007D00001237B6107E0074B1A68FB680433194665
:1007E000104601F03FF97B6918461837BD4680BDB9
:1007F0003C0000203800002080B58CB002AF7AE0C9
:10080000BB68002B77DB3B697B627B6A5B69002BF3
:1008100004D07B6A0433184601F05EF93B1D18468C
:10082000FFF788FF3862BB68092B63D801A252F832
:1008300023F000BF5D0800085D0800085D0800089F
:10084000F7080008B7080008ED0800085D08000870
:100850005D080008F7080008B7080008FA687B6A16
:100860009B69D118FB683A6A786AFFF783FF0346F1
:10087000002B40D07B6A5B6A786A98477B6ADB69A9
:10088000012B38D1FA687B6A9B691A4400230093D4
:1008900000230021786AFFF73DFEF861FB69002B19
:1008A00029D14FF0500383F31188BFF36F8FBFF34B
:1008B0004F8F7B61FEE7FA687B6A9A617B6A9B696E
:1008C000002B09D14FF0500383F31188BFF36F8FD2
:1008D000BFF34F8FBB61FEE77B6A9A693B6AD11811
:1008E0003B6A3A6A786AFFF745FF04E0786A02F0EB
:1008F000A5F900E000BF084B186807F108010023C4
:10090000002201F01BFC0346002B7FF479AF00BFEF
:100910002837BD4680BD00BF4000002080B588B0AC
:1009200002AF44E02B4B1B68DB681B687B61294BE3
:100930001B68DB68DB683B613B690433184601F0E8
:10094000CBF83B695B6A386998473B69DB69012BE7
:100950002DD13B699A697B691344FB60FA687B6916
:100960009A420ED93B69FA685A603B693A691A6142
:10097000184B1A683B6904331946104601F072F8A7
:1009800015E00023009300237A6900213869FFF7FE
:10099000C1FDB860BB68002B09D14FF0500383F351
:1009A0001188BFF36F8FBFF34F8F3B60FEE7094B9A
:1009B0001B681B68002BB5D1064B1B687B60064B80
:1009C0001B68044A1360044A7B68136000BF183731
:1009D000BD4680BD380000203C00002080B500AF3F
:1009E00001F02EFF124B1B68002B1DD1114800F0A7
:1009F000E7FF114800F0E4FF104B0E4A1A60104B5D
:100A00000D4A1A6000220C210A2001F0A9F90246C1
:100A1000074B1A60064B1B68002B05D0044B1B6864
:100A20000849184601F0AEFD01F038FF00BF80BD57
:100A3000400000201000002024000020380000208A
:100A40003C000020BC30000880B58CB004AFF860DA
:100A5000B9603B601346FB80FB889B00184602F0A0
:100A600059F878617B69002B0ED0582002F052F8BB
:100A7000F861FB69002B03D0FB697A691A6305E012
:100A8000786902F0DBF801E00023FB61FB69002BD1
:100A900011D0FA88FB690293FB6A0193BB6A009349
:100AA0003B68B968F86800F00FF8F86900F094F84E
:100AB0000123BB6102E04FF0FF33BB61BB69184605
:100AC0002037BD4680BD00BF80B588B000AFF8605C
:100AD000B9603B601346FB803B6B186BFB889B0047
:100AE0001A46A52102F094FA3B6B1A6BFB8803F1BE
:100AF0008043013B9B001344BB61BB6923F00703A8
:100B0000BB61BB6903F00703002B09D04FF0500312
:100B100083F31188BFF36F8FBFF34F8F7B61FEE7C5
:100B20000023FB6112E0BA68FB69134419783A6B41
:100B3000FB69134434330A461A70BA68FB691344DC
:100B40001B78002B06D0FB690133FB61FB69092B85
:100B5000E9D900E000BF3B6B002283F83D20BB6A6F
:100B6000042B01D90423BB623B6BBA6ADA623B6B8C
:100B7000BA6A9A643B6B0022DA643B6B0433184612
:100B800000F03EFF3B6B1833184600F039FF3B6B1B
:100B90003A6B1A61BB6AC3F105023B6B9A613B6B0E
:100BA0003A6B5A623B6B00221A653B6B002283F85A
:100BB00054203A68F968B86901F042FD02463B6B7F
:100BC0001A60FB6A002B02D0FB6A3A6B1A6000BF06
:100BD0002037BD4680BD00BF80B582B000AF7860D1
:100BE00001F02EFE2C4B1B6801332B4A13602B4B5C
:100BF0001B68002B09D1294A7B681360264B1B68B0
:100C0000012B10D100F0F8FB0DE0254B1B68002BE9
:100C100009D1224B1B68DA6A7B68DB6A9A4202D8E8
:100C20001E4A7B6813601F4B1B6801331D4A13600B
:100C30001C4B1A687B681A647B68DB6A01229A4045
:100C4000194B1B681343184A13607B68DA6A134612
:100C50009B0013449B00154A1A447B6804331946D1
:100C6000104600F0DBFE01F019FE0D4B1B68002B57
:100C70000ED00A4B1B68DA6A7B68DB6A9A4207D29D
:100C80000B4B4FF080521A60BFF34F8FBFF36F8F43
:100C900000BF0837BD4680BD240100204C00002065
:100CA00030010020400100202C01002050000020D5
:100CB00004ED00E080B586B002AF82237B817A89A3
:100CC0001C4B01930023009300231B491B48FFF793
:100CD000BBFEF860FB68012B02D1FFF7E7FBF86071
:100CE000FB68012B15D14FF0500383F31188BFF33C
:100CF0006F8FBFF34F8F3B60114B4FF0FF321A6085
:100D0000104B01221A60104B00221A6001F00CFDFA
:100D10000CE0FB68002B09D14FF0500383F31188DE
:100D2000BFF36F8FBFF34F8F7B60FEE700BF1037BD
:100D3000BD4680BD48010020C4300008C51300082E
:100D400044010020300100202801002080B400AFC1
:100D5000044B1B680133034A136000BFBD465DF8B6
:100D6000047B70474C01002080B584B000AF0023A5
:100D7000FB600023BB60414B1B68002B09D14FF087
:100D8000500383F31188BFF36F8FBFF34F8F3B6026
:100D9000FEE701F055FD394B1B68013B374A1360F4
:100DA000364B1B68002B61D1354B1B68002B5DD087
:100DB0002EE0344BDB68DB68FB60FB6818331846B9
:100DC00000F08AFEFB680433184600F085FEFB68DD
:100DD000DB6A01229A402C4B1B6813432A4A13609A
:100DE000FB68DA6A13469B0013449B00274A1A44A7
:100DF000FB6804331946104600F010FEFB68DA6AFF
:100E0000234B1B68DB6A9A4202D3224B01221A60F1
:100E10001C4B1B68002BCCD1FB68002B01D000F0D1
:100E200077FB1D4B1B687B607B68002B10D000F0AC
:100E300047F80346002B02D0164B01221A607B684C
:100E4000013B7B607B68002BF1D1134B00221A60C1
:100E5000104B1B68002B09D00123BB600F4B4FF0D8
:100E600080521A60BFF34F8FBFF36F8F01F016FDF2
:100E7000BB6818461037BD4680BD00BF4C0100203E
:100E800024010020E40000202C010020500000205C
:100E90004C000020380100203401002004ED00E067
:100EA00080B483B000AF054B1B687B607B6818463D
:100EB0000C37BD465DF8047B704700BF2801002059
:100EC00080B586B000AF00237B61544B1B68002BBC
:100ED00040F09280524B1B6801333B61504A3B69A2
:100EE00013603B69002B1FD14E4B1B681B68002B06
:100EF00009D04FF0500383F31188BFF36F8FBFF316
:100F00004F8F3B60FEE7474B1B68FB60464B1B68FF
:100F1000444A1360444AFB681360444B1B68013326
:100F2000424A136000F0F4FA414B1B683A699A4256
:100F30004DD33C4B1B681B68002B01D1012300E003
:100F40000023002B04D03A4B4FF0FF321A603EE0F2
:100F5000344B1B68DB68DB68BB60BB685B687B602D
:100F60003A697B689A4203D2314A7B6813602EE06B
:100F7000BB680433184600F0AFFDBB689B6A002BCA
:100F800004D0BB681833184600F0A6FDBB68DB6AC6
:100F900001229A40274B1B681343264A1360BB6803
:100FA000DA6A13469B0013449B00234A1A44BB6829
:100FB00004331946104600F031FDBB68DA6A1F4B56
:100FC0001B68DB6A9A42B4D301237B61B1E71B4BF8
:100FD0001B68DA6A184913469B0013449B000B44B4
:100FE0001B68012B01D901237B61154B1B68002B6A
:100FF00009D1FFF7B1F906E0114B1B680133104A24
:101000001360FFF7A9F90F4B1B68002B01D00123D8
:101010007B617B6918461837BD4680BD4C010020B6
:1010200028010020DC000020E00000203C0100201E
:10103000440100202C010020500000204C00002022
:10104000340100203801002080B588B000AF394B52
:101050001B68002B03D0384B01221A6065E0364B29
:1010600000221A60354B1B681B6BFB614FF0A533E8
:10107000BB61FB691A68BB699A4211D1FB690433F1
:101080001A68BB699A420BD1FB6908331A68BB69BD
:101090009A4205D1FB690C331A68BB699A4208D0A1
:1010A000264B1A68254B1B68343319461046FFF748
:1010B0004DF9234B1B68BB60BB68B3FA83F3FB712C
:1010C000FB79C3F11F033B611E493A6913469B003C
:1010D00013449B000B441B68002B09D14FF05003B5
:1010E00083F31188BFF36F8FBFF34F8F7B61FEE7F0
:1010F0003A6913469B0013449B00124A1344FB6059
:10110000FB685B685A68FB685A60FB685A68FB6852
:1011100008339A4204D1FB685B685A68FB685A60DE
:10112000FB685B68DB68054A136000BF2037BD467B
:1011300080BD00BF4C010020380100204C00002081
:101140002C0100205000002080B584B000AF7860F2
:1011500039607B68002B09D14FF0500383F311886D
:10116000BFF36F8FBFF34F8FFB60FEE7074B1B682A
:1011700018331946786800F075FC0121386800F0D2
:1011800019FB00BF1037BD4680BD00BF4C000020DA
:1011900080B586B000AFF860B9607A60FB68002B5C
:1011A00009D14FF0500383F31188BFF36F8FBFF362
:1011B0004F8F7B61FEE70A4B1B6818331946F868AE
:1011C00000F02CFC7B68002B02D04FF0FF33BB609B
:1011D0007968B86800F0EEFA00BF1837BD4680BDE8
:1011E0004C00002080B586B000AF78607B68DB687B
:1011F000DB683B613B69002B09D14FF0500383F35F
:101200001188BFF36F8FBFF34F8FFB60FEE73B6921
:101210001833184600F060FC1D4B1B68002B1CD1D6
:101220003B690433184600F057FC3B69DB6A012236
:101230009A40184B1B681343164A13603B69DA6ADD
:1012400013469B0013449B00134A1A443B69043322
:101250001946104600F0E2FB05E03B6918331946D9
:101260000E4800F0DBFB3B69DA6A0D4B1B68DB6A5A
:101270009A4205D901237B610A4B01221A6001E0E1
:1012800000237B617B6918461837BD4680BD00BFCF
:101290004C0100202C01002050000020E400002020
:1012A0004C0000203801002080B485B000AF786089
:1012B0007B68002B09D14FF0500383F31188BFF3F3
:1012C0006F8FBFF34F8FFB60FEE7074B1A687B6899
:1012D0001A60064B1A687B685A6000BF1437BD4617
:1012E0005DF8047B704700BF3C010020280100200E
:1012F00080B586B000AF786039607B68002B09D17B
:101300004FF0500383F31188BFF36F8FBFF34F8FFC
:10131000BB60FEE73B68002B09D14FF0500383F31D
:101320001188BFF36F8FBFF34F8FFB60FEE701F0B3
:1013300087FA1C4B1B683B613B681B68B3F1FF3F9E
:1013400002D100237B6126E07B681A68164B1B687C
:101350009A4207D07B685A683B699A4202D80123B7
:101360007B6118E07B685B683A69D21A3B681B684E
:101370009A420ED23B681A687B6859683B69CB1A5F
:101380001A443B681A607868FFF78EFF00237B6180
:1013900001E001237B6101F081FA7B69184618376F
:1013A000BD4680BD280100203C01002080B400AF74
:1013B000034B01221A6000BFBD465DF8047B7047F5
:1013C0003801002080B582B000AF786000F054F89A
:1013D000074B1B68012B07D9064B4FF080521A6050
:1013E000BFF34F8FBFF36F8FFEF7A4FFEEE700BF91
:1013F0005000002004ED00E080B582B000AF002373
:101400007B600CE07A6813469B0013449B00124AF1
:101410001344184600F0D4FA7B6801337B607B6884
:10142000042BEFD90D4800F0CBFA0D4800F0C8FAB4
:101430000C4800F0C5FA0C4800F0C2FA0B4800F066
:10144000BFFA0B4B054A1A600A4B054A1A6000BFE7
:101450000837BD4680BD00BF50000020B40000200A
:10146000C8000020E4000020F80000201001002047
:10147000DC000020E000002080B582B000AF28E052
:10148000FFF764FC174B1B68002B0CBF01230023E4
:10149000DBB27B60FFF768FC7B68002B19D101F0A1
:1014A000CFF9104BDB68DB683B603B6804331846C0
:1014B00000F012FB0C4B1B68013B0B4A13600B4BFB
:1014C0001B68013B094A136001F0E8F9386800F035
:1014D0000FF8064B1B68002BD2D100BF0837BD4662
:1014E00080BD00BFF8000020240100200C01002076
:1014F00080B582B000AF78607B681B6B184601F046
:101500009DFB786801F09AFB00BF0837BD4680BD9F
:1015100080B483B000AF0F4B1B681B68002B01D158
:10152000012300E00023002B04D00B4B4FF0FF32CF
:101530001A6008E0074B1B68DB68DB687B607B6830
:101540005B68054A136000BF0C37BD465DF8047B3D
:10155000704700BFDC0000204401002080B483B04D
:1015600000AF0B4B1B68002B02D101237B6008E00E
:10157000084B1B68002B02D102237B6001E0002393
:101580007B607B6818460C37BD465DF8047B70476E
:10159000300100204C01002080B584B000AF78609D
:1015A0007B68FB607B68002B62D0FB68DA6A324B99
:1015B0001B68DB6A9A425BD2FB689B69002B06DBE7
:1015C0002D4B1B68DB6AC3F10502FB689A61FB685F
:1015D0005969FB68DA6A13469B0013449B00274A4B
:1015E0001344994201D1012300E00023002B3AD09B
:1015F000FB680433184600F06FFA0346002B15D140
:10160000FB68DA6A1D4913469B0013449B000B4498
:101610001B68002B0AD1FB68DB6A012202FA03F384
:10162000DA43174B1B681340154A1360124B1B68B3
:10163000DA6AFB68DA62FB68DB6A01229A40104BC7
:101640001B6813430E4A1360FB68DA6A13469B005B
:1016500013449B00094A1A44FB6804331946104698
:1016600000F0DCF904E0044B1B68DA6AFB68DA621C
:1016700000BF1037BD4680BD4C0000205000002048
:101680002C01002080B586B000AF78607B683B619C
:1016900000237B617B68002B6CD0394B1B683A6957
:1016A0009A4209D04FF0500383F31188BFF36F8F34
:1016B000BFF34F8FBB60FEE73B69DB6C002B09D1AA
:1016C0004FF0500383F31188BFF36F8FBFF34F8F39
:1016D000FB60FEE73B69DB6C5A1E3B69DA643B69E1
:1016E000DA6A3B699B6C9A4244D03B69DB6C002B05
:1016F00040D13B690433184600F0EEF90346002B55
:1017000015D13B69DA6A1F4913469B0013449B00BD
:101710000B441B68002B0AD13B69DB6A012202FAE9
:1017200003F3DA43184B1B681340174A13603B69F5
:101730009A6C3B69DA623B69DB6AC3F105023B697B
:101740009A613B69DB6A01229A400F4B1B68134385
:101750000D4A13603B69DA6A13469B0013449B00F1
:10176000084A1A443B6904331946104600F056F9FA
:1017700001237B617B6918461837BD4680BD00BFD9
:101780004C000020500000202C01002080B400AF4D
:10179000074B1B68002B04D0054B1B68DA6C013229
:1017A000DA64034B1B681846BD465DF8047B70473E
:1017B0004C00002080B584B000AF78603960294BC0
:1017C0001B68FB60284B1B680433184600F084F943
:1017D0000346002B0BD1244B1B68DB6A012202FA63
:1017E00003F3DA43214B1B681340204A13607B68E4
:1017F000B3F1FF3F0AD13B68002B07D01A4B1B689F
:10180000043319461A4800F009F926E0FA687B68A3
:101810001344BB60144B1B68BA685A60BA68FB6813
:101820009A4209D2134B1A680F4B1B6804331946AE
:10183000104600F017F910E00F4B1A680A4B1B68AE
:1018400004331946104600F00DF90C4B1B68BA68BA
:101850009A4202D2094ABB68136000BF1037BD46E6
:1018600080BD00BF280100204C0000202C0100207A
:1018700010010020E0000020DC00002044010020D6
:1018800080B487B000AF7860396000237B610023AB
:101890003B610023FB6000237B6176E001227B69D2
:1018A00002FA03F33B613B681A683B691340FB6033
:1018B000FA683B699A4265D17B681A687B695B006C
:1018C000032101FA03F3DB431A407B681A607B684B
:1018D0001A683B681B7919467B695B0001FA03F3C0
:1018E0001A437B681A603B681B79012B03D03B6865
:1018F0001B79022B2ED17B689A687B695B000321E0
:1019000001FA03F3DB431A407B689A607B689A68AC
:101910003B685B7919467B695B0001FA03F31A4364
:101920007B689A607B685A687B699BB2012101FAE7
:1019300003F3DB431A407B685A607B685A683B6854
:101940009B7919467B699BB201FA03F39BB21A4358
:101950007B685A607B68DA687B699BB25B00032115
:1019600001FA03F3DB431A407B68DA607B68DA68CC
:101970003B68DB7919467B695B0001FA03F31A4384
:101980007B68DA607B6901337B617B690F2B85D9CA
:1019900000BF1C37BD465DF8047B704780B483B040
:1019A00000AF78600B467B807B685A697B885A4021
:1019B0007B685A6100BF0C37BD465DF8047B7047F9
:1019C00080B483B000AF78607B6803F108027B6865
:1019D0005A607B684FF0FF329A607B6803F108021F
:1019E0007B68DA607B6803F108027B681A617B68B8
:1019F00000221A6000BF0C37BD465DF8047B7047BB
:101A000080B483B000AF78607B6800221A6100BFA9
:101A10000C37BD465DF8047B704700BF80B485B0CD
:101A200000AF786039607B685B68FB603B68FA6890
:101A30005A60FB689A683B689A60FB689B683A68E2
:101A40005A60FB683A689A603B687A681A617B68FA
:101A50001B685A1C7B681A6000BF1437BD465DF8CE
:101A6000047B704780B485B000AF786039603B6814
:101A70001B68BB60BB68B3F1FF3F03D17B681B6988
:101A8000FB600CE07B680833FB6002E0FB685B688E
:101A9000FB60FB685B681A68BB689A42F6D9FB6812
:101AA0005A683B685A603B685B683A689A603B6872
:101AB000FA689A60FB683A685A603B687A681A610B
:101AC0007B681B685A1C7B681A6000BF1437BD46D0
:101AD0005DF8047B704700BF80B485B000AF7860CC
:101AE0007B681B69FB607B685B687A6892689A60B8
:101AF0007B689B687A6852685A60FB685A687B68A2
:101B00009A4203D17B689A68FB685A607B6800221E
:101B10001A61FB681B685A1EFB681A60FB681B6829
:101B200018461437BD465DF8047B704780B500AF9A
:101B3000164A164BD3F8883043F47003C2F8883045
:101B4000134A134B1B6843F001031360104B002230
:101B50009A600F4A0E4B1B6823F0847323F4803382
:101B600013600B4B0B4A5A60094A094B1B6823F45C
:101B700080231360064B0022DA6000F00DF8034B5F
:101B80004FF000629A6000BF80BD00BF00ED00E032
:101B9000003802401030002480B483B000AF00232E
:101BA0007B6000233B60364A354B1B6843F480332F
:101BB0001360334B1B6803F400333B607B680133D5
:101BC0007B603B68002B03D17B68B3F5A06FF0D13D
:101BD0002B4B1B6803F40033002B02D001233B6026
:101BE00001E000233B603B68012B42D1244A244B97
:101BF0001B6C43F080531364224A224B1B6843F44E
:101C0000804313601E4A1E4B9B6893601C4A1C4B0A
:101C10009B6843F400439360194A194B9B6843F453
:101C2000A0539360164B184A5A60154A144B1B6810
:101C300043F08073136000BF114B1B6803F0007307
:101C4000002BF9D0114B40F205621A600C4A0C4B84
:101C50009B6823F003039360094A094B9B6843F098
:101C60000203936000BF064B9B6803F00C03082B34
:101C7000F9D100BF0C37BD465DF8047B704700BF4B
:101C8000003802400070004008544007003C024009
:101C900080B584B000AF786039607B68FB60FB681A
:101CA000002B09D14FF0500383F31188BFF36F8FDE
:101CB000BFF34F8FBB60FEE700F0C2FDFB681A6800
:101CC000FB68DB6BF968096C01FB03F31A44FB68E2
:101CD0005A60FB6800229A63FB681A68FB689A6086
:101CE000FB681A68FB68DB6B013BF968096C01FB58
:101CF00003F31A44FB68DA60FB68FF2283F8442090
:101D0000FB68FF2283F845203B68002B14D1FB6859
:101D10001B69002B1AD0FB6810331846FFF762FAD4
:101D20000346002B12D00D4B4FF080521A60BFF3C8
:101D30004F8FBFF36F8F09E0FB6810331846FFF732
:101D40003FFEFB6824331846FFF73AFE00F0A6FD7D
:101D5000012318461037BD4680BD00BF04ED00E0EA
:101D600080B58AB002AFF860B9601346FB71FB68BA
:101D7000002B09D14FF0500383F31188BFF36F8F0D
:101D8000BFF34F8F3B61FEE7BB68002B02D10023FE
:101D9000FB6104E0FB68BA6802FB03F3FB61FB69CB
:101DA0005033184600F0B6FEB861BB69002B0BD06B
:101DB000BB6950337B61FA79BB69009313467A693A
:101DC000B968F86800F006F8BB6918462037BD46C8
:101DD00080BD00BF80B584B000AFF860B9607A60A4
:101DE000FB70BB68002B03D1BB69BA691A6002E0C3
:101DF000BB697A681A60BB69FA68DA63BB69BA685A
:101E00001A640121B869FFF743FFBB69FA7883F8C8
:101E10004C2000BF1037BD4680BD00BF80B58EB0DE
:101E200000AFF860B9607A603B6000237B63FB68B9
:101E30003B633B6B002B09D14FF0500383F31188B8
:101E4000BFF36F8FBFF34F8FFB61FEE7BB68002BC3
:101E500003D13B6B1B6C002B01D1012300E000235D
:101E6000002B09D14FF0500383F31188BFF36F8F1C
:101E7000BFF34F8F3B62FEE73B68022B03D13B6B06
:101E8000DB6B012B01D1012300E00023002B09D1E2
:101E90004FF0500383F31188BFF36F8FBFF34F8F61
:101EA0007B62FEE7FFF75AFB0346002B02D17B68FB
:101EB000002B01D1012300E00023002B09D14FF0BA
:101EC000500383F31188BFF36F8FBFF34F8FBB6253
:101ED000FEE700F0B5FC3B6B9A6B3B6BDB6B9A4209
:101EE00002D33B68022B29D13A68B968386B00F0FD
:101EF00039FAF8623B6B5B6A002B10D03B6B2433E2
:101F00001846FFF76FF90346002B13D0404B4FF0F4
:101F100080521A60BFF34F8FBFF36F8F0AE0FB6AE6
:101F2000002B07D03A4B4FF080521A60BFF34F8F0F
:101F3000BFF36F8F00F0B2FC012365E07B68002BDC
:101F400003D100F0ABFC00235EE07B6B002B06D1DD
:101F500007F114031846FFF7A7F901237B6300F08C
:101F60009DFCFEF7F3FE00F06BFC3B6B93F84430F6
:101F7000DBB25BB2B3F1FF3F03D13B6B002283F8CE
:101F800044203B6B93F84530DBB25BB2B3F1FF3FCB
:101F900003D13B6B002283F8452000F07FFC3A1D03
:101FA00007F1140311461846FFF7A2F90346002B68
:101FB00024D1386B00F0CEFA0346002B18D03B6BCF
:101FC00010337A6811461846FFF7BEF8386B00F0F8
:101FD00059FAFEF7C9FE0346002B7FF47AAF0C4B8B
:101FE0004FF080521A60BFF34F8FBFF36F8F70E7CF
:101FF000386B00F047FAFEF7B7FE6AE7386B00F07F
:1020000041FAFEF7B1FE002318463837BD4680BDC1
:1020100004ED00E080B58EB000AFF860B9607A6082
:102020003B60FB683B633B6B002B09D14FF05003D7
:1020300083F31188BFF36F8FBFF34F8F7B61FEE790
:10204000BB68002B03D13B6B1B6C002B01D1012320
:1020500000E00023002B09D14FF0500383F31188D7
:10206000BFF36F8FBFF34F8FBB61FEE73B68022B5F
:1020700003D13B6BDB6B012B01D1012300E000237B
:10208000002B09D14FF0500383F31188BFF36F8FFA
:10209000BFF34F8FFB61FEE700F09CFCEFF3118272
:1020A0004FF0500383F31188BFF36F8FBFF34F8F4F
:1020B0003A623B613B6ABB623B6B9A6B3B6BDB6B8F
:1020C0009A4202D33B68022B2CD13B6B93F84530EC
:1020D00087F827303A68B968386B00F043F997F908
:1020E0002730B3F1FF3F12D13B6B5B6A002B16D058
:1020F0003B6B24331846FFF775F80346002B0ED0D0
:102100007B68002B0BD07B6801221A6007E097F8F0
:1021100027300133DBB2DAB23B6B83F84520012371
:102120007B6301E000237B63BB6AFB62FB6A83F392
:1021300011887B6B18463837BD4680BD80B58EB0A0
:1021400000AFF860B9607A603B6000237B63FB6896
:102150003B633B6B002B09D14FF0500383F3118895
:10216000BFF36F8FBFF34F8FFB61FEE7BB68002BA0
:1021700003D13B6B1B6C002B01D1012300E000233A
:10218000002B09D14FF0500383F31188BFF36F8FF9
:10219000BFF34F8F3B62FEE7FFF7E0F90346002BEA
:1021A00002D17B68002B01D1012300E00023002B2A
:1021B00009D14FF0500383F31188BFF36F8FBFF342
:1021C0004F8F7B62FEE700F03BFB3B6B9B6BFB6240
:1021D000FB6A002B46D03B6BDB68BB62B968386B8F
:1021E00000F02AF93B68002B21D1FB6A5A1E3B6B99
:1021F0009A633B6B1B68002B04D1FFF7C7FA0246BA
:102200003B6B5A603B6B1B69002B27D03B6B103339
:102210001846FEF7E7FF0346002B1FD0504B4FF048
:1022200080521A60BFF34F8FBFF36F8F16E03B6B86
:10223000BA6ADA603B6B5B6A002B0FD03B6B2433CE
:102240001846FEF7CFFF0346002B07D0444B4FF054
:1022500080521A60BFF34F8FBFF36F8F00F01EFBE9
:10226000012379E07B68002B03D100F017FB0023EA
:1022700072E07B6B002B06D107F114031846FFF7C1
:1022800013F801237B6300F009FBFEF75FFD00F00C
:10229000D7FA3B6B93F84430DBB25BB2B3F1FF3F4C
:1022A00003D13B6B002283F844203B6B93F845300D
:1022B000DBB25BB2B3F1FF3F03D13B6B002283F88B
:1022C000452000F0EBFA3A1D07F1140311461846B9
:1022D000FFF70EF80346002B31D1386B00F024F9DC
:1022E0000346002B25D03B6B1B68002B08D100F068
:1022F000A7FA3B6B5B681846FFF74EF900F0CEFA81
:102300003B6B24337A6811461846FEF71DFF386B85
:1023100000F0B8F8FEF728FD0346002B7FF453AF1A
:102320000F4B4FF080521A60BFF34F8FBFF36F8F88
:1023300049E7386B00F0A6F8FEF716FD43E7386B67
:1023400000F0A0F8FEF710FD386B00F0EDF8034642
:10235000002B3FF438AF002318463837BD4680BD08
:1023600004ED00E080B586B000AFF860B9607A6037
:1023700000237B61FB689B6B3B61FB681B6C002B44
:102380000DD1FB681B68002B4DD1FB685B681846BC
:10239000FFF778F97861FB6800225A6043E07B68B8
:1023A000002B19D1FB689868FB681B6C1A46B9684A
:1023B00000F094FDFB689A68FB681B6C1A44FB688C
:1023C0009A60FB689A68FB685B689A422BD3FB684B
:1023D0001A68FB689A6026E0FB68D868FB681B6C8B
:1023E0001A46B96800F07AFDFB68DA68FB681B6C76
:1023F0005B421A44FB68DA60FB68DA68FB681B68BA
:102400009A4207D2FB685A68FB681B6C5B421A440D
:10241000FB68DA607B68022B05D13B69002B02D098
:102420003B69013B3B613B695A1CFB689A637B69D2
:1024300018461837BD4680BD80B582B000AF7860C1
:1024400039607B681B6C002B18D07B68DA687B686E
:102450001B6C1A447B68DA607B68DA687B685B68AF
:102460009A4203D37B681A687B68DA607B68D96814
:102470007B681B6C1A46386800F030FD00BF0837D7
:10248000BD4680BD80B584B000AF786000F0D8F95B
:102490007B6893F84530FB7311E07B685B6A002B27
:1024A00012D07B6824331846FEF79CFE0346002BAF
:1024B00001D0FEF77BFFFB7B013BDBB2FB7397F99F
:1024C0000F30002BE9DC00E000BF7B68FF2283F8BF
:1024D000452000F0E3F900F0B3F97B6893F844304D
:1024E000BB7311E07B681B69002B12D07B68103333
:1024F0001846FEF777FE0346002B01D0FEF756FF85
:10250000BB7B013BDBB2BB7397F90E30002BE9DCE0
:1025100000E000BF7B68FF2283F8442000F0BEF992
:1025200000BF1037BD4680BD80B584B000AF786075
:1025300000F086F97B689B6B002B02D10123FB60C6
:1025400001E00023FB6000F0A9F9FB681846103792
:10255000BD4680BD80B584B000AF786000F070F9F2
:102560007B689A6B7B68DB6B9A4202D10123FB602C
:1025700001E00023FB6000F091F9FB68184610377A
:10258000BD4680BD80B485B000AF7860396000235F
:10259000FB6014E00E4AFB6852F83330002B0BD17D
:1025A0000B49FB683A6841F83320094AFB68DB00B5
:1025B00013447A685A6005E0FB680133FB60FB68EE
:1025C000072BE7D900BF1437BD465DF8047B704781
:1025D0006C2D012080B586B000AFF860B9607A60DC
:1025E000FB687B6100F02CF97B6993F84430DBB227
:1025F0005BB2B3F1FF3F03D17B69002283F8442033
:102600007B6993F84530DBB25BB2B3F1FF3F03D196
:102610007B69002283F8452000F040F97B699B6BC1
:10262000002B06D17B6924337A68B9681846FEF717
:10263000AFFD7869FFF726FF00BF1837BD4680BDA4
:1026400080B485B000AFF860B9607A60FB68043B85
:10265000FB60FB684FF080721A60FB68043BFB6014
:10266000BA68FB681A60FB68043BFB600C4AFB68B5
:102670001A60FB68143BFB607A68FB681A60FB68B1
:10268000043BFB60FB686FF002021A60FB68203BB2
:10269000FB60FB6818461437BD465DF8047B704745
:1026A000A526000880B483B000AF0C4B1B68B3F1C3
:1026B000FF3F09D04FF0500383F31188BFF36F8FB2
:1026C000BFF34F8F3B60FEE74FF0500383F3118859
:1026D000BFF36F8FBFF34F8F7B60FEE708000020D2
:1026E000074B19680868B0E8F04F80F30988BFF31A
:1026F0006F8F4FF0000080F311887047AFF30080B8
:102700004C00002000BF00BF06480068006880F34E
:10271000088862B661B6BFF34F8FBFF36F8F00DFDB
:1027200000BF00BF08ED00E080B586B000AF3B4BB6
:102730001B683B4A934209D14FF0500383F3118841
:10274000BFF36F8FBFF34F8FFB60FEE7334B1B6808
:10275000344A934209D14FF0500383F31188BFF3F9
:102760006F8FBFF34F8F3B61FEE72F4B7B617B6920
:102770001B78DBB2BB607B69FF221A707B691B7818
:10278000DBB2FB71FB79DBB203F05003DAB2274B0B
:102790001A70274B07221A6009E0254B1B68013B82
:1027A000234A1360FB79DBB25B00DBB2FB71FB7980
:1027B000DBB2DBB25BB2002BEFDB1D4B1B681B02F5
:1027C0001B4A13601A4B1B6803F4E063184A13603A
:1027D000BB68DAB27B691A70164A164B1B6843F461
:1027E00070031360134A134B1B6843F0704313606C
:1027F00000F0D2F8104B00221A6000F0E1F80F4A06
:102800000E4B1B6843F040431360FFF77DFFFFF75B
:1028100049FF002318461837BD4680BD00ED00E093
:1028200071C20F4170C20F4100E400E0500100206E
:102830005401002020ED00E00800002034EF00E00B
:1028400080B483B000AF4FF0500383F31188BFF31F
:102850006F8FBFF34F8F3B600E4B1B6801330D4AE8
:1028600013600C4B1B68012B0ED10B4B1B68DBB2AA
:10287000002B09D04FF0500383F31188BFF36F8F03
:10288000BFF34F8F7B60FEE700BF0C37BD465DF89E
:10289000047B70470800002004ED00E080B483B0A2
:1028A00000AF114B1B68002B09D14FF0500383F38D
:1028B0001188BFF36F8FBFF34F8F3B60FEE70A4B6A
:1028C0001B68013B084A1360074B1B68002B04D1AF
:1028D00000237B607B6883F3118800BF0C37BD4603
:1028E0005DF8047B704700BF080000200000000076
:1028F000EFF30980BFF36F8F154B1A681EF0100FAE
:1029000008BF20ED108A20E9F04F10604DF8043D1B
:102910004FF0500080F31188BFF34F8FBFF36F8FDC
:10292000FEF792FB4FF0000080F3118808BC196895
:102930000868B0E8F04F1EF0100F08BFB0EC108A26
:1029400080F30988BFF36F8F704700BFAFF300803B
:102950004C00002000BF00BF80B582B000AF4FF038
:10296000500383F31188BFF36F8FBFF34F8F3B602A
:10297000FEF7A6FA0346002B03D0064B4FF0805219
:102980001A6000237B607B6883F3118800BF0837DF
:10299000BD4680BD04ED00E080B400AF054B064AA3
:1029A0001A60064B07221A6000BFBD465DF8047B23
:1029B000704700BF14E000E01FBF020010E000E01D
:1029C000DFF80C00016841F470010160704700BF3E
:1029D00088ED00E080B485B000AFEFF30583FB60C5
:1029E000FB680F2B13D9164AFB6813441B78FB7244
:1029F000144B1B78FA7A9A4209D24FF0500383F3B2
:102A00001188BFF36F8FBFF34F8F3B60FEE70E4B14
:102A10001B6803F4E0620D4B1B689A4209D94FF022
:102A2000500383F31188BFF36F8FBFF34F8F7B6029
:102A3000FEE700BF1437BD465DF8047B704700BF5A
:102A4000F0E300E0500100200CED00E05401002014
:102A500080B485B000AF78600023FB730023BB73A4
:102A60000F237B737B68DB78002B38D0274BDB6828
:102A7000DB4303F4E0631B0AFB73FB7BC3F104033A
:102A8000BB737A7BFB7B42FA03F37B737B685B78D7
:102A90001A46BB7B02FA03F3FB737B689A787B7B55
:102AA0001340DAB2FB7B1343FB73FB7B1B01FB730D
:102AB000174A7B681B781344FA7B83F80023144A77
:102AC0007B681B785B09DBB218467B681B7803F0D8
:102AD0001F03012101FA03F342F820300FE00C49F3
:102AE0007B681B785B09DBB218467B681B7803F0B8
:102AF0001F0301229A4000F1200341F8232000BF68
:102B00001437BD465DF8047B704700BF00ED00E060
:102B100000E100E080B588B000AF786000237B6101
:102B2000FEF714F9404B1B68002B04D100F0C0F8ED
:102B30003D4B01221A607B68002B0ED008231A46F9
:102B40007B6813447B607B6803F00703002B04D091
:102B50007B6823F0070308337B607B68002B56D02B
:102B60007B68324A934252D8314BBB61304B1B6871
:102B7000FB6104E0FB69BB61FB691B68FB61FB69EE
:102B80005A687B689A4203D2FB691B68002BF1D11B
:102B9000FB69284A93423AD0BB691B680822134458
:102BA0007B61FB691A68BB691A60FB695A687B68BC
:102BB000D31A08225200934222D9FA697B6813443F
:102BC000FB60FB695A687B68D21AFB685A60FB6934
:102BD0007A685A60FB685B68BB60154B3B6102E03A
:102BE0003B691B683B613B691B685A68BB689A423A
:102BF000F6D33B691A68FB681A603B69FA681A6089
:102C00000D4B1A68FB695B68D31A0B4A1360FEF719
:102C1000ABF87B69002B01D1FDF794FB7B6918466B
:102C20002037BD4680BD00BF682D0120F72B010075
:102C3000582D0120602D01200C00002080B586B0A9
:102C400000AF78607B683B617B68002B27D008234E
:102C50005B423A6913443B613B69FB60FEF776F8DF
:102C6000FB685B68BB60104B7B6102E07B691B68A3
:102C70007B617B691B685A68BB689A42F6D37B69A3
:102C80001A68FB681A607B69FA681A60FB685A6800
:102C9000064B1B681344054A1360FEF765F800BF36
:102CA0001837BD4680BD00BF582D01200C00002004
:102CB00080B483B000AF0F4B23F007037B600E4A54
:102CC0007B6813600C4B00225A600C4B0C4A5A6014
:102CD0000A4B00221A607B683B603B68084A5A60D6
:102CE0003B68064A1A6000BF0C37BD465DF8047B9E
:102CF000704700BF60010020582D0120602D012089
:102D0000F82B010080B485B000AF786039600023F3
:102D1000FB817B681B88FB817B68294A934213D027
:102D20007B68284A93420FD07B68B3F1804F0BD069
:102D30007B68254A934207D07B68244A934203D09C
:102D40007B68234A934208D1FB8923F07003FB81FF
:102D50003B685A88FB891343FB817B681D4A934279
:102D60000CD07B681C4A934208D0FB8923F4407343
:102D7000FB813B681A89FB891343FB817B68FA89D5
:102D80001A803B685A687B68DA623B681A887B68FD
:102D90001A857B680A4A934203D07B68094A9342AA
:102DA00004D13B689B7A9AB27B681A867B680122C1
:102DB0009A8200BF1437BD465DF8047B704700BFA0
:102DC00000000140000401400004004000080040F1
:102DD000000C0040001000400014004080B483B09C
:102DE00000AF78600B46FB70FB78002B08D07B6847
:102DF0001B889BB243F001039AB27B681A8007E0FC
:102E00007B681B889BB223F001039AB27B681A800F
:102E100000BF0C37BD465DF8047B704780B483B0BB
:102E200000AF78600B467B8013467B707B78002B6D
:102E300008D07B689B899AB27B8813439AB27B68DF
:102E40009A8109E07B689B899AB27B88DB439BB2BD
:102E500013409AB27B689A8100BF0C37BD465DF87B
:102E6000047B704780B485B000AF78600B467B80F0
:102E70000023FB730023BB8100237B817B681B8ABB
:102E80009AB27B881340BB817B689B899AB27B880E
:102E900013407B81BB89002B05D07B89002B02D09E
:102EA0000123FB7301E00023FB73FB7B18461437FF
:102EB000BD465DF8047B704780B483B000AF786096
:102EC0000B467B807B88DB439AB27B681A8200BF0B
:102ED0000C37BD465DF8047B704700BF844641EA6D
:102EE000000313F003036DD1403A41D351F8043B82
:102EF00040F8043B51F8043B40F8043B51F8043BD4
:102F000040F8043B51F8043B40F8043B51F8043BC3
:102F100040F8043B51F8043B40F8043B51F8043BB3
:102F200040F8043B51F8043B40F8043B51F8043BA3
:102F300040F8043B51F8043B40F8043B51F8043B93
:102F400040F8043B51F8043B40F8043B51F8043B83
:102F500040F8043B51F8043B40F8043B51F8043B73
:102F600040F8043B51F8043B40F8043B403ABDD2E2
:102F7000303211D351F8043B40F8043B51F8043B84
:102F800040F8043B51F8043B40F8043B51F8043B43
:102F900040F8043B103AEDD20C3205D351F8043B13
:102FA00040F8043B043AF9D2043208D0D2071CBFDF
:102FB00011F8013B00F8013B01D30B880380604608
:102FC000704700BF082A13D38B078DD010F003037E
:102FD0008AD0C3F10403D21ADB071CBF11F8013BEE
:102FE00000F8013B80D331F8023B20F8023B7BE73D
:102FF000043AD9D3013A11F8013B00F8013BF9D268
:103000000B7803704B7843708B7883706046704701
:1030100070B4840746D0541E002A41D0CDB2034676
:1030200002E0621EE4B3144603F8015B9A07F8D18C
:10303000032C2ED9CDB245EA05250F2C45EA0545CE
:1030400019D903F110022646103E0F2E42F8105CEB
:1030500042F80C5C42F8085C42F8045C02F1100291
:10306000F2D8A4F1100222F00F0204F00F04103283
:10307000032C13440DD91E462246043A032A46F86F
:10308000045BFAD8221F22F003020432134404F036
:1030900003042CB1C9B21C4403F8011BA342FBD1A9
:1030A00070BC704714460346C2E700BF4C656454C9
:1030B00061736B00546D722053766300546D7251CE
:0930C0000000000049444C4500E9
:1030C9000030000000C00000AAAAAAAAF82B01003B
:0400000508000000EF
:00000001FF
