:020000040800F2
:10000000F08E0120C10600082D0700082D0700080A
:100010002D0700082D0700082D070008000000002C
:10002000000000000000000000000000313A00085D
:100030002D07000800000000413C0008A93C000812
:100040002D0700082D0700082D0700082D070008C0
:100050002D0700082D0700082D0700082D070008B0
:100060002D0700082D0700082D0700082D070008A0
:100070002D0700082D0700082D0700082D07000890
:100080002D0700082D0700082D0700082D07000880
:100090002D0700082D0700082D0700082D07000870
:1000A0002D0700082D0700082D0700082D07000860
:1000B000311100082D0700082D0700082D07000842
:1000C0002D0700082D0700082D0700082D07000840
:1000D0002D0700082D0700082D0700082D07000830
:1000E0002D0700082D0700082D0700082D07000820
:1000F0002D0700082D0700082D0700082D07000810
:100100002D0700082D0700082D07000831120008F0
:100110002D0700082D0700082D0700082D070008EF
:100120002D0700082D0700082D0700082D070008DF
:100130002D0700082D0700082D0700082D070008CF
:100140002D0700082D0700082D0700082D070008BF
:100150002D0700082D0700082D0700082D070008AF
:100160002D0700082D0700082D0700082D0700089F
:100170002D0700082D0700082D0700082D0700088F
:100180002D0700082D07000880B500AF194B1B682C
:10019000002B02D000F090FF29E0174B1B68002BCA
:1001A00009D0164B1B68002B21D0144B1B68013B58
:1001B000124A13601BE0124B1B68002B08D10E4B38
:1001C00001221A600F4B1B68013B0C4A13600EE0C2
:1001D0000B4B1B68013B0A4A1360094B1A680A4B18
:1001E0001B689A4203DA064B1B68074A136000BF7C
:1001F00080BD00BF380300203403002030030020FE
:1002000028030020040000202C03002080B500AF4C
:100210001E4B1B68002B02D000F03CFF34E01C4B4F
:100220001B68002B13D01B4B1B685A1E1A4B1B68F4
:100230009A4206D1164B00221A60184B00221A600F
:1002400022E0154B1B680133134A13601CE0144B6A
:100250001B685A1E114B1B689A4204DD0F4B1B682A
:1002600001330E4A13600F4B1A680F4B1B681A4478
:100270000A4B1B689A4207DC084B1A680A4B1B683A
:10028000D31A0133074A136000BF80BD3803002032
:100290003403002004000020300300202803002045
:1002A000240300202C0300200000002080B500AFB4
:1002B0001B4B1B68002B24D01A4B1B68032B2CD81C
:1002C00001A252F823F000BFD9020008DF020008A3
:1002D000E5020008EB02000801F004F81DE000F060
:1002E000F1FF1AE001F00EF817E00F4B1B68002B2E
:1002F0000CBF01230023DBB21A460B4B1A6000BF70
:100300000BE00A4B1A6813469B0013449B00084AF3
:100310001344184600F0B6FFFFE700BF80BD00BFE2
:10032000340300203003002038030020280300207D
:10033000B430012080B590B000AF2B4B00221A6082
:1003400007F118032949184605F0FAFC034687F817
:100350003F3097F83F30002B42D12FE03B7A03F03B
:100360001003BB633B460933184608F029FB0346DC
:10037000033B3A46093213441D49184608F044F934
:100380000346002B0CBF01230023DBB27B63BB6B56
:10039000002B13D17B6B002B10D0134B1A68531C0E
:1003A00011490B6013469B0013449B00114A1A44E9
:1003B0003B4609331946104608F090FA3A4607F1D1
:1003C00018031146184605F02DFD0346002B02D1F7
:1003D0007B7A002BC2D107F11803184605F00EFDF9
:1003E00000BF4037BD4680BD24030020A88A000816
:1003F000AC8A0008B430012080B485B000AF7860CA
:1004000039600123FB6005E0FA6813469B00134442
:100410005B00FB60FA6813469B0013445B001A46BE
:100420003B689A42F0DB1BE07B685A1C7A603968B3
:10043000FA6891FBF2F2D2B23032D2B21A703B6853
:10044000FA6893FBF2F2F96801FB02F29B1A3B6037
:10045000FB68094A82FB03129210DB17D31AFB6078
:10046000FB68002BE0DC7B6800221A7000BF1437A9
:10047000BD465DF8047B70476766666680B584B0EC
:1004800000AF404B1B68002B05D03F4B1B68002B77
:1004900001D1012300E00023BB60B9687C2001F09A
:1004A0009DFB384B1B68002B05D0374B1B68012B7D
:1004B00001D1012300E00023BB60B9687E2001F078
:1004C0008DFB304B1B68002B05D02F4B1B68022B7C
:1004D00001D1012300E00023BB60B968802001F056
:1004E0007DFB284B1B68002B05D0274B1B68032B7B
:1004F00001D1012300E00023BB60B968822001F034
:100500006DFB00F0EBFD0246A023D31A052293FBFE
:10051000F2F20623D90F0B445B101344002B0DDBC2
:1005200000F0DCFD0246A023D31A052293FBF2F271
:100530000623D90F0B445B10134400E000237B60BB
:100540000023FB6006E0B968852001F047FBFB68EB
:100550000133FB60FA687B689A42F4DB0023FB609E
:1005600006E0B968842001F039FBFB680133FB60C9
:1005700006227B68D21AFB689A42F2DC00BF103771
:10058000BD4680BD340300203003002080B586B016
:1005900000AF344B1B687B6152E07B695A1C3B46C1
:1005A00011461846FFF728FF3B46184608F008FAA0
:1005B00003461A463B4613442B491A460B461B88F2
:1005C00013807A6913469B0013449B00274A1A4400
:1005D0003B461146184607F0E9FF0CE03B4618463B
:1005E00008F0EEF903461A463B46134420491A46E2
:1005F0000B461B8813803B46184608F0E1F903467A
:100600000D2BEBD9174B1B687A69D31A01331946A6
:10061000002001F0FFF9174B1B68002B09D1164B86
:100620001B687A699A4204D13B46184601F0C2FA27
:1006300003E03B46184601F083FA7B6901337B6196
:10064000084B1A680D4B1B681A440D4B1B689A42E5
:10065000A8BF1A467B699A429FDC00BF1837BD4687
:1006600080BD00BF2C030020B08A0008B4300120F8
:10067000B48A000834030020280300200000002072
:100680002403002080B500AF0021002001F0C2F952
:10069000FFF7F4FEFFF77AFF00BF80BD80B500AF23
:1006A0000248FFF747FE00BF80BD00BFA88A0008D0
:1006B00080B500AF642001F0FDFBFFF7E3FFF9E731
:1006C00080B582B000AF134B7B60134B3B6007E0FB
:1006D0003B681A1D3A607A68111D796012681A60C9
:1006E0003B680E4A9342F3D30D480E494FF0000287
:1006F0008842B8BF40F8042BFADBDFF82C00016811
:1007000041F47001016000F023F800BF0837BD46D6
:1007100080BD00BF45920008000000202403002097
:1007200024030020F086012088ED00E080B400AFB3
:10073000FEE700BF80B500AF01220349034804F083
:100740008FFF00BF80BD00BFC88A0008443201206F
:1007500080B582B002AF02F08FFBFFF7EBFF01F034
:1007600097F906F065F900F02FFCFFF797FF0023DB
:10077000019303230093002382220D490D4801F0C9
:1007800063FA0023019301230093002382220A4984
:100790000A4801F059FA0023019300230093002333
:1007A00082220749074801F04FFA01F0B7FBFEE744
:1007B000CC8A0008F10F0008D88A0008E16A000816
:1007C000E48A0008B106000880B400AF00BFBD464F
:1007D0005DF8047B704700BF80B400AFFEE700BF48
:1007E00080B483B000AF78603960FEE780B400AFBA
:1007F00000BFBD465DF8047B704700BF80B483B086
:1008000000AF0346FB71044AFB79136000BF0C374D
:10081000BD465DF8047B70476800474280B489B0EC
:1008200000AF78600023BB6100237B610023FB6184
:1008300002233B610023FB600223BB60484B9B68A3
:1008400003F00C03BB61BB69042B07D0082B09D054
:10085000002B3FD17B68434A1A603FE07B68424AE5
:100860001A603BE03E4B5B6803F480039B0DFB602A
:100870003B4B5B6803F03F03BB60FB68002B0DD074
:10088000394ABB68B2FBF3F2354B596847F6C0737F
:100890000B409B0903FB02F3FB610CE0314ABB6890
:1008A000B2FBF3F22E4B596847F6C0730B409B091D
:1008B00003FB02F3FB612A4B5B6803F440331B0C20
:1008C00001335B003B61FA693B69B2FBF3F27B6881
:1008D0001A6003E07B68234A1A6000BF204B9B68C4
:1008E00003F0F003BB61BB691B09BB611F4ABB6915
:1008F00013441B78DBB27B617B681A687B69DA4042
:100900007B685A60164B9B6803F4E053BB61BB697C
:100910009B0ABB61154ABB6913441B78DBB27B6140
:100920007B685A687B69DA407B689A600C4B9B68ED
:1009300003F46043BB61BB695B0BBB610B4ABB69E2
:1009400013441B78DBB27B617B685A687B69DA40B1
:100950007B68DA6000BF2437BD465DF8047B7047D2
:10096000003802400024F40000127A000800002041
:1009700080B483B000AF78600B46FB70FB78002B2F
:1009800006D00A49094B1A6B7B6813430B6306E0D8
:100990000649064B1A6B7B68DB4313400B6300BFB1
:1009A0000C37BD465DF8047B704700BF003802403D
:1009B00080B483B000AF78600B46FB70FB78002BEF
:1009C00006D00A49094B1A6C7B6813430B6406E096
:1009D0000649064B1A6C7B68DB4313400B6400BF6F
:1009E0000C37BD465DF8047B704700BF00380240FD
:1009F00080B483B000AF78600B46FB70FB78002BAF
:100A000006D00A49094B5A6C7B6813434B6406E0D5
:100A10000649064B5A6C7B68DB4313404B6400BFAE
:100A20000C37BD465DF8047B704700BF00380240BC
:100A300080B483B000AF78600B46FB70FB78002B6E
:100A400006D00A49094B1A6A7B6813430B6206E019
:100A50000649064B1A6A7B68DB4313400B6200BFF2
:100A60000C37BD465DF8047B704700BF003802407C
:100A700080B483B000AF78600B46FB70FB78002B2E
:100A800006D00A49094B5A6A7B6813434B6206E059
:100A90000649064B5A6A7B68DB4313404B6200BF32
:100AA0000C37BD465DF8047B704700BF003802403C
:100AB00080B58AB000AF01210F20FFF759FF012157
:100AC0004FF40210FFF774FF0120FFF797FE102389
:100AD0003B62012387F82430022387F82730002364
:100AE00087F82630022387F8253007F120031946BE
:100AF000424801F0F9FF1021404802F0ADF802230E
:100B000087F82430012387F826304FF410733B62B6
:100B1000002387F82730022387F8253007F12003C8
:100B20001946374801F0E0FF04220621344802F05C
:100B3000A3F804220921324802F09EF8002387F826
:100B400026304FF4A4533B6207F1200319462D4889
:100B500001F0CAFF10233B6207F1200319462A481F
:100B600001F0C2FF06220421274802F085F8062280
:100B70000721244802F080F806220A21214802F0C9
:100B80007BF806220C211F4802F076F81F4805F07A
:100B90008DF94BF68033BB614FF40073FB82002369
:100BA000BB824FF400733B8200237B820023BB8314
:100BB00007F110031946154805F0F6F9144805F039
:100BC000C1FB144B3B600023BB8033233B814FF4BC
:100BD00080637B814FF48043BB814BF6FF73FB80C6
:100BE0003B4619460A4805F0E7FB0121084805F095
:100BF000A5FC00BF2837BD4680BD00BF000C0240E9
:100C0000000402400008024000000240003C004096
:100C100000540040A086010080B584B000AFFF23DF
:100C2000FB721021544802F007F8544BFB6002E0BD
:100C3000FB68013BFB60FB68002BF9D10D233B7186
:100C400001237B713B1D0221184600F099F8002317
:100C50003B7199237B713B1D0221184600F090F8EF
:100C600047233B7180237B713B1D0221184600F016
:100C700087F8322000F0E0F80346FB7232233B7124
:100C8000FB7A63F07F03DBB27B713B1D02211846C8
:100C900000F076F8322000F0CFF80346FB723223E2
:100CA0003B71FB7A03F07F03DBB27B713B1D0221BA
:100CB000184600F065F800233B7100237B713B1D53
:100CC0000221184600F05CF804233B71AF237B71CE
:100CD0003B1D0221184600F053F80D233B71702391
:100CE0007B713B1D0221184600F04AF805233B7139
:100CF00081237B713B1D0221184600F041F8062339
:100D00003B7107237B713B1D0221184600F038F828
:100D10000A233B7100237B713B1D0221184600F022
:100D20002FF827233B7100237B713B1D02211846BE
:100D300000F026F89A233B710A237B710A23BB71CA
:100D40003B1D0321184600F01BF81F233B710F23A6
:100D50007B713B1D0221184600F012F802233B7103
:100D60009E237B713B1D0221184600F009F800BF4D
:100D70001037BD4680BD00BF000C024040420F004E
:100D800080B584B000AF78600B46FB700023FB7326
:100D900000BF4FF40031234805F0BCFC0346002B94
:100DA000F7D101211F4805F0E9FB00BF1E491D488E
:100DB00005F0B0FC0346002BF8D00022942119481E
:100DC00005F01CFC00BF1949164805F073FC0346EA
:100DD000002BF8D012E0FB7B7A6813441B7819468D
:100DE000104805F049FCFB7B0133FB7300BF104941
:100DF0000C4805F05FFC0346002BF8D0FA7BFB782B
:100E00009A42E8D300BF0B49064805F083FC03462D
:100E1000002BF8D00121034805F0D0FB00BF1037AC
:100E2000BD4680BD00540040010000108200070054
:100E3000800007000400001080B584B000AF0346B6
:100E4000FB710023FB7300BF4FF40031354805F000
:100E500061FC0346002BF7D10121324805F08EFBDF
:100E600000BF31492F4805F055FC0346002BF8D050
:100E7000002294212B4805F0C1FB00BF2B492948D3
:100E800005F018FC0346002BF8D0FB7919462548DD
:100E900005F0F2FB00BF2649224805F00BFC034693
:100EA000002BF8D001211F4805F088FB00BF4FF44C
:100EB00000311C4805F02EFC0346002BF7D1002121
:100EC000184805F0B9FB0121164805F057FB00BF93
:100ED0001549144805F01EFC0346002BF8D00122EA
:100EE0009421104805F08AFB00BF12490D4805F017
:100EF000E1FB0346002BF8D000BF0F49094805F07D
:100F0000D9FB0346002BF8D0064805F0C5FB034685
:100F1000FB730121034805F051FBFB7B184610379A
:100F2000BD4680BD00540040010000108200070053
:100F300080000700020003004000030080B584B079
:100F400000AF1C233B7300237B730123BB7301237E
:100F5000FB7307F10C03184605F010FC012101207A
:100F6000FFF726FD15237B6059233B8000233B813F
:100F700000237B803B4619464FF0804005F0B8FDCA
:100F8000012201214FF0804005F03EFE00BF1037E6
:100F9000BD4680BD80B582B000AF33233B710523D1
:100FA0007B710023BB710123FB713B1D184605F0CB
:100FB000E5FB01227121034805F020F900BF083745
:100FC000BD4680BD003C004080B500AFFFF770FD1E
:100FD000FFF722FEFFF7B2FFFFF7DCFF034B1B68B2
:100FE000184600F087F800BF80BD00BF1800002041
:100FF00080B582B000AF154B1B78012B20D1144B6C
:101000001B68002B1CD1134B1B68002B0CBF01234A
:101010000023DBB21A4613469B001344DB020E4A40
:1010200099183B1D4FF420520C4804F099FC084BD2
:1010300001221A607B68002B06D100F063F903E0FF
:10104000012000F037FFD6E700BFD4E74C030020B3
:10105000400300203C0300207434012074840120EC
:1010600080B500AF01214FF0804005F0ADFD0121BA
:10107000024805F093F800BF80BD00BF003C00406F
:1010800080B500AF00214FF0804005F09DFD00BF0E
:1010900080BD00BF80B500AF064B1B680122134422
:1010A000044A1360034B1B68184600F023F800BF86
:1010B00080BD00BF1800002080B500AF064B1B6844
:1010C00001229B1A044A1360034B1B68184600F068
:1010D00011F800BF80BD00BF1800002080B400AF31
:1010E000034B1B681846BD465DF8047B704700BF84
:1010F0001800002080B584B000AF7860FF227B68C4
:10110000934203DC34227B68934201DA00230BE034
:1011100020233B737B68DBB27B7307F10C03022156
:101120001846FFF72DFE012318461037BD4680BD37
:1011300080B582B000AF01214FF0804005F088FDFE
:101140000346002B65D001214FF0804005F0AAFD39
:10115000324B1B68B3F5205F0FDB304B00221A6067
:101160002F4B1B68002B0CBF01230023DBB21A4658
:101170002B4B1A602B4B00221A60294B1968274B06
:101180001A68531C2548036027480B469B000B44F4
:10119000DB02034413441B78FB71214B19681F4B7E
:1011A0001A68531C1D4803601F480B469B000B44E4
:1011B000DB02034413441B78BB71BB791A02FB7931
:1011C00013441A4A1360164B1968144B1A68531CBF
:1011D0001248036014480B469B000B44DB02034497
:1011E00013441B78FB710E4B19680C4B1A68531C87
:1011F0000A4803600C480B469B000B44DB02034487
:1012000013441B78BB71BB791A02FB791344074A5C
:10121000536000BF0837BD4680BD00BF44030020B7
:101220003C030020400300207434012098860120F4
:1012300080B500AF7121104805F02EF80346002B51
:1012400017D071210C4805F063F80C4B1B680C4A51
:1012500052F823309BB21946074804F0BFFF074BF2
:101260001B68002B0CBF01230023DBB21A46034B83
:101270001A6000BF80BD00BF003C00404803002052
:101280009886012080B584B000AF786000F03AF80D
:1012900001227968094804F025FA0346FB73FB7BB9
:1012A000002B01D0002305E0FFF7DAFE044B0122FA
:1012B0001A70012318461037BD4680BD7484012082
:1012C0004C03002080B500AF054B1B78012B04D1E7
:1012D000FFF7D6FE024B02221A7000BF80BD00BF8E
:1012E0004C03002080B500AF054B1B78022B04D1C6
:1012F000FFF7B6FE024B01221A7000BF80BD00BF8F
:101300004C03002080B500AF084B1B78012B03D0A5
:10131000064B1B78022B07D1054804F0FDFCFFF7B4
:10132000AFFE024B00221A7000BF80BD4C030020AC
:101330007484012080B586B002AF0023FB604FF4B7
:1013400082737B8100F08EFA104B1B68002B0AD051
:101350007A890F4B01930223009300230D490E4815
:1013600000F072FCF860FB68002B09D14FF05003CD
:1013700083F31188BFF36F8FBFF34F8F7B60FEE75E
:10138000FB6818461037BD4680BD00BF80030020B3
:1013900084030020EC8A0008B514000880B58AB0E8
:1013A00000AFF860B9607A603B6000237B62FB6845
:1013B000002B09D14FF0500383F31188BFF36F8FD7
:1013C000BFF34F8F3B62FEE7194B1B68002B2AD0FF
:1013D000BB687B617B68BB61FB68FB61BB68052BFD
:1013E00018DC01F0EFF90346022B09D1104B186805
:1013F00007F1140100233A6B01F0B6FE786212E0A7
:101400000B4B186807F114010023002201F0ACFE19
:10141000786208E0064B186807F1140100233A6867
:1014200001F09EFF78627B6A18462837BD4680BD72
:101430008003002080B588B002AF786039601C4B13
:101440001B68DB68DB687B617B690433184601F04D
:10145000E9FC7B69DB69012B21D17B699A697B6897
:10146000D1187B683A68786900F0C8F80346002B09
:1014700015D00023009300237A6800217869FFF7D4
:101480008DFF38613B69002B09D14FF0500383F386
:101490001188BFF36F8FBFF34F8FFB60FEE77B694F
:1014A0005B6A7869984700BF1837BD4680BD00BFAA
:1014B0007803002080B584B000AF786007F108039E
:1014C000184600F057F8F860BB681946F86800F055
:1014D00003F800F0D5F8F1E780B584B000AF78608C
:1014E000396000F067FD07F10803184600F066F860
:1014F000F860BB68002B30D13B68002B0AD17A68BA
:10150000FB689A4206D800F063FDF9687868FFF737
:1015100091FF24E03B68002B08D0134B1B681B682D
:10152000002B0CBF01230023DBB23B600F4B18687C
:101530007A68FB68D31A3A68194602F0F1F900F0AC
:1015400047FD0346002B0AD1094B4FF080521A6029
:10155000BFF34F8FBFF36F8F01E000F039FD00BF85
:101560001037BD4680BD00BF7C03002080030020F3
:1015700004ED00E080B485B000AF78600E4B1B68CE
:101580001B68002B0CBF01230023DBB21A467B68CB
:101590001A607B681B68002B05D1074B1B68DB6852
:1015A0001B68FB6001E00023FB60FB6818461437F2
:1015B000BD465DF8047B70477803002080B584B099
:1015C00000AF786000F0A0FDF8600B4B1B68FA6874
:1015D0009A4205D200F0E6F87B6801221A6002E028
:1015E0007B6800221A60044AFB681360FB68184697
:1015F0001037BD4680BD00BF8803002080B586B08F
:1016000000AFF860B9607A603B6000237B61FB68E3
:10161000BA685A60FB68FA681A61BA687B689A42CD
:1016200012D87A683B68D21AFB689B699A4202D347
:1016300001237B611BE0104B1A68FB6804331946D9
:10164000104601F0B5FB12E07A683B689A4206D278
:10165000BA683B689A4202D301237B6107E0074BDB
:101660001A68FB6804331946104601F0A1FB7B6938
:1016700018461837BD4680BD7C0300207803002043
:1016800080B58CB002AF7AE0BB68002B77DB3B699A
:101690007B627B6A5B69002B04D07B6A043318464B
:1016A00001F0C0FB3B1D1846FFF788FF3862BB689E
:1016B000092B63D801A252F823F000BFE5160008F9
:1016C000E5160008E51600087F1700083F17000818
:1016D00075170008E5160008E51600087F170008D2
:1016E0003F170008FA687B6A9B69D118FB683A6A61
:1016F000786AFFF783FF0346002B40D07B6A5B6A62
:10170000786A98477B6ADB69012B38D1FA687B6A73
:101710009B691A440023009300230021786AFFF795
:101720003DFEF861FB69002B29D14FF0500383F394
:101730001188BFF36F8FBFF34F8F7B61FEE7FA68AD
:101740007B6A9A617B6A9B69002B09D14FF0500339
:1017500083F31188BFF36F8FBFF34F8FBB61FEE739
:101760007B6A9A693B6AD1183B6A3A6A786AFFF7E2
:1017700045FF04E0786A05F0F7F800E000BF084B89
:10178000186807F108010023002201F07DFE0346DE
:10179000002B7FF479AF00BF2837BD4680BD00BF66
:1017A0008003002080B588B002AF44E02B4B1B685B
:1017B000DB681B687B61294B1B68DB68DB683B616E
:1017C0003B690433184601F02DFB3B695B6A3869BD
:1017D00098473B69DB69012B2DD13B699A697B698D
:1017E0001344FB60FA687B699A420ED93B69FA6838
:1017F0005A603B693A691A61184B1A683B690433AD
:101800001946104601F0D4FA15E000230093002396
:101810007A6900213869FFF7C1FDB860BB68002B09
:1018200009D14FF0500383F31188BFF36F8FBFF3DB
:101830004F8F3B60FEE7094B1B681B68002BB5D13F
:10184000064B1B687B60064B1B68044A1360044A06
:101850007B68136000BF1837BD4680BD7803002049
:101860007C03002080B500AF02F092F9124B1B6898
:10187000002B1DD1114801F049FA114801F046FA38
:10188000104B0E4A1A60104B0D4A1A6000220C21B0
:101890000A2001F00BFC0246074B1A60064B1B683E
:1018A000002B05D0044B1B680849184602F010F8BD
:1018B00002F09CF900BF80BD80030020500300208F
:1018C00064030020780300207C030020F48A0008D1
:1018D00080B582B000AF03460A46FB8013467B7199
:1018E0007B79002B05D0FB881946064801F0A4F946
:1018F00004E0FB881946034801F0AEF900BF083741
:10190000BD4680BD0000024080B588B000AF012117
:101910000120FFF72DF80723BB6103237B77012309
:101920003B770023BB770023FB7707F118031946A9
:10193000214801F0D9F8A023BB6103237B77022360
:101940003B770023BB770223FB7707F11803194687
:10195000194801F0C9F805220721174801F08CF950
:1019600005220521144801F087F901214FF4805028
:10197000FFF73EF84FF44043BB8000233B81302308
:101980003B8200237B824FF48273FB800023BB8168
:1019900000237B814FF40073FB810023BB823B1D3E
:1019A0001946064804F0BCFA0121044804F0D6FBAD
:1019B00000BF2037BD4680BD00000240003001401E
:1019C00080B582B000AF03460A46FB711346BB7177
:1019D00000210220FFF77CFFBB7919460420FFF7A6
:1019E00077FFFB799BB21946094804F0F7FB00BF6B
:1019F0008021074804F034FC0346012BF8D0012174
:101A00000220FFF765FF00BF0837BD4680BD00BF5D
:101A10000030014080B582B000AF786039603B682B
:101A2000DBB243F04003DBB2DBB200211846FFF724
:101A3000C7FF7B68DBB21A46520013445B00DBB27F
:101A4000DBB263F07F03DBB2DBB200211846FFF7A5
:101A5000B7FF00BF0837BD4680BD00BF80B582B06C
:101A600000AF00237B6006E001210020FFF7A8FF04
:101A70007B6801337B607B68B3F5FC7FF4DB00217E
:101A80000020FFF7C7FF00BF0837BD4680BD00BF7D
:101A900080B582B000AFFFF737FF00210120FFF7CC
:101AA00017FF49F640437B6000BF7B685A1E7A608F
:101AB000002BFAD101210120FFF70AFF002121208C
:101AC000FFF77EFF0021C620FFF77AFF00210620E6
:101AD000FFF776FF00211320FFF772FF002120207F
:101AE000FFF76EFFFFF7BAFF00210C20FFF768FF3A
:101AF00000BF0837BD4680BD80B584B000AF034647
:101B0000FB710023FB6012E0FB79A3F120020B497B
:101B100013465B0013445B00CA18FB6813441B7830
:101B200001211846FFF74CFFFB680133FB60FB689F
:101B3000052BE9DD00BF1037BD4680BD1C0000202D
:101B400080B582B000AF786006E07B685A1C7A608E
:101B50001B781846FFF7D0FF7B681B78002BF4D169
:101B600000BF0837BD4680BD80B584B000AF0346D6
:101B7000FB710023FB6014E0FB79A3F120020C4908
:101B800013465B0013445B00CA18FB6813441B78C0
:101B9000DB43DBB201211846FFF712FFFB6801337C
:101BA000FB60FB68052BE7DD00BF1037BD4680BD3D
:101BB0001C00002080B582B000AF786006E07B6832
:101BC0005A1C7A601B781846FFF7CEFF7B681B789B
:101BD000002BF4D100BF0837BD4680BD80B584B06E
:101BE00000AF786039607B68842B05D07B68852BDB
:101BF00002D00223FB6001E00123FB600023BB60F5
:101C00001AE03B68002B0BD07B68DAB2BB68DBB212
:101C10001344DBB20A33DBB21846FFF7A5FF08E036
:101C20007B68DAB2BB68DBB21344DBB21846FFF75D
:101C300063FFBB680133BB60BA68FB689A42E0DBB4
:101C400000BF1037BD4680BD80B58CB004AFF860D2
:101C5000B9603B601346FB80FB889B00184604F08C
:101C6000EFFD78617B69002B0ED0582004F0E8FD71
:101C7000F861FB69002B03D0FB697A691A6305E000
:101C8000786904F071FE01E00023FB61FB69002B21
:101C900011D0FA88FB690293FB6A0193BB6A009337
:101CA0003B68B968F86800F00FF8F86900F094F83C
:101CB0000123BB6102E04FF0FF33BB61BB691846F3
:101CC0002037BD4680BD00BF80B588B000AFF8604A
:101CD000B9603B601346FB803B6B186BFB889B0035
:101CE0001A46A52106F014FC3B6B1A6BFB8803F126
:101CF0008043013B9B001344BB61BB6923F0070396
:101D0000BB61BB6903F00703002B09D04FF0500300
:101D100083F31188BFF36F8FBFF34F8F7B61FEE7B3
:101D20000023FB6112E0BA68FB69134419783A6B2F
:101D3000FB69134434330A461A70BA68FB691344CA
:101D40001B78002B06D0FB690133FB61FB69092B73
:101D5000E9D900E000BF3B6B002283F83D20BB6A5D
:101D6000042B01D90423BB623B6BBA6ADA623B6B7A
:101D7000BA6A9A643B6B0022DA643B6B0433184600
:101D800000F0E4FF3B6B1833184600F0DFFF3B6BBD
:101D90003A6B1A61BB6AC3F105023B6B9A613B6BFC
:101DA0003A6B5A623B6B00221A653B6B002283F848
:101DB00054203A68F968B86901F0E8FD02463B6BC7
:101DC0001A60FB6A002B02D0FB6A3A6B1A6000BFF4
:101DD0002037BD4680BD00BF80B582B000AF7860BF
:101DE00001F0D6FE2C4B1B6801332B4A13602B4BA2
:101DF0001B68002B09D1294A7B681360264B1B689E
:101E0000012B10D100F02CFC0DE0254B1B68002BA2
:101E100009D1224B1B68DA6A7B68DB6A9A4202D8D6
:101E20001E4A7B6813601F4B1B6801331D4A1360F9
:101E30001C4B1A687B681A647B68DB6A01229A4033
:101E4000194B1B681343184A13607B68DA6A134600
:101E50009B0013449B00154A1A447B6804331946BF
:101E6000104600F081FF01F0C1FE0D4B1B68002BF6
:101E70000ED00A4B1B68DA6A7B68DB6A9A4207D28B
:101E80000B4B4FF080521A60BFF34F8FBFF36F8F31
:101E900000BF0837BD4680BD640400208C030020CD
:101EA00070040020800400206C04002090030020B7
:101EB00004ED00E080B584B000AF78600023FB60E3
:101EC0007B68002B16D0134B1B68002B09D04FF0FA
:101ED000500383F31188BFF36F8FBFF34F8FBB6045
:101EE000FEE700F067F80021786800F097FD00F049
:101EF0006FF8F860FB68002B07D1074B4FF080525A
:101F00001A60BFF34F8FBFF36F8F00BF1037BD460E
:101F100080BD00BF8C04002004ED00E080B586B0D9
:101F200002AF82237B817A891C4B019300230093AB
:101F300000231B491B48FFF787FEF860FB68012B55
:101F400002D1FFF7F7F9F860FB68012B15D14FF0CC
:101F5000500383F31188BFF36F8FBFF34F8F3B6044
:101F6000114B4FF0FF321A60104B01221A60104BD8
:101F700000221A6001F080FD0CE0FB68002B09D103
:101F80004FF0500383F31188BFF36F8FBFF34F8F70
:101F90007B60FEE700BF1037BD4680BD880400208F
:101FA000FC8A00082D26000884040020700400200C
:101FB0006804002080B400AF044B1B680133034A5F
:101FC000136000BFBD465DF8047B70478C040020A1
:101FD00080B584B000AF0023FB600023BB60414BA1
:101FE0001B68002B09D14FF0500383F31188BFF316
:101FF0006F8FBFF34F8F3B60FEE701F0C9FD394B98
:102000001B68013B374A1360364B1B68002B61D1BC
:10201000354B1B68002B5DD02EE0344BDB68DB6852
:10202000FB60FB681833184600F0FCFEFB680433C5
:10203000184600F0F7FEFB68DB6A01229A402C4B41
:102040001B6813432A4A1360FB68DA6A13469B0035
:1020500013449B00274A1A44FB6804331946104670
:1020600000F082FEFB68DA6A234B1B68DB6A9A4247
:1020700002D3224B01221A601C4B1B68002BCCD1CF
:10208000FB68002B01D000F077FB1D4B1B687B60C9
:102090007B68002B10D000F047F80346002B02D0DD
:1020A000164B01221A607B68013B7B607B68002B2A
:1020B000F1D1134B00221A60104B1B68002B09D082
:1020C0000123BB600F4B4FF080521A60BFF34F8F5C
:1020D000BFF36F8F01F08AFDBB6818461037BD460D
:1020E00080BD00BF8C040020640400202404002074
:1020F0006C040020900300208C0300207804002052
:102100007404002004ED00E080B483B000AF054B00
:102110001B687B607B6818460C37BD465DF8047B06
:10212000704700BF6804002080B586B000AF002370
:102130007B61544B1B68002B40F09280524B1B6814
:1021400001333B61504A3B6913603B69002B1FD14F
:102150004E4B1B681B68002B09D04FF0500383F3D4
:102160001188BFF36F8FBFF34F8F3B60FEE7474B84
:102170001B68FB60464B1B68444A1360444AFB687B
:102180001360444B1B680133424A136000F0F4FAB9
:10219000414B1B683A699A424DD33C4B1B681B6804
:1021A000002B01D1012300E00023002B04D03A4B87
:1021B0004FF0FF321A603EE0344B1B68DB68DB688F
:1021C000BB60BB685B687B603A697B689A4203D2FC
:1021D000314A7B6813602EE0BB680433184600F078
:1021E00021FEBB689B6A002B04D0BB6818331846DD
:1021F00000F018FEBB68DB6A01229A40274B1B687F
:102200001343264A1360BB68DA6A13469B001344E3
:102210009B00234A1A44BB6804331946104600F059
:10222000A3FDBB68DA6A1F4B1B68DB6A9A42B4D312
:1022300001237B61B1E71B4B1B68DA6A184913461F
:102240009B0013449B000B441B68012B01D9012305
:102250007B61154B1B68002B09D1FEF7C7FA06E01E
:10226000114B1B680133104A1360FEF7BFFA0F4B86
:102270001B68002B01D001237B617B69184618374E
:10228000BD4680BD8C040020680400201C04002092
:10229000200400207C040020840400206C04002022
:1022A000900300208C030020740400207804002098
:1022B00080B588B000AF394B1B68002B03D0384B7A
:1022C00001221A6065E0364B00221A60354B1B680C
:1022D0001B6BFB614FF0A533BB61FB691A68BB69DF
:1022E0009A4211D1FB6904331A68BB699A420BD137
:1022F000FB6908331A68BB699A4205D1FB690C3344
:102300001A68BB699A4208D0264B1A68254B1B688D
:10231000343319461046FEF763FA234B1B68BB6043
:10232000BB68B3FA83F3FB71FB79C3F11F033B6115
:102330001E493A6913469B0013449B000B441B68DB
:10234000002B09D14FF0500383F31188BFF36F8F37
:10235000BFF34F8F7B61FEE73A6913469B0013443E
:102360009B00124A1344FB60FB685B685A68FB6879
:102370005A60FB685A68FB6808339A4204D1FB68CC
:102380005B685A68FB685A60FB685B68DB68054AF3
:10239000136000BF2037BD4680BD00BF8C04002005
:1023A000780400208C0300206C040020900300209F
:1023B00080B584B000AF786039607B68002B09D1AC
:1023C0004FF0500383F31188BFF36F8FBFF34F8F2C
:1023D000FB60FEE7074B1B6818331946786800F06E
:1023E000E7FC0121386800F019FB00BF1037BD463B
:1023F00080BD00BF8C03002080B586B000AFF860C0
:10240000B9607A60FB68002B09D14FF0500383F369
:102410001188BFF36F8FBFF34F8F7B61FEE70A4BCD
:102420001B6818331946F86800F09EFC7B68002B87
:1024300002D04FF0FF33BB607968B86800F0EEFA65
:1024400000BF1837BD4680BD8C03002080B586B024
:1024500000AF78607B68DB68DB683B613B69002B21
:1024600009D14FF0500383F31188BFF36F8FBFF38F
:102470004F8FFB60FEE73B691833184600F0D2FC33
:102480001D4B1B68002B1CD13B690433184600F020
:10249000C9FC3B69DB6A01229A40184B1B68134355
:1024A000164A13603B69DA6A13469B0013449B008B
:1024B000134A1A443B6904331946104600F054FC91
:1024C00005E03B69183319460E4800F04DFC3B69A6
:1024D000DA6A0D4B1B68DB6A9A4205D901237B61DE
:1024E0000A4B01221A6001E000237B617B691846D8
:1024F0001837BD4680BD00BF8C0400206C0400204E
:1025000090030020240400208C0300207804002085
:1025100080B485B000AF78607B68002B09D14FF0A4
:10252000500383F31188BFF36F8FBFF34F8FFB60AE
:10253000FEE7074B1A687B681A60064B1A687B68CF
:102540005A6000BF1437BD465DF8047B704700BF7A
:102550007C0400206804002080B586B000AF78605D
:1025600039607B68002B09D14FF0500383F3118849
:10257000BFF36F8FBFF34F8FBB60FEE73B68002B4D
:1025800009D14FF0500383F31188BFF36F8FBFF36E
:102590004F8FFB60FEE701F0FBFA1C4B1B683B61B1
:1025A0003B681B68B3F1FF3F02D100237B6126E04B
:1025B0007B681A68164B1B689A4207D07B685A687A
:1025C0003B699A4202D801237B6118E07B685B6813
:1025D0003A69D21A3B681B689A420ED23B681A6865
:1025E0007B6859683B69CB1A1A443B681A60786863
:1025F000FFF78EFF00237B6101E001237B6101F087
:10260000F5FA7B6918461837BD4680BD680400207E
:102610007C04002080B400AF034B01221A6000BF8D
:10262000BD465DF8047B70477804002080B582B019
:1026300000AF786000F054F8074B1B68012B07D9F6
:10264000064B4FF080521A60BFF34F8FBFF36F8F6E
:10265000FEF7BAF8EEE700BF9003002004ED00E0BB
:1026600080B582B000AF00237B600CE07A6813462F
:102670009B0013449B00124A1344184600F046FB8B
:102680007B6801337B607B68042BEFD90D4800F039
:102690003DFB0D4800F03AFB0C4800F037FB0C48BE
:1026A00000F034FB0B4800F031FB0B4B054A1A607D
:1026B0000A4B054A1A6000BF0837BD4680BD00BFFF
:1026C00090030020F40300200804002024040020CC
:1026D00038040020500400201C04002020040020A6
:1026E00080B582B000AF28E0FFF764FC174B1B6891
:1026F000002B0CBF01230023DBB27B60FFF768FCDB
:102700007B68002B19D101F043FA104BDB68DB68C2
:102710003B603B680433184600F084FB0C4B1B689D
:10272000013B0B4A13600B4B1B68013B094A1360CA
:1027300001F05CFA386800F00FF8064B1B68002BBC
:10274000D2D100BF0837BD4680BD00BF380400208D
:10275000640400204C04002080B582B000AF786093
:102760007B681B6B184604F0FFF8786804F0FCF8EF
:1027700000BF0837BD4680BD80B483B000AF0F4BAB
:102780001B681B68002B01D1012300E00023002BF4
:1027900004D00B4B4FF0FF321A6008E0074B1B6868
:1027A000DB68DB687B607B685B68054A136000BFA1
:1027B0000C37BD465DF8047B704700BF1C04002049
:1027C0008404002080B483B000AF0B4B1B68002B47
:1027D00002D101237B6008E0084B1B68002B02D16B
:1027E00002237B6001E000237B607B6818460C3786
:1027F000BD465DF8047B7047700400208C04002007
:1028000080B584B000AF78607B68FB607B68002B8C
:1028100062D0FB68DA6A324B1B68DB6A9A425BD291
:10282000FB689B69002B06DB2D4B1B68DB6AC3F141
:102830000502FB689A61FB685969FB68DA6A13460E
:102840009B0013449B00274A1344994201D1012362
:1028500000E00023002B3AD0FB680433184600F058
:10286000E1FA0346002B15D1FB68DA6A1D491346CD
:102870009B0013449B000B441B68002B0AD1FB6890
:10288000DB6A012202FA03F3DA43174B1B68134099
:10289000154A1360124B1B68DA6AFB68DA62FB6840
:1028A000DB6A01229A40104B1B6813430E4A1360E7
:1028B000FB68DA6A13469B0013449B00094A1A44DA
:1028C000FB6804331946104600F04EFA04E0044B4E
:1028D0001B68DA6AFB68DA6200BF1037BD4680BD4C
:1028E0008C030020900300206C04002080B586B08B
:1028F00000AF78607B683B6100237B617B68002BC5
:102900006CD0394B1B683A699A4209D04FF050039A
:1029100083F31188BFF36F8FBFF34F8FBB60FEE768
:102920003B69DB6C002B09D14FF0500383F3118816
:10293000BFF36F8FBFF34F8FFB60FEE73B69DB6C2C
:102940005A1E3B69DA643B69DA6A3B699B6C9A42BE
:1029500044D03B69DB6C002B40D13B690433184603
:1029600000F060FA0346002B15D13B69DA6A1F4973
:1029700013469B0013449B000B441B68002B0AD199
:102980003B69DB6A012202FA03F3DA43184B1B6846
:102990001340174A13603B699A6C3B69DA623B69E2
:1029A000DB6AC3F105023B699A613B69DB6A01227C
:1029B0009A400F4B1B6813430D4A13603B69DA6A58
:1029C00013469B0013449B00084A1A443B69043396
:1029D0001946104600F0C8F901237B617B6918464F
:1029E0001837BD4680BD00BF8C0300209003002037
:1029F0006C04002080B400AF074B1B68002B04D090
:102A0000054B1B68DA6C0132DA64034B1B6818460D
:102A1000BD465DF8047B70478C03002080B584B010
:102A200000AF78603960294B1B68FB60284B1B683E
:102A30000433184600F0F6F90346002B0BD1244B63
:102A40001B68DB6A012202FA03F3DA43214B1B689D
:102A50001340204A13607B68B3F1FF3F0AD13B6803
:102A6000002B07D01A4B1B68043319461A4800F094
:102A70007BF926E0FA687B681344BB60144B1B6843
:102A8000BA685A60BA68FB689A4209D2134B1A684E
:102A90000F4B1B6804331946104600F089F910E00B
:102AA0000F4B1A680A4B1B6804331946104600F096
:102AB0007FF90C4B1B68BA689A4202D2094ABB687C
:102AC000136000BF1037BD4680BD00BF6804002002
:102AD0008C0300206C0400205004002020040020FF
:102AE0001C0400208404002080B487B000AF78600C
:102AF000396000237B6100233B610023FB600023DE
:102B00007B6176E001227B6902FA03F33B613B685B
:102B10001A683B691340FB60FA683B699A4265D1C9
:102B20007B681A687B695B00032101FA03F3DB43CE
:102B30001A407B681A607B681A683B681B791946E3
:102B40007B695B0001FA03F31A437B681A603B68F8
:102B50001B79012B03D03B681B79022B2ED17B689C
:102B60009A687B695B00032101FA03F3DB431A4097
:102B70007B689A607B689A683B685B7919467B69D9
:102B80005B0001FA03F31A437B689A607B685A681A
:102B90007B699BB2012101FA03F3DB431A407B6896
:102BA0005A607B685A683B689B7919467B699BB27F
:102BB00001FA03F39BB21A437B685A607B68DA68B8
:102BC0007B699BB25B00032101FA03F3DB431A40EC
:102BD0007B68DA607B68DA683B68DB7919467B6979
:102BE0005B0001FA03F31A437B68DA607B69013307
:102BF0007B617B690F2B85D900BF1C37BD465DF813
:102C0000047B704780B485B000AF78600B467B8052
:102C10000023FB737B681A697B881340002B02D06A
:102C20000123FB7301E00023FB73FB7B1846143781
:102C3000BD465DF8047B704780B483B000AF786018
:102C40000B467B807B687A881A8300BF0C37BD46B1
:102C50005DF8047B704700BF80B483B000AF78603C
:102C60000B467B807B687A885A8300BF0C37BD4651
:102C70005DF8047B704700BF80B485B000AF78601A
:102C80000B467B8013467B700023FB600023BB60F8
:102C90007A787B8803F007039B0002FA03F3FB605A
:102CA0007B88DB089BB218467B88DB089BB21A4600
:102CB0007B68083253F822207B8803F007039B00CF
:102CC0000F2101FA03F3DB4302EA03017B6800F101
:102CD000080243F822107B88DB089BB21A467B6807
:102CE000083253F82220FB681343BB607B88DB0863
:102CF0009BB21A467B680832B96843F8221000BFBD
:102D00001437BD465DF8047B704700BF80B483B0C4
:102D100000AF78607B6803F108027B685A607B68CB
:102D20004FF0FF329A607B6803F108027B68DA603B
:102D30007B6803F108027B681A617B6800221A60D5
:102D400000BF0C37BD465DF8047B704780B483B08C
:102D500000AF78607B6800221A6100BF0C37BD4667
:102D60005DF8047B704700BF80B485B000AF786029
:102D700039607B685B68FB603B68FA685A60FB6897
:102D80009A683B689A60FB689B683A685A60FB687F
:102D90003A689A603B687A681A617B681B685A1CBB
:102DA0007B681A6000BF1437BD465DF8047B70472E
:102DB00080B485B000AF786039603B681B68BB6049
:102DC000BB68B3F1FF3F03D17B681B69FB600CE07C
:102DD0007B680833FB6002E0FB685B68FB60FB68B4
:102DE0005B681A68BB689A42F6D9FB685A683B6808
:102DF0005A603B685B683A689A603B68FA689A6018
:102E0000FB683A685A603B687A681A617B681B689D
:102E10005A1C7B681A6000BF1437BD465DF8047BFE
:102E2000704700BF80B485B000AF78607B681B69D5
:102E3000FB607B685B687A6892689A607B689B68D5
:102E40007A6852685A60FB685A687B689A4203D174
:102E50007B689A68FB685A607B6800221A61FB688D
:102E60001B685A1EFB681A60FB681B6818461437FB
:102E7000BD465DF8047B704780B500AF164A164B1F
:102E8000D3F8883043F47003C2F88830134A134BE8
:102E90001B6843F001031360104B00229A600F4A35
:102EA0000E4B1B6823F0847323F4803313600B4BA9
:102EB0000B4A5A60094A094B1B6823F480231360AC
:102EC000064B0022DA6000F00DF8034B4FF0006271
:102ED0009A6000BF80BD00BF00ED00E000380240F6
:102EE0001030002480B483B000AF00237B60002347
:102EF0003B60364A354B1B6843F480331360334BD9
:102F00001B6803F400333B607B6801337B603B68E4
:102F1000002B03D17B68B3F5A06FF0D12B4B1B685E
:102F200003F40033002B02D001233B6001E00023B7
:102F30003B603B68012B42D1244A244B1B6C43F07D
:102F400080531364224A224B1B6843F4804313606E
:102F50001E4A1E4B9B6893601C4A1C4B9B6843F4A3
:102F600000439360194A194B9B6843F4A053936044
:102F7000164B184A5A60154A144B1B6843F080736D
:102F8000136000BF114B1B6803F00073002BF9D0D6
:102F9000114B40F205621A600C4A0C4B9B6823F0FF
:102FA00003039360094A094B9B6843F00203936053
:102FB00000BF064B9B6803F00C03082BF9D100BF40
:102FC0000C37BD465DF8047B704700BF00380240F7
:102FD00000700040085A4007003C024080B584B0B1
:102FE00000AF786039607B68FB60FB68002B09D11B
:102FF0004FF0500383F31188BFF36F8FBFF34F8FF0
:10300000BB60FEE700F0C4FDFB681A68FB68DB6B81
:10301000F968096C01FB03F31A44FB685A60FB680A
:1030200000229A63FB681A68FB689A60FB681A685A
:10303000FB68DB6B013BF968096C01FB03F31A4485
:10304000FB68DA60FB68FF2283F84420FB68FF22FC
:1030500083F845203B68002B14D1FB681B69002BCB
:103060001AD0FB6810331846FFF7F0F90346002B1F
:1030700012D00D4B4FF080521A60BFF34F8FBFF349
:103080006F8F09E0FB6810331846FFF73FFEFB68BF
:1030900024331846FFF73AFE00F0A8FD0123184636
:1030A0001037BD4680BD00BF04ED00E080B58AB09A
:1030B00002AFF860B9601346FB71FB68002B09D1C1
:1030C0004FF0500383F31188BFF36F8FBFF34F8F1F
:1030D0003B61FEE7BB68002B02D10023FB6104E0EB
:1030E000FB68BA6802FB03F3FB61FB6950331846C7
:1030F00003F0A6FBB861BB69002B0BD0BB69503352
:103100007B61FA79BB69009313467A69B968F868FC
:1031100000F006F8BB6918462037BD4680BD00BFE9
:1031200080B584B000AFF860B9607A60FB70BB68AE
:10313000002B03D1BB69BA691A6002E0BB697A68E7
:103140001A60BB69FA68DA63BB69BA681A6401215C
:10315000B869FFF743FFBB69FA7883F84C2000BFDA
:103160001037BD4680BD00BF80B58EB000AFF8609F
:10317000B9607A603B6000237B63FB683B633B6B19
:10318000002B09D14FF0500383F31188BFF36F8FE9
:10319000BFF34F8FFB61FEE7BB68002B03D13B6B96
:1031A0001B6C002B01D1012300E00023002B09D16F
:1031B0004FF0500383F31188BFF36F8FBFF34F8F2E
:1031C0003B62FEE73B68022B03D13B6BDB6B012BC1
:1031D00001D1012300E00023002B09D14FF050035F
:1031E00083F31188BFF36F8FBFF34F8F7B62FEE7CE
:1031F000FFF7E8FA0346002B02D17B68002B01D1D0
:10320000012300E00023002B09D14FF0500383F38A
:103210001188BFF36F8FBFF34F8FBB62FEE700F0E3
:10322000B7FC3B6B9A6B3B6BDB6B9A4202D33B6800
:10323000022B29D13A68B968386B00F039FAF86284
:103240003B6B5B6A002B10D03B6B24331846FFF7B7
:10325000FDF80346002B13D0404B4FF080521A600C
:10326000BFF34F8FBFF36F8F0AE0FB6A002B07D0CD
:103270003A4B4FF080521A60BFF34F8FBFF36F8FFE
:1032800000F0B4FC012365E07B68002B03D100F063
:10329000ADFC00235EE07B6B002B06D107F114032D
:1032A0001846FFF735F901237B6300F09FFCFEF71A
:1032B00081FE00F06DFC3B6B93F84430DBB25BB2F7
:1032C000B3F1FF3F03D13B6B002283F844203B6BFB
:1032D00093F84530DBB25BB2B3F1FF3F03D13B6BF8
:1032E000002283F8452000F081FC3A1D07F1140309
:1032F00011461846FFF730F90346002B24D1386BEE
:1033000000F0CEFA0346002B18D03B6B10337A68DE
:1033100011461846FFF74CF8386B00F059FAFEF7E3
:1033200057FE0346002B7FF47AAF0C4B4FF08052D0
:103330001A60BFF34F8FBFF36F8F70E7386B00F0E9
:1033400047FAFEF745FE6AE7386B00F041FAFEF7F0
:103350003FFE002318463837BD4680BD04ED00E02F
:1033600080B58EB000AFF860B9607A603B60FB68F2
:103370003B633B6B002B09D14FF0500383F3118863
:10338000BFF36F8FBFF34F8F7B61FEE7BB68002BEE
:1033900003D13B6B1B6C002B01D1012300E0002308
:1033A000002B09D14FF0500383F31188BFF36F8FC7
:1033B000BFF34F8FBB61FEE73B68022B03D13B6B32
:1033C000DB6B012B01D1012300E00023002B09D18D
:1033D0004FF0500383F31188BFF36F8FBFF34F8F0C
:1033E000FB61FEE700F09EFCEFF311824FF050030B
:1033F00083F31188BFF36F8FBFF34F8F3A623B6146
:103400003B6ABB623B6B9A6B3B6BDB6B9A4202D3B2
:103410003B68022B2CD13B6B93F8453087F8273063
:103420003A68B968386B00F043F997F92730B3F17F
:10343000FF3F12D13B6B5B6A002B16D03B6B2433F2
:103440001846FFF703F80346002B0ED07B68002BCD
:103450000BD07B6801221A6007E097F82730013310
:10346000DBB2DAB23B6B83F8452001237B6301E0DA
:1034700000237B63BB6AFB62FB6A83F311887B6B6F
:1034800018463837BD4680BD80B58EB000AFF860B5
:10349000B9607A603B6000237B63FB683B633B6BF6
:1034A000002B09D14FF0500383F31188BFF36F8FC6
:1034B000BFF34F8FFB61FEE7BB68002B03D13B6B73
:1034C0001B6C002B01D1012300E00023002B09D14C
:1034D0004FF0500383F31188BFF36F8FBFF34F8F0B
:1034E0003B62FEE7FFF76EF90346002B02D17B68D3
:1034F000002B01D1012300E00023002B09D14FF064
:10350000500383F31188BFF36F8FBFF34F8F7B623C
:10351000FEE700F03DFB3B6B9B6BFB62FB6A002B05
:1035200046D03B6BDB68BB62B968386B00F02AF9A8
:103530003B68002B21D1FB6A5A1E3B6B9A633B6BA5
:103540001B68002B04D1FFF755FA02463B6B5A600B
:103550003B6B1B69002B27D03B6B10331846FEF7E3
:1035600075FF0346002B1FD0504B4FF080521A605E
:10357000BFF34F8FBFF36F8F16E03B6BBA6ADA6011
:103580003B6B5B6A002B0FD03B6B24331846FEF776
:103590005DFF0346002B07D0444B4FF080521A606A
:1035A000BFF34F8FBFF36F8F00F020FB012379E053
:1035B0007B68002B03D100F019FB002372E07B6BCA
:1035C000002B06D107F114031846FEF7A1FF0123D3
:1035D0007B6300F00BFBFEF7EDFC00F0D9FA3B6BD0
:1035E00093F84430DBB25BB2B3F1FF3F03D13B6BE6
:1035F000002283F844203B6B93F84530DBB25BB28A
:10360000B3F1FF3F03D13B6B002283F8452000F06C
:10361000EDFA3A1D07F1140311461846FEF79CFF18
:103620000346002B31D1386B00F024F90346002B00
:1036300025D03B6B1B68002B08D100F0A9FA3B6B2F
:103640005B681846FFF7DCF800F0D0FA3B6B2433D8
:103650007A6811461846FEF7ABFE386B00F0B8F8F2
:10366000FEF7B6FC0346002B7FF453AF0F4B4FF031
:1036700080521A60BFF34F8FBFF36F8F49E7386BEB
:1036800000F0A6F8FEF7A4FC43E7386B00F0A0F8C2
:10369000FEF79EFC386B00F0EDF80346002B3FF47C
:1036A00038AF002318463837BD4680BD04ED00E032
:1036B00080B586B000AFF860B9607A6000237B61A6
:1036C000FB689B6B3B61FB681B6C002B0DD1FB689F
:1036D0001B68002B4DD1FB685B681846FFF706F9A5
:1036E0007861FB6800225A6043E07B68002B19D1A7
:1036F000FB689868FB681B6C1A46B96804F06EFE9C
:10370000FB689A68FB681B6C1A44FB689A60FB684C
:103710009A68FB685B689A422BD3FB681A68FB685F
:103720009A6026E0FB68D868FB681B6C1A46B9688B
:1037300004F054FEFB68DA68FB681B6C5B421A44B9
:10374000FB68DA60FB68DA68FB681B689A4207D29C
:10375000FB685A68FB681B6C5B421A44FB68DA60C2
:103760007B68022B05D13B69002B02D03B69013BF2
:103770003B613B695A1CFB689A637B6918461837A2
:10378000BD4680BD80B582B000AF786039607B688F
:103790001B6C002B18D07B68DA687B681B6C1A44A2
:1037A0007B68DA607B68DA687B685B689A4203D37F
:1037B0007B681A687B68DA607B68D9687B681B6CF9
:1037C0001A46386804F00AFE00BF0837BD4680BDBF
:1037D00080B584B000AF786000F0DAF97B6893F8C8
:1037E0004530FB7311E07B685B6A002B12D07B686D
:1037F00024331846FEF72AFE0346002B01D0FEF7BD
:1038000009FFFB7B013BDBB2FB7397F90F30002B09
:10381000E9DC00E000BF7B68FF2283F8452000F070
:10382000E5F900F0B5F97B6893F84430BB7311E01B
:103830007B681B69002B12D07B6810331846FEF79B
:1038400005FE0346002B01D0FEF7E4FEBB7B013BE7
:10385000DBB2BB7397F90E30002BE9DC00E000BF50
:103860007B68FF2283F8442000F0C0F900BF1037C6
:10387000BD4680BD80B584B000AF786000F088F9A7
:103880007B689B6B002B02D10123FB6001E00023CE
:10389000FB6000F0ABF9FB6818461037BD4680BDF1
:1038A00080B584B000AF786000F072F97B689A6BE5
:1038B0007B68DB6B9A4202D10123FB6001E00023AD
:1038C000FB6000F093F9FB6818461037BD4680BDD9
:1038D00080B485B000AF786039600023FB6014E0ED
:1038E0000E4AFB6852F83330002B0BD10B49FB68B2
:1038F0003A6841F83320094AFB68DB0013447A68D0
:103900005A6005E0FB680133FB60FB68072BE7D9D1
:1039100000BF1437BD465DF8047B7047A0860120C8
:1039200080B586B000AFF860B9607A60FB687B61F3
:1039300000F02EF97B6993F84430DBB25BB2B3F14F
:10394000FF3F03D17B69002283F844207B6993F811
:103950004530DBB25BB2B3F1FF3F03D17B6900229C
:1039600083F8452000F042F97B699B6B002B06D160
:103970007B6924337A68B9681846FEF73DFD78699B
:10398000FFF726FF00BF1837BD4680BD80B485B065
:1039900000AFF860B9607A60FB68043BFB60FB68CD
:1039A0004FF080721A60FB68043BFB60BA68FB68EA
:1039B0001A60FB68043BFB600C4AFB681A60FB68FA
:1039C000143BFB607A68FB681A60FB68043BFB6091
:1039D000FB686FF002021A60FB68203BFB60FB682B
:1039E00018461437BD465DF8047B7047F13900086E
:1039F00080B483B000AF0C4B1B68B3F1FF3F09D01C
:103A00004FF0500383F31188BFF36F8FBFF34F8FD5
:103A10003B60FEE74FF0500383F31188BFF36F8FD5
:103A2000BFF34F8F7B60FEE7BC0200200000000068
:103A3000074B19680868B0E8F04F80F30988BFF3B6
:103A40006F8F4FF0000080F311887047AFF3008054
:103A50008C03002000BF00BF06480068006880F3A8
:103A6000088862B661B6BFF34F8FBFF36F8F00DF78
:103A700000BF00BF08ED00E080B586B000AF3B4B53
:103A80001B683B4A934209D14FF0500383F31188DE
:103A9000BFF36F8FBFF34F8FFB60FEE7334B1B68A5
:103AA000344A934209D14FF0500383F31188BFF396
:103AB0006F8FBFF34F8F3B61FEE72F4B7B617B69BD
:103AC0001B78DBB2BB607B69FF221A707B691B78B5
:103AD000DBB2FB71FB79DBB203F05003DAB2274BA8
:103AE0001A70274B07221A6009E0254B1B68013B1F
:103AF000234A1360FB79DBB25B00DBB2FB71FB791D
:103B0000DBB2DBB25BB2002BEFDB1D4B1B681B0291
:103B10001B4A13601A4B1B6803F4E063184A1360D6
:103B2000BB68DAB27B691A70164A164B1B6843F4FD
:103B300070031360134A134B1B6843F07043136008
:103B400000F0D2F8104B00221A6000F0E1F80F4AA2
:103B50000E4B1B6843F040431360FFF77DFFFFF7F8
:103B600047FF002318461837BD4680BD00ED00E032
:103B700071C20F4170C20F4100E400E090040020C8
:103B80009404002020ED00E0BC02002034EF00E0AF
:103B900080B483B000AF4FF0500383F31188BFF3BC
:103BA0006F8FBFF34F8F3B600E4B1B6801330D4A85
:103BB00013600C4B1B68012B0ED10B4B1B68DBB247
:103BC000002B09D04FF0500383F31188BFF36F8FA0
:103BD000BFF34F8F7B60FEE700BF0C37BD465DF83B
:103BE000047B7047BC02002004ED00E080B483B089
:103BF00000AF114B1B68002B09D14FF0500383F32A
:103C00001188BFF36F8FBFF34F8F3B60FEE70A4B06
:103C10001B68013B084A1360074B1B68002B04D14B
:103C200000237B607B6883F3118800BF0C37BD469F
:103C30005DF8047B704700BFBC020020000000005C
:103C4000EFF30980BFF36F8F154B1A681EF0100F4A
:103C500008BF20ED108A20E9F04F10604DF8043DB8
:103C60004FF0500080F31188BFF34F8FBFF36F8F79
:103C7000FEF71EFB4FF0000080F3118808BC1968A6
:103C80000868B0E8F04F1EF0100F08BFB0EC108AC3
:103C900080F30988BFF36F8F704700BFAFF30080D8
:103CA0008C03002000BF00BF80B582B000AF4FF092
:103CB000500383F31188BFF36F8FBFF34F8F3B60C7
:103CC000FEF732FA0346002B03D0064B4FF080522A
:103CD0001A6000237B607B6883F3118800BF08377C
:103CE000BD4680BD04ED00E080B400AF054B064A40
:103CF0001A60064B07221A6000BFBD465DF8047BC0
:103D0000704700BF14E000E01FBF020010E000E0B9
:103D1000DFF80C00016841F470010160704700BFDA
:103D200088ED00E080B485B000AFEFF30583FB6061
:103D3000FB680F2B13D9164AFB6813441B78FB72E0
:103D4000144B1B78FA7A9A4209D24FF0500383F34E
:103D50001188BFF36F8FBFF34F8F3B60FEE70E4BB1
:103D60001B6803F4E0620D4B1B689A4209D94FF0BF
:103D7000500383F31188BFF36F8FBFF34F8F7B60C6
:103D8000FEE700BF1437BD465DF8047B704700BFF7
:103D9000F0E300E0900400200CED00E0940400202B
:103DA00080B487B000AFF860B9607A60FB687B616F
:103DB000BB683B6107E07B695A1C7A613A69511C18
:103DC000396112781A707B685A1E7A60002BF2D122
:103DD00000BF1C37BD465DF8047B704780B487B0D8
:103DE00000AFF860B9607A60FB687B6105E07B69D1
:103DF0005A1C7A61BA68D2B21A707B685A1E7A600D
:103E0000002BF4D100BF1C37BD465DF8047B704722
:103E100080B489B000AFF860B9607A60FB68FB617C
:103E2000BB68BB6100237B6100BF7B685A1E7A6060
:103E3000002B0DD0FB695A1CFA611B781946BB692F
:103E40005A1CBA611B78CB1A7B617B69002BECD0C2
:103E50007B6918462437BD465DF8047B704700BF78
:103E600080B483B000AF7860396002E07B680133D2
:103E70007B607B681B78002B05D07B681B781A461B
:103E80003B689A42F2D17B681B7818460C37BD46D6
:103E90005DF8047B704700BF80B584B000AF7860E8
:103EA0007B681B79002B33D07B68DB6AFB607B6807
:103EB00058787B6803F130010123FA6804F006FAB0
:103EC0000346002B01D0012323E07B6800221A71F6
:103ED0007B681B6AFA68D21A7B689B699A4217D280
:103EE0007B68DB78BB6010E07B689B69FA681344F1
:103EF000FB607B6858787B6803F130010123FA6826
:103F000004F0E4F9BB68013BBB60BB68012BEBD854
:103F1000002318461037BD4680BD00BF80B582B073
:103F200000AF786039607B68DA6A3B689A4218D0E3
:103F30007868FFF7B1FF0346002B01D0012311E0A1
:103F40007B6858787B6803F1300101233A6804F0FC
:103F500091F90346002B01D0012303E07B683A6806
:103F6000DA62002318460837BD4680BD80B584B0AC
:103F700000AF78607868FFF78FFF0346FB73FB7B29
:103F8000002B40F08C807B681B78032B7BD17B68F7
:103F90005B79012B77D17B6830334FF400720021BD
:103FA0001846FFF71BFF7B68552283F82E227B689B
:103FB000AA2283F82F227B68522283F830207B6864
:103FC000522283F831207B68612283F832207B689B
:103FD000412283F833207B68722283F814227B68A5
:103FE000722283F815227B68412283F816227B68AF
:103FF000612283F817227B681B69DAB27B6883F839
:1040000018227B681B691B12DAB27B6883F81922BD
:104010007B681B691B0CDAB27B6883F81A227B6809
:104020001B691B0EDAB27B6883F81B227B68DB6896
:10403000DAB27B6883F81C227B68DB681B12DAB279
:104040007B6883F81D227B68DB681B0CDAB27B6817
:1040500083F81E227B68DB681B0EDAB27B6883F86C
:104060001F227B68DB695A1C7B68DA627B685878A0
:104070007B6803F130017B68DA6A012304F026F9DA
:104080007B6800225A717B685B7800220021184609
:1040900004F048F90346002B01D00123FB73FB7B9E
:1040A00018461037BD4680BD80B483B000AF78603D
:1040B00039603B68023B3B607B685B699A1E3B68EA
:1040C0009A4201D8002308E07B689B781A463B6837
:1040D00003FB02F27B689B6A134418460C37BD460B
:1040E0005DF8047B704700BF80B586B000AF786094
:1040F00039603B68012B04D97B685A693B689A4256
:1041000001D801239BE07B681B78022B46D0032B50
:1041100064D0012B40F091803B687B617B695B0838
:104120007A6913447B617B681A6A7B695B0A134472
:1041300019467868FFF7F2FE0346002B76D17B69BB
:10414000C3F308037A68134493F830303B617B690A
:1041500001337B617B681A6A7B695B0A13441946E9
:104160007868FFF7DBFE0346002B61D17B69C3F360
:1041700008037A68134493F830301B021A463B69EF
:1041800013433B613B6803F00103002B02D03B6902
:104190001B0954E03B69C3F30B0350E07B681A6AC8
:1041A0003B681B0A134419467868FFF7B7FE0346BD
:1041B000002B3FD13B685B0003F4FF7330337A6818
:1041C0001344FB60FB6801331B781B029AB2FB6847
:1041D0001B789BB213439BB29BB230E07B681A6A98
:1041E0003B68DB09134419467868FFF797FE0346DE
:1041F000002B21D13B689B0003F4FE7330337A68B7
:104200001344FB60FB6803331B781A06FB68023318
:104210001B781B041343FA6801321278120213430D
:10422000FA681278134323F0704308E000BF04E0FB
:1042300000BF02E000BF00E000BF4FF0FF331846B0
:104240001837BD4680BD00BF80B588B000AFF860AC
:10425000B9607A60BB68012B04D9FB685A69BB68F6
:104260009A4202D80223FB77E7E0FB681B78022B17
:1042700072D0032B00F09180012B40F0D180BB68FD
:10428000BB61BB695B08BA691344BB61FB681A6A0E
:10429000BB695B0A13441946F868FFF73FFE034603
:1042A000FB77FB7F002B40F0BE80BB69C3F30803A4
:1042B0003033FA6813447B61BB6803F00103002BC1
:1042C0000FD07B691B78DBB203F00F03DAB27B6897
:1042D0001B01DBB223F00F03DBB21343DBB2DBB213
:1042E00001E07B68DBB27A691370BB690133BB61A3
:1042F000FB6801221A71FB681A6ABB695B0A1344E6
:104300001946F868FFF70AFE0346FB77FB7F002B90
:1043100040F08B80BB69C3F308033033FA68134461
:104320007B61BB6803F00103002B03D07B681B0992
:10433000DBB20EE07B691B78DBB223F00F03DAB24D
:104340007B681B0ADBB203F00F03DBB21343DBB263
:10435000DBB27A6913706DE0FB681A6ABB681B0AEE
:1043600013441946F868FFF7D9FD0346FB77FB7F36
:10437000002B5CD1BB685B0003F4FF733033FA6839
:1043800013447B617B68DAB27B691A707B69013305
:104390007A681212D2B21A704CE0FB681A6ABB68D3
:1043A000DB0913441946F868FFF7B8FD0346FB77AD
:1043B000FB7F002B3DD1BB689B0003F4FE733033C1
:1043C000FA6813447B617B6903331B781A067B69A7
:1043D00002331B781B0413437A69013212781202EC
:1043E00013437A691278134303F070437A681343D6
:1043F0007B607B68DAB27B691A707B6901337A680B
:104400001212D2B21A707B6902337A68120CD2B2DD
:104410001A707B6903337A68120ED2B21A7009E0FF
:104420000223FB7706E000BF04E000BF02E000BF0C
:1044300000E000BFFB6801221A71FB7F184620379D
:10444000BD4680BD80B584B000AF786039603B6800
:10445000012B04D97B685A693B689A4202D802232F
:10446000FB733DE00023FB7331E039687868FFF7A8
:104470003BFEB860BB68002B2FD0BB68012B02D17C
:104480000223FB732CE0BB68B3F1FF3F02D1012391
:10449000FB7325E0002239687868FFF7D5FE0346F4
:1044A000FB73FB7B002B1AD17B681B69B3F1FF3FC9
:1044B0000BD07B681B695A1C7B681A617B685B792F
:1044C00043F00103DAB27B685A71BB683B607B68DA
:1044D0005A693B689A42C8D802E000BF00E000BFBA
:1044E000FB7B18461037BD4680BD00BF80B586B047
:1044F00000AF786039603B68002B0DD17B68DB68CA
:104500003B613B69002B04D07B685A693B699A4246
:1045100015D801233B6112E039687868FFF7E4FDA4
:10452000B860BB68012B01D8012368E07B685A6939
:10453000BB689A4201D9BB6861E03B683B613B695B
:104540007B617B6901337B617B685A697B699A4235
:1045500007D802237B617A693B699A4201D900231B
:104560004DE079697868FFF7BFFDB860BB68002B44
:104570000ED0BB68B3F1FF3F02D0BB68012B01D165
:10458000BB683CE07A693B699A42DAD1002336E0A5
:1045900000BF6FF0704279697868FFF755FE0346F7
:1045A000FB73FB7B002B09D13B68002B06D07A699B
:1045B00039687868FFF748FE0346FB73FB7B002BE6
:1045C00014D17B687A69DA607B681B69B3F1FF3FBD
:1045D00014D07B681B695A1E7B681A617B685B7903
:1045E00043F00103DAB27B685A7107E0FB7B012BD1
:1045F00002D14FF0FF3300E001237B617B69184655
:104600001837BD4680BD00BF80B584B000AF78606C
:104610000B467B807B687A88DA807B689B68FB60CE
:10462000FB68012B05D07B681B685A69FB689A42BE
:1046300001D8022366E0FB68002B08D17B681B6869
:104640001B78032B03D17B681B685B6AFB60FB68EC
:10465000002B14D17B68FA68DA607B681B681B89C1
:104660007A889A4201D302234CE07B681B685B6A1C
:104670007A88120992B21A447B681A6136E07B6824
:104680001B689B789BB21B017B811BE07B681B68CE
:10469000F9681846FFF728FDF860FB68B3F1FF3FA3
:1046A00001D101232EE0FB68012B05D97B681B6833
:1046B0005A69FB689A4201D8022323E07A887B89F1
:1046C000D31A7B807A887B899A42DFD27B68FA682A
:1046D000DA607B681B68F9681846FFF7E5FC02465C
:1046E0007B881B099BB21A447B681A617B681B6834
:1046F00003F130027B8803F00F035B011A447B68EF
:104700005A61002318461037BD4680BD90B585B06C
:1047100000AF786039607B68DB8801333B813B897F
:10472000002B03D07B681B69002B01D10423BBE065
:104730003B8903F00F039BB2002B40F0A6807B68FF
:104740001B695A1C7B681A617B68DB68002B08D1E7
:104750007B681B681B893A899A42C0F096800423C3
:10476000A2E03B891B099BB21A467B681B689B78B9
:10477000013B1340002B40F088807B681A687B68FF
:10478000DB6819461046FFF7AFFCF860FB68012BA9
:1047900001D8022388E0FB68B3F1FF3F01D1012378
:1047A00082E07B681B685A69FB689A4261D83B6863
:1047B000002B01D1042377E07B681A687B68DB68F3
:1047C00019461046FFF792FEF860FB68002B01D1F6
:1047D000072369E0FB68012B01D1022364E0FB6839
:1047E000B3F1FF3F01D101235EE07B681B681846EF
:1047F000FFF752FB0346002B01D0012354E07B68F6
:104800001B6830334FF4007200211846FFF7E6FAB8
:104810007B681C687B681B68F9681846FFF744FCD6
:104820000346E3620023FB7215E07B681B680122EC
:104830001A717B681B681846FFF72EFB0346002B96
:1048400001D0012330E07B681B68DA6A0132DA624A
:10485000FB7A0133FB727B681B689B78FA7A9A4279
:10486000E3D37B681B687A681268D16AFA7A8A1A7D
:10487000DA627B68FA68DA607B681B68F968184658
:10488000FFF712FC02467B681A617B683A89DA807E
:104890007B681B6803F130023B8903F00F035B0167
:1048A0001A447B685A61002318461437BD4690BDF0
:1048B00080B584B000AF7860396000217868FFF778
:1048C000A3FE0346FB73FB7B002B2DD10023BB60B3
:1048D0007B681A687B681B6919461046FFF71EFB48
:1048E0000346FB73FB7B002B1DD17B685B691B7848
:1048F000E52B04D07B685B691B78002B07D1BB6874
:104900000133BB60BA683B689A4202D10CE00023D5
:10491000BB6001217868FFF7F9FE0346FB73FB7B60
:10492000002BD5D000E000BFFB7B042B01D1072377
:10493000FB73FB7B18461037BD4680BD80B485B045
:1049400000AF786039603B681B331B781B029AB25A
:104950003B681A331B789BB213439BB29BB2FB603C
:104960007B681B78032B0FD13B6815331B781B0228
:104970009AB23B6814331B789BB213439BB29BB231
:104980001B04FA681343FB60FB6818461437BD46E6
:104990005DF8047B704700BF80B483B000AF7860DF
:1049A00039607B681A333A68D2B21A707B681B335D
:1049B0003A681212D2B21A707B6814333A68120C39
:1049C000D2B21A707B6815333A68120C1212D2B246
:1049D0001A7000BF0C37BD465DF8047B704700BFFE
:1049E00080B586B000AF786000217868FFF70CFED4
:1049F0000346FB75FB7D002B01D0FB7D37E07B6818
:104A00001A687B681B6919461046FFF787FA034648
:104A1000FB75FB7D002B26D17B685B693B613B69A5
:104A20001B78FB73FB7B002B02D10423FB751DE07D
:104A30003B690B331B7803F00803002B09D17B681B
:104A40009B690B2219463869FFF7E2F90346002BF0
:104A50000BD000217868FFF759FE0346FB75FB7DFC
:104A6000002BCCD002E000BF00E000BFFB7D184669
:104A70001837BD4680BD00BF80B586B000AF7860F6
:104A800039600423FB753AE07B681A687B681B6910
:104A900019461046FFF742FA0346FB75FB7D002BD3
:104AA00032D17B685B693B613B691B78FB73FB7BA5
:104AB000002B02D10423FB752BE03B690B331B78E1
:104AC00003F03F03BB73FB7BE52B0FD0FB7B2E2B4F
:104AD0000CD0BB7B0F2B09D0BB7B082B0CBF012359
:104AE0000023DBB21A463B689A420FD00021786857
:104AF000FFF70CFE0346FB75FB7D002B08D17B689E
:104B00001B69002BC0D104E000BF02E000BF00E041
:104B100000BFFB7D002B02D07B6800221A61FB7D69
:104B200018461837BD4680BD80B584B000AF7860A8
:104B300001217868FFF7BCFE0346FB73FB7B002B6B
:104B40001FD17B681A687B681B6919461046FFF7FE
:104B5000E5F90346FB73FB7B002B12D17B685B6995
:104B6000202200211846FFF739F97B6858697B68D5
:104B70009B690B221946FFF713F97B681B6801221A
:104B80001A71FB7B18461037BD4680BD80B58AB0D0
:104B900000AF786039603B681B687B6102E07B692D
:104BA00001337B617B691B782F2BF8D07B691B78E5
:104BB0005C2BF4D07B689B693B610B222021386918
:104BC000FFF70CF9002387F827300023BB61BB698E
:104BD000FB6108233B62FB695A1CFA617A69134442
:104BE0001B7887F8263097F82630202B40F2A180DA
:104BF00097F826302F2B00F09C8097F826305C2BFE
:104C000000F0978097F826302E2B03D0BA693B6AC4
:104C10009A4212D33B6A082B03D197F826302E2BE9
:104C200001D00623C5E00823BB610B233B6297F844
:104C300027309B0087F827307AE097F826305BB260
:104C4000002B05DA97F8273043F0030387F8273065
:104C500097F82630802B03D997F826309F2B07D959
:104C600097F82630DF2B2ED997F82630FC2B2AD840
:104C7000FB695A1CFA617A6913441B78FB73FB7B4E
:104C80003F2B02D9FB7B7E2B06D9FB7B5BB2002B33
:104C900007DAFB7BFC2B04D83B6A5A1EBB699A429D
:104CA00001D8062385E0BB695A1CBA613A691344EE
:104CB00097F826201A70BB695A1CBA613A691344E6
:104CC000FA7B1A7034E097F8263019463B48FFF714
:104CD000C7F80346002B01D006236AE097F8263078
:104CE000402B0AD997F826305A2B06D897F8273048
:104CF00043F0020387F8273012E097F82630602B44
:104D00000ED997F826307A2B0AD897F8273043F037
:104D1000010387F8273097F82630203B87F82630A4
:104D2000BB695A1CBA613A69134497F826201A7075
:104D300051E77A69FB691A443B681A6097F8263094
:104D4000202B01D8042300E0002387F82630BB691C
:104D5000002B01D106232CE03B691B78E52B02D107
:104D60003B6905221A703B6A082B04D197F827305B
:104D70009B0087F8273097F8273003F00303012BB7
:104D800005D197F8263043F0100387F8263097F8BE
:104D9000273003F00C03042B05D197F8263043F09D
:104DA000080387F826303B690B3397F826201A70E2
:104DB000002318462837BD4680BD00BF048B00087D
:104DC00080B487B000AF786039603B6809333B61DD
:104DD0007B681B69002B59D07B685B69BB60002333
:104DE0007B611CE07B695A1C7A61BA6813441B78AA
:104DF000FB73FB7B202B00D111E0FB7B052B01D14A
:104E0000E523FB737B69092B04D13B695A1C3A618A
:104E10002E221A703B695A1C3A61FA7B1A707B6920
:104E20000A2BDFD9BB68DA7A3B681A72BB681F337A
:104E30001B781A06BB681E331B781B041343BA6821
:104E40001D32127812021343BA681C3212781A43C8
:104E50003B681A60BB6819331B781B029AB2BB68A7
:104E600018331B789BB213439BB29AB23B689A806B
:104E7000BB6817331B781B029AB2BB6816331B78CA
:104E80009BB213439BB29AB23B68DA803B69002223
:104E90001A7000BF1C37BD465DF8047B704700BF29
:104EA00080B485B000AF78604FF0FF33FB607B6863
:104EB0001B68002B1BD07B681B681B78303BFB609A
:104EC000FB68082B11D87B681B6801331B783A2BD1
:104ED0000BD17B681B689A1C7B681A60FB68002BEF
:104EE00005DD4FF0FF33FB6001E00023FB60FB6852
:104EF00018461437BD465DF8047B704780B584B012
:104F000000AF786039603B681B782F2B03D03B687B
:104F10001B785C2B02D13B6801333B607B6800222D
:104F20009A603B681B781F2B09D800217868FFF72F
:104F30006BFB0346FB737B6800225A6141E03B46F2
:104F400019467868FFF722FE0346FB73FB7B002BB4
:104F500032D17868FFF744FD0346FB737B689B6999
:104F6000DB7ABB73FB7B002B0AD0FB7B042B25D1A8
:104F7000BB7B03F00403002B20D10523FB731DE052
:104F8000BB7B03F00403002B1AD17B685B69BB6019
:104F9000BB680B331B7803F01003002B02D10523F1
:104FA000FB730EE07B681B68B9681846FFF7C6FC08
:104FB00002467B689A60C2E700BF02E000BF00E0E3
:104FC00000BFFB7B18461037BD4680BD80B582B060
:104FD00000AF786039607B6800221A717B684FF0FF
:104FE000FF32DA6239687868FEF798FF0346002BD3
:104FF00001D003234BE07B6803F22E2301331B789F
:105000001B029AB27B6893F82E329BB213439BB279
:105010001BB2214A934201D0022338E07B686633F9
:1050200003331B781A067B68663302331B781B0434
:1050300013437A68663201321278120213437A6897
:1050400092F86620134323F07F43144A934201D120
:1050500000231CE07B68823303331B781A067B68CD
:10506000823302331B781B0413437A688232013285
:105070001278120213437A6892F88220134323F0C5
:105080007F43064A934201D1002300E001231846E2
:105090000837BD4680BD00BF55AAFFFF46415400FA
:1050A00080B596B000AFF860B9601346FB71FB683D
:1050B00000221A60B868FFF7F3FEF863FB6B002B61
:1050C00001DA0B2392E29B4AFB6B52F82330BB635D
:1050D000BB6B002B01D10C2388E2FB68BA6B1A6012
:1050E000BB6B1B78002B1AD0BB6B5B78184603F0A8
:1050F000ADF8034687F8373097F8373003F00103EF
:10510000002B0CD1FB79002B07D097F8373003F038
:105110000403002B01D00A2368E2002366E2BB6B84
:1051200000221A70FB6BDAB2BB6B5A70BB6B5B78F8
:10513000184603F077F8034687F8373097F837308A
:1051400003F00103002B01D003234FE2FB79002B76
:1051500007D097F8373003F00403002B01D00A235F
:1051600044E200233B65396DB86BFFF72FFF034620
:1051700087F8573097F85730012B57D100233B64FD
:105180002BE0BB6B03F130023B6C1B0103F5DF73BB
:1051900013443B633B6B04331B78002B12D03B6BF7
:1051A0000B331B781A063B6B0A331B781B04134323
:1051B0003A6B09321278120213433A6B08321278B2
:1051C0001A4300E000223B6C9B0007F158010B449E
:1051D00043F8442C3B6C01333B643B6C032BD0D92C
:1051E00000233B643B6C002B02D03B6C013B3B64D7
:1051F0003B6C9B0007F15802134453F8443C3B6559
:105200003B6D002B05D0396DB86BFFF7DFFE034611
:1052100000E0022387F8573097F85730002B05D06D
:105220003B6C01333B643B6C032BE1D997F857305F
:10523000032B01D10123D9E197F85730002B01D07E
:105240000D23D3E1BB6B93F83C301B029AB2BB6BCE
:1052500093F83B309BB213439BB21BB2B3F5007F74
:1052600001D00D23C2E1BB6B93F847301B029AB209
:10527000BB6B93F846309BB213439BB29BB2FB646B
:10528000FB6C002B12D1BB6B93F857301A06BB6B2B
:1052900093F856301B041343BA6B92F85520120250
:1052A0001343BA6B92F854201343FB64BB6BFA6C44
:1052B0009A61BB6B93F84020BB6BDA70BB6BDB78F9
:1052C000012B05D0BB6BDB78022B01D00D238DE1C8
:1052D000BB6BDB781A46FB6C02FB03F3FB64BB6B16
:1052E00093F83D20BB6B9A70BB6B9B78002B08D06A
:1052F000BB6B9B781A46BB6B9B78013B1340002B22
:1053000001D00D2372E1BB6B93F842301B029AB2BD
:10531000BB6B93F841309BB213439BB29AB2BB6B09
:105320001A81BB6B1B8903F00F039BB2002B03D0C8
:105330000D235BE198040020BB6B93F844301B0203
:105340009AB2BB6B93F843309BB213439BB29BB2B0
:10535000BB64BB6C002B12D1BB6B93F853301A06A5
:10536000BB6B93F852301B041343BA6B92F8512075
:1053700012021343BA6B92F850201343BB64BB6B09
:1053800093F83F301B029AB2BB6B93F83E309BB24E
:1053900013439BB2FB85FB8D002B01D10D2325E12F
:1053A000FA8DFB6C1344BA6B1289120992B2134442
:1053B000BB62BA6CBB6A9A4201D20D2316E1BA6C89
:1053C000BB6AD31ABA6B9278B3FBF2F37B627B6A47
:1053D000002B01D10D2309E1012387F857307B6AA7
:1053E00040F6F572934202D9022387F857307B6A60
:1053F0004FF6F572934202D9032387F857307B6A40
:105400009A1CBB6B5A61BB6B3A6DDA61FA8D3B6DCE
:105410001A44BB6B1A623A6DBB6A1A44BB6B9A6240
:1054200097F85730032B1ED1BB6B1B89002B01D083
:105430000D23DBE0BB6B93F85F301A06BB6B93F870
:105440005E301B041343BA6B92F85D2012021343C3
:10545000BA6B92F85C201A43BB6B5A62BB6B5B69F8
:105460009B007B641FE0BB6B1B89002B01D10D23CC
:10547000BCE0BB6B1A6AFB6C1A44BB6B5A6297F8B0
:105480005730022B03D1BB6B5B695B000AE0BB6B3F
:105490005A6913465B0013445A08BB6B5B6903F0FF
:1054A000010313447B64BB6B9A697B6C03F2FF13AB
:1054B0005B0A9A4201D20D2398E0BB6B4FF0FF329A
:1054C0001A61BB6B1A69BB6BDA60BB6B80225A71C5
:1054D00097F85730032B7AD1BB6B93F861301B02DE
:1054E0009AB2BB6B93F860309BB213439BB21BB272
:1054F000012B6CD13B6D01331946B86BFEF70EFDE5
:105500000346002B63D1BB6B00225A71BB6B93F82F
:105510002F321B029AB2BB6B93F82E329BB213430D
:105520009BB21BB2334A934251D1BB6B93F83330D9
:105530001A06BB6B93F832301B041343BA6B92F814
:10554000312012021343BA6B92F8302013432A4AD7
:1055500093423CD1BB6B93F817321A06BB6B93F89E
:1055600016321B041343BA6B92F81522120213432E
:10557000BA6B92F814221343204A934227D1BB6B93
:1055800093F81B321A06BB6B93F81A321B041343B1
:10559000BA6B92F8192212021343BA6B92F81822CE
:1055A0001A43BB6B1A61BB6B93F81F321A06BB6BB5
:1055B00093F81E321B041343BA6B92F81D22120299
:1055C0001343BA6B92F81C221A43BB6BDA60BB6BB5
:1055D00097F857201A700A4B1B8801339AB2084B70
:1055E0001A80074B1A88BB6BDA800023184658379D
:1055F000BD4680BD55AAFFFF5252614172724161A2
:105600009C04002080B584B000AF78607B68FB60AC
:10561000FB68002B0FD0FB681B68002B0BD0FB68CE
:105620001B681B78002B06D0FB681B68DA88FB68B8
:105630009B889A4201D009230DE0FB681B685B78C8
:10564000184602F003FE034603F00103002B01D0CD
:10565000032300E0002318461037BD4680BD00BF7D
:1056600080B588B000AFF860B9601346FB7107F1F0
:1056700008031846FFF714FCF861FB69002B01DAF8
:105680000B2328E0164AFB6952F82330BB61BB6943
:10569000002B02D0BB6900221A70FB68002B02D0DD
:1056A000FB6800221A70FA680D49FB6941F8232053
:1056B000FB68002B02D0FB79012B01D000230AE00C
:1056C00007F1080107F10C0300221846FFF7E8FC78
:1056D0000346FB75FB7D18462037BD4680BD00BFE5
:1056E0009804002080B592B000AFF860B96013460E
:1056F000FB71FB68002B01D109232DE1FB6800221F
:105700001A60FB7903F01F03FB71FB7923F001039F
:10571000DAB207F1080107F11C031846FFF7C0FCD5
:10572000034687F8473097F84730002B40F0128146
:1057300007F110037B63BA6807F11C031146184692
:10574000FFF7DCFB034687F847303B6B3B6497F879
:105750004730002B05D13B6C002B02D1062387F884
:105760004730FB7903F01C03002B00F08D8097F885
:105770004730002B12D097F84730042B07D107F1A0
:105780001C031846FFF7D0F9034687F84730FB792A
:1057900043F00803FB713B6B3B6412E03B6C0B3343
:1057A0001B7803F01103002B03D0072387F8473041
:1057B00007E0FB7903F00403002B02D0082387F8ED
:1057C000473097F84730002B7CD1FB7903F0080372
:1057D000002B77D002F0DCFDF8633B6C0E33FA6BE4
:1057E000D2B21A703B6C0F33FA6B1212D2B21A702B
:1057F0003B6C1033FA6B120CD2B21A703B6C113343
:10580000FA6B120ED2B21A703B6C0B3300221A7074
:105810003B6C1C3300221A703B6C1D3300221A7043
:105820003B6C1E3300221A703B6C1F3300221A702F
:10583000FB69396C1846FFF781F8B8630021386CB2
:10584000FFF7AAF8FB6901221A71BB6B002B39D054
:10585000FB69DB6AFB63FB69B96B1846FEF7F2FD77
:10586000034687F8473097F84730002B2AD1FB6969
:10587000BA6B013ADA60FB69F96B1846FEF74EFB2A
:10588000034687F847301DE097F84730002B19D1C1
:105890003B6C0B331B7803F01003002B03D0042365
:1058A00087F847300EE0FB7903F00203002B09D0A4
:1058B0003B6C0B331B7803F00103002B02D0072352
:1058C00087F8473097F84730002B0FD1FB7903F06A
:1058D0000803002B03D0FB7943F02003FB71FB6925
:1058E000DA6AFB68DA61FB683A6C1A6297F847304B
:1058F000002B2FD1FB68FA799A71FB680022DA71CC
:10590000FB69396C1846FFF719F80246FB681A6103
:105910003B6C1F331B781A063B6C1E331B781B0431
:1059200013433A6C1D321278120213433A6C1C3244
:1059300012781A43FB68DA60FB6800229A60FB6801
:1059400000229A61FA69FB681A60FB681B68DA88B2
:10595000FB689A8097F8473018464837BD4680BDA7
:1059600080B58CB000AFF860B9607A603B60BB680E
:105970003B623B6800221A60F868FFF743FE03466B
:10598000FB77FB7F002B01D0FB7F1DE1FB68DB7900
:10599000002B02D0FB68DB7916E1FB689B7903F0F2
:1059A0000103002B01D107230EE1FB68DA68FB68D5
:1059B0009B68D31ABB617A68BB699A4240F2FF8048
:1059C000BB697B60FBE0FB689B68C3F30803002BAB
:1059D00040F0C780FB689B685B0ADAB2FB681B6813
:1059E0009B78013BDBB21340FB75FB7D002B24D180
:1059F000FB689B68002B03D1FB681B69FB6208E016
:105A0000FB681A68FB685B6919461046FEF76CFB79
:105A1000F862FB6A012B04D8FB680222DA710223C8
:105A2000D2E0FB6AB3F1FF3F04D1FB680122DA71D7
:105A30000123C9E0FB68FA6A5A61FB681A68FB68CF
:105A40005B6919461046FEF72FFB38613B69002B56
:105A500004D1FB680222DA710223B5E0FB7D3A69CA
:105A600013443B617B685B0A7B627B6A002B3ED000
:105A7000FA7D7B6A1344FA6812689278934206D9D9
:105A8000FB681B689B781A46FB7DD31A7B62FB6818
:105A90001B6858787B6ADBB23A69396A02F0EAFB24
:105AA0000346002B04D0FB680122DA7101238BE04E
:105AB000FB689B7903F04003002B14D0FB689A69C4
:105AC0003B69D21A7B6A9A420DD2FB689A693B699C
:105AD000D31A5B023A6AD018FB6824334FF4007281
