:020000040800F2
:10000000F035012089010008F5010008F50100081C
:10001000F5010008F5010008F501000800000000E6
:10002000000000000000000000000000F12C0008AB
:10003000F501000800000000012F0008692F0008EA
:10004000F5010008F5010008F5010008F5010008B8
:10005000F5010008F5010008F5010008F5010008A8
:10006000F5010008F5010008F5010008F501000898
:10007000F5010008F5010008F5010008F501000888
:10008000F5010008F5010008F5010008F501000878
:10009000F5010008F5010008F5010008F501000868
:1000A000F5010008F5010008F5010008F501000858
:1000B000ED050008F5010008F5010008F50100084C
:1000C000F5010008F5010008F5010008F501000838
:1000D000F5010008F5010008F5010008F501000828
:1000E000F5010008F5010008F5010008F501000818
:1000F000F5010008F5010008F5010008F501000808
:10010000F5010008F5010008F5010008F5010008F7
:10011000F5010008F5010008F5010008F5010008E7
:10012000F5010008F5010008F5010008F5010008D7
:10013000F5010008F5010008F5010008F5010008C7
:10014000F5010008F5010008F5010008F5010008B7
:10015000F5010008F5010008F5010008F5010008A7
:10016000F5010008F5010008F5010008F501000897
:10017000F5010008F5010008F5010008F501000887
:10018000F5010008F501000880B582B000AF134BFF
:100190007B60134B3B6007E03B681A1D3A607A684E
:1001A000111D796012681A603B680E4A9342F3D3BE
:1001B0000D480E494FF000028842B8BF40F8042BAA
:1001C000FADBDFF82C00016841F47001016000F0F7
:1001D00045FA00BF0837BD4680BD00BF513B00084F
:1001E000000000201800002018000020EC2D012045
:1001F00088ED00E080B400AFFEE700BF80B483B0BC
:1002000000AF786002E07B68013B7B607B68002B7D
:10021000F9DC00BF0C37BD465DF8047B704700BFBA
:1002200080B500AF01210F2000F034FB01214FF415
:10023000021000F04FFB012000F072FA2E4B10224A
:100240001A602D4B01221A712B4B0222DA712A4BB4
:1002500000229A71284B02225A712749274801F03F
:10026000BDFD254B02221A71234B01229A71224BAC
:100270004FF410721A60204B0022DA711E4B0222DA
:100280005A711D491E4801F0A9FD042206211C488F
:1002900001F052FE04220921194801F04DFE164BCF
:1002A00000229A71144B4FF4A4521A601249154857
:1002B00001F094FD104B10221A600F49124801F012
:1002C0008DFD06220421104801F036FE062207218A
:1002D0000C4801F031FE06220A210A4801F02CFEEA
:1002E00006220C21074801F027FE1021034801F0E7
:1002F00013FE00BF80BD00BFA42D0120000C0240F2
:1003000000040240000802400000024080B500AF37
:100310000E4802F0A5FE0E4B4BF680329A600C4B55
:100320004FF40072DA800A4B00229A80084B4FF497
:1003300000721A80064B00225A80054B00229A81D7
:100340000349024802F0C6FE00BF80BD003C0040E9
:10035000942D012080B500AF104802F0E1FF104B52
:10036000104A1A600E4B00229A800D4B33221A81DC
:100370000B4B4FF480625A81094B4FF480429A81B3
:10038000074B4BF6FF72DA800121044803F0C4F8F2
:100390000349024802F0FEFF00BF80BD0054004048
:1003A000842D0120A086010080B584B000AF786064
:1003B0000B46FB700023FB7300BF4FF40031234852
:1003C00003F068F90346002BF7D101211F4803F021
:1003D000C3F800BF1E491D4803F05CF90346002B1B
:1003E000F8D000229421194803F0F6F800BF19490B
:1003F000164803F01FF90346002BF8D012E0FB7BF0
:100400007A6813441B781946104803F003F9FB7B04
:100410000133FB7300BF10490C4803F00BF903468E
:10042000002BF8D0FA7BFB789A42E8D300BF0B4947
:10043000064803F02FF90346002BF8D001210348AA
:1004400003F0AAF800BF1037BD4680BD005400403D
:100450000100001082000700800007000400001067
:1004600080B582B000AF1021554801F045FD4FF630
:10047000FF70FFF7C3FE4FF6FF70FFF7BFFE4FF6AA
:10048000FF70FFF7BBFE4FF6FF70FFF7B7FE4FF6AA
:10049000FF70FFF7B3FE0D233B7101237B713B1D02
:1004A00002211846FFF780FF00233B7199237B71DF
:1004B0003B1D02211846FFF777FF47233B7180233E
:1004C0007B713B1D02211846FFF76EFF32233B7103
:1004D000FF237B713B1D02211846FFF765FF322386
:1004E0003B717F237B713B1D02211846FFF75CFFA8
:1004F00000233B7100237B713B1D02211846FFF74F
:1005000053FF04233B71AF237B713B1D022118462F
:10051000FFF74AFF0D233B7170237B713B1D0221C6
:100520001846FFF741FF05233B7181237B713B1D7B
:1005300002211846FFF738FF06233B7107237B7122
:100540003B1D02211846FFF72FFF0A233B710023B2
:100550007B713B1D02211846FFF726FF27233B71C5
:1005600000237B713B1D02211846FFF71DFF1A2354
:100570003B710A237B713B1D02211846FFF714FFD4
:100580001B233B710A237B713B1D02211846FFF799
:100590000BFF1F233B710F237B713B1D022118466C
:1005A000FFF702FF02233B719E237B713B1D02215B
:1005B0001846FFF7F9FE00BF0837BD4680BD00BFF3
:1005C000000C024080B582B000AF7860FFF728FED3
:1005D000FFF7C0FEFFF79AFEFFF742FF0121024836
:1005E00002F052FEFEE700BF003C004080B500AFC5
:1005F00001214FF0804003F079F90346002B26D00B
:1006000001214FF0804003F09BF90221104802F0D5
:100610006BFE0346002B05D14FF480510D4801F0CD
:100620006BFC14E04FF480510A4801F075FC0A4B52
:100630001B78002B01D0002200E0FF22064B1A702D
:10064000054B1B789BB21946014802F03DFE80BD68
:10065000003C0040000C02401800002080B582B031
:1006600002AF01F069FD00BF00F032F80346002B35
:10067000FAD000230193012300930023822205492D
:10068000054800F08FFC00F0C3FD00231846BD466E
:1006900080BD00BF343B0008C505000880B400AF32
:1006A00000BFBD465DF8047B704700BF80B400AF5B
:1006B000FEE700BF80B483B000AF78603960FEE72A
:1006C00080B400AF00BFBD465DF8047B704700BF3B
:1006D00080B582B000AF00233B600023FB71002394
:1006E000BB71312000F056F90346BB713B68013302
:1006F0003B603B68B3F5A06F02D0BB79002BF0D014
:10070000312000F047F90346002B02D00123FB7192
:1007100001E00023FB71FB7918460837BD4680BD18
:1007200080B483B000AF0346FB71044AFB791360C9
:1007300000BF0C37BD465DF8047B70476800474238
:1007400080B489B000AF78600023BB6100237B6177
:100750000023FB6102233B610023FB600223BB609B
:10076000484B9B6803F00C03BB61BB69042B07D0AB
:10077000082B09D0002B3FD17B68434A1A603FE029
:100780007B68424A1A603BE03E4B5B6803F480039F
:100790009B0DFB603B4B5B6803F03F03BB60FB685A
:1007A000002B0DD0394ABB68B2FBF3F2354B5968C8
:1007B00047F6C0730B409B0903FB02F3FB610CE09F
:1007C000314ABB68B2FBF3F22E4B596847F6C0734F
:1007D0000B409B0903FB02F3FB612A4B5B6803F4AC
:1007E00040331B0C01335B003B61FA693B69B2FB90
:1007F000F3F27B681A6003E07B68234A1A6000BF4B
:10080000204B9B6803F0F003BB61BB691B09BB6114
:100810001F4ABB6913441B78DBB27B617B681A6893
:100820007B69DA407B685A60164B9B6803F4E0539F
:10083000BB61BB699B0ABB61154ABB6913441B784A
:10084000DBB27B617B685A687B69DA407B689A60BF
:100850000C4B9B6803F46043BB61BB695B0BBB61E2
:100860000B4ABB6913441B78DBB27B617B685A6817
:100870007B69DA407B68DA6000BF2437BD465DF8EB
:10088000047B7047003802400024F40000127A0014
:100890000000002080B483B000AF78600B46FB708E
:1008A000FB78002B06D00A49094B1A6B7B6813436F
:1008B0000B6306E00649064B1A6B7B68DB4313406B
:1008C0000B6300BF0C37BD465DF8047B704700BF6B
:1008D0000038024080B483B000AF78600B46FB70F4
:1008E000FB78002B06D00A49094B1A6C7B6813432E
:1008F0000B6406E00649064B1A6C7B68DB43134029
:100900000B6400BF0C37BD465DF8047B704700BF29
:100910000038024080B483B000AF78600B46FB70B3
:10092000FB78002B06D00A49094B1A6A7B681343EF
:100930000B6206E00649064B1A6A7B68DB431340EC
:100940000B6200BF0C37BD465DF8047B704700BFEB
:100950000038024080B483B000AF78600B46FB7073
:10096000FB78002B06D00A49094B5A6A7B6813436F
:100970004B6206E00649064B5A6A7B68DB4313402C
:100980004B6200BF0C37BD465DF8047B704700BF6B
:100990000038024080B487B000AF0346FB710023EB
:1009A000FB6000237B610023FB74FB795B09DBB2F6
:1009B000FB60FB68012B03D1124B1B687B6109E0D4
:1009C000FB68022B03D10F4B1B6F7B6102E00D4BC9
:1009D0005B6F7B61FB7903F01F03FB607A69FB6847
:1009E00022FA03F303F00103002B02D00123FB746E
:1009F00001E00023FB74FB7C18461C37BD465DF804
:100A0000047B70470038024080B586B002AF0023F7
:100A1000FB604FF482737B8100F08EFA104B1B68F1
:100A2000002B0AD07A890F4B0193022300930023F5
:100A30000D490E4800F0B6FAF860FB68002B09D1AA
:100A40004FF0500383F31188BFF36F8FBFF34F8FC5
:100A50007B60FEE7FB6818461037BD4680BD00BFCF
:100A60004C000020500000203C3B0008890B00088F
:100A700080B58AB000AFF860B9607A603B6000234F
:100A80007B62FB68002B09D14FF0500383F3118880
:100A9000BFF36F8FBFF34F8F3B62FEE7194B1B68AD
:100AA000002B2AD0BB687B617B68BB61FB68FB6164
:100AB000BB68052B18DC00F0FFFF0346022B09D1B1
:100AC000104B186807F1140100233A6B01F0ACFCDD
:100AD000786212E00B4B186807F114010023002222
:100AE00001F0A2FC786208E0064B186807F11401D7
:100AF00000233A6801F094FD78627B6A1846283733
:100B0000BD4680BD4C00002080B588B002AF786043
:100B100039601C4B1B68DB68DB687B617B690433D5
:100B2000184601F0DFFA7B69DB69012B21D17B6973
:100B30009A697B68D1187B683A68786900F0C8F8D0
:100B40000346002B15D00023009300237A68002170
:100B50007869FFF78DFF38613B69002B09D14FF0B1
:100B6000500383F31188BFF36F8FBFF34F8FFB6088
:100B7000FEE77B695B6A7869984700BF1837BD4616
:100B800080BD00BF4400002080B584B000AF786015
:100B900007F10803184600F057F8F860BB681946DB
:100BA000F86800F003F800F0D5F8F1E780B584B0FC
:100BB00000AF7860396000F077FB07F10803184652
:100BC00000F066F8F860BB68002B30D13B68002B62
:100BD0000AD17A68FB689A4206D800F073FBF9687C
:100BE0007868FFF791FF24E03B68002B08D0134B97
:100BF0001B681B68002B0CBF01230023DBB23B608A
:100C00000F4B18687A68FB68D31A3A68194601F0E6
:100C1000E7FF00F057FB0346002B0AD1094B4FF0CA
:100C200080521A60BFF34F8FBFF36F8F01E000F067
:100C300049FB00BF1037BD4680BD00BF4800002003
:100C40004C00002004ED00E080B485B000AF786077
:100C50000E4B1B681B68002B0CBF01230023DBB26B
:100C60001A467B681A607B681B68002B05D1074B0E
:100C70001B68DB681B68FB6001E00023FB60FB680E
:100C800018461437BD465DF8047B704744000020C9
:100C900080B584B000AF786000F0B0FBF8600B4B1B
:100CA0001B68FA689A4205D200F0E6F87B680122D8
:100CB0001A6002E07B6800221A60044AFB68136035
:100CC000FB6818461037BD4680BD00BF54000020A9
:100CD00080B586B000AFF860B9607A603B600023F1
:100CE0007B61FB68BA685A60FB68FA681A61BA6887
:100CF0007B689A4212D87A683B68D21AFB689B6973
:100D00009A4202D301237B611BE0104B1A68FB68F7
:100D100004331946104601F0ABF912E07A683B68DB
:100D20009A4206D2BA683B689A4202D301237B6199
:100D300007E0074B1A68FB6804331946104601F0B8
:100D400097F97B6918461837BD4680BD48000020DA
:100D50004400002080B58CB002AF7AE0BB68002B65
:100D600077DB3B697B627B6A5B69002B04D07B6A23
:100D70000433184601F0B6F93B1D1846FFF788FF0B
:100D80003862BB68092B63D801A252F823F000BF78
:100D9000B90D0008B90D0008B90D0008530E000880
:100DA000130E0008490E0008B90D0008B90D00081F
:100DB000530E0008130E0008FA687B6A9B69D1186D
:100DC000FB683A6A786AFFF783FF0346002B40D03E
:100DD0007B6A5B6A786A98477B6ADB69012B38D14A
:100DE000FA687B6A9B691A44002300930023002160
:100DF000786AFFF73DFEF861FB69002B29D14FF0BF
:100E0000500383F31188BFF36F8FBFF34F8F7B6164
:100E1000FEE7FA687B6A9A617B6A9B69002B09D1BD
:100E20004FF0500383F31188BFF36F8FBFF34F8FE1
:100E3000BB61FEE77B6A9A693B6AD1183B6A3A6AF2
:100E4000786AFFF745FF04E0786A02F0EBFC00E007
:100E500000BF084B186807F108010023002201F0C9
:100E600073FC0346002B7FF479AF00BF2837BD46E3
:100E700080BD00BF4C00002080B588B002AF44E0C8
:100E80002B4B1B68DB681B687B61294B1B68DB688D
:100E9000DB683B613B690433184601F023F93B6989
:100EA0005B6A386998473B69DB69012B2DD13B6947
:100EB0009A697B691344FB60FA687B699A420ED990
:100EC0003B69FA685A603B693A691A61184B1A68BB
:100ED0003B6904331946104601F0CAF815E00023B7
:100EE000009300237A6900213869FFF7C1FDB860DB
:100EF000BB68002B09D14FF0500383F31188BFF377
:100F00006F8FBFF34F8F3B60FEE7094B1B681B6879
:100F1000002BB5D1064B1B687B60064B1B68044A4F
:100F20001360044A7B68136000BF1837BD4680BD5C
:100F3000440000204800002080B500AF01F088FF89
:100F4000124B1B68002B1DD1114801F03FF81148CE
:100F500001F03CF8104B0E4A1A60104B0D4A1A6013
:100F600000220C210A2001F001FA0246074B1A6008
:100F7000064B1B68002B05D0044B1B68084918461C
:100F800001F006FE01F092FF00BF80BD4C00002082
:100F90001C000020300000204400002048000020F9
:100FA000443B000880B58CB004AFF860B9603B608A
:100FB0001346FB80FB889B00184602F09FFB78617C
:100FC0007B69002B0ED0582002F098FBF861FB697A
:100FD000002B03D0FB697A691A6305E0786902F097
:100FE00021FC01E00023FB61FB69002B11D0FA8892
:100FF000FB690293FB6A0193BB6A00933B68B96883
:10100000F86800F00FF8F86900F094F80123BB616C
:1010100002E04FF0FF33BB61BB6918462037BD4685
:1010200080BD00BF80B588B000AFF860B9603B609C
:101030001346FB803B6B186BFB889B001A46A5216F
:1010400002F02AFD3B6B1A6BFB8803F18043013BE6
:101050009B001344BB61BB6923F00703BB61BB6901
:1010600003F00703002B09D04FF0500383F31188DE
:10107000BFF36F8FBFF34F8F7B61FEE70023FB61F0
:1010800012E0BA68FB69134419783A6BFB691344A0
:1010900034330A461A70BA68FB6913441B78002B74
:1010A00006D0FB690133FB61FB69092BE9D900E03C
:1010B00000BF3B6B002283F83D20BB6A042B01D9A3
:1010C0000423BB623B6BBA6ADA623B6BBA6A9A640E
:1010D0003B6B0022DA643B6B0433184600F096FF4A
:1010E0003B6B1833184600F091FF3B6B3A6B1A616B
:1010F000BB6AC3F105023B6B9A613B6B3A6B5A6268
:101100003B6B00221A653B6B002283F854203A683F
:10111000F968B86901F09AFD02463B6B1A60FB6AF8
:10112000002B02D0FB6A3A6B1A6000BF2037BD4625
:1011300080BD00BF80B582B000AF786001F088FE4E
:101140002C4B1B6801332B4A13602B4B1B68002B65
:1011500009D1294A7B681360264B1B68012B10D1EB
:1011600000F0F8FB0DE0254B1B68002B09D1224B4A
:101170001B68DA6A7B68DB6A9A4202D81E4A7B687F
:1011800013601F4B1B6801331D4A13601C4B1A6808
:101190007B681A647B68DB6A01229A40194B1B68E2
:1011A0001343184A13607B68DA6A13469B001344A2
:1011B0009B00154A1A447B6804331946104600F018
:1011C00033FF01F073FE0D4B1B68002B0ED00A4B52
:1011D0001B68DA6A7B68DB6A9A4207D20B4B4FF0D6
:1011E00080521A60BFF34F8FBFF36F8F00BF083775
:1011F000BD4680BD30010020580000203C01002089
:101200004C010020380100205C00002004ED00E0CB
:1012100080B586B002AF82237B817A891C4B019313
:101220000023009300231B491B48FFF7BBFEF86017
:10123000FB68012B02D1FFF7E7FBF860FB68012B8D
:1012400015D14FF0500383F31188BFF36F8FBFF3B5
:101250004F8F3B60114B4FF0FF321A60104B012251
:101260001A60104B00221A6001F066FD0CE0FB686A
:10127000002B09D14FF0500383F31188BFF36F8F18
:10128000BFF34F8F7B60FEE700BF1037BD4680BDC8
:10129000540100204C3B0008211900085001002097
:1012A0003C0100203401002080B400AF044B1B68D7
:1012B0000133034A136000BFBD465DF8047B7047ED
:1012C0005801002080B584B000AF0023FB600023EC
:1012D000BB60414B1B68002B09D14FF0500383F3D7
:1012E0001188BFF36F8FBFF34F8F3B60FEE701F0B4
:1012F000AFFD394B1B68013B374A1360364B1B6807
:10130000002B61D1354B1B68002B5DD02EE0344B98
:10131000DB68DB68FB60FB681833184600F0E2FE10
:10132000FB680433184600F0DDFEFB68DB6A01222F
:101330009A402C4B1B6813432A4A1360FB68DA6AF5
:1013400013469B0013449B00274A1A44FB6804334E
:101350001946104600F068FEFB68DA6A234B1B68EA
:10136000DB6A9A4202D3224B01221A601C4B1B6893
:10137000002BCCD1FB68002B01D000F077FB1D4B7C
:101380001B687B607B68002B10D000F047F8034699
:10139000002B02D0164B01221A607B68013B7B6058
:1013A0007B68002BF1D1134B00221A60104B1B6895
:1013B000002B09D00123BB600F4B4FF080521A6005
:1013C000BFF34F8FBFF36F8F01F070FDBB681846FE
:1013D0001037BD4680BD00BF5801002030010020FD
:1013E000F0000020380100205C00002058000020A0
:1013F000440100204001002004ED00E080B483B0EF
:1014000000AF054B1B687B607B6818460C37BD46F8
:101410005DF8047B704700BF3401002080B586B0C2
:1014200000AF00237B61544B1B68002B40F092807F
:10143000524B1B6801333B61504A3B6913603B6967
:10144000002B1FD14E4B1B681B68002B09D04FF09F
:10145000500383F31188BFF36F8FBFF34F8F3B604F
:10146000FEE7474B1B68FB60464B1B68444A136012
:10147000444AFB681360444B1B680133424A1360C3
:1014800000F0F4FA414B1B683A699A424DD33C4B49
:101490001B681B68002B01D1012300E00023002BF7
:1014A00004D03A4B4FF0FF321A603EE0344B1B68D9
:1014B000DB68DB68BB60BB685B687B603A697B6844
:1014C0009A4203D2314A7B6813602EE0BB68043332
:1014D000184600F007FEBB689B6A002B04D0BB686F
:1014E0001833184600F0FEFDBB68DB6A01229A4003
:1014F000274B1B681343264A1360BB68DA6A1346FE
:101500009B0013449B00234A1A44BB6804331946CA
:10151000104600F089FDBB68DA6A1F4B1B68DB6A66
:101520009A42B4D301237B61B1E71B4B1B68DA6A93
:10153000184913469B0013449B000B441B68012B66
:1015400001D901237B61154B1B68002B09D1FFF7E3
:10155000B7F806E0114B1B680133104A1360FFF720
:10156000AFF80F4B1B68002B01D001237B617B6917
:1015700018461837BD4680BD5801002034010020B0
:10158000E8000020EC00002048010020500100206D
:10159000380100205C00002058000020400100209D
:1015A0004401002080B588B000AF394B1B68002B88
:1015B00003D0384B01221A6065E0364B00221A60D6
:1015C000354B1B681B6BFB614FF0A533BB61FB699F
:1015D0001A68BB699A4211D1FB6904331A68BB6966
:1015E0009A420BD1FB6908331A68BB699A4205D14C
:1015F000FB690C331A68BB699A4208D0264B1A68FB
:10160000254B1B68343319461046FFF753F8234B1C
:101610001B68BB60BB68B3FA83F3FB71FB79C3F152
:101620001F033B611E493A6913469B0013449B000C
:101630000B441B68002B09D14FF0500383F3118832
:10164000BFF36F8FBFF34F8F7B61FEE73A6913469D
:101650009B0013449B00124A1344FB60FB685B68C9
:101660005A68FB685A60FB685A68FB6808339A42FC
:1016700004D1FB685B685A68FB685A60FB685B686A
:10168000DB68054A136000BF2037BD4680BD00BF40
:10169000580100204401002058000020380100209B
:1016A0005C00002080B584B000AF786039607B6852
:1016B000002B09D14FF0500383F31188BFF36F8FD4
:1016C000BFF34F8FFB60FEE7074B1B6818331946CB
:1016D000786800F0CDFC0121386800F019FB00BFEC
:1016E0001037BD4680BD00BF5800002080B586B0D1
:1016F00000AFF860B9607A60FB68002B09D14FF049
:10170000500383F31188BFF36F8FBFF34F8F7B615B
:10171000FEE70A4B1B6818331946F86800F084FC92
:101720007B68002B02D04FF0FF33BB607968B8684C
:1017300000F0EEFA00BF1837BD4680BD580000200B
:1017400080B586B000AF78607B68DB68DB683B61A2
:101750003B69002B09D14FF0500383F31188BFF38D
:101760006F8FBFF34F8FFB60FEE73B69183318465E
:1017700000F0B8FC1D4B1B68002B1CD13B690433E7
:10178000184600F0AFFC3B69DB6A01229A40184B17
:101790001B681343164A13603B69DA6A13469B00C1
:1017A00013449B00134A1A443B69043319461046FC
:1017B00000F03AFC05E03B69183319460E4800F08A
:1017C00033FC3B69DA6A0D4B1B68DB6A9A4205D928
:1017D00001237B610A4B01221A6001E000237B6137
:1017E0007B6918461837BD4680BD00BF58010020F0
:1017F000380100205C000020F0000020580000208C
:101800004401002080B485B000AF78607B68002B75
:1018100009D14FF0500383F31188BFF36F8FBFF3EB
:101820004F8FFB60FEE7074B1A687B681A60064B18
:101830001A687B685A6000BF1437BD465DF8047BA8
:10184000704700BF480100203401002080B586B0F9
:1018500000AF786039607B68002B09D14FF05003EE
:1018600083F31188BFF36F8FBFF34F8FBB60FEE729
:101870003B68002B09D14FF0500383F31188BFF36D
:101880006F8FBFF34F8FFB60FEE701F0E1FA1C4B57
:101890001B683B613B681B68B3F1FF3F02D100232B
:1018A0007B6126E07B681A68164B1B689A4207D05A
:1018B0007B685A683B699A4202D801237B6118E031
:1018C0007B685B683A69D21A3B681B689A420ED201
:1018D0003B681A687B6859683B69CB1A1A443B68B5
:1018E0001A607868FFF78EFF00237B6101E0012317
:1018F0007B6101F0DBFA7B6918461837BD4680BD75
:10190000340100204801002080B400AF034B0122C5
:101910001A6000BFBD465DF8047B7047440100209B
:1019200080B582B000AF786000F054F8074B1B68B8
:10193000012B07D9064B4FF080521A60BFF34F8F2F
:10194000BFF36F8FFEF7AAFEEEE700BF5C0000203A
:1019500004ED00E080B582B000AF00237B600CE0B6
:101960007A6813469B0013449B00124A134418469E
:1019700000F02CFB7B6801337B607B68042BEFD984
:101980000D4800F023FB0D4800F020FB0C4800F050
:101990001DFB0C4800F01AFB0B4800F017FB0B4B2B
:1019A000054A1A600A4B054A1A6000BF0837BD464F
:1019B00080BD00BF5C000020C0000020D4000020DB
:1019C000F0000020040100201C010020E80000209D
:1019D000EC00002080B582B000AF28E0FFF764FC87
:1019E000174B1B68002B0CBF01230023DBB27B606D
:1019F000FFF768FC7B68002B19D101F029FA104B26
:101A0000DB68DB683B603B680433184600F06AFB28
:101A10000C4B1B68013B0B4A13600B4B1B68013BD3
:101A2000094A136001F042FA386800F00FF8064BDB
:101A30001B68002BD2D100BF0837BD4680BD00BF58
:101A400004010020300100201801002080B582B080
:101A500000AF78607B681B6B184601F0E3FE786886
:101A600001F0E0FE00BF0837BD4680BD80B483B002
:101A700000AF0F4B1B681B68002B01D1012300E056
:101A80000023002B04D00B4B4FF0FF321A6008E00C
:101A9000074B1B68DB68DB687B607B685B68054A1B
:101AA000136000BF0C37BD465DF8047B704700BF74
:101AB000E80000205001002080B483B000AF0B4B41
:101AC0001B68002B02D101237B6008E0084B1B68D8
:101AD000002B02D102237B6001E000237B607B6846
:101AE00018460C37BD465DF8047B70473C0100206A
:101AF0005801002080B584B000AF78607B68FB603F
:101B00007B68002B62D0FB68DA6A324B1B68DB6AA9
:101B10009A425BD2FB689B69002B06DB2D4B1B684E
:101B2000DB6AC3F10502FB689A61FB685969FB68CF
:101B3000DA6A13469B0013449B00274A13449942D8
:101B400001D1012300E00023002B3AD0FB680433CD
:101B5000184600F0C7FA0346002B15D1FB68DA6A75
:101B60001D4913469B0013449B000B441B68002B2C
:101B70000AD1FB68DB6A012202FA03F3DA43174B4E
:101B80001B681340154A1360124B1B68DA6AFB6826
:101B9000DA62FB68DB6A01229A40104B1B68134330
:101BA0000E4A1360FB68DA6A13469B0013449B00DD
:101BB000094A1A44FB6804331946104600F034FA07
:101BC00004E0044B1B68DA6AFB68DA6200BF103776
:101BD000BD4680BD580000205C0000203801002078
:101BE00080B586B000AF78607B683B6100237B6185
:101BF0007B68002B6CD0394B1B683A699A4209D03C
:101C00004FF0500383F31188BFF36F8FBFF34F8FF3
:101C1000BB60FEE73B69DB6C002B09D14FF0500342
:101C200083F31188BFF36F8FBFF34F8FFB60FEE725
:101C30003B69DB6C5A1E3B69DA643B69DA6A3B69D3
:101C40009B6C9A4244D03B69DB6C002B40D13B69D2
:101C50000433184600F046FA0346002B15D13B69C1
:101C6000DA6A1F4913469B0013449B000B441B6810
:101C7000002B0AD13B69DB6A012202FA03F3DA4343
:101C8000184B1B681340174A13603B699A6C3B69F9
:101C9000DA623B69DB6AC3F105023B699A613B6921
:101CA000DB6A01229A400F4B1B6813430D4A1360F5
:101CB0003B69DA6A13469B0013449B00084A1A44A6
:101CC0003B6904331946104600F0AEF901237B61ED
:101CD0007B6918461837BD4680BD00BF58000020FC
:101CE0005C0000203801002080B400AF074B1B6867
:101CF000002B04D0054B1B68DA6C0132DA64034B0D
:101D00001B681846BD465DF8047B704758000020EC
:101D100080B584B000AF78603960294B1B68FB60E8
:101D2000284B1B680433184600F0DCF90346002BEF
:101D30000BD1244B1B68DB6A012202FA03F3DA435E
:101D4000214B1B681340204A13607B68B3F1FF3FAF
:101D50000AD13B68002B07D01A4B1B680433194685
:101D60001A4800F061F926E0FA687B681344BB600A
:101D7000144B1B68BA685A60BA68FB689A4209D269
:101D8000134B1A680F4B1B6804331946104600F0BA
:101D90006FF910E00F4B1A680A4B1B6804331946A1
:101DA000104600F065F90C4B1B68BA689A4202D2E3
:101DB000094ABB68136000BF1037BD4680BD00BF35
:101DC0003401002058000020380100201C010020B0
:101DD000EC000020E80000205001002080B487B013
:101DE00000AF7860396000237B6100233B610023F2
:101DF000FB6000237B6176E001227B6902FA03F33A
:101E00003B613B681A683B691340FB60FA683B69B9
:101E10009A4265D17B681A687B695B00032101FAED
:101E200003F3DB431A407B681A607B681A683B68DF
:101E30001B7919467B695B0001FA03F31A437B683F
:101E40001A603B681B79012B03D03B681B79022B7E
:101E50002ED17B689A687B695B00032101FA03F34A
:101E6000DB431A407B689A607B689A683B685B79C1
:101E700019467B695B0001FA03F31A437B689A6099
:101E80007B685A687B699BB2012101FA03F3DB434B
:101E90001A407B685A607B685A683B689B79194690
:101EA0007B699BB201FA03F39BB21A437B685A60C9
:101EB0007B68DA687B699BB25B00032101FA03F35C
:101EC000DB431A407B68DA607B68DA683B68DB7961
:101ED00019467B695B0001FA03F31A437B68DA60F9
:101EE0007B6901337B617B690F2B85D900BF1C3770
:101EF000BD465DF8047B704780B483B000AF786066
:101F00000B467B807B687A881A8300BF0C37BD46FE
:101F10005DF8047B704700BF80B483B000AF786089
:101F20000B467B807B687A885A8300BF0C37BD469E
:101F30005DF8047B704700BF80B485B000AF786067
:101F40000B467B8013467B700023FB600023BB6045
:101F50007A787B8803F007039B0002FA03F3FB60A7
:101F60007B88DB089BB218467B88DB089BB21A464D
:101F70007B68083253F822207B8803F007039B001C
:101F80000F2101FA03F3DB4302EA03017B6800F14E
:101F9000080243F822107B88DB089BB21A467B6854
:101FA000083253F82220FB681343BB607B88DB08B0
:101FB0009BB21A467B680832B96843F8221000BF0A
:101FC0001437BD465DF8047B704700BF80B483B012
:101FD00000AF78607B6803F108027B685A607B6819
:101FE0004FF0FF329A607B6803F108027B68DA6089
:101FF0007B6803F108027B681A617B6800221A6023
:1020000000BF0C37BD465DF8047B704780B483B0D9
:1020100000AF78607B6800221A6100BF0C37BD46B4
:102020005DF8047B704700BF80B485B000AF786076
:1020300039607B685B68FB603B68FA685A60FB68E4
:102040009A683B689A60FB689B683A685A60FB68CC
:102050003A689A603B687A681A617B681B685A1C08
:102060007B681A6000BF1437BD465DF8047B70477B
:1020700080B485B000AF786039603B681B68BB6096
:10208000BB68B3F1FF3F03D17B681B69FB600CE0C9
:102090007B680833FB6002E0FB685B68FB60FB6801
:1020A0005B681A68BB689A42F6D9FB685A683B6855
:1020B0005A603B685B683A689A603B68FA689A6065
:1020C000FB683A685A603B687A681A617B681B68EB
:1020D0005A1C7B681A6000BF1437BD465DF8047B4C
:1020E000704700BF80B485B000AF78607B681B6923
:1020F000FB607B685B687A6892689A607B689B6823
:102100007A6852685A60FB685A687B689A4203D1C1
:102110007B689A68FB685A607B6800221A61FB68DA
:102120001B685A1EFB681A60FB681B681846143748
:10213000BD465DF8047B704780B500AF164A164B6C
:10214000D3F8883043F47003C2F88830134A134B35
:102150001B6843F001031360104B00229A600F4A82
:102160000E4B1B6823F0847323F4803313600B4BF6
:102170000B4A5A60094A094B1B6823F480231360F9
:10218000064B0022DA6000F00DF8034B4FF00062BE
:102190009A6000BF80BD00BF00ED00E00038024043
:1021A0001030002480B483B000AF00237B60002394
:1021B0003B60364A354B1B6843F480331360334B26
:1021C0001B6803F400333B607B6801337B603B6832
:1021D000002B03D17B68B3F5A06FF0D12B4B1B68AC
:1021E00003F40033002B02D001233B6001E0002305
:1021F0003B603B68012B42D1244A244B1B6C43F0CB
:1022000080531364224A224B1B6843F480431360BB
:102210001E4A1E4B9B6893601C4A1C4B9B6843F4F0
:1022200000439360194A194B9B6843F4A053936091
:10223000164B184A5A60154A144B1B6843F08073BA
:10224000136000BF114B1B6803F00073002BF9D023
:10225000114B40F205621A600C4A0C4B9B6823F04C
:1022600003039360094A094B9B6843F002039360A0
:1022700000BF064B9B6803F00C03082BF9D100BF8D
:102280000C37BD465DF8047B704700BF0038024044
:1022900000700040085A4007003C024080B584B0FE
:1022A00000AF786039607B68FB60FB68002B09D168
:1022B0004FF0500383F31188BFF36F8FBFF34F8F3D
:1022C000BB60FEE700F0C4FDFB681A68FB68DB6BCF
:1022D000F968096C01FB03F31A44FB685A60FB6858
:1022E00000229A63FB681A68FB689A60FB681A68A8
:1022F000FB68DB6B013BF968096C01FB03F31A44D3
:10230000FB68DA60FB68FF2283F84420FB68FF2249
:1023100083F845203B68002B14D1FB681B69002B18
:102320001AD0FB6810331846FFF70AFA0346002B51
:1023300012D00D4B4FF080521A60BFF34F8FBFF396
:102340006F8F09E0FB6810331846FFF73FFEFB680C
:1023500024331846FFF73AFE00F0A8FD0123184683
:102360001037BD4680BD00BF04ED00E080B58AB0E7
:1023700002AFF860B9601346FB71FB68002B09D10E
:102380004FF0500383F31188BFF36F8FBFF34F8F6C
:102390003B61FEE7BB68002B02D10023FB6104E038
:1023A000FB68BA6802FB03F3FB61FB695033184614
:1023B00001F0A4F9B861BB69002B0BD0BB695033A5
:1023C0007B61FA79BB69009313467A69B968F8684A
:1023D00000F006F8BB6918462037BD4680BD00BF37
:1023E00080B584B000AFF860B9607A60FB70BB68FC
:1023F000002B03D1BB69BA691A6002E0BB697A6835
:102400001A60BB69FA68DA63BB69BA681A640121A9
:10241000B869FFF743FFBB69FA7883F84C2000BF27
:102420001037BD4680BD00BF80B58EB000AFF860EC
:10243000B9607A603B6000237B63FB683B633B6B66
:10244000002B09D14FF0500383F31188BFF36F8F36
:10245000BFF34F8FFB61FEE7BB68002B03D13B6BE3
:102460001B6C002B01D1012300E00023002B09D1BC
:102470004FF0500383F31188BFF36F8FBFF34F8F7B
:102480003B62FEE73B68022B03D13B6BDB6B012B0E
:1024900001D1012300E00023002B09D14FF05003AC
:1024A00083F31188BFF36F8FBFF34F8F7B62FEE71B
:1024B000FFF702FB0346002B02D17B68002B01D102
:1024C000012300E00023002B09D14FF0500383F3D8
:1024D0001188BFF36F8FBFF34F8FBB62FEE700F031
:1024E000B7FC3B6B9A6B3B6BDB6B9A4202D33B684E
:1024F000022B29D13A68B968386B00F039FAF862D2
:102500003B6B5B6A002B10D03B6B24331846FFF704
:1025100017F90346002B13D0404B4FF080521A603E
:10252000BFF34F8FBFF36F8F0AE0FB6A002B07D01A
:102530003A4B4FF080521A60BFF34F8FBFF36F8F4B
:1025400000F0B4FC012365E07B68002B03D100F0B0
:10255000ADFC00235EE07B6B002B06D107F114037A
:102560001846FFF74FF901237B6300F09FFCFEF74D
:102570009BFE00F06DFC3B6B93F84430DBB25BB22A
:10258000B3F1FF3F03D13B6B002283F844203B6B48
:1025900093F84530DBB25BB2B3F1FF3F03D13B6B45
:1025A000002283F8452000F081FC3A1D07F1140356
:1025B00011461846FFF74AF90346002B24D1386B21
:1025C00000F0CEFA0346002B18D03B6B10337A682C
:1025D00011461846FFF766F8386B00F059FAFEF717
:1025E00071FE0346002B7FF47AAF0C4B4FF0805204
:1025F0001A60BFF34F8FBFF36F8F70E7386B00F037
:1026000047FAFEF75FFE6AE7386B00F041FAFEF723
:1026100059FE002318463837BD4680BD04ED00E062
:1026200080B58EB000AFF860B9607A603B60FB683F
:102630003B633B6B002B09D14FF0500383F31188B0
:10264000BFF36F8FBFF34F8F7B61FEE7BB68002B3B
:1026500003D13B6B1B6C002B01D1012300E0002355
:10266000002B09D14FF0500383F31188BFF36F8F14
:10267000BFF34F8FBB61FEE73B68022B03D13B6B7F
:10268000DB6B012B01D1012300E00023002B09D1DA
:102690004FF0500383F31188BFF36F8FBFF34F8F59
:1026A000FB61FEE700F09EFCEFF311824FF0500358
:1026B00083F31188BFF36F8FBFF34F8F3A623B6193
:1026C0003B6ABB623B6B9A6B3B6BDB6B9A4202D300
:1026D0003B68022B2CD13B6B93F8453087F82730B1
:1026E0003A68B968386B00F043F997F92730B3F1CD
:1026F000FF3F12D13B6B5B6A002B16D03B6B243340
:102700001846FFF71DF80346002B0ED07B68002B00
:102710000BD07B6801221A6007E097F8273001335D
:10272000DBB2DAB23B6B83F8452001237B6301E027
:1027300000237B63BB6AFB62FB6A83F311887B6BBC
:1027400018463837BD4680BD80B58EB000AFF86002
:10275000B9607A603B6000237B63FB683B633B6B43
:10276000002B09D14FF0500383F31188BFF36F8F13
:10277000BFF34F8FFB61FEE7BB68002B03D13B6BC0
:102780001B6C002B01D1012300E00023002B09D199
:102790004FF0500383F31188BFF36F8FBFF34F8F58
:1027A0003B62FEE7FFF788F90346002B02D17B6806
:1027B000002B01D1012300E00023002B09D14FF0B1
:1027C000500383F31188BFF36F8FBFF34F8F7B628A
:1027D000FEE700F03DFB3B6B9B6BFB62FB6A002B53
:1027E00046D03B6BDB68BB62B968386B00F02AF9F6
:1027F0003B68002B21D1FB6A5A1E3B6B9A633B6BF3
:102800001B68002B04D1FFF76FFA02463B6B5A603E
:102810003B6B1B69002B27D03B6B10331846FEF730
:102820008FFF0346002B1FD0504B4FF080521A6091
:10283000BFF34F8FBFF36F8F16E03B6BBA6ADA605E
:102840003B6B5B6A002B0FD03B6B24331846FEF7C3
:1028500077FF0346002B07D0444B4FF080521A609D
:10286000BFF34F8FBFF36F8F00F020FB012379E0A0
:102870007B68002B03D100F019FB002372E07B6B17
:10288000002B06D107F114031846FEF7BBFF012306
:102890007B6300F00BFBFEF707FD00F0D9FA3B6B02
:1028A00093F84430DBB25BB2B3F1FF3F03D13B6B33
:1028B000002283F844203B6B93F84530DBB25BB2D7
:1028C000B3F1FF3F03D13B6B002283F8452000F0BA
:1028D000EDFA3A1D07F1140311461846FEF7B6FF4C
:1028E0000346002B31D1386B00F024F90346002B4E
:1028F00025D03B6B1B68002B08D100F0A9FA3B6B7D
:102900005B681846FFF7F6F800F0D0FA3B6B24330B
:102910007A6811461846FEF7C5FE386B00F0B8F825
:10292000FEF7D0FC0346002B7FF453AF0F4B4FF064
:1029300080521A60BFF34F8FBFF36F8F49E7386B38
:1029400000F0A6F8FEF7BEFC43E7386B00F0A0F8F5
:10295000FEF7B8FC386B00F0EDF80346002B3FF4AF
:1029600038AF002318463837BD4680BD04ED00E07F
:1029700080B586B000AFF860B9607A6000237B61F3
:10298000FB689B6B3B61FB681B6C002B0DD1FB68EC
:102990001B68002B4DD1FB685B681846FFF720F9D8
:1029A0007861FB6800225A6043E07B68002B19D1F4
:1029B000FB689868FB681B6C1A46B96800F0D2FF88
:1029C000FB689A68FB681B6C1A44FB689A60FB689A
:1029D0009A68FB685B689A422BD3FB681A68FB68AD
:1029E0009A6026E0FB68D868FB681B6C1A46B968D9
:1029F00000F0B8FFFB68DA68FB681B6C5B421A44A6
:102A0000FB68DA60FB68DA68FB681B689A4207D2E9
:102A1000FB685A68FB681B6C5B421A44FB68DA600F
:102A20007B68022B05D13B69002B02D03B69013B3F
:102A30003B613B695A1CFB689A637B6918461837EF
:102A4000BD4680BD80B582B000AF786039607B68DC
:102A50001B6C002B18D07B68DA687B681B6C1A44EF
:102A60007B68DA607B68DA687B685B689A4203D3CC
:102A70007B681A687B68DA607B68D9687B681B6C46
:102A80001A46386800F06EFF00BF0837BD4680BDAB
:102A900080B584B000AF786000F0DAF97B6893F815
:102AA0004530FB7311E07B685B6A002B12D07B68BA
:102AB00024331846FEF744FE0346002B01D0FEF7F0
:102AC00023FFFB7B013BDBB2FB7397F90F30002B3D
:102AD000E9DC00E000BF7B68FF2283F8452000F0BE
:102AE000E5F900F0B5F97B6893F84430BB7311E069
:102AF0007B681B69002B12D07B6810331846FEF7E9
:102B00001FFE0346002B01D0FEF7FEFEBB7B013B00
:102B1000DBB2BB7397F90E30002BE9DC00E000BF9D
:102B20007B68FF2283F8442000F0C0F900BF103713
:102B3000BD4680BD80B584B000AF786000F088F9F4
:102B40007B689B6B002B02D10123FB6001E000231B
:102B5000FB6000F0ABF9FB6818461037BD4680BD3E
:102B600080B584B000AF786000F072F97B689A6B32
:102B70007B68DB6B9A4202D10123FB6001E00023FA
:102B8000FB6000F093F9FB6818461037BD4680BD26
:102B900080B485B000AF786039600023FB6014E03A
:102BA0000E4AFB6852F83330002B0BD10B49FB68FF
:102BB0003A6841F83320094AFB68DB0013447A681D
:102BC0005A6005E0FB680133FB60FB68072BE7D91F
:102BD00000BF1437BD465DF8047B7047AC2D012063
:102BE00080B586B000AFF860B9607A60FB687B6141
:102BF00000F02EF97B6993F84430DBB25BB2B3F19D
:102C0000FF3F03D17B69002283F844207B6993F85E
:102C10004530DBB25BB2B3F1FF3F03D17B690022E9
:102C200083F8452000F042F97B699B6B002B06D1AD
:102C30007B6924337A68B9681846FEF757FD7869CE
:102C4000FFF726FF00BF1837BD4680BD80B485B0B2
:102C500000AFF860B9607A60FB68043BFB60FB681A
:102C60004FF080721A60FB68043BFB60BA68FB6837
:102C70001A60FB68043BFB600C4AFB681A60FB6847
:102C8000143BFB607A68FB681A60FB68043BFB60DE
:102C9000FB686FF002021A60FB68203BFB60FB6878
:102CA00018461437BD465DF8047B7047B12C000808
:102CB00080B483B000AF0C4B1B68B3F1FF3F09D069
:102CC0004FF0500383F31188BFF36F8FBFF34F8F23
:102CD0003B60FEE74FF0500383F31188BFF36F8F23
:102CE000BFF34F8F7B60FEE7100000200000000064
:102CF000074B19680868B0E8F04F80F30988BFF304
:102D00006F8F4FF0000080F311887047AFF30080A1
:102D10005800002000BF00BF06480068006880F32C
:102D2000088862B661B6BFF34F8FBFF36F8F00DFC5
:102D300000BF00BF08ED00E080B586B000AF3B4BA0
:102D40001B683B4A934209D14FF0500383F311882B
:102D5000BFF36F8FBFF34F8FFB60FEE7334B1B68F2
:102D6000344A934209D14FF0500383F31188BFF3E3
:102D70006F8FBFF34F8F3B61FEE72F4B7B617B690A
:102D80001B78DBB2BB607B69FF221A707B691B7802
:102D9000DBB2FB71FB79DBB203F05003DAB2274BF5
:102DA0001A70274B07221A6009E0254B1B68013B6C
:102DB000234A1360FB79DBB25B00DBB2FB71FB796A
:102DC000DBB2DBB25BB2002BEFDB1D4B1B681B02DF
:102DD0001B4A13601A4B1B6803F4E063184A136024
:102DE000BB68DAB27B691A70164A164B1B6843F44B
:102DF00070031360134A134B1B6843F07043136056
:102E000000F0D2F8104B00221A6000F0E1F80F4AEF
:102E10000E4B1B6843F040431360FFF77DFFFFF745
:102E200047FF002318461837BD4680BD00ED00E07F
:102E300071C20F4170C20F4100E400E05C0100204C
:102E40006001002020ED00E01000002034EF00E0E1
:102E500080B483B000AF4FF0500383F31188BFF309
:102E60006F8FBFF34F8F3B600E4B1B6801330D4AD2
:102E700013600C4B1B68012B0ED10B4B1B68DBB294
:102E8000002B09D04FF0500383F31188BFF36F8FED
:102E9000BFF34F8F7B60FEE700BF0C37BD465DF888
:102EA000047B70471000002004ED00E080B483B084
:102EB00000AF114B1B68002B09D14FF0500383F377
:102EC0001188BFF36F8FBFF34F8F3B60FEE70A4B54
:102ED0001B68013B084A1360074B1B68002B04D199
:102EE00000237B607B6883F3118800BF0C37BD46ED
:102EF0005DF8047B704700BF100000200000000058
:102F0000EFF30980BFF36F8F154B1A681EF0100F97
:102F100008BF20ED108A20E9F04F10604DF8043D05
:102F20004FF0500080F31188BFF34F8FBFF36F8FC6
:102F3000FEF738FB4FF0000080F3118808BC1968D9
:102F40000868B0E8F04F1EF0100F08BFB0EC108A10
:102F500080F30988BFF36F8F704700BFAFF3008025
:102F60005800002000BF00BF80B582B000AF4FF016
:102F7000500383F31188BFF36F8FBFF34F8F3B6014
:102F8000FEF74CFA0346002B03D0064B4FF080525D
:102F90001A6000237B607B6883F3118800BF0837C9
:102FA000BD4680BD04ED00E080B400AF054B064A8D
:102FB0001A60064B07221A6000BFBD465DF8047B0D
:102FC000704700BF14E000E01FBF020010E000E007
:102FD000DFF80C00016841F470010160704700BF28
:102FE00088ED00E080B485B000AFEFF30583FB60AF
:102FF000FB680F2B13D9164AFB6813441B78FB722E
:10300000144B1B78FA7A9A4209D24FF0500383F39B
:103010001188BFF36F8FBFF34F8F3B60FEE70E4BFE
:103020001B6803F4E0620D4B1B689A4209D94FF00C
:10303000500383F31188BFF36F8FBFF34F8F7B6013
:10304000FEE700BF1437BD465DF8047B704700BF44
:10305000F0E300E05C0100200CED00E060010020E6
:1030600080B582B000AF78607B68174A93420AD17E
:1030700001214FF48050FDF76DFC00214FF480508A
:10308000FDF768FC1CE07B68104A93420AD10121DD
:103090004FF48040FDF73EFC00214FF48040FDF7E7
:1030A00039FC0DE07B680A4A934209D101214FF4B3
:1030B0000040FDF72FFC00214FF40040FDF72AFCF3
:1030C00000BF0837BD4680BD0030014000380040D9
:1030D000003C004080B48BB000AF786039600023C2
:1030E0007B830223FB840023BB8401237B84002396
:1030F000FB6100237B6100233B610023FB60002315
:10310000BB607B689B8B9BB223F47B6323F00F0334
:103110009AB27B689A837B6802221A847B689B8BB5
:103120007B833B689B68022B04D10023BB84022372
:10313000FB8472E03B689B88002B02D101237B84D7
:1031400001E002237B844D4B9B6803F40003002BBA
:1031500005D04A4A494B9B6823F400039360474BD0
:10316000D3F8842047F6C07313409B09C3F30803C8
:10317000FB60424BD3F8843003F0E0431B0F03F0B5
:103180000703BB603D4B5B6803F03F033B613C4A78
:103190003B69B2FBF3F3FA6802FB03F2BB68B2FBD4
:1031A000F3F37B613B68DB88B3F5007F0FD17B696C
:1031B0001A0A13469B0013445B001A463B689B683F
:1031C000B2FBF3F39BB205339BB2FB6112E07B8C45
:1031D0005B011A467B69B3FBF2F213469B00134472
:1031E0005B001A463B689B68B2FBF3F39BB2053366
:1031F0009BB2FB61FB69234AA2FB0323DB08FB6153
:10320000FB699BB203F00103BB84BB8CFA69D31A40
:103210005B08FB84BB8C1B02BB84FB8C012B02D99B
:10322000FB8CFF2B03D90223FB840023BB843B6868
:10323000DA88BB8C13439AB2FB8C13439AB27B6837
:103240001A843B681A883B6859883B6898883B68B1
:103250009B8903439BB20B439BB213439AB27B8B74
:1032600013439BB243F400637B837B687A8B9A831E
:1032700000BF2C37BD465DF8047B70470038024024
:1032800000127A00CDCCCCCC80B483B000AF786093
:103290000B46FB70FB78002B08D07B689B8B9BB2A6
:1032A00043F480639AB27B689A8307E07B689B8BC8
:1032B0009BB223F480639AB27B689A8300BF0C3779
:1032C000BD465DF8047B704780B483B000AF786082
:1032D0000B467B807B687A889A8100BF0C37BD469D
:1032E0005DF8047B704700BF80B485B000AF7860A4
:1032F0000B467B800023FB737B681B899AB27B881B
:1033000013409BB2002B02D00123FB7301E000238A
:10331000FB73FB7B18461437BD465DF8047B704792
:1033200080B582B000AF78607B68174A93420AD1BB
:1033300001214FF40010FDF7EDFA00214FF40010C9
:10334000FDF7E8FA1CE07B68104A93420AD101219C
:103350004FF48000FDF7DEFA00214FF48000FDF706
:10336000D9FA0DE07B680A4A934209D101214FF452
:103370000000FDF7CFFA00214FF40000FDF7CAFA74
:1033800000BF0837BD4680BD0054004000580040D3
:10339000005C004080B58AB000AF786039600023DF
:1033A000FB8400237B840423BB84574BFB617B6835
:1033B0009B88FB84FB8C23F03F03FB8407F10C0309
:1033C0001846FDF7BDF97B69FB61FB694F4AA2FB1B
:1033D00003239B0C7B84FA8C7B8C1343FB847B68DC
:1033E000FA8C9A807B681B889BB223F001039AB207
:1033F0007B681A800023FB843B681B68444A934225
:1034000015D83B681B685B00FA69B2FBF3F3BB8419
:10341000BB8C032B01D80423BB84FA8CBB8C1343D5
:10342000FB847B8C01339AB27B681A8440E03B6852
:10343000DB884BF6FF72934209D13B681A6813464A
:103440005B001344FA69B2FBF3F3BB840EE03B6804
:103450001A6813469B0013449A001344FA69B2FB9E
:10346000F3F3BB84BB8C43F48043BB84BB8CC3F3BA
:103470000B03002B03D1BB8C43F00103BB84BA8C3C
:10348000FB8C13439BB26FEA43436FEA5343FB84C5
:103490007B8C4FF4967202FB03F31E4A82FB0312ED
:1034A0009211DB17D31A9BB201339AB27B681A844C
:1034B0007B68FA8C9A837B681B889BB243F001037C
:1034C0009AB27B681A807B681B88FB84FB8C23F490
:1034D000816323F00203FB843B689A883B685B8925
:1034E00013439AB2FB8C1343FB847B68FA8C1A80DB
:1034F0003B689A893B681B8913439AB27B681A819F
:1035000000BF2837BD4680BD00127A0083DE1B4312
:10351000A0860100D34D621080B483B000AF786004
:103520000B46FB70FB78002B08D07B681B889BB296
:1035300043F001039AB27B681A8007E07B681B881E
:103540009BB223F001039AB27B681A8000BF0C374C
:10355000BD465DF8047B704780B483B000AF7860EF
:103560000B46FB70FB78002B08D07B681B889BB256
:1035700043F480739AB27B681A8007E07B681B88EB
:103580009BB223F480739AB27B681A8000BF0C3719
:10359000BD465DF8047B704780B483B000AF7860AF
:1035A0000B46FB70FB78002B08D07B681B889BB216
:1035B00043F400739AB27B681A8007E07B681B882B
:1035C0009BB223F400739AB27B681A8000BF0C3759
:1035D000BD465DF8047B704780B483B000AF78606F
:1035E0000B46FB701346BB70BB78002B04D0FB78F6
:1035F00043F00103FB7003E0FB7823F00103FB7051
:10360000FB789AB27B681A8200BF0C37BD465DF822
:10361000047B704780B483B000AF78600B46FB70CA
:10362000FB789AB27B681A8200BF0C37BD465DF802
:10363000047B704780B487B000AF786039600023A6
:103640003B610023FB600023BB600023FB757B68AC
:103650009B8A9BB2FB607B681B8B9BB2BB60BB6889
:103660001B04BB60FA68BB68134323F07F433B61D4
:103670003A693B681A403B689A4202D10123FB75C4
:1036800001E00023FB75FB7D18461C37BD465DF845
:10369000047B704780B487B000AF78603960002346
:1036A000FB7500233B610023FB607B68FB603B688C
:1036B0001B0F3B613B6823F07F433B603B69002B62
:1036C00003D0FB681433FB6005E03B681B0C3B60D8
:1036D000FB681833FB60FB681A683B681340002BDB
:1036E00002D00123FB7501E00023FB75FB7D18462A
:1036F0001C37BD465DF8047B704700BF80B588B0BD
:1037000000AF786000237B61FDF7CEFD404B1B6866
:10371000002B04D100F0C0F83D4B01221A607B68F9
:10372000002B0ED008231A467B6813447B607B680D
:1037300003F00703002B04D07B6823F00703083352
:103740007B607B68002B56D07B68324A934252D80C
:10375000314BBB61304B1B68FB6104E0FB69BB6113
:10376000FB691B68FB61FB695A687B689A4203D25C
:10377000FB691B68002BF1D1FB69284A93423AD0C0
:10378000BB691B68082213447B61FB691A68BB692B
:103790001A60FB695A687B68D31A08225200934268
:1037A00022D9FA697B681344FB60FB695A687B681D
:1037B000D21AFB685A60FB697A685A60FB685B68DA
:1037C000BB60154B3B6102E03B691B683B613B6999
:1037D0001B685A68BB689A42F6D33B691A68FB6853
:1037E0001A603B69FA681A600D4B1A68FB695B68DE
:1037F000D31A0B4A1360FDF765FD7B69002B01D1DD
:10380000FCF754FF7B6918462037BD4680BD00BFDA
:10381000742D0120F72B0100642D01206C2D012057
:103820001400002080B586B000AF78607B683B61F3
:103830007B68002B27D008235B423A6913443B6125
:103840003B69FB60FDF730FDFB685B68BB60104BBC
:103850007B6102E07B691B687B617B691B685A683E
:10386000BB689A42F6D37B691A68FB681A607B6969
:10387000FA681A60FB685A68064B1B681344054ACD
:103880001360FDF71FFD00BF1837BD4680BD00BFA8
:10389000642D01201400002080B483B000AF0F4BD2
:1038A00023F007037B600E4A7B6813600C4B0022F9
:1038B0005A600C4B0C4A5A600A4B00221A607B6813
:1038C0003B603B68084A5A603B68064A1A6000BF82
:1038D0000C37BD465DF8047B704700BF6C010020CB
:1038E000642D01206C2D0120F82B010080B485B0DF
:1038F00000AF78600B467B800023FB730023BB8105
:1039000000237B817B681B8A9AB27B881340BB8132
:103910007B689B899AB27B8813407B81BB89002B93
:1039200005D07B89002B02D00123FB7301E000232B
:10393000FB73FB7B18461437BD465DF8047B70476C
:1039400080B483B000AF78600B467B807B88DB431C
:103950009AB27B681A8200BF0C37BD465DF8047BC3
:10396000704700BF844641EA000313F003036DD1A2
:10397000403A41D351F8043B40F8043B51F8043B32
:1039800040F8043B51F8043B40F8043B51F8043B39
:1039900040F8043B51F8043B40F8043B51F8043B29
:1039A00040F8043B51F8043B40F8043B51F8043B19
:1039B00040F8043B51F8043B40F8043B51F8043B09
:1039C00040F8043B51F8043B40F8043B51F8043BF9
:1039D00040F8043B51F8043B40F8043B51F8043BE9
:1039E00040F8043B51F8043B40F8043B51F8043BD9
:1039F00040F8043B403ABDD2303211D351F8043B79
:103A000040F8043B51F8043B40F8043B51F8043BB8
:103A100040F8043B51F8043B40F8043B103AEDD227
:103A20000C3205D351F8043B40F8043B043AF9D278
:103A3000043208D0D2071CBF11F8013B00F8013B4B
:103A400001D30B8803806046704700BF082A13D358
:103A50008B078DD010F003038AD0C3F10403D21A70
:103A6000DB071CBF11F8013B00F8013B80D331F8A4
:103A7000023B20F8023B7BE7043AD9D3013A11F824
:103A8000013B00F8013BF9D20B7803704B7843708F
:103A90008B7883706046704770B4840746D0541E9C
:103AA000002A41D0CDB2034602E0621EE4B31446C0
:103AB00003F8015B9A07F8D1032C2ED9CDB245EA61
:103AC00005250F2C45EA054519D903F110022646B4
:103AD000103E0F2E42F8105C42F80C5C42F8085C75
:103AE00042F8045C02F11002F2D8A4F1100222F0B4
:103AF0000F0204F00F041032032C13440DD91E469C
:103B00002246043A032A46F8045BFAD8221F22F020
:103B100003020432134404F003042CB1C9B21C4460
:103B200003F8011BA342FBD170BC70471446034647
:103B3000C2E700BF7461736B31000000546D7220E6
:103B400053766300546D72510000000049444C45A7
:013B50000074
:103B51000000000001020304010203040607080932
:083B6100AAAAAAAAF82B010090
:0400000508000000EF
:00000001FF
